{
  "_format": "hh-sol-artifact-1",
  "contractName": "AhoyRental",
  "sourceName": "src/backend/contracts/AhoyRental.sol",
  "abi": [
    {
      "inputs": [],
      "stateMutability": "nonpayable",
      "type": "constructor"
    },
    {
      "anonymous": false,
      "inputs": [
        {
          "indexed": true,
          "internalType": "address",
          "name": "owner",
          "type": "address"
        },
        {
          "indexed": true,
          "internalType": "address",
          "name": "approved",
          "type": "address"
        },
        {
          "indexed": true,
          "internalType": "uint256",
          "name": "tokenId",
          "type": "uint256"
        }
      ],
      "name": "Approval",
      "type": "event"
    },
    {
      "anonymous": false,
      "inputs": [
        {
          "indexed": true,
          "internalType": "address",
          "name": "owner",
          "type": "address"
        },
        {
          "indexed": true,
          "internalType": "address",
          "name": "operator",
          "type": "address"
        },
        {
          "indexed": false,
          "internalType": "bool",
          "name": "approved",
          "type": "bool"
        }
      ],
      "name": "ApprovalForAll",
      "type": "event"
    },
    {
      "anonymous": false,
      "inputs": [
        {
          "indexed": true,
          "internalType": "uint256",
          "name": "rentalId",
          "type": "uint256"
        },
        {
          "indexed": false,
          "internalType": "address",
          "name": "renter",
          "type": "address"
        }
      ],
      "name": "RefundRequested",
      "type": "event"
    },
    {
      "anonymous": false,
      "inputs": [
        {
          "indexed": true,
          "internalType": "uint256",
          "name": "rentalId",
          "type": "uint256"
        },
        {
          "indexed": false,
          "internalType": "address",
          "name": "renter",
          "type": "address"
        }
      ],
      "name": "RentalCheckedIn",
      "type": "event"
    },
    {
      "anonymous": false,
      "inputs": [
        {
          "indexed": true,
          "internalType": "uint256",
          "name": "rentalId",
          "type": "uint256"
        },
        {
          "indexed": false,
          "internalType": "address",
          "name": "boatOwner",
          "type": "address"
        }
      ],
      "name": "RentalCheckedOut",
      "type": "event"
    },
    {
      "anonymous": false,
      "inputs": [
        {
          "indexed": true,
          "internalType": "uint256",
          "name": "rentalId",
          "type": "uint256"
        },
        {
          "indexed": false,
          "internalType": "address",
          "name": "boatOwner",
          "type": "address"
        }
      ],
      "name": "RentalInspection",
      "type": "event"
    },
    {
      "anonymous": false,
      "inputs": [
        {
          "indexed": true,
          "internalType": "uint256",
          "name": "rentalId",
          "type": "uint256"
        },
        {
          "indexed": false,
          "internalType": "uint256",
          "name": "boatId",
          "type": "uint256"
        },
        {
          "indexed": false,
          "internalType": "address payable",
          "name": "boatOwner",
          "type": "address"
        },
        {
          "indexed": false,
          "internalType": "address payable",
          "name": "renter",
          "type": "address"
        },
        {
          "indexed": false,
          "internalType": "bool",
          "name": "checkedIn",
          "type": "bool"
        },
        {
          "indexed": false,
          "internalType": "bool",
          "name": "checkedOut",
          "type": "bool"
        },
        {
          "indexed": false,
          "internalType": "uint256",
          "name": "rentalFee",
          "type": "uint256"
        },
        {
          "indexed": false,
          "internalType": "uint256",
          "name": "deposit",
          "type": "uint256"
        },
        {
          "indexed": false,
          "internalType": "bool",
          "name": "refundGranted",
          "type": "bool"
        },
        {
          "indexed": false,
          "internalType": "uint256",
          "name": "lateCheckOutHours",
          "type": "uint256"
        },
        {
          "indexed": false,
          "internalType": "bool",
          "name": "inspection",
          "type": "bool"
        },
        {
          "indexed": false,
          "internalType": "uint256",
          "name": "totalValue",
          "type": "uint256"
        }
      ],
      "name": "RentalListedSuccess",
      "type": "event"
    },
    {
      "anonymous": false,
      "inputs": [
        {
          "indexed": true,
          "internalType": "address",
          "name": "from",
          "type": "address"
        },
        {
          "indexed": true,
          "internalType": "address",
          "name": "to",
          "type": "address"
        },
        {
          "indexed": true,
          "internalType": "uint256",
          "name": "tokenId",
          "type": "uint256"
        }
      ],
      "name": "Transfer",
      "type": "event"
    },
    {
      "inputs": [
        {
          "internalType": "address",
          "name": "to",
          "type": "address"
        },
        {
          "internalType": "uint256",
          "name": "tokenId",
          "type": "uint256"
        }
      ],
      "name": "approve",
      "outputs": [],
      "stateMutability": "nonpayable",
      "type": "function"
    },
    {
      "inputs": [
        {
          "internalType": "address",
          "name": "owner",
          "type": "address"
        }
      ],
      "name": "balanceOf",
      "outputs": [
        {
          "internalType": "uint256",
          "name": "",
          "type": "uint256"
        }
      ],
      "stateMutability": "view",
      "type": "function"
    },
    {
      "inputs": [
        {
          "internalType": "uint256",
          "name": "rentalId",
          "type": "uint256"
        }
      ],
      "name": "burn",
      "outputs": [],
      "stateMutability": "nonpayable",
      "type": "function"
    },
    {
      "inputs": [
        {
          "internalType": "uint256",
          "name": "rentalId",
          "type": "uint256"
        },
        {
          "internalType": "uint256",
          "name": "currentTime",
          "type": "uint256"
        },
        {
          "internalType": "uint256",
          "name": "checkInTime",
          "type": "uint256"
        }
      ],
      "name": "checkIn",
      "outputs": [
        {
          "internalType": "bool",
          "name": "",
          "type": "bool"
        }
      ],
      "stateMutability": "nonpayable",
      "type": "function"
    },
    {
      "inputs": [
        {
          "internalType": "uint256",
          "name": "rentalId",
          "type": "uint256"
        },
        {
          "internalType": "bool",
          "name": "inspectionStatus",
          "type": "bool"
        }
      ],
      "name": "checkInspection",
      "outputs": [
        {
          "internalType": "bool",
          "name": "",
          "type": "bool"
        }
      ],
      "stateMutability": "nonpayable",
      "type": "function"
    },
    {
      "inputs": [
        {
          "internalType": "uint256",
          "name": "rentalId",
          "type": "uint256"
        },
        {
          "internalType": "uint256",
          "name": "lateTime",
          "type": "uint256"
        }
      ],
      "name": "checkOut",
      "outputs": [
        {
          "internalType": "bool",
          "name": "",
          "type": "bool"
        }
      ],
      "stateMutability": "nonpayable",
      "type": "function"
    },
    {
      "inputs": [
        {
          "internalType": "uint256",
          "name": "rentalId",
          "type": "uint256"
        },
        {
          "internalType": "uint256",
          "name": "renterTotal",
          "type": "uint256"
        },
        {
          "internalType": "uint256",
          "name": "boatOwnerTotal",
          "type": "uint256"
        }
      ],
      "name": "disputes",
      "outputs": [],
      "stateMutability": "payable",
      "type": "function"
    },
    {
      "inputs": [
        {
          "internalType": "uint256",
          "name": "tokenId",
          "type": "uint256"
        }
      ],
      "name": "getApproved",
      "outputs": [
        {
          "internalType": "address",
          "name": "",
          "type": "address"
        }
      ],
      "stateMutability": "view",
      "type": "function"
    },
    {
      "inputs": [
        {
          "internalType": "uint256",
          "name": "rentalId",
          "type": "uint256"
        }
      ],
      "name": "getInspectionStatus",
      "outputs": [
        {
          "internalType": "bool",
          "name": "",
          "type": "bool"
        }
      ],
      "stateMutability": "view",
      "type": "function"
    },
    {
      "inputs": [
        {
          "internalType": "uint256",
          "name": "rentalId",
          "type": "uint256"
        }
      ],
      "name": "getListedRentalForId",
      "outputs": [
        {
          "components": [
            {
              "internalType": "uint256",
              "name": "rentalId",
              "type": "uint256"
            },
            {
              "internalType": "uint256",
              "name": "boatId",
              "type": "uint256"
            },
            {
              "internalType": "address payable",
              "name": "boatOwner",
              "type": "address"
            },
            {
              "internalType": "address payable",
              "name": "renter",
              "type": "address"
            },
            {
              "internalType": "bool",
              "name": "checkedIn",
              "type": "bool"
            },
            {
              "internalType": "bool",
              "name": "checkedOut",
              "type": "bool"
            },
            {
              "internalType": "uint256",
              "name": "rentalFee",
              "type": "uint256"
            },
            {
              "internalType": "uint256",
              "name": "deposit",
              "type": "uint256"
            },
            {
              "internalType": "bool",
              "name": "refundGranted",
              "type": "bool"
            },
            {
              "internalType": "uint256",
              "name": "lateCheckOutHours",
              "type": "uint256"
            },
            {
              "internalType": "bool",
              "name": "inspection",
              "type": "bool"
            },
            {
              "internalType": "uint256",
              "name": "totalValue",
              "type": "uint256"
            }
          ],
          "internalType": "struct AhoyRental.Rental",
          "name": "",
          "type": "tuple"
        }
      ],
      "stateMutability": "view",
      "type": "function"
    },
    {
      "inputs": [],
      "name": "getMyRentals",
      "outputs": [
        {
          "components": [
            {
              "internalType": "uint256",
              "name": "rentalId",
              "type": "uint256"
            },
            {
              "internalType": "uint256",
              "name": "boatId",
              "type": "uint256"
            },
            {
              "internalType": "address payable",
              "name": "boatOwner",
              "type": "address"
            },
            {
              "internalType": "address payable",
              "name": "renter",
              "type": "address"
            },
            {
              "internalType": "bool",
              "name": "checkedIn",
              "type": "bool"
            },
            {
              "internalType": "bool",
              "name": "checkedOut",
              "type": "bool"
            },
            {
              "internalType": "uint256",
              "name": "rentalFee",
              "type": "uint256"
            },
            {
              "internalType": "uint256",
              "name": "deposit",
              "type": "uint256"
            },
            {
              "internalType": "bool",
              "name": "refundGranted",
              "type": "bool"
            },
            {
              "internalType": "uint256",
              "name": "lateCheckOutHours",
              "type": "uint256"
            },
            {
              "internalType": "bool",
              "name": "inspection",
              "type": "bool"
            },
            {
              "internalType": "uint256",
              "name": "totalValue",
              "type": "uint256"
            }
          ],
          "internalType": "struct AhoyRental.Rental[]",
          "name": "",
          "type": "tuple[]"
        }
      ],
      "stateMutability": "view",
      "type": "function"
    },
    {
      "inputs": [],
      "name": "getOwner",
      "outputs": [
        {
          "internalType": "address",
          "name": "",
          "type": "address"
        }
      ],
      "stateMutability": "view",
      "type": "function"
    },
    {
      "inputs": [
        {
          "internalType": "uint256",
          "name": "rentalId",
          "type": "uint256"
        }
      ],
      "name": "getRefundStatus",
      "outputs": [
        {
          "internalType": "bool",
          "name": "",
          "type": "bool"
        }
      ],
      "stateMutability": "view",
      "type": "function"
    },
    {
      "inputs": [
        {
          "internalType": "address",
          "name": "owner",
          "type": "address"
        },
        {
          "internalType": "address",
          "name": "operator",
          "type": "address"
        }
      ],
      "name": "isApprovedForAll",
      "outputs": [
        {
          "internalType": "bool",
          "name": "",
          "type": "bool"
        }
      ],
      "stateMutability": "view",
      "type": "function"
    },
    {
      "inputs": [
        {
          "internalType": "string",
          "name": "rentalURI",
          "type": "string"
        },
        {
          "internalType": "uint256",
          "name": "boatId",
          "type": "uint256"
        },
        {
          "internalType": "address payable",
          "name": "boatOwner",
          "type": "address"
        },
        {
          "internalType": "uint256",
          "name": "rentalFee",
          "type": "uint256"
        },
        {
          "internalType": "uint256",
          "name": "deposit",
          "type": "uint256"
        }
      ],
      "name": "mint",
      "outputs": [
        {
          "internalType": "uint256",
          "name": "",
          "type": "uint256"
        }
      ],
      "stateMutability": "payable",
      "type": "function"
    },
    {
      "inputs": [],
      "name": "name",
      "outputs": [
        {
          "internalType": "string",
          "name": "",
          "type": "string"
        }
      ],
      "stateMutability": "view",
      "type": "function"
    },
    {
      "inputs": [
        {
          "internalType": "uint256",
          "name": "tokenId",
          "type": "uint256"
        }
      ],
      "name": "ownerOf",
      "outputs": [
        {
          "internalType": "address",
          "name": "",
          "type": "address"
        }
      ],
      "stateMutability": "view",
      "type": "function"
    },
    {
      "inputs": [
        {
          "internalType": "uint256",
          "name": "",
          "type": "uint256"
        }
      ],
      "name": "rentals",
      "outputs": [
        {
          "internalType": "uint256",
          "name": "rentalId",
          "type": "uint256"
        },
        {
          "internalType": "uint256",
          "name": "boatId",
          "type": "uint256"
        },
        {
          "internalType": "address payable",
          "name": "boatOwner",
          "type": "address"
        },
        {
          "internalType": "address payable",
          "name": "renter",
          "type": "address"
        },
        {
          "internalType": "bool",
          "name": "checkedIn",
          "type": "bool"
        },
        {
          "internalType": "bool",
          "name": "checkedOut",
          "type": "bool"
        },
        {
          "internalType": "uint256",
          "name": "rentalFee",
          "type": "uint256"
        },
        {
          "internalType": "uint256",
          "name": "deposit",
          "type": "uint256"
        },
        {
          "internalType": "bool",
          "name": "refundGranted",
          "type": "bool"
        },
        {
          "internalType": "uint256",
          "name": "lateCheckOutHours",
          "type": "uint256"
        },
        {
          "internalType": "bool",
          "name": "inspection",
          "type": "bool"
        },
        {
          "internalType": "uint256",
          "name": "totalValue",
          "type": "uint256"
        }
      ],
      "stateMutability": "view",
      "type": "function"
    },
    {
      "inputs": [
        {
          "internalType": "uint256",
          "name": "rentalId",
          "type": "uint256"
        }
      ],
      "name": "requestRefund",
      "outputs": [
        {
          "internalType": "bool",
          "name": "",
          "type": "bool"
        }
      ],
      "stateMutability": "nonpayable",
      "type": "function"
    },
    {
      "inputs": [
        {
          "internalType": "address",
          "name": "from",
          "type": "address"
        },
        {
          "internalType": "address",
          "name": "to",
          "type": "address"
        },
        {
          "internalType": "uint256",
          "name": "tokenId",
          "type": "uint256"
        }
      ],
      "name": "safeTransferFrom",
      "outputs": [],
      "stateMutability": "nonpayable",
      "type": "function"
    },
    {
      "inputs": [
        {
          "internalType": "address",
          "name": "from",
          "type": "address"
        },
        {
          "internalType": "address",
          "name": "to",
          "type": "address"
        },
        {
          "internalType": "uint256",
          "name": "tokenId",
          "type": "uint256"
        },
        {
          "internalType": "bytes",
          "name": "_data",
          "type": "bytes"
        }
      ],
      "name": "safeTransferFrom",
      "outputs": [],
      "stateMutability": "nonpayable",
      "type": "function"
    },
    {
      "inputs": [
        {
          "internalType": "address",
          "name": "operator",
          "type": "address"
        },
        {
          "internalType": "bool",
          "name": "approved",
          "type": "bool"
        }
      ],
      "name": "setApprovalForAll",
      "outputs": [],
      "stateMutability": "nonpayable",
      "type": "function"
    },
    {
      "inputs": [
        {
          "internalType": "bytes4",
          "name": "interfaceId",
          "type": "bytes4"
        }
      ],
      "name": "supportsInterface",
      "outputs": [
        {
          "internalType": "bool",
          "name": "",
          "type": "bool"
        }
      ],
      "stateMutability": "view",
      "type": "function"
    },
    {
      "inputs": [],
      "name": "symbol",
      "outputs": [
        {
          "internalType": "string",
          "name": "",
          "type": "string"
        }
      ],
      "stateMutability": "view",
      "type": "function"
    },
    {
      "inputs": [
        {
          "internalType": "uint256",
          "name": "tokenId",
          "type": "uint256"
        }
      ],
      "name": "tokenURI",
      "outputs": [
        {
          "internalType": "string",
          "name": "",
          "type": "string"
        }
      ],
      "stateMutability": "view",
      "type": "function"
    },
    {
      "inputs": [
        {
          "internalType": "address",
          "name": "from",
          "type": "address"
        },
        {
          "internalType": "address",
          "name": "to",
          "type": "address"
        },
        {
          "internalType": "uint256",
          "name": "tokenId",
          "type": "uint256"
        }
      ],
      "name": "transferFrom",
      "outputs": [],
      "stateMutability": "nonpayable",
      "type": "function"
    }
  ],
  "bytecode": "0x60806040523480156200001157600080fd5b506040518060400160405280600a81526020017f52656e74616c204e4654000000000000000000000000000000000000000000008152506040518060400160405280600681526020017f52454e54414c0000000000000000000000000000000000000000000000000000815250816000908051906020019062000096929190620000f9565b508060019080519060200190620000af929190620000f9565b50505033600860006101000a81548173ffffffffffffffffffffffffffffffffffffffff021916908373ffffffffffffffffffffffffffffffffffffffff1602179055506200020e565b8280546200010790620001a9565b90600052602060002090601f0160209004810192826200012b576000855562000177565b82601f106200014657805160ff191683800117855562000177565b8280016001018555821562000177579182015b828111156200017657825182559160200191906001019062000159565b5b5090506200018691906200018a565b5090565b5b80821115620001a55760008160009055506001016200018b565b5090565b60006002820490506001821680620001c257607f821691505b60208210811415620001d957620001d8620001df565b5b50919050565b7f4e487b7100000000000000000000000000000000000000000000000000000000600052602260045260246000fd5b615f98806200021e6000396000f3fe6080604052600436106101815760003560e01c806370a08231116100d1578063af94a1d11161008a578063cf248bb911610064578063cf248bb914610602578063e985e9c51461061e578063f41370981461065b578063f4809ed01461069857610181565b8063af94a1d114610554578063b88d4fde1461059c578063c87b56dd146105c557610181565b806370a082311461041e5780638613c3f81461045b578063893d20e81461049857806395d89b41146104c3578063a22cb465146104ee578063a4b2409e1461051757610181565b806323b872dd1161013e5780634328fde8116101185780634328fde814610337578063621ea854146103675780636240fe34146103a45780636352211e146103e157610181565b806323b872dd146102bc57806342842e0e146102e557806342966c681461030e57610181565b806301ffc9a71461018657806306fdde03146101c3578063081812fc146101ee578063095ea7b31461022b578063106b487114610254578063224f3c8f14610291575b600080fd5b34801561019257600080fd5b506101ad60048036038101906101a89190613f66565b6106d5565b6040516101ba9190614a94565b60405180910390f35b3480156101cf57600080fd5b506101d86107b7565b6040516101e59190614aaf565b60405180910390f35b3480156101fa57600080fd5b5061021560048036038101906102109190614047565b610849565b6040516102229190614a0b565b60405180910390f35b34801561023757600080fd5b50610252600480360381019061024d9190613f2a565b6108ce565b005b34801561026057600080fd5b5061027b60048036038101906102769190614047565b6109e6565b6040516102889190614a94565b60405180910390f35b34801561029d57600080fd5b506102a6610a5b565b6040516102b39190614a72565b60405180910390f35b3480156102c857600080fd5b506102e360048036038101906102de9190613e24565b610eba565b005b3480156102f157600080fd5b5061030c60048036038101906103079190613e24565b610f1a565b005b34801561031a57600080fd5b5061033560048036038101906103309190614047565b610f3a565b005b610351600480360381019061034c9190613fb8565b6111c9565b60405161035e9190614fad565b60405180910390f35b34801561037357600080fd5b5061038e600480360381019061038991906140e8565b6112a1565b60405161039b9190614a94565b60405180910390f35b3480156103b057600080fd5b506103cb60048036038101906103c69190614070565b611502565b6040516103d89190614a94565b60405180910390f35b3480156103ed57600080fd5b5061040860048036038101906104039190614047565b6116c3565b6040516104159190614a0b565b60405180910390f35b34801561042a57600080fd5b5061044560048036038101906104409190613dbf565b611775565b6040516104529190614fad565b60405180910390f35b34801561046757600080fd5b50610482600480360381019061047d91906140ac565b61182d565b60405161048f9190614a94565b60405180910390f35b3480156104a457600080fd5b506104ad611a0b565b6040516104ba9190614a0b565b60405180910390f35b3480156104cf57600080fd5b506104d8611a35565b6040516104e59190614aaf565b60405180910390f35b3480156104fa57600080fd5b5061051560048036038101906105109190613eee565b611ac7565b005b34801561052357600080fd5b5061053e60048036038101906105399190614047565b611add565b60405161054b9190614a94565b60405180910390f35b34801561056057600080fd5b5061057b60048036038101906105769190614047565b611d9d565b6040516105939c9b9a99989796959493929190615073565b60405180910390f35b3480156105a857600080fd5b506105c360048036038101906105be9190613e73565b611e71565b005b3480156105d157600080fd5b506105ec60048036038101906105e79190614047565b611ed3565b6040516105f99190614aaf565b60405180910390f35b61061c600480360381019061061791906140e8565b611ee5565b005b34801561062a57600080fd5b5061064560048036038101906106409190613de8565b612299565b6040516106529190614a94565b60405180910390f35b34801561066757600080fd5b50610682600480360381019061067d9190614047565b61232d565b60405161068f9190614f91565b60405180910390f35b3480156106a457600080fd5b506106bf60048036038101906106ba9190614047565b6124af565b6040516106cc9190614a94565b60405180910390f35b60007f80ac58cd000000000000000000000000000000000000000000000000000000007bffffffffffffffffffffffffffffffffffffffffffffffffffffffff1916827bffffffffffffffffffffffffffffffffffffffffffffffffffffffff191614806107a057507f5b5e139f000000000000000000000000000000000000000000000000000000007bffffffffffffffffffffffffffffffffffffffffffffffffffffffff1916827bffffffffffffffffffffffffffffffffffffffffffffffffffffffff1916145b806107b057506107af82612524565b5b9050919050565b6060600080546107c6906153c5565b80601f01602080910402602001604051908101604052809291908181526020018280546107f2906153c5565b801561083f5780601f106108145761010080835404028352916020019161083f565b820191906000526020600020905b81548152906001019060200180831161082257829003601f168201915b5050505050905090565b60006108548261258e565b610893576040517f08c379a000000000000000000000000000000000000000000000000000000000815260040161088a90614d71565b60405180910390fd5b6004600083815260200190815260200160002060009054906101000a900473ffffffffffffffffffffffffffffffffffffffff169050919050565b60006108d9826116c3565b90508073ffffffffffffffffffffffffffffffffffffffff168373ffffffffffffffffffffffffffffffffffffffff16141561094a576040517f08c379a000000000000000000000000000000000000000000000000000000000815260040161094190614e51565b60405180910390fd5b8073ffffffffffffffffffffffffffffffffffffffff166109696125fa565b73ffffffffffffffffffffffffffffffffffffffff1614806109985750610997816109926125fa565b612299565b5b6109d7576040517f08c379a00000000000000000000000000000000000000000000000000000000081526004016109ce90614c91565b60405180910390fd5b6109e18383612602565b505050565b60006109f18261258e565b610a30576040517f08c379a0000000000000000000000000000000000000000000000000000000008152600401610a2790614d11565b60405180910390fd5b6009600083815260200190815260200160002060060160009054906101000a900460ff169050919050565b60606000610a6960076126bb565b9050600080600190505b828111610b72573373ffffffffffffffffffffffffffffffffffffffff166009600083815260200190815260200160002060020160009054906101000a900473ffffffffffffffffffffffffffffffffffffffff1673ffffffffffffffffffffffffffffffffffffffff161480610b4b57503373ffffffffffffffffffffffffffffffffffffffff166009600083815260200190815260200160002060030160009054906101000a900473ffffffffffffffffffffffffffffffffffffffff1673ffffffffffffffffffffffffffffffffffffffff16145b15610b5f578180610b5b90615428565b9250505b8080610b6a90615428565b915050610a73565b5060008167ffffffffffffffff811115610bb5577f4e487b7100000000000000000000000000000000000000000000000000000000600052604160045260246000fd5b604051908082528060200260200182016040528015610bee57816020015b610bdb613af9565b815260200190600190039081610bd35790505b509050600080600190505b848111610eaf573373ffffffffffffffffffffffffffffffffffffffff166009600083815260200190815260200160002060020160009054906101000a900473ffffffffffffffffffffffffffffffffffffffff1673ffffffffffffffffffffffffffffffffffffffff161480610cd157503373ffffffffffffffffffffffffffffffffffffffff166009600083815260200190815260200160002060030160009054906101000a900473ffffffffffffffffffffffffffffffffffffffff1673ffffffffffffffffffffffffffffffffffffffff16145b15610e9c57600960008281526020019081526020016000206040518061018001604052908160008201548152602001600182015481526020016002820160009054906101000a900473ffffffffffffffffffffffffffffffffffffffff1673ffffffffffffffffffffffffffffffffffffffff1673ffffffffffffffffffffffffffffffffffffffff1681526020016003820160009054906101000a900473ffffffffffffffffffffffffffffffffffffffff1673ffffffffffffffffffffffffffffffffffffffff1673ffffffffffffffffffffffffffffffffffffffff1681526020016003820160149054906101000a900460ff161515151581526020016003820160159054906101000a900460ff1615151515815260200160048201548152602001600582015481526020016006820160009054906101000a900460ff16151515158152602001600782015481526020016008820160009054906101000a900460ff16151515158152602001600982015481525050838381518110610e82577f4e487b7100000000000000000000000000000000000000000000000000000000600052603260045260246000fd5b60200260200101819052508180610e9890615428565b9250505b8080610ea790615428565b915050610bf9565b508194505050505090565b610ecb610ec56125fa565b826126c9565b610f0a576040517f08c379a0000000000000000000000000000000000000000000000000000000008152600401610f0190614ef1565b60405180910390fd5b610f158383836127a7565b505050565b610f3583838360405180602001604052806000815250611e71565b505050565b806009600082815260200190815260200160002060020160009054906101000a900473ffffffffffffffffffffffffffffffffffffffff1673ffffffffffffffffffffffffffffffffffffffff163373ffffffffffffffffffffffffffffffffffffffff161480610ff85750600860009054906101000a900473ffffffffffffffffffffffffffffffffffffffff1673ffffffffffffffffffffffffffffffffffffffff163373ffffffffffffffffffffffffffffffffffffffff16145b611037576040517f08c379a000000000000000000000000000000000000000000000000000000000815260040161102e90614df1565b60405180910390fd5b6110408261258e565b61107f576040517f08c379a000000000000000000000000000000000000000000000000000000000815260040161107690614d11565b60405180910390fd5b60006009600084815260200190815260200160002060090154146110d8576040517f08c379a00000000000000000000000000000000000000000000000000000000081526004016110cf90614ad1565b60405180910390fd5b6110e182612a0e565b6009600083815260200190815260200160002060008082016000905560018201600090556002820160006101000a81549073ffffffffffffffffffffffffffffffffffffffff02191690556003820160006101000a81549073ffffffffffffffffffffffffffffffffffffffff02191690556003820160146101000a81549060ff02191690556003820160156101000a81549060ff0219169055600482016000905560058201600090556006820160006101000a81549060ff021916905560078201600090556008820160006101000a81549060ff0219169055600982016000905550505050565b600080831161120d576040517f08c379a000000000000000000000000000000000000000000000000000000000815260040161120490614b71565b60405180910390fd5b81836112199190615230565b341461125a576040517f08c379a000000000000000000000000000000000000000000000000000000000815260040161125190614c51565b60405180910390fd5b6112646007612a1a565b600061127060076126bb565b905061127c3382612a30565b6112868188612a4e565b611294818787878734612ac2565b8091505095945050505050565b6000836009600082815260200190815260200160002060030160009054906101000a900473ffffffffffffffffffffffffffffffffffffffff1673ffffffffffffffffffffffffffffffffffffffff163373ffffffffffffffffffffffffffffffffffffffff1614806113615750600860009054906101000a900473ffffffffffffffffffffffffffffffffffffffff1673ffffffffffffffffffffffffffffffffffffffff163373ffffffffffffffffffffffffffffffffffffffff16145b6113a0576040517f08c379a000000000000000000000000000000000000000000000000000000000815260040161139790614e91565b60405180910390fd5b6113a98561258e565b6113e8576040517f08c379a00000000000000000000000000000000000000000000000000000000081526004016113df90614d11565b60405180910390fd5b6009600086815260200190815260200160002060030160149054906101000a900460ff161561144c576040517f08c379a000000000000000000000000000000000000000000000000000000000815260040161144390614f11565b60405180910390fd5b8284101561148f576040517f08c379a000000000000000000000000000000000000000000000000000000000815260040161148690614b31565b60405180910390fd5b60016009600087815260200190815260200160002060030160146101000a81548160ff021916908315150217905550847fc00a25d0e0acd109108e9a073662dd09e67c46edcaa6d23ac18d7c021b9cdf55336040516114ee9190614a0b565b60405180910390a260019150509392505050565b6000826009600082815260200190815260200160002060020160009054906101000a900473ffffffffffffffffffffffffffffffffffffffff1673ffffffffffffffffffffffffffffffffffffffff163373ffffffffffffffffffffffffffffffffffffffff1614806115c25750600860009054906101000a900473ffffffffffffffffffffffffffffffffffffffff1673ffffffffffffffffffffffffffffffffffffffff163373ffffffffffffffffffffffffffffffffffffffff16145b611601576040517f08c379a00000000000000000000000000000000000000000000000000000000081526004016115f890614df1565b60405180910390fd5b61160a8461258e565b611649576040517f08c379a000000000000000000000000000000000000000000000000000000000815260040161164090614d11565b60405180910390fd5b826009600086815260200190815260200160002060080160006101000a81548160ff021916908315150217905550837f030b31cc3ac2b9bfe883db5234e1bf3b9a8a12009233f7ccf8b6258700973e5e336040516116a79190614a0b565b60405180910390a26116b884612d0e565b600191505092915050565b6000806002600084815260200190815260200160002060009054906101000a900473ffffffffffffffffffffffffffffffffffffffff169050600073ffffffffffffffffffffffffffffffffffffffff168173ffffffffffffffffffffffffffffffffffffffff16141561176c576040517f08c379a000000000000000000000000000000000000000000000000000000000815260040161176390614cd1565b60405180910390fd5b80915050919050565b60008073ffffffffffffffffffffffffffffffffffffffff168273ffffffffffffffffffffffffffffffffffffffff1614156117e6576040517f08c379a00000000000000000000000000000000000000000000000000000000081526004016117dd90614cb1565b60405180910390fd5b600360008373ffffffffffffffffffffffffffffffffffffffff1673ffffffffffffffffffffffffffffffffffffffff168152602001908152602001600020549050919050565b60006118388361258e565b611877576040517f08c379a000000000000000000000000000000000000000000000000000000000815260040161186e90614d11565b60405180910390fd5b6009600084815260200190815260200160002060020160009054906101000a900473ffffffffffffffffffffffffffffffffffffffff1673ffffffffffffffffffffffffffffffffffffffff163373ffffffffffffffffffffffffffffffffffffffff161461191b576040517f08c379a000000000000000000000000000000000000000000000000000000000815260040161191290614eb1565b60405180910390fd5b6009600084815260200190815260200160002060030160159054906101000a900460ff161561197f576040517f08c379a000000000000000000000000000000000000000000000000000000000815260040161197690614f51565b60405180910390fd5b60016009600085815260200190815260200160002060030160156101000a81548160ff021916908315150217905550816009600085815260200190815260200160002060070181905550827fdcd509647eb01fb1549b8c9e4cbac26fc33951fec42c83a3de14b3a253351ad0336040516119f99190614a0b565b60405180910390a26001905092915050565b6000600860009054906101000a900473ffffffffffffffffffffffffffffffffffffffff16905090565b606060018054611a44906153c5565b80601f0160208091040260200160405190810160405280929190818152602001828054611a70906153c5565b8015611abd5780601f10611a9257610100808354040283529160200191611abd565b820191906000526020600020905b815481529060010190602001808311611aa057829003601f168201915b5050505050905090565b611ad9611ad26125fa565b838361300a565b5050565b6000816009600082815260200190815260200160002060030160009054906101000a900473ffffffffffffffffffffffffffffffffffffffff1673ffffffffffffffffffffffffffffffffffffffff163373ffffffffffffffffffffffffffffffffffffffff161480611b9d5750600860009054906101000a900473ffffffffffffffffffffffffffffffffffffffff1673ffffffffffffffffffffffffffffffffffffffff163373ffffffffffffffffffffffffffffffffffffffff16145b611bdc576040517f08c379a0000000000000000000000000000000000000000000000000000000008152600401611bd390614e91565b60405180910390fd5b611be58361258e565b611c24576040517f08c379a0000000000000000000000000000000000000000000000000000000008152600401611c1b90614d11565b60405180910390fd5b6009600084815260200190815260200160002060030160009054906101000a900473ffffffffffffffffffffffffffffffffffffffff1673ffffffffffffffffffffffffffffffffffffffff163373ffffffffffffffffffffffffffffffffffffffff1614611cc8576040517f08c379a0000000000000000000000000000000000000000000000000000000008152600401611cbf90614dd1565b60405180910390fd5b6009600084815260200190815260200160002060030160149054906101000a900460ff1615611d2c576040517f08c379a0000000000000000000000000000000000000000000000000000000008152600401611d2390614ed1565b60405180910390fd5b60016009600085815260200190815260200160002060060160006101000a81548160ff021916908315150217905550827fd8420f97dab0b820e066ebfad617848c1eab2d260922358cc1d5cdcdc568d57233604051611d8b9190614a0b565b60405180910390a26001915050919050565b60096020528060005260406000206000915090508060000154908060010154908060020160009054906101000a900473ffffffffffffffffffffffffffffffffffffffff16908060030160009054906101000a900473ffffffffffffffffffffffffffffffffffffffff16908060030160149054906101000a900460ff16908060030160159054906101000a900460ff16908060040154908060050154908060060160009054906101000a900460ff16908060070154908060080160009054906101000a900460ff1690806009015490508c565b611e82611e7c6125fa565b836126c9565b611ec1576040517f08c379a0000000000000000000000000000000000000000000000000000000008152600401611eb890614ef1565b60405180910390fd5b611ecd84848484613177565b50505050565b6060611ede826131d3565b9050919050565b611eee8361258e565b611f2d576040517f08c379a0000000000000000000000000000000000000000000000000000000008152600401611f2490614d11565b60405180910390fd5b600860009054906101000a900473ffffffffffffffffffffffffffffffffffffffff1673ffffffffffffffffffffffffffffffffffffffff163373ffffffffffffffffffffffffffffffffffffffff1614611fbd576040517f08c379a0000000000000000000000000000000000000000000000000000000008152600401611fb490614bf1565b60405180910390fd5b8082611fc99190615230565b600960008581526020019081526020016000206009015414612020576040517f08c379a000000000000000000000000000000000000000000000000000000000815260040161201790614e11565b60405180910390fd5b600082111561215a576009600084815260200190815260200160002060090154821115612082576040517f08c379a000000000000000000000000000000000000000000000000000000000815260040161207990614f31565b60405180910390fd5b6009600084815260200190815260200160002060030160009054906101000a900473ffffffffffffffffffffffffffffffffffffffff1673ffffffffffffffffffffffffffffffffffffffff166108fc839081150290604051600060405180830381858888f1935050505061212c576040517f08c379a000000000000000000000000000000000000000000000000000000000815260040161212390614b11565b60405180910390fd5b8160096000858152602001908152602001600020600901600082825461215291906152b7565b925050819055505b60008111156122945760096000848152602001908152602001600020600901548111156121bc576040517f08c379a00000000000000000000000000000000000000000000000000000000081526004016121b390614e71565b60405180910390fd5b6009600084815260200190815260200160002060020160009054906101000a900473ffffffffffffffffffffffffffffffffffffffff1673ffffffffffffffffffffffffffffffffffffffff166108fc829081150290604051600060405180830381858888f19350505050612266576040517f08c379a000000000000000000000000000000000000000000000000000000000815260040161225d90614af1565b60405180910390fd5b8060096000858152602001908152602001600020600901600082825461228c91906152b7565b925050819055505b505050565b6000600560008473ffffffffffffffffffffffffffffffffffffffff1673ffffffffffffffffffffffffffffffffffffffff16815260200190815260200160002060008373ffffffffffffffffffffffffffffffffffffffff1673ffffffffffffffffffffffffffffffffffffffff16815260200190815260200160002060009054906101000a900460ff16905092915050565b612335613af9565b600960008381526020019081526020016000206040518061018001604052908160008201548152602001600182015481526020016002820160009054906101000a900473ffffffffffffffffffffffffffffffffffffffff1673ffffffffffffffffffffffffffffffffffffffff1673ffffffffffffffffffffffffffffffffffffffff1681526020016003820160009054906101000a900473ffffffffffffffffffffffffffffffffffffffff1673ffffffffffffffffffffffffffffffffffffffff1673ffffffffffffffffffffffffffffffffffffffff1681526020016003820160149054906101000a900460ff161515151581526020016003820160159054906101000a900460ff1615151515815260200160048201548152602001600582015481526020016006820160009054906101000a900460ff16151515158152602001600782015481526020016008820160009054906101000a900460ff161515151581526020016009820154815250509050919050565b60006124ba8261258e565b6124f9576040517f08c379a00000000000000000000000000000000000000000000000000000000081526004016124f090614d11565b60405180910390fd5b6009600083815260200190815260200160002060080160009054906101000a900460ff169050919050565b60007f01ffc9a7000000000000000000000000000000000000000000000000000000007bffffffffffffffffffffffffffffffffffffffffffffffffffffffff1916827bffffffffffffffffffffffffffffffffffffffffffffffffffffffff1916149050919050565b60008073ffffffffffffffffffffffffffffffffffffffff166002600084815260200190815260200160002060009054906101000a900473ffffffffffffffffffffffffffffffffffffffff1673ffffffffffffffffffffffffffffffffffffffff1614159050919050565b600033905090565b816004600083815260200190815260200160002060006101000a81548173ffffffffffffffffffffffffffffffffffffffff021916908373ffffffffffffffffffffffffffffffffffffffff160217905550808273ffffffffffffffffffffffffffffffffffffffff16612675836116c3565b73ffffffffffffffffffffffffffffffffffffffff167f8c5be1e5ebec7d5bd14f71427d1e84f3dd0314c0f7b2291e5b200ac8c7c3b92560405160405180910390a45050565b600081600001549050919050565b60006126d48261258e565b612713576040517f08c379a000000000000000000000000000000000000000000000000000000000815260040161270a90614c71565b60405180910390fd5b600061271e836116c3565b90508073ffffffffffffffffffffffffffffffffffffffff168473ffffffffffffffffffffffffffffffffffffffff16148061278d57508373ffffffffffffffffffffffffffffffffffffffff1661277584610849565b73ffffffffffffffffffffffffffffffffffffffff16145b8061279e575061279d8185612299565b5b91505092915050565b8273ffffffffffffffffffffffffffffffffffffffff166127c7826116c3565b73ffffffffffffffffffffffffffffffffffffffff161461281d576040517f08c379a000000000000000000000000000000000000000000000000000000000815260040161281490614bb1565b60405180910390fd5b600073ffffffffffffffffffffffffffffffffffffffff168273ffffffffffffffffffffffffffffffffffffffff16141561288d576040517f08c379a000000000000000000000000000000000000000000000000000000000815260040161288490614c11565b60405180910390fd5b612898838383613325565b6128a3600082612602565b6001600360008573ffffffffffffffffffffffffffffffffffffffff1673ffffffffffffffffffffffffffffffffffffffff16815260200190815260200160002060008282546128f391906152b7565b925050819055506001600360008473ffffffffffffffffffffffffffffffffffffffff1673ffffffffffffffffffffffffffffffffffffffff168152602001908152602001600020600082825461294a9190615230565b92505081905550816002600083815260200190815260200160002060006101000a81548173ffffffffffffffffffffffffffffffffffffffff021916908373ffffffffffffffffffffffffffffffffffffffff160217905550808273ffffffffffffffffffffffffffffffffffffffff168473ffffffffffffffffffffffffffffffffffffffff167fddf252ad1be2c89b69c2b068fc378daa952ba7f163c4a11628f55a4df523b3ef60405160405180910390a4612a0983838361332a565b505050565b612a178161332f565b50565b6001816000016000828254019250508190555050565b612a4a828260405180602001604052806000815250613382565b5050565b612a578261258e565b612a96576040517f08c379a0000000000000000000000000000000000000000000000000000000008152600401612a8d90614cf1565b60405180910390fd5b80600660008481526020019081526020016000209080519060200190612abd929190613b8e565b505050565b60008190506040518061018001604052808881526020018781526020018673ffffffffffffffffffffffffffffffffffffffff1681526020013373ffffffffffffffffffffffffffffffffffffffff168152602001600015158152602001600015158152602001858152602001848152602001600015158152602001600081526020016000151581526020018281525060096000898152602001908152602001600020600082015181600001556020820151816001015560408201518160020160006101000a81548173ffffffffffffffffffffffffffffffffffffffff021916908373ffffffffffffffffffffffffffffffffffffffff16021790555060608201518160030160006101000a81548173ffffffffffffffffffffffffffffffffffffffff021916908373ffffffffffffffffffffffffffffffffffffffff16021790555060808201518160030160146101000a81548160ff02191690831515021790555060a08201518160030160156101000a81548160ff02191690831515021790555060c0820151816004015560e082015181600501556101008201518160060160006101000a81548160ff02191690831515021790555061012082015181600701556101408201518160080160006101000a81548160ff0219169083151502179055506101608201518160090155905050867f9248dbc16a2f7393ee9e3657fd2eaca55b37dc5c5a45741ff2f716575be15a6f8787336000808a8a60008060008c604051612cfd9b9a99989796959493929190614fc8565b60405180910390a250505050505050565b6009600082815260200190815260200160002060030160159054906101000a900460ff16612d71576040517f08c379a0000000000000000000000000000000000000000000000000000000008152600401612d6890614d91565b60405180910390fd5b6000600960008381526020019081526020016000206005015411612dca576040517f08c379a0000000000000000000000000000000000000000000000000000000008152600401612dc190614f71565b60405180910390fd5b6000600960008381526020019081526020016000206007015414612e23576040517f08c379a0000000000000000000000000000000000000000000000000000000008152600401612e1a90614b51565b60405180910390fd5b600115156009600083815260200190815260200160002060080160009054906101000a900460ff16151514612e8d576040517f08c379a0000000000000000000000000000000000000000000000000000000008152600401612e8490614e31565b60405180910390fd5b6009600082815260200190815260200160002060030160009054906101000a900473ffffffffffffffffffffffffffffffffffffffff1673ffffffffffffffffffffffffffffffffffffffff166108fc60096000848152602001908152602001600020600501549081150290604051600060405180830381858888f19350505050158015612f1f573d6000803e3d6000fd5b50600060096000838152602001908152602001600020600501819055506009600082815260200190815260200160002060020160009054906101000a900473ffffffffffffffffffffffffffffffffffffffff1673ffffffffffffffffffffffffffffffffffffffff166108fc60096000848152602001908152602001600020600401549081150290604051600060405180830381858888f19350505050158015612fce573d6000803e3d6000fd5b50600060096000838152602001908152602001600020600401819055506000600960008381526020019081526020016000206009018190555050565b8173ffffffffffffffffffffffffffffffffffffffff168373ffffffffffffffffffffffffffffffffffffffff161415613079576040517f08c379a000000000000000000000000000000000000000000000000000000000815260040161307090614c31565b60405180910390fd5b80600560008573ffffffffffffffffffffffffffffffffffffffff1673ffffffffffffffffffffffffffffffffffffffff16815260200190815260200160002060008473ffffffffffffffffffffffffffffffffffffffff1673ffffffffffffffffffffffffffffffffffffffff16815260200190815260200160002060006101000a81548160ff0219169083151502179055508173ffffffffffffffffffffffffffffffffffffffff168373ffffffffffffffffffffffffffffffffffffffff167f17307eab39ab6107e8899845ad3d59bd9653f200f220920489ca2b5937696c318360405161316a9190614a94565b60405180910390a3505050565b6131828484846127a7565b61318e848484846133dd565b6131cd576040517f08c379a00000000000000000000000000000000000000000000000000000000081526004016131c490614b91565b60405180910390fd5b50505050565b60606131de8261258e565b61321d576040517f08c379a000000000000000000000000000000000000000000000000000000000815260040161321490614d51565b60405180910390fd5b600060066000848152602001908152602001600020805461323d906153c5565b80601f0160208091040260200160405190810160405280929190818152602001828054613269906153c5565b80156132b65780601f1061328b576101008083540402835291602001916132b6565b820191906000526020600020905b81548152906001019060200180831161329957829003601f168201915b5050505050905060006132c7613574565b90506000815114156132dd578192505050613320565b6000825111156133125780826040516020016132fa9291906149e7565b60405160208183030381529060405292505050613320565b61331b8461358b565b925050505b919050565b505050565b505050565b61333881613632565b6000600660008381526020019081526020016000208054613358906153c5565b90501461337f5760066000828152602001908152602001600020600061337e9190613c14565b5b50565b61338c838361374f565b61339960008484846133dd565b6133d8576040517f08c379a00000000000000000000000000000000000000000000000000000000081526004016133cf90614b91565b60405180910390fd5b505050565b60006133fe8473ffffffffffffffffffffffffffffffffffffffff16613929565b15613567578373ffffffffffffffffffffffffffffffffffffffff1663150b7a026134276125fa565b8786866040518563ffffffff1660e01b81526004016134499493929190614a26565b602060405180830381600087803b15801561346357600080fd5b505af192505050801561349457506040513d601f19601f820116820180604052508101906134919190613f8f565b60015b613517573d80600081146134c4576040519150601f19603f3d011682016040523d82523d6000602084013e6134c9565b606091505b5060008151141561350f576040517f08c379a000000000000000000000000000000000000000000000000000000000815260040161350690614b91565b60405180910390fd5b805181602001fd5b63150b7a0260e01b7bffffffffffffffffffffffffffffffffffffffffffffffffffffffff1916817bffffffffffffffffffffffffffffffffffffffffffffffffffffffff19161491505061356c565b600190505b949350505050565b606060405180602001604052806000815250905090565b60606135968261258e565b6135d5576040517f08c379a00000000000000000000000000000000000000000000000000000000081526004016135cc90614db1565b60405180910390fd5b60006135df613574565b905060008151116135ff576040518060200160405280600081525061362a565b806136098461394c565b60405160200161361a9291906149e7565b6040516020818303038152906040525b915050919050565b600061363d826116c3565b905061364b81600084613325565b613656600083612602565b6001600360008373ffffffffffffffffffffffffffffffffffffffff1673ffffffffffffffffffffffffffffffffffffffff16815260200190815260200160002060008282546136a691906152b7565b925050819055506002600083815260200190815260200160002060006101000a81549073ffffffffffffffffffffffffffffffffffffffff021916905581600073ffffffffffffffffffffffffffffffffffffffff168273ffffffffffffffffffffffffffffffffffffffff167fddf252ad1be2c89b69c2b068fc378daa952ba7f163c4a11628f55a4df523b3ef60405160405180910390a461374b8160008461332a565b5050565b600073ffffffffffffffffffffffffffffffffffffffff168273ffffffffffffffffffffffffffffffffffffffff1614156137bf576040517f08c379a00000000000000000000000000000000000000000000000000000000081526004016137b690614d31565b60405180910390fd5b6137c88161258e565b15613808576040517f08c379a00000000000000000000000000000000000000000000000000000000081526004016137ff90614bd1565b60405180910390fd5b61381460008383613325565b6001600360008473ffffffffffffffffffffffffffffffffffffffff1673ffffffffffffffffffffffffffffffffffffffff16815260200190815260200160002060008282546138649190615230565b92505081905550816002600083815260200190815260200160002060006101000a81548173ffffffffffffffffffffffffffffffffffffffff021916908373ffffffffffffffffffffffffffffffffffffffff160217905550808273ffffffffffffffffffffffffffffffffffffffff16600073ffffffffffffffffffffffffffffffffffffffff167fddf252ad1be2c89b69c2b068fc378daa952ba7f163c4a11628f55a4df523b3ef60405160405180910390a46139256000838361332a565b5050565b6000808273ffffffffffffffffffffffffffffffffffffffff163b119050919050565b60606000821415613994576040518060400160405280600181526020017f30000000000000000000000000000000000000000000000000000000000000008152509050613af4565b600082905060005b600082146139c65780806139af90615428565b915050600a826139bf9190615286565b915061399c565b60008167ffffffffffffffff811115613a08577f4e487b7100000000000000000000000000000000000000000000000000000000600052604160045260246000fd5b6040519080825280601f01601f191660200182016040528015613a3a5781602001600182028036833780820191505090505b5090505b60008514613aed57600182613a5391906152b7565b9150600a85613a629190615471565b6030613a6e9190615230565b60f81b818381518110613aaa577f4e487b7100000000000000000000000000000000000000000000000000000000600052603260045260246000fd5b60200101907effffffffffffffffffffffffffffffffffffffffffffffffffffffffffffff1916908160001a905350600a85613ae69190615286565b9450613a3e565b8093505050505b919050565b6040518061018001604052806000815260200160008152602001600073ffffffffffffffffffffffffffffffffffffffff168152602001600073ffffffffffffffffffffffffffffffffffffffff168152602001600015158152602001600015158152602001600081526020016000815260200160001515815260200160008152602001600015158152602001600081525090565b828054613b9a906153c5565b90600052602060002090601f016020900481019282613bbc5760008555613c03565b82601f10613bd557805160ff1916838001178555613c03565b82800160010185558215613c03579182015b82811115613c02578251825591602001919060010190613be7565b5b509050613c109190613c54565b5090565b508054613c20906153c5565b6000825580601f10613c325750613c51565b601f016020900490600052602060002090810190613c509190613c54565b5b50565b5b80821115613c6d576000816000905550600101613c55565b5090565b6000613c84613c7f84615152565b61512d565b905082815260208101848484011115613c9c57600080fd5b613ca7848285615383565b509392505050565b6000613cc2613cbd84615183565b61512d565b905082815260208101848484011115613cda57600080fd5b613ce5848285615383565b509392505050565b600081359050613cfc81615eef565b92915050565b600081359050613d1181615f06565b92915050565b600081359050613d2681615f1d565b92915050565b600081359050613d3b81615f34565b92915050565b600081519050613d5081615f34565b92915050565b600082601f830112613d6757600080fd5b8135613d77848260208601613c71565b91505092915050565b600082601f830112613d9157600080fd5b8135613da1848260208601613caf565b91505092915050565b600081359050613db981615f4b565b92915050565b600060208284031215613dd157600080fd5b6000613ddf84828501613ced565b91505092915050565b60008060408385031215613dfb57600080fd5b6000613e0985828601613ced565b9250506020613e1a85828601613ced565b9150509250929050565b600080600060608486031215613e3957600080fd5b6000613e4786828701613ced565b9350506020613e5886828701613ced565b9250506040613e6986828701613daa565b9150509250925092565b60008060008060808587031215613e8957600080fd5b6000613e9787828801613ced565b9450506020613ea887828801613ced565b9350506040613eb987828801613daa565b925050606085013567ffffffffffffffff811115613ed657600080fd5b613ee287828801613d56565b91505092959194509250565b60008060408385031215613f0157600080fd5b6000613f0f85828601613ced565b9250506020613f2085828601613d17565b9150509250929050565b60008060408385031215613f3d57600080fd5b6000613f4b85828601613ced565b9250506020613f5c85828601613daa565b9150509250929050565b600060208284031215613f7857600080fd5b6000613f8684828501613d2c565b91505092915050565b600060208284031215613fa157600080fd5b6000613faf84828501613d41565b91505092915050565b600080600080600060a08688031215613fd057600080fd5b600086013567ffffffffffffffff811115613fea57600080fd5b613ff688828901613d80565b955050602061400788828901613daa565b945050604061401888828901613d02565b935050606061402988828901613daa565b925050608061403a88828901613daa565b9150509295509295909350565b60006020828403121561405957600080fd5b600061406784828501613daa565b91505092915050565b6000806040838503121561408357600080fd5b600061409185828601613daa565b92505060206140a285828601613d17565b9150509250929050565b600080604083850312156140bf57600080fd5b60006140cd85828601613daa565b92505060206140de85828601613daa565b9150509250929050565b6000806000606084860312156140fd57600080fd5b600061410b86828701613daa565b935050602061411c86828701613daa565b925050604061412d86828701613daa565b9150509250925092565b600061414383836147dd565b6101808301905092915050565b614159816152fd565b82525050565b614168816152fd565b82525050565b614177816152eb565b82525050565b6000614188826151c4565b61419281856151f2565b935061419d836151b4565b8060005b838110156141ce5781516141b58882614137565b97506141c0836151e5565b9250506001810190506141a1565b5085935050505092915050565b6141e48161530f565b82525050565b6141f38161530f565b82525050565b6000614204826151cf565b61420e8185615203565b935061421e818560208601615392565b6142278161555e565b840191505092915050565b61423b81615371565b82525050565b600061424c826151da565b6142568185615214565b9350614266818560208601615392565b61426f8161555e565b840191505092915050565b6000614285826151da565b61428f8185615225565b935061429f818560208601615392565b80840191505092915050565b60006142b8602983615214565b91506142c38261556f565b604082019050919050565b60006142db602683615214565b91506142e6826155be565b604082019050919050565b60006142fe602283615214565b91506143098261560d565b604082019050919050565b6000614321601983615214565b915061432c8261565c565b602082019050919050565b6000614344603b83615214565b915061434f82615685565b604082019050919050565b6000614367601f83615214565b9150614372826156d4565b602082019050919050565b600061438a603283615214565b9150614395826156fd565b604082019050919050565b60006143ad602583615214565b91506143b88261574c565b604082019050919050565b60006143d0601c83615214565b91506143db8261579b565b602082019050919050565b60006143f3602b83615214565b91506143fe826157c4565b604082019050919050565b6000614416602483615214565b915061442182615813565b604082019050919050565b6000614439601983615214565b915061444482615862565b602082019050919050565b600061445c601483615214565b91506144678261588b565b602082019050919050565b600061447f602c83615214565b915061448a826158b4565b604082019050919050565b60006144a2603883615214565b91506144ad82615903565b604082019050919050565b60006144c5602a83615214565b91506144d082615952565b604082019050919050565b60006144e8602983615214565b91506144f3826159a1565b604082019050919050565b600061450b602e83615214565b9150614516826159f0565b604082019050919050565b600061452e601883615214565b915061453982615a3f565b602082019050919050565b6000614551602083615214565b915061455c82615a68565b602082019050919050565b6000614574603183615214565b915061457f82615a91565b604082019050919050565b6000614597602c83615214565b91506145a282615ae0565b604082019050919050565b60006145ba603583615214565b91506145c582615b2f565b604082019050919050565b60006145dd602f83615214565b91506145e882615b7e565b604082019050919050565b6000614600602083615214565b915061460b82615bcd565b602082019050919050565b6000614623603983615214565b915061462e82615bf6565b604082019050919050565b6000614646601783615214565b915061465182615c45565b602082019050919050565b6000614669601c83615214565b915061467482615c6e565b602082019050919050565b600061468c602183615214565b915061469782615c97565b604082019050919050565b60006146af601883615214565b91506146ba82615ce6565b602082019050919050565b60006146d2603583615214565b91506146dd82615d0f565b604082019050919050565b60006146f5601d83615214565b915061470082615d5e565b602082019050919050565b6000614718602983615214565b915061472382615d87565b604082019050919050565b600061473b603183615214565b915061474682615dd6565b604082019050919050565b600061475e601983615214565b915061476982615e25565b602082019050919050565b6000614781601483615214565b915061478c82615e4e565b602082019050919050565b60006147a4601a83615214565b91506147af82615e77565b602082019050919050565b60006147c7602183615214565b91506147d282615ea0565b604082019050919050565b610180820160008201516147f460008501826149c9565b50602082015161480760208501826149c9565b50604082015161481a6040850182614150565b50606082015161482d6060850182614150565b50608082015161484060808501826141db565b5060a082015161485360a08501826141db565b5060c082015161486660c08501826149c9565b5060e082015161487960e08501826149c9565b5061010082015161488e6101008501826141db565b506101208201516148a36101208501826149c9565b506101408201516148b86101408501826141db565b506101608201516148cd6101608501826149c9565b50505050565b610180820160008201516148ea60008501826149c9565b5060208201516148fd60208501826149c9565b5060408201516149106040850182614150565b5060608201516149236060850182614150565b50608082015161493660808501826141db565b5060a082015161494960a08501826141db565b5060c082015161495c60c08501826149c9565b5060e082015161496f60e08501826149c9565b506101008201516149846101008501826141db565b506101208201516149996101208501826149c9565b506101408201516149ae6101408501826141db565b506101608201516149c36101608501826149c9565b50505050565b6149d281615367565b82525050565b6149e181615367565b82525050565b60006149f3828561427a565b91506149ff828461427a565b91508190509392505050565b6000602082019050614a20600083018461416e565b92915050565b6000608082019050614a3b600083018761416e565b614a48602083018661416e565b614a5560408301856149d8565b8181036060830152614a6781846141f9565b905095945050505050565b60006020820190508181036000830152614a8c818461417d565b905092915050565b6000602082019050614aa960008301846141ea565b92915050565b60006020820190508181036000830152614ac98184614241565b905092915050565b60006020820190508181036000830152614aea816142ab565b9050919050565b60006020820190508181036000830152614b0a816142ce565b9050919050565b60006020820190508181036000830152614b2a816142f1565b9050919050565b60006020820190508181036000830152614b4a81614314565b9050919050565b60006020820190508181036000830152614b6a81614337565b9050919050565b60006020820190508181036000830152614b8a8161435a565b9050919050565b60006020820190508181036000830152614baa8161437d565b9050919050565b60006020820190508181036000830152614bca816143a0565b9050919050565b60006020820190508181036000830152614bea816143c3565b9050919050565b60006020820190508181036000830152614c0a816143e6565b9050919050565b60006020820190508181036000830152614c2a81614409565b9050919050565b60006020820190508181036000830152614c4a8161442c565b9050919050565b60006020820190508181036000830152614c6a8161444f565b9050919050565b60006020820190508181036000830152614c8a81614472565b9050919050565b60006020820190508181036000830152614caa81614495565b9050919050565b60006020820190508181036000830152614cca816144b8565b9050919050565b60006020820190508181036000830152614cea816144db565b9050919050565b60006020820190508181036000830152614d0a816144fe565b9050919050565b60006020820190508181036000830152614d2a81614521565b9050919050565b60006020820190508181036000830152614d4a81614544565b9050919050565b60006020820190508181036000830152614d6a81614567565b9050919050565b60006020820190508181036000830152614d8a8161458a565b9050919050565b60006020820190508181036000830152614daa816145ad565b9050919050565b60006020820190508181036000830152614dca816145d0565b9050919050565b60006020820190508181036000830152614dea816145f3565b9050919050565b60006020820190508181036000830152614e0a81614616565b9050919050565b60006020820190508181036000830152614e2a81614639565b9050919050565b60006020820190508181036000830152614e4a8161465c565b9050919050565b60006020820190508181036000830152614e6a8161467f565b9050919050565b60006020820190508181036000830152614e8a816146a2565b9050919050565b60006020820190508181036000830152614eaa816146c5565b9050919050565b60006020820190508181036000830152614eca816146e8565b9050919050565b60006020820190508181036000830152614eea8161470b565b9050919050565b60006020820190508181036000830152614f0a8161472e565b9050919050565b60006020820190508181036000830152614f2a81614751565b9050919050565b60006020820190508181036000830152614f4a81614774565b9050919050565b60006020820190508181036000830152614f6a81614797565b9050919050565b60006020820190508181036000830152614f8a816147ba565b9050919050565b600061018082019050614fa760008301846148d3565b92915050565b6000602082019050614fc260008301846149d8565b92915050565b600061016082019050614fde600083018e6149d8565b614feb602083018d61415f565b614ff8604083018c61415f565b615005606083018b6141ea565b615012608083018a6141ea565b61501f60a08301896149d8565b61502c60c08301886149d8565b61503960e08301876141ea565b615047610100830186614232565b6150556101208301856141ea565b6150636101408301846149d8565b9c9b505050505050505050505050565b600061018082019050615089600083018f6149d8565b615096602083018e6149d8565b6150a3604083018d61415f565b6150b0606083018c61415f565b6150bd608083018b6141ea565b6150ca60a083018a6141ea565b6150d760c08301896149d8565b6150e460e08301886149d8565b6150f26101008301876141ea565b6151006101208301866149d8565b61510e6101408301856141ea565b61511c6101608301846149d8565b9d9c50505050505050505050505050565b6000615137615148565b905061514382826153f7565b919050565b6000604051905090565b600067ffffffffffffffff82111561516d5761516c61552f565b5b6151768261555e565b9050602081019050919050565b600067ffffffffffffffff82111561519e5761519d61552f565b5b6151a78261555e565b9050602081019050919050565b6000819050602082019050919050565b600081519050919050565b600081519050919050565b600081519050919050565b6000602082019050919050565b600082825260208201905092915050565b600082825260208201905092915050565b600082825260208201905092915050565b600081905092915050565b600061523b82615367565b915061524683615367565b9250827fffffffffffffffffffffffffffffffffffffffffffffffffffffffffffffffff0382111561527b5761527a6154a2565b5b828201905092915050565b600061529182615367565b915061529c83615367565b9250826152ac576152ab6154d1565b5b828204905092915050565b60006152c282615367565b91506152cd83615367565b9250828210156152e0576152df6154a2565b5b828203905092915050565b60006152f682615347565b9050919050565b600061530882615347565b9050919050565b60008115159050919050565b60007fffffffff0000000000000000000000000000000000000000000000000000000082169050919050565b600073ffffffffffffffffffffffffffffffffffffffff82169050919050565b6000819050919050565b600061537c82615367565b9050919050565b82818337600083830152505050565b60005b838110156153b0578082015181840152602081019050615395565b838111156153bf576000848401525b50505050565b600060028204905060018216806153dd57607f821691505b602082108114156153f1576153f0615500565b5b50919050565b6154008261555e565b810181811067ffffffffffffffff8211171561541f5761541e61552f565b5b80604052505050565b600061543382615367565b91507fffffffffffffffffffffffffffffffffffffffffffffffffffffffffffffffff821415615466576154656154a2565b5b600182019050919050565b600061547c82615367565b915061548783615367565b925082615497576154966154d1565b5b828206905092915050565b7f4e487b7100000000000000000000000000000000000000000000000000000000600052601160045260246000fd5b7f4e487b7100000000000000000000000000000000000000000000000000000000600052601260045260246000fd5b7f4e487b7100000000000000000000000000000000000000000000000000000000600052602260045260246000fd5b7f4e487b7100000000000000000000000000000000000000000000000000000000600052604160045260246000fd5b6000601f19601f8301169050919050565b7f52656e74616c206d75737420626520636865636b6564206f7574206265666f7260008201527f65206275726e696e670000000000000000000000000000000000000000000000602082015250565b7f4661696c656420746f207472616e736665722066756e647320746f20626f617460008201527f206f776e65720000000000000000000000000000000000000000000000000000602082015250565b7f4661696c656420746f207472616e736665722066756e647320746f2072656e7460008201527f6572000000000000000000000000000000000000000000000000000000000000602082015250565b7f436865636b2d696e2074696d65206e6f74207265616368656400000000000000600082015250565b7f4c61746520636865636b206f75742074696d65206d757374206265207a65726f60008201527f206265666f7265207769746864726177696e67206465706f7369740000000000602082015250565b7f5072696365206d7573742062652067726561746572207468616e207a65726f00600082015250565b7f4552433732313a207472616e7366657220746f206e6f6e20455243373231526560008201527f63656976657220696d706c656d656e7465720000000000000000000000000000602082015250565b7f4552433732313a207472616e736665722066726f6d20696e636f72726563742060008201527f6f776e6572000000000000000000000000000000000000000000000000000000602082015250565b7f4552433732313a20746f6b656e20616c7265616479206d696e74656400000000600082015250565b7f4f6e6c7920636f6e7472616374206f776e65722063616e20706572666f726d2060008201527f7468697320616374696f6e000000000000000000000000000000000000000000602082015250565b7f4552433732313a207472616e7366657220746f20746865207a65726f2061646460008201527f7265737300000000000000000000000000000000000000000000000000000000602082015250565b7f4552433732313a20617070726f766520746f2063616c6c657200000000000000600082015250565b7f496e636f72726563742076616c75652073656e74000000000000000000000000600082015250565b7f4552433732313a206f70657261746f7220717565727920666f72206e6f6e657860008201527f697374656e7420746f6b656e0000000000000000000000000000000000000000602082015250565b7f4552433732313a20617070726f76652063616c6c6572206973206e6f74206f7760008201527f6e6572206e6f7220617070726f76656420666f7220616c6c0000000000000000602082015250565b7f4552433732313a2062616c616e636520717565727920666f7220746865207a6560008201527f726f206164647265737300000000000000000000000000000000000000000000602082015250565b7f4552433732313a206f776e657220717565727920666f72206e6f6e657869737460008201527f656e7420746f6b656e0000000000000000000000000000000000000000000000602082015250565b7f45524337323155524953746f726167653a2055524920736574206f66206e6f6e60008201527f6578697374656e7420746f6b656e000000000000000000000000000000000000602082015250565b7f52656e74616c20494420646f6573206e6f742065786973740000000000000000600082015250565b7f4552433732313a206d696e7420746f20746865207a65726f2061646472657373600082015250565b7f45524337323155524953746f726167653a2055524920717565727920666f722060008201527f6e6f6e6578697374656e7420746f6b656e000000000000000000000000000000602082015250565b7f4552433732313a20617070726f76656420717565727920666f72206e6f6e657860008201527f697374656e7420746f6b656e0000000000000000000000000000000000000000602082015250565b7f52656e74616c206d75737420626520636865636b6564206f7574206265666f7260008201527f65207769746864726177696e67206465706f7369740000000000000000000000602082015250565b7f4552433732314d657461646174613a2055524920717565727920666f72206e6f60008201527f6e6578697374656e7420746f6b656e0000000000000000000000000000000000602082015250565b7f4f6e6c792072656e7465722063616e2072657175657374206120726566756e64600082015250565b7f4f6e6c7920626f6174206f776e6572206f7220636f6e7472616374206f776e6560008201527f722063616e20706572666f726d207468697320616374696f6e00000000000000602082015250565b7f496e76616c6964206469737075746520616d6f756e7473000000000000000000600082015250565b7f656e7375726520696e7370656374696f6e206861732070617373656400000000600082015250565b7f4552433732313a20617070726f76616c20746f2063757272656e74206f776e6560008201527f7200000000000000000000000000000000000000000000000000000000000000602082015250565b7f496e76616c696420626f6174206f776e657220746f74616c0000000000000000600082015250565b7f4f6e6c792072656e746572206f7220636f6e7472616374206f776e657220636160008201527f6e20706572666f726d207468697320616374696f6e0000000000000000000000602082015250565b7f4f6e6c7920626f6174206f776e65722063616e20636865636b206f7574000000600082015250565b7f526566756e642063616e6e6f742062652072657175657374656420616674657260008201527f20636865636b2d696e0000000000000000000000000000000000000000000000602082015250565b7f4552433732313a207472616e736665722063616c6c6572206973206e6f74206f60008201527f776e6572206e6f7220617070726f766564000000000000000000000000000000602082015250565b7f52656e74616c20616c726561647920636865636b656420696e00000000000000600082015250565b7f496e76616c69642072656e74657220746f74616c000000000000000000000000600082015250565b7f52656e74616c20616c726561647920636865636b6564206f7574000000000000600082015250565b7f4465706f7369742068617320616c7265616479206265656e2072656c6561736560008201527f6400000000000000000000000000000000000000000000000000000000000000602082015250565b615ef8816152eb565b8114615f0357600080fd5b50565b615f0f816152fd565b8114615f1a57600080fd5b50565b615f268161530f565b8114615f3157600080fd5b50565b615f3d8161531b565b8114615f4857600080fd5b50565b615f5481615367565b8114615f5f57600080fd5b5056fea264697066735822122089c1dd04978feda36c704755e14e42d591d4b7f9ae39f62ceab909231f470bef64736f6c63430008040033",
  "linkReferences": {},
  "deployedLinkReferences": {}
}