{
  "_format": "hh-sol-artifact-1",
  "contractName": "AhoyRental",
  "sourceName": "src/backend/contracts/AhoyRental.sol",
  "abi": [
    {
      "inputs": [
        {
          "internalType": "address",
          "name": "_escrowContractAddress",
          "type": "address"
        }
      ],
      "stateMutability": "nonpayable",
      "type": "constructor"
    },
    {
      "anonymous": false,
      "inputs": [
        {
          "indexed": true,
          "internalType": "address",
          "name": "owner",
          "type": "address"
        },
        {
          "indexed": true,
          "internalType": "address",
          "name": "approved",
          "type": "address"
        },
        {
          "indexed": true,
          "internalType": "uint256",
          "name": "tokenId",
          "type": "uint256"
        }
      ],
      "name": "Approval",
      "type": "event"
    },
    {
      "anonymous": false,
      "inputs": [
        {
          "indexed": true,
          "internalType": "address",
          "name": "owner",
          "type": "address"
        },
        {
          "indexed": true,
          "internalType": "address",
          "name": "operator",
          "type": "address"
        },
        {
          "indexed": false,
          "internalType": "bool",
          "name": "approved",
          "type": "bool"
        }
      ],
      "name": "ApprovalForAll",
      "type": "event"
    },
    {
      "anonymous": false,
      "inputs": [
        {
          "indexed": true,
          "internalType": "uint256",
          "name": "rentalId",
          "type": "uint256"
        },
        {
          "indexed": false,
          "internalType": "address",
          "name": "boatOwner",
          "type": "address"
        },
        {
          "indexed": false,
          "internalType": "address",
          "name": "renter",
          "type": "address"
        }
      ],
      "name": "FundsReleased",
      "type": "event"
    },
    {
      "anonymous": false,
      "inputs": [
        {
          "indexed": true,
          "internalType": "uint256",
          "name": "rentalId",
          "type": "uint256"
        },
        {
          "indexed": false,
          "internalType": "address",
          "name": "renter",
          "type": "address"
        }
      ],
      "name": "RefundRequested",
      "type": "event"
    },
    {
      "anonymous": false,
      "inputs": [
        {
          "indexed": true,
          "internalType": "uint256",
          "name": "rentalId",
          "type": "uint256"
        },
        {
          "indexed": false,
          "internalType": "address",
          "name": "renter",
          "type": "address"
        }
      ],
      "name": "RentalCheckedIn",
      "type": "event"
    },
    {
      "anonymous": false,
      "inputs": [
        {
          "indexed": true,
          "internalType": "uint256",
          "name": "rentalId",
          "type": "uint256"
        },
        {
          "indexed": false,
          "internalType": "address",
          "name": "boatOwner",
          "type": "address"
        }
      ],
      "name": "RentalCheckedOut",
      "type": "event"
    },
    {
      "anonymous": false,
      "inputs": [
        {
          "indexed": true,
          "internalType": "uint256",
          "name": "rentalId",
          "type": "uint256"
        },
        {
          "indexed": false,
          "internalType": "address",
          "name": "boatOwner",
          "type": "address"
        }
      ],
      "name": "RentalInspection",
      "type": "event"
    },
    {
      "anonymous": false,
      "inputs": [
        {
          "indexed": true,
          "internalType": "uint256",
          "name": "rentalId",
          "type": "uint256"
        },
        {
          "indexed": false,
          "internalType": "uint256",
          "name": "boatId",
          "type": "uint256"
        },
        {
          "indexed": false,
          "internalType": "address",
          "name": "boatOwner",
          "type": "address"
        },
        {
          "indexed": false,
          "internalType": "address",
          "name": "renter",
          "type": "address"
        },
        {
          "indexed": false,
          "internalType": "bool",
          "name": "checkedIn",
          "type": "bool"
        },
        {
          "indexed": false,
          "internalType": "bool",
          "name": "checkedOut",
          "type": "bool"
        },
        {
          "indexed": false,
          "internalType": "uint256",
          "name": "lateCheckOutHours",
          "type": "uint256"
        },
        {
          "indexed": false,
          "internalType": "bool",
          "name": "inspection",
          "type": "bool"
        },
        {
          "indexed": false,
          "internalType": "bool",
          "name": "refundRequested",
          "type": "bool"
        }
      ],
      "name": "RentalListedSuccess",
      "type": "event"
    },
    {
      "anonymous": false,
      "inputs": [
        {
          "indexed": true,
          "internalType": "address",
          "name": "from",
          "type": "address"
        },
        {
          "indexed": true,
          "internalType": "address",
          "name": "to",
          "type": "address"
        },
        {
          "indexed": true,
          "internalType": "uint256",
          "name": "tokenId",
          "type": "uint256"
        }
      ],
      "name": "Transfer",
      "type": "event"
    },
    {
      "inputs": [
        {
          "internalType": "address",
          "name": "to",
          "type": "address"
        },
        {
          "internalType": "uint256",
          "name": "tokenId",
          "type": "uint256"
        }
      ],
      "name": "approve",
      "outputs": [],
      "stateMutability": "nonpayable",
      "type": "function"
    },
    {
      "inputs": [
        {
          "internalType": "address",
          "name": "owner",
          "type": "address"
        }
      ],
      "name": "balanceOf",
      "outputs": [
        {
          "internalType": "uint256",
          "name": "",
          "type": "uint256"
        }
      ],
      "stateMutability": "view",
      "type": "function"
    },
    {
      "inputs": [
        {
          "internalType": "string",
          "name": "rentalUUID",
          "type": "string"
        }
      ],
      "name": "burn",
      "outputs": [],
      "stateMutability": "nonpayable",
      "type": "function"
    },
    {
      "inputs": [
        {
          "internalType": "string",
          "name": "rentalUUID",
          "type": "string"
        },
        {
          "internalType": "uint256",
          "name": "currentTime",
          "type": "uint256"
        },
        {
          "internalType": "uint256",
          "name": "checkInTime",
          "type": "uint256"
        }
      ],
      "name": "checkIn",
      "outputs": [
        {
          "internalType": "bool",
          "name": "",
          "type": "bool"
        }
      ],
      "stateMutability": "nonpayable",
      "type": "function"
    },
    {
      "inputs": [
        {
          "internalType": "string",
          "name": "rentalUUID",
          "type": "string"
        },
        {
          "internalType": "bool",
          "name": "_inspectionPassed",
          "type": "bool"
        }
      ],
      "name": "checkInspection",
      "outputs": [
        {
          "internalType": "bool",
          "name": "",
          "type": "bool"
        }
      ],
      "stateMutability": "nonpayable",
      "type": "function"
    },
    {
      "inputs": [
        {
          "internalType": "string",
          "name": "rentalUUID",
          "type": "string"
        },
        {
          "internalType": "uint256",
          "name": "lateTime",
          "type": "uint256"
        }
      ],
      "name": "checkOut",
      "outputs": [
        {
          "internalType": "bool",
          "name": "",
          "type": "bool"
        }
      ],
      "stateMutability": "nonpayable",
      "type": "function"
    },
    {
      "inputs": [],
      "name": "escrowContract",
      "outputs": [
        {
          "internalType": "contract IEscrow",
          "name": "",
          "type": "address"
        }
      ],
      "stateMutability": "view",
      "type": "function"
    },
    {
      "inputs": [
        {
          "internalType": "uint256",
          "name": "tokenId",
          "type": "uint256"
        }
      ],
      "name": "getApproved",
      "outputs": [
        {
          "internalType": "address",
          "name": "",
          "type": "address"
        }
      ],
      "stateMutability": "view",
      "type": "function"
    },
    {
      "inputs": [],
      "name": "getMyRentals",
      "outputs": [
        {
          "components": [
            {
              "internalType": "uint256",
              "name": "rentalId",
              "type": "uint256"
            },
            {
              "internalType": "string",
              "name": "rentalUUID",
              "type": "string"
            },
            {
              "internalType": "uint256",
              "name": "boatId",
              "type": "uint256"
            },
            {
              "internalType": "address",
              "name": "boatOwner",
              "type": "address"
            },
            {
              "internalType": "address",
              "name": "renter",
              "type": "address"
            },
            {
              "internalType": "bool",
              "name": "checkedIn",
              "type": "bool"
            },
            {
              "internalType": "bool",
              "name": "checkedOut",
              "type": "bool"
            },
            {
              "internalType": "uint256",
              "name": "lateCheckOutHours",
              "type": "uint256"
            },
            {
              "internalType": "bool",
              "name": "inspectionPassed",
              "type": "bool"
            },
            {
              "internalType": "bool",
              "name": "refundRequested",
              "type": "bool"
            }
          ],
          "internalType": "struct AhoyRental.Rental[]",
          "name": "",
          "type": "tuple[]"
        }
      ],
      "stateMutability": "view",
      "type": "function"
    },
    {
      "inputs": [],
      "name": "getOwner",
      "outputs": [
        {
          "internalType": "address",
          "name": "",
          "type": "address"
        }
      ],
      "stateMutability": "view",
      "type": "function"
    },
    {
      "inputs": [
        {
          "internalType": "string",
          "name": "rentalUUID",
          "type": "string"
        }
      ],
      "name": "getRentalByUUID",
      "outputs": [
        {
          "components": [
            {
              "internalType": "uint256",
              "name": "rentalId",
              "type": "uint256"
            },
            {
              "internalType": "string",
              "name": "rentalUUID",
              "type": "string"
            },
            {
              "internalType": "uint256",
              "name": "boatId",
              "type": "uint256"
            },
            {
              "internalType": "address",
              "name": "boatOwner",
              "type": "address"
            },
            {
              "internalType": "address",
              "name": "renter",
              "type": "address"
            },
            {
              "internalType": "bool",
              "name": "checkedIn",
              "type": "bool"
            },
            {
              "internalType": "bool",
              "name": "checkedOut",
              "type": "bool"
            },
            {
              "internalType": "uint256",
              "name": "lateCheckOutHours",
              "type": "uint256"
            },
            {
              "internalType": "bool",
              "name": "inspectionPassed",
              "type": "bool"
            },
            {
              "internalType": "bool",
              "name": "refundRequested",
              "type": "bool"
            }
          ],
          "internalType": "struct AhoyRental.Rental",
          "name": "",
          "type": "tuple"
        }
      ],
      "stateMutability": "view",
      "type": "function"
    },
    {
      "inputs": [
        {
          "internalType": "address",
          "name": "owner",
          "type": "address"
        },
        {
          "internalType": "address",
          "name": "operator",
          "type": "address"
        }
      ],
      "name": "isApprovedForAll",
      "outputs": [
        {
          "internalType": "bool",
          "name": "",
          "type": "bool"
        }
      ],
      "stateMutability": "view",
      "type": "function"
    },
    {
      "inputs": [
        {
          "internalType": "string",
          "name": "rentalUUID",
          "type": "string"
        },
        {
          "internalType": "string",
          "name": "rentalURI",
          "type": "string"
        },
        {
          "internalType": "uint256",
          "name": "boatId",
          "type": "uint256"
        },
        {
          "internalType": "address",
          "name": "boatOwner",
          "type": "address"
        },
        {
          "internalType": "uint256",
          "name": "_deposit",
          "type": "uint256"
        }
      ],
      "name": "mint",
      "outputs": [
        {
          "internalType": "uint256",
          "name": "",
          "type": "uint256"
        }
      ],
      "stateMutability": "payable",
      "type": "function"
    },
    {
      "inputs": [],
      "name": "name",
      "outputs": [
        {
          "internalType": "string",
          "name": "",
          "type": "string"
        }
      ],
      "stateMutability": "view",
      "type": "function"
    },
    {
      "inputs": [
        {
          "internalType": "uint256",
          "name": "tokenId",
          "type": "uint256"
        }
      ],
      "name": "ownerOf",
      "outputs": [
        {
          "internalType": "address",
          "name": "",
          "type": "address"
        }
      ],
      "stateMutability": "view",
      "type": "function"
    },
    {
      "inputs": [
        {
          "internalType": "string",
          "name": "rentalUUID",
          "type": "string"
        }
      ],
      "name": "releaseFunds",
      "outputs": [],
      "stateMutability": "nonpayable",
      "type": "function"
    },
    {
      "inputs": [
        {
          "internalType": "string",
          "name": "",
          "type": "string"
        }
      ],
      "name": "rentals",
      "outputs": [
        {
          "internalType": "uint256",
          "name": "rentalId",
          "type": "uint256"
        },
        {
          "internalType": "string",
          "name": "rentalUUID",
          "type": "string"
        },
        {
          "internalType": "uint256",
          "name": "boatId",
          "type": "uint256"
        },
        {
          "internalType": "address",
          "name": "boatOwner",
          "type": "address"
        },
        {
          "internalType": "address",
          "name": "renter",
          "type": "address"
        },
        {
          "internalType": "bool",
          "name": "checkedIn",
          "type": "bool"
        },
        {
          "internalType": "bool",
          "name": "checkedOut",
          "type": "bool"
        },
        {
          "internalType": "uint256",
          "name": "lateCheckOutHours",
          "type": "uint256"
        },
        {
          "internalType": "bool",
          "name": "inspectionPassed",
          "type": "bool"
        },
        {
          "internalType": "bool",
          "name": "refundRequested",
          "type": "bool"
        }
      ],
      "stateMutability": "view",
      "type": "function"
    },
    {
      "inputs": [
        {
          "internalType": "string",
          "name": "rentalUUID",
          "type": "string"
        },
        {
          "internalType": "bool",
          "name": "beforeClosedPeriod",
          "type": "bool"
        }
      ],
      "name": "requestRefund",
      "outputs": [],
      "stateMutability": "nonpayable",
      "type": "function"
    },
    {
      "inputs": [
        {
          "internalType": "address",
          "name": "from",
          "type": "address"
        },
        {
          "internalType": "address",
          "name": "to",
          "type": "address"
        },
        {
          "internalType": "uint256",
          "name": "tokenId",
          "type": "uint256"
        }
      ],
      "name": "safeTransferFrom",
      "outputs": [],
      "stateMutability": "nonpayable",
      "type": "function"
    },
    {
      "inputs": [
        {
          "internalType": "address",
          "name": "from",
          "type": "address"
        },
        {
          "internalType": "address",
          "name": "to",
          "type": "address"
        },
        {
          "internalType": "uint256",
          "name": "tokenId",
          "type": "uint256"
        },
        {
          "internalType": "bytes",
          "name": "_data",
          "type": "bytes"
        }
      ],
      "name": "safeTransferFrom",
      "outputs": [],
      "stateMutability": "nonpayable",
      "type": "function"
    },
    {
      "inputs": [
        {
          "internalType": "address",
          "name": "operator",
          "type": "address"
        },
        {
          "internalType": "bool",
          "name": "approved",
          "type": "bool"
        }
      ],
      "name": "setApprovalForAll",
      "outputs": [],
      "stateMutability": "nonpayable",
      "type": "function"
    },
    {
      "inputs": [
        {
          "internalType": "bytes4",
          "name": "interfaceId",
          "type": "bytes4"
        }
      ],
      "name": "supportsInterface",
      "outputs": [
        {
          "internalType": "bool",
          "name": "",
          "type": "bool"
        }
      ],
      "stateMutability": "view",
      "type": "function"
    },
    {
      "inputs": [],
      "name": "symbol",
      "outputs": [
        {
          "internalType": "string",
          "name": "",
          "type": "string"
        }
      ],
      "stateMutability": "view",
      "type": "function"
    },
    {
      "inputs": [],
      "name": "tokenCount",
      "outputs": [
        {
          "internalType": "uint256",
          "name": "",
          "type": "uint256"
        }
      ],
      "stateMutability": "view",
      "type": "function"
    },
    {
      "inputs": [
        {
          "internalType": "uint256",
          "name": "tokenId",
          "type": "uint256"
        }
      ],
      "name": "tokenURI",
      "outputs": [
        {
          "internalType": "string",
          "name": "",
          "type": "string"
        }
      ],
      "stateMutability": "view",
      "type": "function"
    },
    {
      "inputs": [
        {
          "internalType": "address",
          "name": "from",
          "type": "address"
        },
        {
          "internalType": "address",
          "name": "to",
          "type": "address"
        },
        {
          "internalType": "uint256",
          "name": "tokenId",
          "type": "uint256"
        }
      ],
      "name": "transferFrom",
      "outputs": [],
      "stateMutability": "nonpayable",
      "type": "function"
    }
  ],
  "bytecode": "0x60806040523480156200001157600080fd5b506040516200628238038062006282833981810160405281019062000037919062000227565b6040518060400160405280600a81526020017f52656e74616c204e4654000000000000000000000000000000000000000000008152506040518060400160405280600681526020017f52454e54414c00000000000000000000000000000000000000000000000000008152508160009080519060200190620000bb92919062000160565b508060019080519060200190620000d492919062000160565b50505033600860006101000a81548173ffffffffffffffffffffffffffffffffffffffff021916908373ffffffffffffffffffffffffffffffffffffffff16021790555080600960006101000a81548173ffffffffffffffffffffffffffffffffffffffff021916908373ffffffffffffffffffffffffffffffffffffffff1602179055505062000306565b8280546200016e9062000287565b90600052602060002090601f016020900481019282620001925760008555620001de565b82601f10620001ad57805160ff1916838001178555620001de565b82800160010185558215620001de579182015b82811115620001dd578251825591602001919060010190620001c0565b5b509050620001ed9190620001f1565b5090565b5b808211156200020c576000816000905550600101620001f2565b5090565b6000815190506200022181620002ec565b92915050565b6000602082840312156200023a57600080fd5b60006200024a8482850162000210565b91505092915050565b6000620002608262000267565b9050919050565b600073ffffffffffffffffffffffffffffffffffffffff82169050919050565b60006002820490506001821680620002a057607f821691505b60208210811415620002b757620002b6620002bd565b5b50919050565b7f4e487b7100000000000000000000000000000000000000000000000000000000600052602260045260246000fd5b620002f78162000253565b81146200030357600080fd5b50565b615f6c80620003166000396000f3fe6080604052600436106101815760003560e01c806382fb673e116100d1578063a7a3bde61161008a578063c87b56dd11610064578063c87b56dd146105da578063dafa1d2d14610617578063e42a96e714610640578063e985e9c51461066b57610181565b8063a7a3bde61461054b578063b88d4fde14610588578063c3abd8b3146105b157610181565b806382fb673e14610434578063893d20e81461047157806395d89b411461049c57806399adc782146104c75780639f181b5e146104f7578063a22cb4651461052257610181565b8063224f3c8f1161013e57806342842e0e1161011857806342842e0e146103545780636352211e1461037d57806370a08231146103ba5780637821f4b1146103f757610181565b8063224f3c8f146102d757806323b872dd146103025780633a8be5191461032b57610181565b806301ffc9a71461018657806306d05b16146101c357806306fdde0314610209578063081812fc14610234578063095ea7b3146102715780631a768c0a1461029a575b600080fd5b34801561019257600080fd5b506101ad60048036038101906101a891906140d1565b6106a8565b6040516101ba9190614cca565b60405180910390f35b3480156101cf57600080fd5b506101ea60048036038101906101e59190614123565b61078a565b6040516102009a999897969594939291906151dd565b60405180910390f35b34801561021557600080fd5b5061021e6108f0565b60405161022b9190614d00565b60405180910390f35b34801561024057600080fd5b5061025b6004803603810190610256919061431a565b610982565b6040516102689190614c18565b60405180910390f35b34801561027d57600080fd5b5061029860048036038101906102939190614095565b610a07565b005b3480156102a657600080fd5b506102c160048036038101906102bc9190614123565b610b1f565b6040516102ce9190615122565b60405180910390f35b3480156102e357600080fd5b506102ec610d29565b6040516102f99190614ca8565b60405180910390f35b34801561030e57600080fd5b5061032960048036038101906103249190613f8f565b6112c7565b005b34801561033757600080fd5b50610352600480360381019061034d9190614164565b611327565b005b34801561036057600080fd5b5061037b60048036038101906103769190613f8f565b6116a4565b005b34801561038957600080fd5b506103a4600480360381019061039f919061431a565b6116c4565b6040516103b19190614c18565b60405180910390f35b3480156103c657600080fd5b506103e160048036038101906103dc9190613f2a565b611776565b6040516103ee9190615144565b60405180910390f35b34801561040357600080fd5b5061041e6004803603810190610419919061425f565b61182e565b60405161042b9190614cca565b60405180910390f35b34801561044057600080fd5b5061045b600480360381019061045691906142b3565b611a74565b6040516104689190614cca565b60405180910390f35b34801561047d57600080fd5b50610486611cd8565b6040516104939190614c18565b60405180910390f35b3480156104a857600080fd5b506104b1611d02565b6040516104be9190614d00565b60405180910390f35b6104e160048036038101906104dc91906141b8565b611d94565b6040516104ee9190615144565b60405180910390f35b34801561050357600080fd5b5061050c611f4e565b6040516105199190615144565b60405180910390f35b34801561052e57600080fd5b5061054960048036038101906105449190614059565b611f54565b005b34801561055757600080fd5b50610572600480360381019061056d9190614164565b611f6a565b60405161057f9190614cca565b60405180910390f35b34801561059457600080fd5b506105af60048036038101906105aa9190613fde565b61211a565b005b3480156105bd57600080fd5b506105d860048036038101906105d39190614123565b61217c565b005b3480156105e657600080fd5b5061060160048036038101906105fc919061431a565b6124b4565b60405161060e9190614d00565b60405180910390f35b34801561062357600080fd5b5061063e60048036038101906106399190614123565b6124c6565b005b34801561064c57600080fd5b5061065561283f565b6040516106629190614ce5565b60405180910390f35b34801561067757600080fd5b50610692600480360381019061068d9190613f53565b612865565b60405161069f9190614cca565b60405180910390f35b60007f80ac58cd000000000000000000000000000000000000000000000000000000007bffffffffffffffffffffffffffffffffffffffffffffffffffffffff1916827bffffffffffffffffffffffffffffffffffffffffffffffffffffffff1916148061077357507f5b5e139f000000000000000000000000000000000000000000000000000000007bffffffffffffffffffffffffffffffffffffffffffffffffffffffff1916827bffffffffffffffffffffffffffffffffffffffffffffffffffffffff1916145b806107835750610782826128f9565b5b9050919050565b600a818051602081018201805184825260208301602085012081835280955050505050506000915090508060000154908060010180546107c990615580565b80601f01602080910402602001604051908101604052809291908181526020018280546107f590615580565b80156108425780601f1061081757610100808354040283529160200191610842565b820191906000526020600020905b81548152906001019060200180831161082557829003601f168201915b5050505050908060020154908060030160009054906101000a900473ffffffffffffffffffffffffffffffffffffffff16908060040160009054906101000a900473ffffffffffffffffffffffffffffffffffffffff16908060040160149054906101000a900460ff16908060040160159054906101000a900460ff16908060050154908060060160009054906101000a900460ff16908060060160019054906101000a900460ff1690508a565b6060600080546108ff90615580565b80601f016020809104026020016040519081016040528092919081815260200182805461092b90615580565b80156109785780601f1061094d57610100808354040283529160200191610978565b820191906000526020600020905b81548152906001019060200180831161095b57829003601f168201915b5050505050905090565b600061098d82612963565b6109cc576040517f08c379a00000000000000000000000000000000000000000000000000000000081526004016109c390614f42565b60405180910390fd5b6004600083815260200190815260200160002060009054906101000a900473ffffffffffffffffffffffffffffffffffffffff169050919050565b6000610a12826116c4565b90508073ffffffffffffffffffffffffffffffffffffffff168373ffffffffffffffffffffffffffffffffffffffff161415610a83576040517f08c379a0000000000000000000000000000000000000000000000000000000008152600401610a7a90614fe2565b60405180910390fd5b8073ffffffffffffffffffffffffffffffffffffffff16610aa26129cf565b73ffffffffffffffffffffffffffffffffffffffff161480610ad15750610ad081610acb6129cf565b612865565b5b610b10576040517f08c379a0000000000000000000000000000000000000000000000000000000008152600401610b0790614e62565b60405180910390fd5b610b1a83836129d7565b505050565b610b27613c48565b610b3082612a90565b600a82604051610b409190614bc2565b90815260200160405180910390206040518061014001604052908160008201548152602001600182018054610b7490615580565b80601f0160208091040260200160405190810160405280929190818152602001828054610ba090615580565b8015610bed5780601f10610bc257610100808354040283529160200191610bed565b820191906000526020600020905b815481529060010190602001808311610bd057829003601f168201915b50505050508152602001600282015481526020016003820160009054906101000a900473ffffffffffffffffffffffffffffffffffffffff1673ffffffffffffffffffffffffffffffffffffffff1673ffffffffffffffffffffffffffffffffffffffff1681526020016004820160009054906101000a900473ffffffffffffffffffffffffffffffffffffffff1673ffffffffffffffffffffffffffffffffffffffff1673ffffffffffffffffffffffffffffffffffffffff1681526020016004820160149054906101000a900460ff161515151581526020016004820160159054906101000a900460ff16151515158152602001600582015481526020016006820160009054906101000a900460ff161515151581526020016006820160019054906101000a900460ff1615151515815250509050919050565b606060006007549050600080600190505b828111610e8d573373ffffffffffffffffffffffffffffffffffffffff16600a82604051602001610d6b9190614bfd565b604051602081830303815290604052604051610d879190614bc2565b908152602001604051809103902060030160009054906101000a900473ffffffffffffffffffffffffffffffffffffffff1673ffffffffffffffffffffffffffffffffffffffff161480610e6657503373ffffffffffffffffffffffffffffffffffffffff16600a82604051602001610e009190614bfd565b604051602081830303815290604052604051610e1c9190614bc2565b908152602001604051809103902060040160009054906101000a900473ffffffffffffffffffffffffffffffffffffffff1673ffffffffffffffffffffffffffffffffffffffff16145b15610e7a578180610e76906155e3565b9250505b8080610e85906155e3565b915050610d3a565b5060008167ffffffffffffffff811115610ed0577f4e487b7100000000000000000000000000000000000000000000000000000000600052604160045260246000fd5b604051908082528060200260200182016040528015610f0957816020015b610ef6613c48565b815260200190600190039081610eee5790505b509050600080600190505b8481116112bc573373ffffffffffffffffffffffffffffffffffffffff16600a82604051602001610f459190614bfd565b604051602081830303815290604052604051610f619190614bc2565b908152602001604051809103902060030160009054906101000a900473ffffffffffffffffffffffffffffffffffffffff1673ffffffffffffffffffffffffffffffffffffffff16148061104057503373ffffffffffffffffffffffffffffffffffffffff16600a82604051602001610fda9190614bfd565b604051602081830303815290604052604051610ff69190614bc2565b908152602001604051809103902060040160009054906101000a900473ffffffffffffffffffffffffffffffffffffffff1673ffffffffffffffffffffffffffffffffffffffff16145b156112a957600a816040516020016110589190614bfd565b6040516020818303038152906040526040516110749190614bc2565b908152602001604051809103902060405180610140016040529081600082015481526020016001820180546110a890615580565b80601f01602080910402602001604051908101604052809291908181526020018280546110d490615580565b80156111215780601f106110f657610100808354040283529160200191611121565b820191906000526020600020905b81548152906001019060200180831161110457829003601f168201915b50505050508152602001600282015481526020016003820160009054906101000a900473ffffffffffffffffffffffffffffffffffffffff1673ffffffffffffffffffffffffffffffffffffffff1673ffffffffffffffffffffffffffffffffffffffff1681526020016004820160009054906101000a900473ffffffffffffffffffffffffffffffffffffffff1673ffffffffffffffffffffffffffffffffffffffff1673ffffffffffffffffffffffffffffffffffffffff1681526020016004820160149054906101000a900460ff161515151581526020016004820160159054906101000a900460ff16151515158152602001600582015481526020016006820160009054906101000a900460ff161515151581526020016006820160019054906101000a900460ff16151515158152505083838151811061128f577f4e487b7100000000000000000000000000000000000000000000000000000000600052603260045260246000fd5b602002602001018190525081806112a5906155e3565b9250505b80806112b4906155e3565b915050610f14565b508194505050505090565b6112d86112d26129cf565b82612b3c565b611317576040517f08c379a000000000000000000000000000000000000000000000000000000000815260040161130e90615042565b60405180910390fd5b611322838383612c1a565b505050565b8161133181612a90565b600a816040516113419190614bc2565b908152602001604051809103902060030160009054906101000a900473ffffffffffffffffffffffffffffffffffffffff1673ffffffffffffffffffffffffffffffffffffffff163373ffffffffffffffffffffffffffffffffffffffff1614806113f95750600860009054906101000a900473ffffffffffffffffffffffffffffffffffffffff1673ffffffffffffffffffffffffffffffffffffffff163373ffffffffffffffffffffffffffffffffffffffff16145b806114705750600a8160405161140f9190614bc2565b908152602001604051809103902060040160009054906101000a900473ffffffffffffffffffffffffffffffffffffffff1673ffffffffffffffffffffffffffffffffffffffff163373ffffffffffffffffffffffffffffffffffffffff16145b6114af576040517f08c379a00000000000000000000000000000000000000000000000000000000081526004016114a690614e42565b60405180910390fd5b600a836040516114bf9190614bc2565b908152602001604051809103902060040160149054906101000a900460ff161561151e576040517f08c379a000000000000000000000000000000000000000000000000000000000815260040161151590615022565b60405180910390fd5b8161155e576040517f08c379a000000000000000000000000000000000000000000000000000000000815260040161155590614e02565b60405180910390fd5b6001600a846040516115709190614bc2565b908152602001604051809103902060060160016101000a81548160ff021916908315150217905550600960009054906101000a900473ffffffffffffffffffffffffffffffffffffffff1673ffffffffffffffffffffffffffffffffffffffff16637584e197600a856040516115e69190614bc2565b9081526020016040518091039020600001546040518263ffffffff1660e01b81526004016116149190615144565b600060405180830381600087803b15801561162e57600080fd5b505af1158015611642573d6000803e3d6000fd5b50505050600a836040516116569190614bc2565b9081526020016040518091039020600001547fd8420f97dab0b820e066ebfad617848c1eab2d260922358cc1d5cdcdc568d572336040516116979190614c18565b60405180910390a2505050565b6116bf8383836040518060200160405280600081525061211a565b505050565b6000806002600084815260200190815260200160002060009054906101000a900473ffffffffffffffffffffffffffffffffffffffff169050600073ffffffffffffffffffffffffffffffffffffffff168173ffffffffffffffffffffffffffffffffffffffff16141561176d576040517f08c379a000000000000000000000000000000000000000000000000000000000815260040161176490614ea2565b60405180910390fd5b80915050919050565b60008073ffffffffffffffffffffffffffffffffffffffff168273ffffffffffffffffffffffffffffffffffffffff1614156117e7576040517f08c379a00000000000000000000000000000000000000000000000000000000081526004016117de90614e82565b60405180910390fd5b600360008373ffffffffffffffffffffffffffffffffffffffff1673ffffffffffffffffffffffffffffffffffffffff168152602001908152602001600020549050919050565b60008261183a81612a90565b600a8160405161184a9190614bc2565b908152602001604051809103902060030160009054906101000a900473ffffffffffffffffffffffffffffffffffffffff1673ffffffffffffffffffffffffffffffffffffffff163373ffffffffffffffffffffffffffffffffffffffff1614806119025750600860009054906101000a900473ffffffffffffffffffffffffffffffffffffffff1673ffffffffffffffffffffffffffffffffffffffff163373ffffffffffffffffffffffffffffffffffffffff16145b611941576040517f08c379a000000000000000000000000000000000000000000000000000000000815260040161193890614e42565b60405180910390fd5b600a846040516119519190614bc2565b908152602001604051809103902060040160159054906101000a900460ff16156119b0576040517f08c379a00000000000000000000000000000000000000000000000000000000081526004016119a7906150e2565b60405180910390fd5b6001600a856040516119c29190614bc2565b908152602001604051809103902060040160156101000a81548160ff02191690831515021790555082600a856040516119fb9190614bc2565b908152602001604051809103902060050181905550600a84604051611a209190614bc2565b9081526020016040518091039020600001547fdcd509647eb01fb1549b8c9e4cbac26fc33951fec42c83a3de14b3a253351ad033604051611a619190614c18565b60405180910390a2600191505092915050565b600083611a8081612a90565b600a81604051611a909190614bc2565b908152602001604051809103902060030160009054906101000a900473ffffffffffffffffffffffffffffffffffffffff1673ffffffffffffffffffffffffffffffffffffffff163373ffffffffffffffffffffffffffffffffffffffff161480611b485750600860009054906101000a900473ffffffffffffffffffffffffffffffffffffffff1673ffffffffffffffffffffffffffffffffffffffff163373ffffffffffffffffffffffffffffffffffffffff16145b611b87576040517f08c379a0000000000000000000000000000000000000000000000000000000008152600401611b7e90614e42565b60405180910390fd5b600a85604051611b979190614bc2565b908152602001604051809103902060040160149054906101000a900460ff1615611bf6576040517f08c379a0000000000000000000000000000000000000000000000000000000008152600401611bed90615062565b60405180910390fd5b82841015611c39576040517f08c379a0000000000000000000000000000000000000000000000000000000008152600401611c3090614d22565b60405180910390fd5b6001600a86604051611c4b9190614bc2565b908152602001604051809103902060040160146101000a81548160ff021916908315150217905550600a85604051611c839190614bc2565b9081526020016040518091039020600001547fc00a25d0e0acd109108e9a073662dd09e67c46edcaa6d23ac18d7c021b9cdf5533604051611cc49190614c18565b60405180910390a260019150509392505050565b6000600860009054906101000a900473ffffffffffffffffffffffffffffffffffffffff16905090565b606060018054611d1190615580565b80601f0160208091040260200160405190810160405280929190818152602001828054611d3d90615580565b8015611d8a5780601f10611d5f57610100808354040283529160200191611d8a565b820191906000526020600020905b815481529060010190602001808311611d6d57829003601f168201915b5050505050905090565b6000808211611dd8576040517f08c379a0000000000000000000000000000000000000000000000000000000008152600401611dcf90614fa2565b60405180910390fd5b813411611e1a576040517f08c379a0000000000000000000000000000000000000000000000000000000008152600401611e1190614ee2565b60405180910390fd5b60008234611e289190615460565b905060008111611e6d576040517f08c379a0000000000000000000000000000000000000000000000000000000008152600401611e6490615102565b60405180910390fd5b60076000815480929190611e80906155e3565b919050555060006007549050611e963382612e81565b611ea08188612e9f565b600960009054906101000a900473ffffffffffffffffffffffffffffffffffffffff1673ffffffffffffffffffffffffffffffffffffffff166384715b1134838789336040518663ffffffff1660e01b8152600401611f029493929190615280565b6000604051808303818588803b158015611f1b57600080fd5b505af1158015611f2f573d6000803e3d6000fd5b5050505050611f4081898888612f13565b809250505095945050505050565b60075481565b611f66611f5f6129cf565b838361314d565b5050565b600082611f7681612a90565b600a81604051611f869190614bc2565b908152602001604051809103902060030160009054906101000a900473ffffffffffffffffffffffffffffffffffffffff1673ffffffffffffffffffffffffffffffffffffffff163373ffffffffffffffffffffffffffffffffffffffff16148061203e5750600860009054906101000a900473ffffffffffffffffffffffffffffffffffffffff1673ffffffffffffffffffffffffffffffffffffffff163373ffffffffffffffffffffffffffffffffffffffff16145b61207d576040517f08c379a000000000000000000000000000000000000000000000000000000000815260040161207490614e42565b60405180910390fd5b82600a8560405161208e9190614bc2565b908152602001604051809103902060060160006101000a81548160ff021916908315150217905550600a846040516120c69190614bc2565b9081526020016040518091039020600001547f030b31cc3ac2b9bfe883db5234e1bf3b9a8a12009233f7ccf8b6258700973e5e336040516121079190614c18565b60405180910390a2600191505092915050565b61212b6121256129cf565b83612b3c565b61216a576040517f08c379a000000000000000000000000000000000000000000000000000000000815260040161216190615042565b60405180910390fd5b612176848484846132ba565b50505050565b8061218681612a90565b600a816040516121969190614bc2565b908152602001604051809103902060030160009054906101000a900473ffffffffffffffffffffffffffffffffffffffff1673ffffffffffffffffffffffffffffffffffffffff163373ffffffffffffffffffffffffffffffffffffffff16148061224e5750600860009054906101000a900473ffffffffffffffffffffffffffffffffffffffff1673ffffffffffffffffffffffffffffffffffffffff163373ffffffffffffffffffffffffffffffffffffffff16145b61228d576040517f08c379a000000000000000000000000000000000000000000000000000000000815260040161228490614e42565b60405180910390fd5b6000600a8360405161229f9190614bc2565b908152602001604051809103902090508060040160159054906101000a900460ff16612300576040517f08c379a00000000000000000000000000000000000000000000000000000000081526004016122f790615082565b60405180910390fd5b6000816005015414612347576040517f08c379a000000000000000000000000000000000000000000000000000000000815260040161233e90614f62565b60405180910390fd5b8060060160009054906101000a900460ff16612398576040517f08c379a000000000000000000000000000000000000000000000000000000000815260040161238f90614fc2565b60405180910390fd5b600960009054906101000a900473ffffffffffffffffffffffffffffffffffffffff1673ffffffffffffffffffffffffffffffffffffffff1663cf297bcc82600001546040518263ffffffff1660e01b81526004016123f79190615144565b600060405180830381600087803b15801561241157600080fd5b505af1158015612425573d6000803e3d6000fd5b5050505080600001547fa2f53bc0e18b0bc5dd570921bdefafa92f1b5ab9d0427ab540e89716a6bf40f38260030160009054906101000a900473ffffffffffffffffffffffffffffffffffffffff168360040160009054906101000a900473ffffffffffffffffffffffffffffffffffffffff166040516124a7929190614c33565b60405180910390a2505050565b60606124bf82613316565b9050919050565b600860009054906101000a900473ffffffffffffffffffffffffffffffffffffffff1673ffffffffffffffffffffffffffffffffffffffff163373ffffffffffffffffffffffffffffffffffffffff1614612556576040517f08c379a000000000000000000000000000000000000000000000000000000000815260040161254d90614da2565b60405180910390fd5b600080600960009054906101000a900473ffffffffffffffffffffffffffffffffffffffff1673ffffffffffffffffffffffffffffffffffffffff1663b996ec2a600a856040516125a79190614bc2565b9081526020016040518091039020600001546040518263ffffffff1660e01b81526004016125d59190615144565b60a06040518083038186803b1580156125ed57600080fd5b505afa158015612601573d6000803e3d6000fd5b505050506040513d601f19601f820116820180604052508101906126259190614343565b5050509150915060008214801561263c5750600081145b61267b576040517f08c379a000000000000000000000000000000000000000000000000000000000815260040161267290615002565b60405180910390fd5b600960009054906101000a900473ffffffffffffffffffffffffffffffffffffffff1673ffffffffffffffffffffffffffffffffffffffff1663e9b05678600a856040516126c99190614bc2565b9081526020016040518091039020600001546040518263ffffffff1660e01b81526004016126f79190615144565b600060405180830381600087803b15801561271157600080fd5b505af1158015612725573d6000803e3d6000fd5b50505050612753600a8460405161273c9190614bc2565b908152602001604051809103902060000154613468565b600a836040516127639190614bc2565b908152602001604051809103902060008082016000905560018201600061278a9190613ccf565b60028201600090556003820160006101000a81549073ffffffffffffffffffffffffffffffffffffffff02191690556004820160006101000a81549073ffffffffffffffffffffffffffffffffffffffff02191690556004820160146101000a81549060ff02191690556004820160156101000a81549060ff021916905560058201600090556006820160006101000a81549060ff02191690556006820160016101000a81549060ff02191690555050505050565b600960009054906101000a900473ffffffffffffffffffffffffffffffffffffffff1681565b6000600560008473ffffffffffffffffffffffffffffffffffffffff1673ffffffffffffffffffffffffffffffffffffffff16815260200190815260200160002060008373ffffffffffffffffffffffffffffffffffffffff1673ffffffffffffffffffffffffffffffffffffffff16815260200190815260200160002060009054906101000a900460ff16905092915050565b60007f01ffc9a7000000000000000000000000000000000000000000000000000000007bffffffffffffffffffffffffffffffffffffffffffffffffffffffff1916827bffffffffffffffffffffffffffffffffffffffffffffffffffffffff1916149050919050565b60008073ffffffffffffffffffffffffffffffffffffffff166002600084815260200190815260200160002060009054906101000a900473ffffffffffffffffffffffffffffffffffffffff1673ffffffffffffffffffffffffffffffffffffffff1614159050919050565b600033905090565b816004600083815260200190815260200160002060006101000a81548173ffffffffffffffffffffffffffffffffffffffff021916908373ffffffffffffffffffffffffffffffffffffffff160217905550808273ffffffffffffffffffffffffffffffffffffffff16612a4a836116c4565b73ffffffffffffffffffffffffffffffffffffffff167f8c5be1e5ebec7d5bd14f71427d1e84f3dd0314c0f7b2291e5b200ac8c7c3b92560405160405180910390a45050565b6000815111612ad4576040517f08c379a0000000000000000000000000000000000000000000000000000000008152600401612acb906150a2565b60405180910390fd5b6000600a82604051612ae69190614bc2565b9081526020016040518091039020600001541415612b39576040517f08c379a0000000000000000000000000000000000000000000000000000000008152600401612b30906150c2565b60405180910390fd5b50565b6000612b4782612963565b612b86576040517f08c379a0000000000000000000000000000000000000000000000000000000008152600401612b7d90614e22565b60405180910390fd5b6000612b91836116c4565b90508073ffffffffffffffffffffffffffffffffffffffff168473ffffffffffffffffffffffffffffffffffffffff161480612c0057508373ffffffffffffffffffffffffffffffffffffffff16612be884610982565b73ffffffffffffffffffffffffffffffffffffffff16145b80612c115750612c108185612865565b5b91505092915050565b8273ffffffffffffffffffffffffffffffffffffffff16612c3a826116c4565b73ffffffffffffffffffffffffffffffffffffffff1614612c90576040517f08c379a0000000000000000000000000000000000000000000000000000000008152600401612c8790614d62565b60405180910390fd5b600073ffffffffffffffffffffffffffffffffffffffff168273ffffffffffffffffffffffffffffffffffffffff161415612d00576040517f08c379a0000000000000000000000000000000000000000000000000000000008152600401612cf790614dc2565b60405180910390fd5b612d0b838383613474565b612d166000826129d7565b6001600360008573ffffffffffffffffffffffffffffffffffffffff1673ffffffffffffffffffffffffffffffffffffffff1681526020019081526020016000206000828254612d669190615460565b925050819055506001600360008473ffffffffffffffffffffffffffffffffffffffff1673ffffffffffffffffffffffffffffffffffffffff1681526020019081526020016000206000828254612dbd91906153d9565b92505081905550816002600083815260200190815260200160002060006101000a81548173ffffffffffffffffffffffffffffffffffffffff021916908373ffffffffffffffffffffffffffffffffffffffff160217905550808273ffffffffffffffffffffffffffffffffffffffff168473ffffffffffffffffffffffffffffffffffffffff167fddf252ad1be2c89b69c2b068fc378daa952ba7f163c4a11628f55a4df523b3ef60405160405180910390a4612e7c838383613479565b505050565b612e9b82826040518060200160405280600081525061347e565b5050565b612ea882612963565b612ee7576040517f08c379a0000000000000000000000000000000000000000000000000000000008152600401612ede90614ec2565b60405180910390fd5b80600660008481526020019081526020016000209080519060200190612f0e929190613d0f565b505050565b6040518061014001604052808581526020018481526020018381526020018273ffffffffffffffffffffffffffffffffffffffff1681526020013373ffffffffffffffffffffffffffffffffffffffff1681526020016000151581526020016000151581526020016000815260200160001515815260200160001515815250600a84604051612fa29190614bc2565b9081526020016040518091039020600082015181600001556020820151816001019080519060200190612fd6929190613d0f565b506040820151816002015560608201518160030160006101000a81548173ffffffffffffffffffffffffffffffffffffffff021916908373ffffffffffffffffffffffffffffffffffffffff16021790555060808201518160040160006101000a81548173ffffffffffffffffffffffffffffffffffffffff021916908373ffffffffffffffffffffffffffffffffffffffff16021790555060a08201518160040160146101000a81548160ff02191690831515021790555060c08201518160040160156101000a81548160ff02191690831515021790555060e082015181600501556101008201518160060160006101000a81548160ff0219169083151502179055506101208201518160060160016101000a81548160ff021916908315150217905550905050837f7add9db2c8f79bd9a1a4bb1e05fca8b651aec9ac38c613a01a1fb844e8a16f05838333600080600080600060405161313f98979695949392919061515f565b60405180910390a250505050565b8173ffffffffffffffffffffffffffffffffffffffff168373ffffffffffffffffffffffffffffffffffffffff1614156131bc576040517f08c379a00000000000000000000000000000000000000000000000000000000081526004016131b390614de2565b60405180910390fd5b80600560008573ffffffffffffffffffffffffffffffffffffffff1673ffffffffffffffffffffffffffffffffffffffff16815260200190815260200160002060008473ffffffffffffffffffffffffffffffffffffffff1673ffffffffffffffffffffffffffffffffffffffff16815260200190815260200160002060006101000a81548160ff0219169083151502179055508173ffffffffffffffffffffffffffffffffffffffff168373ffffffffffffffffffffffffffffffffffffffff167f17307eab39ab6107e8899845ad3d59bd9653f200f220920489ca2b5937696c31836040516132ad9190614cca565b60405180910390a3505050565b6132c5848484612c1a565b6132d1848484846134d9565b613310576040517f08c379a000000000000000000000000000000000000000000000000000000000815260040161330790614d42565b60405180910390fd5b50505050565b606061332182612963565b613360576040517f08c379a000000000000000000000000000000000000000000000000000000000815260040161335790614f22565b60405180910390fd5b600060066000848152602001908152602001600020805461338090615580565b80601f01602080910402602001604051908101604052809291908181526020018280546133ac90615580565b80156133f95780601f106133ce576101008083540402835291602001916133f9565b820191906000526020600020905b8154815290600101906020018083116133dc57829003601f168201915b50505050509050600061340a613670565b9050600081511415613420578192505050613463565b60008251111561345557808260405160200161343d929190614bd9565b60405160208183030381529060405292505050613463565b61345e84613687565b925050505b919050565b6134718161372e565b50565b505050565b505050565b6134888383613781565b61349560008484846134d9565b6134d4576040517f08c379a00000000000000000000000000000000000000000000000000000000081526004016134cb90614d42565b60405180910390fd5b505050565b60006134fa8473ffffffffffffffffffffffffffffffffffffffff1661395b565b15613663578373ffffffffffffffffffffffffffffffffffffffff1663150b7a026135236129cf565b8786866040518563ffffffff1660e01b81526004016135459493929190614c5c565b602060405180830381600087803b15801561355f57600080fd5b505af192505050801561359057506040513d601f19601f8201168201806040525081019061358d91906140fa565b60015b613613573d80600081146135c0576040519150601f19603f3d011682016040523d82523d6000602084013e6135c5565b606091505b5060008151141561360b576040517f08c379a000000000000000000000000000000000000000000000000000000000815260040161360290614d42565b60405180910390fd5b805181602001fd5b63150b7a0260e01b7bffffffffffffffffffffffffffffffffffffffffffffffffffffffff1916817bffffffffffffffffffffffffffffffffffffffffffffffffffffffff191614915050613668565b600190505b949350505050565b606060405180602001604052806000815250905090565b606061369282612963565b6136d1576040517f08c379a00000000000000000000000000000000000000000000000000000000081526004016136c890614f82565b60405180910390fd5b60006136db613670565b905060008151116136fb5760405180602001604052806000815250613726565b806137058461397e565b604051602001613716929190614bd9565b6040516020818303038152906040525b915050919050565b61373781613b2b565b600060066000838152602001908152602001600020805461375790615580565b90501461377e5760066000828152602001908152602001600020600061377d9190613ccf565b5b50565b600073ffffffffffffffffffffffffffffffffffffffff168273ffffffffffffffffffffffffffffffffffffffff1614156137f1576040517f08c379a00000000000000000000000000000000000000000000000000000000081526004016137e890614f02565b60405180910390fd5b6137fa81612963565b1561383a576040517f08c379a000000000000000000000000000000000000000000000000000000000815260040161383190614d82565b60405180910390fd5b61384660008383613474565b6001600360008473ffffffffffffffffffffffffffffffffffffffff1673ffffffffffffffffffffffffffffffffffffffff168152602001908152602001600020600082825461389691906153d9565b92505081905550816002600083815260200190815260200160002060006101000a81548173ffffffffffffffffffffffffffffffffffffffff021916908373ffffffffffffffffffffffffffffffffffffffff160217905550808273ffffffffffffffffffffffffffffffffffffffff16600073ffffffffffffffffffffffffffffffffffffffff167fddf252ad1be2c89b69c2b068fc378daa952ba7f163c4a11628f55a4df523b3ef60405160405180910390a461395760008383613479565b5050565b6000808273ffffffffffffffffffffffffffffffffffffffff163b119050919050565b606060008214156139c6576040518060400160405280600181526020017f30000000000000000000000000000000000000000000000000000000000000008152509050613b26565b600082905060005b600082146139f85780806139e1906155e3565b915050600a826139f1919061542f565b91506139ce565b60008167ffffffffffffffff811115613a3a577f4e487b7100000000000000000000000000000000000000000000000000000000600052604160045260246000fd5b6040519080825280601f01601f191660200182016040528015613a6c5781602001600182028036833780820191505090505b5090505b60008514613b1f57600182613a859190615460565b9150600a85613a949190615636565b6030613aa091906153d9565b60f81b818381518110613adc577f4e487b7100000000000000000000000000000000000000000000000000000000600052603260045260246000fd5b60200101907effffffffffffffffffffffffffffffffffffffffffffffffffffffffffffff1916908160001a905350600a85613b18919061542f565b9450613a70565b8093505050505b919050565b6000613b36826116c4565b9050613b4481600084613474565b613b4f6000836129d7565b6001600360008373ffffffffffffffffffffffffffffffffffffffff1673ffffffffffffffffffffffffffffffffffffffff1681526020019081526020016000206000828254613b9f9190615460565b925050819055506002600083815260200190815260200160002060006101000a81549073ffffffffffffffffffffffffffffffffffffffff021916905581600073ffffffffffffffffffffffffffffffffffffffff168273ffffffffffffffffffffffffffffffffffffffff167fddf252ad1be2c89b69c2b068fc378daa952ba7f163c4a11628f55a4df523b3ef60405160405180910390a4613c4481600084613479565b5050565b604051806101400160405280600081526020016060815260200160008152602001600073ffffffffffffffffffffffffffffffffffffffff168152602001600073ffffffffffffffffffffffffffffffffffffffff168152602001600015158152602001600015158152602001600081526020016000151581526020016000151581525090565b508054613cdb90615580565b6000825580601f10613ced5750613d0c565b601f016020900490600052602060002090810190613d0b9190613d95565b5b50565b828054613d1b90615580565b90600052602060002090601f016020900481019282613d3d5760008555613d84565b82601f10613d5657805160ff1916838001178555613d84565b82800160010185558215613d84579182015b82811115613d83578251825591602001919060010190613d68565b5b509050613d919190613d95565b5090565b5b80821115613dae576000816000905550600101613d96565b5090565b6000613dc5613dc0846152ea565b6152c5565b905082815260208101848484011115613ddd57600080fd5b613de884828561553e565b509392505050565b6000613e03613dfe8461531b565b6152c5565b905082815260208101848484011115613e1b57600080fd5b613e2684828561553e565b509392505050565b600081359050613e3d81615eda565b92915050565b600081519050613e5281615eda565b92915050565b600081359050613e6781615ef1565b92915050565b600081519050613e7c81615ef1565b92915050565b600081359050613e9181615f08565b92915050565b600081519050613ea681615f08565b92915050565b600082601f830112613ebd57600080fd5b8135613ecd848260208601613db2565b91505092915050565b600082601f830112613ee757600080fd5b8135613ef7848260208601613df0565b91505092915050565b600081359050613f0f81615f1f565b92915050565b600081519050613f2481615f1f565b92915050565b600060208284031215613f3c57600080fd5b6000613f4a84828501613e2e565b91505092915050565b60008060408385031215613f6657600080fd5b6000613f7485828601613e2e565b9250506020613f8585828601613e2e565b9150509250929050565b600080600060608486031215613fa457600080fd5b6000613fb286828701613e2e565b9350506020613fc386828701613e2e565b9250506040613fd486828701613f00565b9150509250925092565b60008060008060808587031215613ff457600080fd5b600061400287828801613e2e565b945050602061401387828801613e2e565b935050604061402487828801613f00565b925050606085013567ffffffffffffffff81111561404157600080fd5b61404d87828801613eac565b91505092959194509250565b6000806040838503121561406c57600080fd5b600061407a85828601613e2e565b925050602061408b85828601613e58565b9150509250929050565b600080604083850312156140a857600080fd5b60006140b685828601613e2e565b92505060206140c785828601613f00565b9150509250929050565b6000602082840312156140e357600080fd5b60006140f184828501613e82565b91505092915050565b60006020828403121561410c57600080fd5b600061411a84828501613e97565b91505092915050565b60006020828403121561413557600080fd5b600082013567ffffffffffffffff81111561414f57600080fd5b61415b84828501613ed6565b91505092915050565b6000806040838503121561417757600080fd5b600083013567ffffffffffffffff81111561419157600080fd5b61419d85828601613ed6565b92505060206141ae85828601613e58565b9150509250929050565b600080600080600060a086880312156141d057600080fd5b600086013567ffffffffffffffff8111156141ea57600080fd5b6141f688828901613ed6565b955050602086013567ffffffffffffffff81111561421357600080fd5b61421f88828901613ed6565b945050604061423088828901613f00565b935050606061424188828901613e2e565b925050608061425288828901613f00565b9150509295509295909350565b6000806040838503121561427257600080fd5b600083013567ffffffffffffffff81111561428c57600080fd5b61429885828601613ed6565b92505060206142a985828601613f00565b9150509250929050565b6000806000606084860312156142c857600080fd5b600084013567ffffffffffffffff8111156142e257600080fd5b6142ee86828701613ed6565b93505060206142ff86828701613f00565b925050604061431086828701613f00565b9150509250925092565b60006020828403121561432c57600080fd5b600061433a84828501613f00565b91505092915050565b600080600080600060a0868803121561435b57600080fd5b600061436988828901613f15565b955050602061437a88828901613f15565b945050604061438b88828901613e43565b935050606061439c88828901613e43565b92505060806143ad88828901613e6d565b9150509295509295909350565b60006143c683836149d9565b905092915050565b6143d781615494565b82525050565b6143e681615494565b82525050565b60006143f78261535c565b614401818561538a565b9350836020820285016144138561534c565b8060005b8581101561444f578484038952815161443085826143ba565b945061443b8361537d565b925060208a01995050600181019050614417565b50829750879550505050505092915050565b61446a816154a6565b82525050565b614479816154a6565b82525050565b600061448a82615367565b614494818561539b565b93506144a481856020860161554d565b6144ad81615723565b840191505092915050565b6144c181615508565b82525050565b6144d08161552c565b82525050565b60006144e182615372565b6144eb81856153ac565b93506144fb81856020860161554d565b61450481615723565b840191505092915050565b600061451a82615372565b61452481856153bd565b935061453481856020860161554d565b61453d81615723565b840191505092915050565b600061455382615372565b61455d81856153ce565b935061456d81856020860161554d565b80840191505092915050565b60006145866019836153bd565b915061459182615734565b602082019050919050565b60006145a96032836153bd565b91506145b48261575d565b604082019050919050565b60006145cc6025836153bd565b91506145d7826157ac565b604082019050919050565b60006145ef601c836153bd565b91506145fa826157fb565b602082019050919050565b6000614612602b836153bd565b915061461d82615824565b604082019050919050565b60006146356024836153bd565b915061464082615873565b604082019050919050565b60006146586019836153bd565b9150614663826158c2565b602082019050919050565b600061467b6022836153bd565b9150614686826158eb565b604082019050919050565b600061469e602c836153bd565b91506146a98261593a565b604082019050919050565b60006146c1600a836153bd565b91506146cc82615989565b602082019050919050565b60006146e46038836153bd565b91506146ef826159b2565b604082019050919050565b6000614707602a836153bd565b915061471282615a01565b604082019050919050565b600061472a6029836153bd565b915061473582615a50565b604082019050919050565b600061474d602e836153bd565b915061475882615a9f565b604082019050919050565b60006147706012836153bd565b915061477b82615aee565b602082019050919050565b60006147936020836153bd565b915061479e82615b17565b602082019050919050565b60006147b66031836153bd565b91506147c182615b40565b604082019050919050565b60006147d9602c836153bd565b91506147e482615b8f565b604082019050919050565b60006147fc6016836153bd565b915061480782615bde565b602082019050919050565b600061481f602f836153bd565b915061482a82615c07565b604082019050919050565b6000614842600b836153bd565b915061484d82615c56565b602082019050919050565b60006148656015836153bd565b915061487082615c7f565b602082019050919050565b60006148886021836153bd565b915061489382615ca8565b604082019050919050565b60006148ab602f836153bd565b91506148b682615cf7565b604082019050919050565b60006148ce6029836153bd565b91506148d982615d46565b604082019050919050565b60006148f16031836153bd565b91506148fc82615d95565b604082019050919050565b60006149146019836153bd565b915061491f82615de4565b602082019050919050565b60006149376016836153bd565b915061494282615e0d565b602082019050919050565b600061495a6014836153bd565b915061496582615e36565b602082019050919050565b600061497d601a836153bd565b915061498882615e5f565b602082019050919050565b60006149a0601a836153bd565b91506149ab82615e88565b602082019050919050565b60006149c3600f836153bd565b91506149ce82615eb1565b602082019050919050565b6000610140830160008301516149f26000860182614b8d565b5060208301518482036020860152614a0a82826144d6565b9150506040830151614a1f6040860182614b8d565b506060830151614a3260608601826143ce565b506080830151614a4560808601826143ce565b5060a0830151614a5860a0860182614461565b5060c0830151614a6b60c0860182614461565b5060e0830151614a7e60e0860182614b8d565b50610100830151614a93610100860182614461565b50610120830151614aa8610120860182614461565b508091505092915050565b600061014083016000830151614acc6000860182614b8d565b5060208301518482036020860152614ae482826144d6565b9150506040830151614af96040860182614b8d565b506060830151614b0c60608601826143ce565b506080830151614b1f60808601826143ce565b5060a0830151614b3260a0860182614461565b5060c0830151614b4560c0860182614461565b5060e0830151614b5860e0860182614b8d565b50610100830151614b6d610100860182614461565b50610120830151614b82610120860182614461565b508091505092915050565b614b96816154fe565b82525050565b614ba5816154fe565b82525050565b614bbc614bb7826154fe565b61562c565b82525050565b6000614bce8284614548565b915081905092915050565b6000614be58285614548565b9150614bf18284614548565b91508190509392505050565b6000614c098284614bab565b60208201915081905092915050565b6000602082019050614c2d60008301846143dd565b92915050565b6000604082019050614c4860008301856143dd565b614c5560208301846143dd565b9392505050565b6000608082019050614c7160008301876143dd565b614c7e60208301866143dd565b614c8b6040830185614b9c565b8181036060830152614c9d818461447f565b905095945050505050565b60006020820190508181036000830152614cc281846143ec565b905092915050565b6000602082019050614cdf6000830184614470565b92915050565b6000602082019050614cfa60008301846144b8565b92915050565b60006020820190508181036000830152614d1a818461450f565b905092915050565b60006020820190508181036000830152614d3b81614579565b9050919050565b60006020820190508181036000830152614d5b8161459c565b9050919050565b60006020820190508181036000830152614d7b816145bf565b9050919050565b60006020820190508181036000830152614d9b816145e2565b9050919050565b60006020820190508181036000830152614dbb81614605565b9050919050565b60006020820190508181036000830152614ddb81614628565b9050919050565b60006020820190508181036000830152614dfb8161464b565b9050919050565b60006020820190508181036000830152614e1b8161466e565b9050919050565b60006020820190508181036000830152614e3b81614691565b9050919050565b60006020820190508181036000830152614e5b816146b4565b9050919050565b60006020820190508181036000830152614e7b816146d7565b9050919050565b60006020820190508181036000830152614e9b816146fa565b9050919050565b60006020820190508181036000830152614ebb8161471d565b9050919050565b60006020820190508181036000830152614edb81614740565b9050919050565b60006020820190508181036000830152614efb81614763565b9050919050565b60006020820190508181036000830152614f1b81614786565b9050919050565b60006020820190508181036000830152614f3b816147a9565b9050919050565b60006020820190508181036000830152614f5b816147cc565b9050919050565b60006020820190508181036000830152614f7b816147ef565b9050919050565b60006020820190508181036000830152614f9b81614812565b9050919050565b60006020820190508181036000830152614fbb81614835565b9050919050565b60006020820190508181036000830152614fdb81614858565b9050919050565b60006020820190508181036000830152614ffb8161487b565b9050919050565b6000602082019050818103600083015261501b8161489e565b9050919050565b6000602082019050818103600083015261503b816148c1565b9050919050565b6000602082019050818103600083015261505b816148e4565b9050919050565b6000602082019050818103600083015261507b81614907565b9050919050565b6000602082019050818103600083015261509b8161492a565b9050919050565b600060208201905081810360008301526150bb8161494d565b9050919050565b600060208201905081810360008301526150db81614970565b9050919050565b600060208201905081810360008301526150fb81614993565b9050919050565b6000602082019050818103600083015261511b816149b6565b9050919050565b6000602082019050818103600083015261513c8184614ab3565b905092915050565b60006020820190506151596000830184614b9c565b92915050565b600061010082019050615175600083018b614b9c565b615182602083018a6143dd565b61518f60408301896143dd565b61519c6060830188614470565b6151a96080830187614470565b6151b660a08301866144c7565b6151c360c0830185614470565b6151d060e0830184614470565b9998505050505050505050565b6000610140820190506151f3600083018d614b9c565b8181036020830152615205818c61450f565b9050615214604083018b614b9c565b615221606083018a6143dd565b61522e60808301896143dd565b61523b60a0830188614470565b61524860c0830187614470565b61525560e0830186614b9c565b615263610100830185614470565b615271610120830184614470565b9b9a5050505050505050505050565b60006080820190506152956000830187614b9c565b6152a26020830186614b9c565b6152af60408301856143dd565b6152bc60608301846143dd565b95945050505050565b60006152cf6152e0565b90506152db82826155b2565b919050565b6000604051905090565b600067ffffffffffffffff821115615305576153046156f4565b5b61530e82615723565b9050602081019050919050565b600067ffffffffffffffff821115615336576153356156f4565b5b61533f82615723565b9050602081019050919050565b6000819050602082019050919050565b600081519050919050565b600081519050919050565b600081519050919050565b6000602082019050919050565b600082825260208201905092915050565b600082825260208201905092915050565b600082825260208201905092915050565b600082825260208201905092915050565b600081905092915050565b60006153e4826154fe565b91506153ef836154fe565b9250827fffffffffffffffffffffffffffffffffffffffffffffffffffffffffffffffff0382111561542457615423615667565b5b828201905092915050565b600061543a826154fe565b9150615445836154fe565b92508261545557615454615696565b5b828204905092915050565b600061546b826154fe565b9150615476836154fe565b92508282101561548957615488615667565b5b828203905092915050565b600061549f826154de565b9050919050565b60008115159050919050565b60007fffffffff0000000000000000000000000000000000000000000000000000000082169050919050565b600073ffffffffffffffffffffffffffffffffffffffff82169050919050565b6000819050919050565b60006155138261551a565b9050919050565b6000615525826154de565b9050919050565b6000615537826154fe565b9050919050565b82818337600083830152505050565b60005b8381101561556b578082015181840152602081019050615550565b8381111561557a576000848401525b50505050565b6000600282049050600182168061559857607f821691505b602082108114156155ac576155ab6156c5565b5b50919050565b6155bb82615723565b810181811067ffffffffffffffff821117156155da576155d96156f4565b5b80604052505050565b60006155ee826154fe565b91507fffffffffffffffffffffffffffffffffffffffffffffffffffffffffffffffff82141561562157615620615667565b5b600182019050919050565b6000819050919050565b6000615641826154fe565b915061564c836154fe565b92508261565c5761565b615696565b5b828206905092915050565b7f4e487b7100000000000000000000000000000000000000000000000000000000600052601160045260246000fd5b7f4e487b7100000000000000000000000000000000000000000000000000000000600052601260045260246000fd5b7f4e487b7100000000000000000000000000000000000000000000000000000000600052602260045260246000fd5b7f4e487b7100000000000000000000000000000000000000000000000000000000600052604160045260246000fd5b6000601f19601f8301169050919050565b7f436865636b2d696e2074696d65206e6f74207265616368656400000000000000600082015250565b7f4552433732313a207472616e7366657220746f206e6f6e20455243373231526560008201527f63656976657220696d706c656d656e7465720000000000000000000000000000602082015250565b7f4552433732313a207472616e736665722066726f6d20696e636f72726563742060008201527f6f776e6572000000000000000000000000000000000000000000000000000000602082015250565b7f4552433732313a20746f6b656e20616c7265616479206d696e74656400000000600082015250565b7f4f6e6c7920636f6e7472616374206f776e65722063616e20706572666f726d2060008201527f7468697320616374696f6e000000000000000000000000000000000000000000602082015250565b7f4552433732313a207472616e7366657220746f20746865207a65726f2061646460008201527f7265737300000000000000000000000000000000000000000000000000000000602082015250565b7f4552433732313a20617070726f766520746f2063616c6c657200000000000000600082015250565b7f5265717565737420616674657220726566756e6420706572696f6420636c6f7360008201527f6564000000000000000000000000000000000000000000000000000000000000602082015250565b7f4552433732313a206f70657261746f7220717565727920666f72206e6f6e657860008201527f697374656e7420746f6b656e0000000000000000000000000000000000000000602082015250565b7f77726f6e67207573657200000000000000000000000000000000000000000000600082015250565b7f4552433732313a20617070726f76652063616c6c6572206973206e6f74206f7760008201527f6e6572206e6f7220617070726f76656420666f7220616c6c0000000000000000602082015250565b7f4552433732313a2062616c616e636520717565727920666f7220746865207a6560008201527f726f206164647265737300000000000000000000000000000000000000000000602082015250565b7f4552433732313a206f776e657220717565727920666f72206e6f6e657869737460008201527f656e7420746f6b656e0000000000000000000000000000000000000000000000602082015250565b7f45524337323155524953746f726167653a2055524920736574206f66206e6f6e60008201527f6578697374656e7420746f6b656e000000000000000000000000000000000000602082015250565b7f546f74616c20616d6f756e742069737375650000000000000000000000000000600082015250565b7f4552433732313a206d696e7420746f20746865207a65726f2061646472657373600082015250565b7f45524337323155524953746f726167653a2055524920717565727920666f722060008201527f6e6f6e6578697374656e7420746f6b656e000000000000000000000000000000602082015250565b7f4552433732313a20617070726f76656420717565727920666f72206e6f6e657860008201527f697374656e7420746f6b656e0000000000000000000000000000000000000000602082015250565b7f4c61746520636865636b6f757420646574656374656400000000000000000000600082015250565b7f4552433732314d657461646174613a2055524920717565727920666f72206e6f60008201527f6e6578697374656e7420746f6b656e0000000000000000000000000000000000602082015250565b7f4465706f736974203e2030000000000000000000000000000000000000000000600082015250565b7f496e7370656374696f6e206e6f74207061737365640000000000000000000000600082015250565b7f4552433732313a20617070726f76616c20746f2063757272656e74206f776e6560008201527f7200000000000000000000000000000000000000000000000000000000000000602082015250565b7f43616e6e6f74206275726e2072656e74616c2077697468206e6f6e2d7a65726f60008201527f20657363726f772064657461696c730000000000000000000000000000000000602082015250565b7f526566756e642063616e6e6f742062652072657175657374656420616674657260008201527f20636865636b2d696e0000000000000000000000000000000000000000000000602082015250565b7f4552433732313a207472616e736665722063616c6c6572206973206e6f74206f60008201527f776e6572206e6f7220617070726f766564000000000000000000000000000000602082015250565b7f52656e74616c20616c726561647920636865636b656420696e00000000000000600082015250565b7f52656e74616c206e6f7420636865636b6564206f757400000000000000000000600082015250565b7f52656e74616c205555494420697320656d707479000000000000000000000000600082015250565b7f52656e74616c205555494420646f6573206e6f74206578697374000000000000600082015250565b7f52656e74616c20616c726561647920636865636b6564206f7574000000000000600082015250565b7f52656e74616c2066656520203e20300000000000000000000000000000000000600082015250565b615ee381615494565b8114615eee57600080fd5b50565b615efa816154a6565b8114615f0557600080fd5b50565b615f11816154b2565b8114615f1c57600080fd5b50565b615f28816154fe565b8114615f3357600080fd5b5056fea264697066735822122076ea632ce6c37d68874c2426cb061efe23fd80ddaffe540cf1785de68f9e592864736f6c63430008040033",
  "linkReferences": {},
  "deployedLinkReferences": {}
}