{
  "_format": "hh-sol-artifact-1",
  "contractName": "AhoyRentals",
  "sourceName": "src/backend/contracts/AhoyRentals/AhoyRentals.sol",
  "abi": [
    {
      "inputs": [
        {
          "internalType": "address",
          "name": "_usdc",
          "type": "address"
        },
        {
          "internalType": "address",
          "name": "_ahoyToken",
          "type": "address"
        }
      ],
      "stateMutability": "nonpayable",
      "type": "constructor"
    },
    {
      "inputs": [
        {
          "internalType": "address",
          "name": "owner",
          "type": "address"
        }
      ],
      "name": "OwnableInvalidOwner",
      "type": "error"
    },
    {
      "inputs": [
        {
          "internalType": "address",
          "name": "account",
          "type": "address"
        }
      ],
      "name": "OwnableUnauthorizedAccount",
      "type": "error"
    },
    {
      "anonymous": false,
      "inputs": [
        {
          "indexed": false,
          "internalType": "string",
          "name": "name",
          "type": "string"
        },
        {
          "indexed": true,
          "internalType": "address",
          "name": "oldAddr",
          "type": "address"
        },
        {
          "indexed": true,
          "internalType": "address",
          "name": "newAddr",
          "type": "address"
        }
      ],
      "name": "AddressUpdated",
      "type": "event"
    },
    {
      "anonymous": false,
      "inputs": [
        {
          "indexed": true,
          "internalType": "uint256",
          "name": "boatId",
          "type": "uint256"
        },
        {
          "indexed": false,
          "internalType": "bool",
          "name": "isRentable",
          "type": "bool"
        }
      ],
      "name": "BoatOwnerConsentToggled",
      "type": "event"
    },
    {
      "anonymous": false,
      "inputs": [
        {
          "indexed": true,
          "internalType": "uint256",
          "name": "rentalId",
          "type": "uint256"
        },
        {
          "indexed": false,
          "internalType": "uint256",
          "name": "toBoatOwner",
          "type": "uint256"
        },
        {
          "indexed": false,
          "internalType": "uint256",
          "name": "toRenter",
          "type": "uint256"
        }
      ],
      "name": "FullOrPartialRefundIssued",
      "type": "event"
    },
    {
      "anonymous": false,
      "inputs": [
        {
          "indexed": true,
          "internalType": "uint256",
          "name": "rentalId",
          "type": "uint256"
        },
        {
          "indexed": false,
          "internalType": "bool",
          "name": "passing",
          "type": "bool"
        }
      ],
      "name": "InspectionPerformed",
      "type": "event"
    },
    {
      "anonymous": false,
      "inputs": [
        {
          "indexed": true,
          "internalType": "address",
          "name": "previousOwner",
          "type": "address"
        },
        {
          "indexed": true,
          "internalType": "address",
          "name": "newOwner",
          "type": "address"
        }
      ],
      "name": "OwnershipTransferred",
      "type": "event"
    },
    {
      "anonymous": false,
      "inputs": [
        {
          "indexed": true,
          "internalType": "uint256",
          "name": "rentalId",
          "type": "uint256"
        }
      ],
      "name": "RefundIssued",
      "type": "event"
    },
    {
      "anonymous": false,
      "inputs": [
        {
          "indexed": true,
          "internalType": "uint256",
          "name": "rentalId",
          "type": "uint256"
        }
      ],
      "name": "RefundRequested",
      "type": "event"
    },
    {
      "anonymous": false,
      "inputs": [
        {
          "indexed": true,
          "internalType": "uint256",
          "name": "rentalId",
          "type": "uint256"
        }
      ],
      "name": "RentalAgreementCreated",
      "type": "event"
    },
    {
      "anonymous": false,
      "inputs": [
        {
          "indexed": true,
          "internalType": "uint256",
          "name": "rentalId",
          "type": "uint256"
        }
      ],
      "name": "RentalCompleted",
      "type": "event"
    },
    {
      "anonymous": false,
      "inputs": [
        {
          "indexed": true,
          "internalType": "uint256",
          "name": "rentalId",
          "type": "uint256"
        }
      ],
      "name": "RenterCheckedIn",
      "type": "event"
    },
    {
      "anonymous": false,
      "inputs": [
        {
          "indexed": true,
          "internalType": "uint256",
          "name": "rentalId",
          "type": "uint256"
        }
      ],
      "name": "RenterCheckedOut",
      "type": "event"
    },
    {
      "anonymous": false,
      "inputs": [
        {
          "indexed": true,
          "internalType": "uint256",
          "name": "boatId",
          "type": "uint256"
        },
        {
          "indexed": false,
          "internalType": "uint256",
          "name": "oldHourlyRate",
          "type": "uint256"
        },
        {
          "indexed": false,
          "internalType": "uint256",
          "name": "hourlyRate",
          "type": "uint256"
        },
        {
          "indexed": false,
          "internalType": "uint256",
          "name": "oldDailyRate",
          "type": "uint256"
        },
        {
          "indexed": false,
          "internalType": "uint256",
          "name": "dailyRate",
          "type": "uint256"
        },
        {
          "indexed": false,
          "internalType": "uint256",
          "name": "oldClosedPeriod",
          "type": "uint256"
        },
        {
          "indexed": false,
          "internalType": "uint256",
          "name": "closedPeriod",
          "type": "uint256"
        },
        {
          "indexed": false,
          "internalType": "uint256",
          "name": "oldRefundabilityPeriod",
          "type": "uint256"
        },
        {
          "indexed": false,
          "internalType": "uint256",
          "name": "refundabilityPeriod",
          "type": "uint256"
        },
        {
          "indexed": false,
          "internalType": "uint256",
          "name": "oldSecurityDeposit",
          "type": "uint256"
        },
        {
          "indexed": false,
          "internalType": "uint256",
          "name": "securityDeposit",
          "type": "uint256"
        }
      ],
      "name": "TermsSet",
      "type": "event"
    },
    {
      "inputs": [
        {
          "internalType": "uint256",
          "name": "rentalId",
          "type": "uint256"
        }
      ],
      "name": "cancelReservation",
      "outputs": [],
      "stateMutability": "nonpayable",
      "type": "function"
    },
    {
      "inputs": [
        {
          "internalType": "uint256",
          "name": "rentalId",
          "type": "uint256"
        }
      ],
      "name": "checkIn",
      "outputs": [],
      "stateMutability": "nonpayable",
      "type": "function"
    },
    {
      "inputs": [
        {
          "internalType": "uint256",
          "name": "",
          "type": "uint256"
        }
      ],
      "name": "checkInTime",
      "outputs": [
        {
          "internalType": "uint256",
          "name": "",
          "type": "uint256"
        }
      ],
      "stateMutability": "view",
      "type": "function"
    },
    {
      "inputs": [
        {
          "internalType": "uint256",
          "name": "rentalId",
          "type": "uint256"
        }
      ],
      "name": "checkOut",
      "outputs": [],
      "stateMutability": "nonpayable",
      "type": "function"
    },
    {
      "inputs": [
        {
          "internalType": "uint256",
          "name": "",
          "type": "uint256"
        }
      ],
      "name": "checkOutTime",
      "outputs": [
        {
          "internalType": "uint256",
          "name": "",
          "type": "uint256"
        }
      ],
      "stateMutability": "view",
      "type": "function"
    },
    {
      "inputs": [
        {
          "internalType": "uint256",
          "name": "rentalId",
          "type": "uint256"
        }
      ],
      "name": "completeRental",
      "outputs": [],
      "stateMutability": "nonpayable",
      "type": "function"
    },
    {
      "inputs": [
        {
          "internalType": "uint256",
          "name": "boatId",
          "type": "uint256"
        },
        {
          "internalType": "address",
          "name": "renter",
          "type": "address"
        },
        {
          "internalType": "uint256",
          "name": "depositAmount",
          "type": "uint256"
        },
        {
          "internalType": "uint256",
          "name": "securityAmount",
          "type": "uint256"
        },
        {
          "internalType": "uint256",
          "name": "checkInDeadline",
          "type": "uint256"
        },
        {
          "internalType": "uint256",
          "name": "checkOutDeadline",
          "type": "uint256"
        },
        {
          "internalType": "string",
          "name": "_uuid",
          "type": "string"
        }
      ],
      "name": "createRentalAgreement",
      "outputs": [],
      "stateMutability": "nonpayable",
      "type": "function"
    },
    {
      "inputs": [
        {
          "internalType": "string",
          "name": "query",
          "type": "string"
        }
      ],
      "name": "fromUuid",
      "outputs": [
        {
          "internalType": "uint256",
          "name": "rentalId",
          "type": "uint256"
        }
      ],
      "stateMutability": "view",
      "type": "function"
    },
    {
      "inputs": [],
      "name": "getAhoyToken",
      "outputs": [
        {
          "internalType": "address",
          "name": "",
          "type": "address"
        }
      ],
      "stateMutability": "view",
      "type": "function"
    },
    {
      "inputs": [],
      "name": "getUsdc",
      "outputs": [
        {
          "internalType": "address",
          "name": "",
          "type": "address"
        }
      ],
      "stateMutability": "view",
      "type": "function"
    },
    {
      "inputs": [
        {
          "internalType": "uint256",
          "name": "boatId",
          "type": "uint256"
        }
      ],
      "name": "hasConsent",
      "outputs": [
        {
          "internalType": "bool",
          "name": "",
          "type": "bool"
        }
      ],
      "stateMutability": "view",
      "type": "function"
    },
    {
      "inputs": [
        {
          "internalType": "uint256",
          "name": "",
          "type": "uint256"
        }
      ],
      "name": "inspectionPassed",
      "outputs": [
        {
          "internalType": "bool",
          "name": "",
          "type": "bool"
        }
      ],
      "stateMutability": "view",
      "type": "function"
    },
    {
      "inputs": [
        {
          "internalType": "uint256",
          "name": "",
          "type": "uint256"
        }
      ],
      "name": "inspectionPerformed",
      "outputs": [
        {
          "internalType": "bool",
          "name": "",
          "type": "bool"
        }
      ],
      "stateMutability": "view",
      "type": "function"
    },
    {
      "inputs": [
        {
          "internalType": "uint256",
          "name": "rentalId",
          "type": "uint256"
        },
        {
          "internalType": "uint256",
          "name": "toBoatOwner",
          "type": "uint256"
        },
        {
          "internalType": "uint256",
          "name": "toRenter",
          "type": "uint256"
        }
      ],
      "name": "issueFullOrPartialRefund",
      "outputs": [],
      "stateMutability": "nonpayable",
      "type": "function"
    },
    {
      "inputs": [],
      "name": "numRentalAgreements",
      "outputs": [
        {
          "internalType": "uint256",
          "name": "",
          "type": "uint256"
        }
      ],
      "stateMutability": "view",
      "type": "function"
    },
    {
      "inputs": [],
      "name": "owner",
      "outputs": [
        {
          "internalType": "address",
          "name": "",
          "type": "address"
        }
      ],
      "stateMutability": "view",
      "type": "function"
    },
    {
      "inputs": [],
      "name": "renounceOwnership",
      "outputs": [],
      "stateMutability": "nonpayable",
      "type": "function"
    },
    {
      "inputs": [
        {
          "internalType": "uint256",
          "name": "rentalId",
          "type": "uint256"
        }
      ],
      "name": "rentalAgreements",
      "outputs": [
        {
          "components": [
            {
              "internalType": "uint256",
              "name": "boatId",
              "type": "uint256"
            },
            {
              "internalType": "address",
              "name": "renter",
              "type": "address"
            },
            {
              "internalType": "uint256",
              "name": "deposit",
              "type": "uint256"
            },
            {
              "internalType": "uint256",
              "name": "securityDeposit",
              "type": "uint256"
            },
            {
              "internalType": "uint256",
              "name": "checkInDeadline",
              "type": "uint256"
            },
            {
              "internalType": "uint256",
              "name": "checkOutDeadline",
              "type": "uint256"
            }
          ],
          "internalType": "struct AhoyRentals.RentalAgreement",
          "name": "",
          "type": "tuple"
        }
      ],
      "stateMutability": "view",
      "type": "function"
    },
    {
      "inputs": [
        {
          "internalType": "uint256",
          "name": "",
          "type": "uint256"
        }
      ],
      "name": "rentalCompleted",
      "outputs": [
        {
          "internalType": "bool",
          "name": "",
          "type": "bool"
        }
      ],
      "stateMutability": "view",
      "type": "function"
    },
    {
      "inputs": [
        {
          "internalType": "uint256",
          "name": "rentalId",
          "type": "uint256"
        }
      ],
      "name": "requestCancelReservation",
      "outputs": [],
      "stateMutability": "nonpayable",
      "type": "function"
    },
    {
      "inputs": [
        {
          "internalType": "uint256",
          "name": "",
          "type": "uint256"
        }
      ],
      "name": "reservationCanceled",
      "outputs": [
        {
          "internalType": "bool",
          "name": "",
          "type": "bool"
        }
      ],
      "stateMutability": "view",
      "type": "function"
    },
    {
      "inputs": [
        {
          "internalType": "uint256",
          "name": "",
          "type": "uint256"
        }
      ],
      "name": "reservationCancellationRequested",
      "outputs": [
        {
          "internalType": "bool",
          "name": "",
          "type": "bool"
        }
      ],
      "stateMutability": "view",
      "type": "function"
    },
    {
      "inputs": [
        {
          "internalType": "address",
          "name": "newAddr",
          "type": "address"
        }
      ],
      "name": "setAhoyToken",
      "outputs": [],
      "stateMutability": "nonpayable",
      "type": "function"
    },
    {
      "inputs": [
        {
          "internalType": "uint256",
          "name": "rentalId",
          "type": "uint256"
        },
        {
          "internalType": "bool",
          "name": "passing",
          "type": "bool"
        }
      ],
      "name": "setInspectionPassed",
      "outputs": [],
      "stateMutability": "nonpayable",
      "type": "function"
    },
    {
      "inputs": [
        {
          "internalType": "uint256",
          "name": "boatId",
          "type": "uint256"
        },
        {
          "internalType": "uint256",
          "name": "hourlyRate",
          "type": "uint256"
        },
        {
          "internalType": "uint256",
          "name": "dailyRate",
          "type": "uint256"
        },
        {
          "internalType": "uint256",
          "name": "closedPeriod",
          "type": "uint256"
        },
        {
          "internalType": "uint256",
          "name": "refundabilityPeriod",
          "type": "uint256"
        },
        {
          "internalType": "uint256",
          "name": "securityDeposit",
          "type": "uint256"
        }
      ],
      "name": "setRentalTerms",
      "outputs": [],
      "stateMutability": "nonpayable",
      "type": "function"
    },
    {
      "inputs": [
        {
          "internalType": "address",
          "name": "newAddr",
          "type": "address"
        }
      ],
      "name": "setUsdc",
      "outputs": [],
      "stateMutability": "nonpayable",
      "type": "function"
    },
    {
      "inputs": [
        {
          "internalType": "uint256",
          "name": "boatId",
          "type": "uint256"
        }
      ],
      "name": "terms",
      "outputs": [
        {
          "components": [
            {
              "internalType": "uint256",
              "name": "hourlyRate",
              "type": "uint256"
            },
            {
              "internalType": "uint256",
              "name": "dailyRate",
              "type": "uint256"
            },
            {
              "internalType": "uint256",
              "name": "closedPeriod",
              "type": "uint256"
            },
            {
              "internalType": "uint256",
              "name": "refundabilityPeriod",
              "type": "uint256"
            },
            {
              "internalType": "uint256",
              "name": "securityDeposit",
              "type": "uint256"
            }
          ],
          "internalType": "struct RentalTermsManager.RentalTerms",
          "name": "",
          "type": "tuple"
        }
      ],
      "stateMutability": "view",
      "type": "function"
    },
    {
      "inputs": [
        {
          "internalType": "uint256",
          "name": "boatId",
          "type": "uint256"
        }
      ],
      "name": "toggleConsent",
      "outputs": [],
      "stateMutability": "nonpayable",
      "type": "function"
    },
    {
      "inputs": [
        {
          "internalType": "address",
          "name": "newOwner",
          "type": "address"
        }
      ],
      "name": "transferOwnership",
      "outputs": [],
      "stateMutability": "nonpayable",
      "type": "function"
    },
    {
      "inputs": [
        {
          "internalType": "uint256",
          "name": "rentalId",
          "type": "uint256"
        }
      ],
      "name": "uuid",
      "outputs": [
        {
          "internalType": "string",
          "name": "",
          "type": "string"
        }
      ],
      "stateMutability": "view",
      "type": "function"
    }
  ],
  "bytecode": "0x60c06040526011608090815270216861734f776e657228626f617449642960781b60a052600590620000329082620002c5565b5060408051808201909152600b81526a08585d5d1a1bdc9a5e995960aa1b6020820152600690620000649082620002c5565b5060408051808201909152601481527f496e76616c69642052656e74616c205465726d730000000000000000000000006020820152600790620000a89082620002c5565b5060408051808201909152601181527008589bd85d13dddb995c90dbdb9cd95b9d607a1b6020820152600b90620000e09082620002c5565b5060408051808201909152601881527f496e76616c69642052656e74616c2041677265656d656e7400000000000000006020820152600c90620001249082620002c5565b503480156200013257600080fd5b5060405162002837380380620028378339810160408190526200015591620003ae565b818181818181808233806200018457604051631e4fbdf760e01b81526000600482015260240160405180910390fd5b6200018f81620001ce565b50600280546001600160a01b039283166001600160a01b0319918216179091556003805493909216921691909117905550620003e69650505050505050565b600180546001600160a01b038381166001600160a01b0319831681179093556040519116919082907f8be0079c531659141344cd1fd0a4f28419497f9722a3daafe3b4186f6b6457e090600090a35050565b634e487b7160e01b600052604160045260246000fd5b600181811c908216806200024b57607f821691505b6020821081036200026c57634e487b7160e01b600052602260045260246000fd5b50919050565b601f821115620002c057600081815260208120601f850160051c810160208610156200029b5750805b601f850160051c820191505b81811015620002bc57828155600101620002a7565b5050505b505050565b81516001600160401b03811115620002e157620002e162000220565b620002f981620002f2845462000236565b8462000272565b602080601f831160018114620003315760008415620003185750858301515b600019600386901b1c1916600185901b178555620002bc565b600085815260208120601f198616915b82811015620003625788860151825594840194600190910190840162000341565b5085821015620003815787850151600019600388901b60f8161c191681555b5050505050600190811b01905550565b80516001600160a01b0381168114620003a957600080fd5b919050565b60008060408385031215620003c257600080fd5b620003cd8362000391565b9150620003dd6020840162000391565b90509250929050565b61244180620003f66000396000f3fe608060405234801561001057600080fd5b50600436106101da5760003560e01c80639780f42411610104578063bb8d9928116100a2578063e95a644f11610071578063e95a644f146104d3578063f23574df146104e6578063f275350014610509578063f2fde38b1461052c57600080fd5b8063bb8d992814610447578063c0aa0e8a1461045a578063cb146879146104af578063d8fdbf7c146104c257600080fd5b8063a464d9f7116100de578063a464d9f71461039b578063ac06b0d8146103be578063ae5e6cf414610421578063b86738ec1461043457600080fd5b80639780f4241461034557806399f0d3d7146103585780639c33fd901461037857600080fd5b806353fc47331161017c578063715018a61161014b578063715018a6146103065780638204691f1461030e578063896f018f146103215780638da5cb5b1461033457600080fd5b806353fc47331461028d5780635740705b146102a05780635b8a4104146102c05780635eed5fff146102d357600080fd5b806316e3dae6116101b857806316e3dae61461024c5780631bd2eeee1461025f57806327709caa14610272578063281ad0aa1461027a57600080fd5b80630838c020146101df57806312f3fe76146102125780631408e62c14610237575b600080fd5b6101ff6101ed366004611ed7565b600d6020526000908152604090205481565b6040519081526020015b60405180910390f35b6002546001600160a01b03165b6040516001600160a01b039091168152602001610209565b61024a610245366004611ed7565b61053f565b005b61024a61025a366004611f05565b610700565b61024a61026d366004611ed7565b610714565b6009546101ff565b61024a610288366004611ed7565b61081a565b61024a61029b366004611f29565b610902565b6102b36102ae366004611ed7565b610bbc565b6040516102099190611f79565b61024a6102ce366004611fba565b610c5e565b6102f66102e1366004611ed7565b60106020526000908152604090205460ff1681565b6040519015158152602001610209565b61024a610df4565b6101ff61031c36600461208d565b610e08565b61024a61032f366004611ed7565b610e8e565b6001546001600160a01b031661021f565b6102f6610353366004611ed7565b6112d0565b6101ff610366366004611ed7565b600e6020526000908152604090205481565b6102f6610386366004611ed7565b60126020526000908152604090205460ff1681565b6102f66103a9366004611ed7565b60116020526000908152604090205460ff1681565b6103d16103cc366004611ed7565b6112fa565b6040516102099190815181526020808301516001600160a01b03169082015260408083015190820152606080830151908201526080808301519082015260a0918201519181019190915260c00190565b61024a61042f366004611ed7565b61139e565b61024a6104423660046120ca565b611561565b61024a61045536600461210d565b611869565b61046d610468366004611ed7565b611af5565b6040516102099190600060a082019050825182526020830151602083015260408301516040830152606083015160608301526080830151608083015292915050565b61024a6104bd366004611f05565b611b73565b6003546001600160a01b031661021f565b61024a6104e1366004611ed7565b611b84565b6102f66104f4366004611ed7565b60136020526000908152604090205460ff1681565b6102f6610517366004611ed7565b600f6020526000908152604090205460ff1681565b61024a61053a366004611f05565b611c8a565b80600061054b826112fa565b9050600061055c8260000151611cc5565b905060056001600160a01b0382166105905760405162461bcd60e51b815260040161058791906121c7565b60405180910390fd5b5060208201516001600160a01b03163314806105b457506001600160a01b03811633145b806105d85750336105cd6001546001600160a01b031690565b6001600160a01b0316145b6006906105f85760405162461bcd60e51b815260040161058791906121c7565b506000610604856112fa565b905060006106158260000151611af5565b90508060600151826080015161062b9190612268565b421061066b5760405162461bcd60e51b815260206004820152600f60248201526e70617373656420646561646c696e6560881b6044820152606401610587565b6000868152600d6020526040902054156106b85760405162461bcd60e51b815260206004820152600e60248201526d14995b9d185b0814dd185c9d195960921b6044820152606401610587565b600086815260116020526040808220805460ff191660011790555187917f431b80eca5334464928f696b9231ecf0987e4f1a105f7f560f22514a2fb93dd791a2505050505050565b610708611d47565b61071181611d74565b50565b6000818152600a60205260409020548190600c906107455760405162461bcd60e51b815260040161058791906121c7565b506000828152600a60205260408120549061075f82611cc5565b905060056001600160a01b03821661078a5760405162461bcd60e51b815260040161058791906121c7565b506001600160a01b0381163314806107bb5750336107b06001546001600160a01b031690565b6001600160a01b0316145b6006906107db5760405162461bcd60e51b815260040161058791906121c7565b506000848152600e60205260408082204290555185917fcf9a665f42c87e26ae63f9736e79fc9edcc4db3a6bafd335b092f5297fe0edd791a250505050565b80600061082682611cc5565b905060056001600160a01b0382166108515760405162461bcd60e51b815260040161058791906121c7565b506001600160a01b0381163314806108825750336108776001546001600160a01b031690565b6001600160a01b0316145b6006906108a25760405162461bcd60e51b815260040161058791906121c7565b50600083815260086020908152604091829020805460ff8082161560ff199092168217909255925192161515825284917fdd656f83584d9bf26928c78dad91f177510d37598c9869b31326716f98b626c0910160405180910390a2505050565b61090a611d47565b60008381526013602052604090205460ff16156109595760405162461bcd60e51b815260206004820152600d60248201526c14995b9d185b0810db1bdcd959609a1b6044820152606401610587565b6000610964846112fa565b9050610970828461227b565b8160400151146109c25760405162461bcd60e51b815260206004820152601c60248201527f416d6f756e747320646f206e6f74206d61746368206465706f736974000000006044820152606401610587565b6002546001600160a01b03166001600160a01b031663a9059cbb6109ee6003546001600160a01b031690565b83516040516331a9108f60e11b81526001600160a01b039290921691636352211e91610a209160040190815260200190565b602060405180830381865afa158015610a3d573d6000803e3d6000fd5b505050506040513d601f19601f82011682018060405250810190610a61919061228e565b6040516001600160e01b031960e084901b1681526001600160a01b039091166004820152602481018690526044016020604051808303816000875af1158015610aae573d6000803e3d6000fd5b505050506040513d601f19601f82011682018060405250810190610ad291906122ab565b506002546001600160a01b0316602082015160405163a9059cbb60e01b81526001600160a01b0391821660048201526024810185905291169063a9059cbb906044016020604051808303816000875af1158015610b33573d6000803e3d6000fd5b505050506040513d601f19601f82011682018060405250810190610b5791906122ab565b5060008481526013602052604090819020805460ff191660011790555184907f1b6be995eb58e88a77159ad7791d924194c79e9d32955f8d0c7b93dea94e92ae90610bae9086908690918252602082015260400190565b60405180910390a250505050565b6000818152602081905260409020805460609190610bd99061218d565b80601f0160208091040260200160405190810160405280929190818152602001828054610c059061218d565b8015610c525780601f10610c2757610100808354040283529160200191610c52565b820191906000526020600020905b815481529060010190602001808311610c3557829003601f168201915b50505050509050919050565b6000828152600a602052604081205490610c7782611cc5565b905060056001600160a01b038216610ca25760405162461bcd60e51b815260040161058791906121c7565b506001600160a01b038116331480610cd3575033610cc86001546001600160a01b031690565b6001600160a01b0316145b600690610cf35760405162461bcd60e51b815260040161058791906121c7565b506000848152600f602052604090205460ff1615610d475760405162461bcd60e51b8152602060048201526011602482015270105b1c9958591e48125b9cdc1958dd1959607a1b6044820152606401610587565b6000848152600e60205260408120549003610d925760405162461bcd60e51b815260206004820152600b60248201526a0858da1958dad95913dd5d60aa1b6044820152606401610587565b6000848152601060209081526040808320805487151560ff199182168117909255600f84529382902080549094166001179093555191825285917f425c41438dc480c3fec902b938d1fb6e8c5055ed0a185093512d559d85b072b69101610bae565b610dfc611d47565b610e066000611dfc565b565b60015b6009548111610e865781604051602001610e2591906122c8565b60405160208183030381529060405280519060200120610e4482610bbc565b604051602001610e5491906122c8565b6040516020818303038152906040528051906020012003610e7457919050565b80610e7e816122e4565b915050610e0b565b506000919050565b6000818152600a602052604081205490610ea782611cc5565b905060056001600160a01b038216610ed25760405162461bcd60e51b815260040161058791906121c7565b506001600160a01b038116331480610f03575033610ef86001546001600160a01b031690565b6001600160a01b0316145b600690610f235760405162461bcd60e51b815260040161058791906121c7565b5060008381526013602052604090205460ff1615610f735760405162461bcd60e51b815260206004820152600d60248201526c14995b9d185b0810db1bdcd959609a1b6044820152606401610587565b6000838152600a60209081526040808320815160c0810183528154815260018201546001600160a01b031681850152600282015481840152600382015460608201526004820154608082015260059091015460a0820152868452600e9092529091205461101b5760405162461bcd60e51b815260206004820152601660248201527514995b9d185b081b9bdd0818da1958dad959081bdd5d60521b6044820152606401610587565b60a081015161102c90610e1061227b565b6000858152600e602052604090205411156110795760405162461bcd60e51b815260206004820152600d60248201526c13185d194818da1958dadbdd5d609a1b6044820152606401610587565b60008481526010602052604090205460ff166110cf5760405162461bcd60e51b8152602060048201526015602482015274125b9cdc1958dd1a5bdb881b9bdd081c185cdcd959605a1b6044820152606401610587565b6002546001600160a01b03166020820151606083015160405163a9059cbb60e01b81526001600160a01b039283166004820152602481019190915291169063a9059cbb906044016020604051808303816000875af1158015611135573d6000803e3d6000fd5b505050506040513d601f19601f8201168201806040525081019061115991906122ab565b506000816060015182604001516111709190612268565b90506111846002546001600160a01b031690565b6001600160a01b031663a9059cbb6111a46003546001600160a01b031690565b84516040516331a9108f60e11b81526001600160a01b039290921691636352211e916111d69160040190815260200190565b602060405180830381865afa1580156111f3573d6000803e3d6000fd5b505050506040513d601f19601f82011682018060405250810190611217919061228e565b6040516001600160e01b031960e084901b1681526001600160a01b039091166004820152602481018490526044016020604051808303816000875af1158015611264573d6000803e3d6000fd5b505050506040513d601f19601f8201168201806040525081019061128891906122ab565b50600085815260136020526040808220805460ff191660011790555186917fb8fa8af89eb9f021d003ae952b5a297b135c9b63c63d1e6442bc071d5ab7ab7691a25050505050565b60006112db82611af5565b5115610e865760008281526008602052604090205460ff165b92915050565b61133c6040518060c001604052806000815260200160006001600160a01b03168152602001600081526020016000815260200160008152602001600081525090565b506000908152600a6020908152604091829020825160c0810184528154815260018201546001600160a01b031692810192909252600281015492820192909252600382015460608201526004820154608082015260059091015460a082015290565b6000818152600a6020526040812054906113b782611cc5565b905060056001600160a01b0382166113e25760405162461bcd60e51b815260040161058791906121c7565b506001600160a01b0381163314806114135750336114086001546001600160a01b031690565b6001600160a01b0316145b6006906114335760405162461bcd60e51b815260040161058791906121c7565b5060008381526011602052604090205460ff1661147d5760405162461bcd60e51b8152602060048201526008602482015267085c995c5d595cdd60c21b6044820152606401610587565b6000611488846112fa565b905061149c6002546001600160a01b031690565b6020820151604080840151905163a9059cbb60e01b81526001600160a01b039283166004820152602481019190915291169063a9059cbb906044016020604051808303816000875af11580156114f6573d6000803e3d6000fd5b505050506040513d601f19601f8201168201806040525081019061151a91906122ab565b50600084815260126020526040808220805460ff191660011790555185917fbe39882973eff28580f04c2c5cdc775cd9865cffc8840773d131ab12471c9a6291a250505050565b85600061156d82611cc5565b905060056001600160a01b0382166115985760405162461bcd60e51b815260040161058791906121c7565b506001600160a01b0381163314806115c95750336115be6001546001600160a01b031690565b6001600160a01b0316145b6006906115e95760405162461bcd60e51b815260040161058791906121c7565b506000871161162b5760405162461bcd60e51b815260206004820152600e60248201526d0686f75726c7952617465203c20360941b6044820152606401610587565b6000861161166b5760405162461bcd60e51b815260206004820152600d60248201526c06461696c7952617465203c203609c1b6044820152606401610587565b600085116116ae5760405162461bcd60e51b815260206004820152601060248201526f0636c6f736564506572696f64203c20360841b6044820152606401610587565b600084116116fe5760405162461bcd60e51b815260206004820152601760248201527f726566756e646162696c697479506572696f64203c20300000000000000000006044820152606401610587565b600083116117445760405162461bcd60e51b8152602060048201526013602482015272073656375726974794465706f736974203c203606c1b6044820152606401610587565b600061174f89611af5565b90506040518060a0016040528089815260200188815260200187815260200186815260200185815250600460008b81526020019081526020016000206000820151816000015560208201518160010155604082015181600201556060820151816003015560808201518160040155905050887fdd455da24a9a52a5f49d9d3196f6c0c89ae04551594842e744ed47060517ea4582600001518a84602001518b86604001518c88606001518d8a608001518e6040516118569a99989796959493929190998a5260208a019890985260408901969096526060880194909452608087019290925260a086015260c085015260e08401526101008301526101208201526101400190565b60405180910390a2505050505050505050565b611871611d47565b600061187c88611af5565b604081015190915060015b6009548111611990576000818152600a6020908152604091829020825160c081018452815480825260018301546001600160a01b03169382019390935260028201549381019390935260038101546060840152600481015460808401526005015460a08301528b14801561190a575060008281526012602052604090205460ff16155b1561197d57828160a0015161191f919061227b565b87101580611931575080608001518611155b61197d5760405162461bcd60e51b815260206004820152601960248201527f436f6e666c696374696e672072656e74616c20706572696f64000000000000006044820152606401610587565b5080611988816122e4565b915050611887565b506002546001600160a01b03166040516323b872dd60e01b81526001600160a01b038a81166004830152306024830152604482018a905291909116906323b872dd906064016020604051808303816000875af11580156119f4573d6000803e3d6000fd5b505050506040513d601f19601f82011682018060405250810190611a1891906122ab565b5060098054906000611a29836122e4565b90915550506040805160c0810182528a81526001600160a01b038a811660208084019182528385018c8152606085018c8152608086018c815260a087018c8152600980546000908152600a909652989094209651875593516001870180546001600160a01b0319169190961617909455516002850155915160038401555160048301555160059091015554611abe9084611e4e565b6009546040517fd7632b64ed5ee223e1165c30ca1d40dea1d054bdc31190baddc1eda6b4b7611890600090a2505050505050505050565b611b276040518060a0016040528060008152602001600081526020016000815260200160008152602001600081525090565b50600090815260046020818152604092839020835160a0810185528154815260018201549281019290925260028101549382019390935260038301546060820152910154608082015290565b611b7b611d47565b61071181611e6b565b6000818152600a60205260409020548190600c90611bb55760405162461bcd60e51b815260040161058791906121c7565b506000828152600a602052604081205490611bcf82611cc5565b905060056001600160a01b038216611bfa5760405162461bcd60e51b815260040161058791906121c7565b506001600160a01b038116331480611c2b575033611c206001546001600160a01b031690565b6001600160a01b0316145b600690611c4b5760405162461bcd60e51b815260040161058791906121c7565b506000848152600d60205260408082204290555185917fb23c8c364b80290a0f197c27771116986de0f1a4aab9ae6c28a77ddc5bd788f491a250505050565b611c92611d47565b6001600160a01b038116611cbc57604051631e4fbdf760e01b815260006004820152602401610587565b61071181611dfc565b6000611cd96003546001600160a01b031690565b6001600160a01b0316636352211e836040518263ffffffff1660e01b8152600401611d0691815260200190565b602060405180830381865afa158015611d23573d6000803e3d6000fd5b505050506040513d601f19601f820116820180604052508101906112f4919061228e565b6001546001600160a01b03163314610e065760405163118cdaa760e01b8152336004820152602401610587565b600380546001600160a01b038381166001600160a01b0319831681179093556040519116919082907f7878dffb4ada647885186a00ea129964d140835f125808ba48b1f3974b5f818990611df09060208082526014908201527341686f7920546f6b656e697a656420426f61747360601b604082015260600190565b60405180910390a35050565b600180546001600160a01b038381166001600160a01b0319831681179093556040519116919082907f8be0079c531659141344cd1fd0a4f28419497f9722a3daafe3b4186f6b6457e090600090a35050565b6000828152602081905260409020611e66828261234b565b505050565b600280546001600160a01b038381166001600160a01b0319831681179093556040519116919082907f7878dffb4ada647885186a00ea129964d140835f125808ba48b1f3974b5f818990611df0906020808252600490820152635553444360e01b604082015260600190565b600060208284031215611ee957600080fd5b5035919050565b6001600160a01b038116811461071157600080fd5b600060208284031215611f1757600080fd5b8135611f2281611ef0565b9392505050565b600080600060608486031215611f3e57600080fd5b505081359360208301359350604090920135919050565b60005b83811015611f70578181015183820152602001611f58565b50506000910152565b6020815260008251806020840152611f98816040850160208701611f55565b601f01601f19169190910160400192915050565b801515811461071157600080fd5b60008060408385031215611fcd57600080fd5b823591506020830135611fdf81611fac565b809150509250929050565b634e487b7160e01b600052604160045260246000fd5b600082601f83011261201157600080fd5b813567ffffffffffffffff8082111561202c5761202c611fea565b604051601f8301601f19908116603f0116810190828211818310171561205457612054611fea565b8160405283815286602085880101111561206d57600080fd5b836020870160208301376000602085830101528094505050505092915050565b60006020828403121561209f57600080fd5b813567ffffffffffffffff8111156120b657600080fd5b6120c284828501612000565b949350505050565b60008060008060008060c087890312156120e357600080fd5b505084359660208601359650604086013595606081013595506080810135945060a0013592509050565b600080600080600080600060e0888a03121561212857600080fd5b87359650602088013561213a81611ef0565b955060408801359450606088013593506080880135925060a0880135915060c088013567ffffffffffffffff81111561217257600080fd5b61217e8a828b01612000565b91505092959891949750929550565b600181811c908216806121a157607f821691505b6020821081036121c157634e487b7160e01b600052602260045260246000fd5b50919050565b60006020808352600084546121db8161218d565b808487015260406001808416600081146121fc576001811461221657612244565b60ff1985168984015283151560051b890183019550612244565b896000528660002060005b8581101561223c5781548b8201860152908301908801612221565b8a0184019650505b509398975050505050505050565b634e487b7160e01b600052601160045260246000fd5b818103818111156112f4576112f4612252565b808201808211156112f4576112f4612252565b6000602082840312156122a057600080fd5b8151611f2281611ef0565b6000602082840312156122bd57600080fd5b8151611f2281611fac565b600082516122da818460208701611f55565b9190910192915050565b6000600182016122f6576122f6612252565b5060010190565b601f821115611e6657600081815260208120601f850160051c810160208610156123245750805b601f850160051c820191505b8181101561234357828155600101612330565b505050505050565b815167ffffffffffffffff81111561236557612365611fea565b61237981612373845461218d565b846122fd565b602080601f8311600181146123ae57600084156123965750858301515b600019600386901b1c1916600185901b178555612343565b600085815260208120601f198616915b828110156123dd578886015182559484019460019091019084016123be565b50858210156123fb5787850151600019600388901b60f8161c191681555b5050505050600190811b0190555056fea264697066735822122083ef45f58161e82fbbc86dd6b4a841b7836647fcb3829caec3bb49f6da0b4cb864736f6c63430008140033",
  "linkReferences": {},
  "deployedLinkReferences": {}
}