{
  "_format": "hh-sol-artifact-1",
  "contractName": "Ahoy",
  "sourceName": "src/backend/contracts/Ahoy.sol",
  "abi": [
    {
      "inputs": [],
      "stateMutability": "nonpayable",
      "type": "constructor"
    },
    {
      "anonymous": false,
      "inputs": [
        {
          "indexed": true,
          "internalType": "address",
          "name": "owner",
          "type": "address"
        },
        {
          "indexed": true,
          "internalType": "address",
          "name": "approved",
          "type": "address"
        },
        {
          "indexed": true,
          "internalType": "uint256",
          "name": "tokenId",
          "type": "uint256"
        }
      ],
      "name": "Approval",
      "type": "event"
    },
    {
      "anonymous": false,
      "inputs": [
        {
          "indexed": true,
          "internalType": "address",
          "name": "owner",
          "type": "address"
        },
        {
          "indexed": true,
          "internalType": "address",
          "name": "operator",
          "type": "address"
        },
        {
          "indexed": false,
          "internalType": "bool",
          "name": "approved",
          "type": "bool"
        }
      ],
      "name": "ApprovalForAll",
      "type": "event"
    },
    {
      "anonymous": false,
      "inputs": [
        {
          "indexed": true,
          "internalType": "uint256",
          "name": "boatId",
          "type": "uint256"
        },
        {
          "indexed": false,
          "internalType": "address",
          "name": "owner",
          "type": "address"
        },
        {
          "indexed": false,
          "internalType": "uint256",
          "name": "hourlyPrice",
          "type": "uint256"
        },
        {
          "indexed": false,
          "internalType": "uint256",
          "name": "dailyPrice",
          "type": "uint256"
        },
        {
          "indexed": false,
          "internalType": "bool",
          "name": "currentlyListed",
          "type": "bool"
        },
        {
          "indexed": false,
          "internalType": "uint256",
          "name": "refundabilityPeriod",
          "type": "uint256"
        },
        {
          "indexed": false,
          "internalType": "uint256",
          "name": "deposit",
          "type": "uint256"
        },
        {
          "indexed": false,
          "internalType": "uint256",
          "name": "closedPeriod",
          "type": "uint256"
        },
        {
          "indexed": false,
          "internalType": "uint256",
          "name": "sellPrice",
          "type": "uint256"
        }
      ],
      "name": "BoatListedSuccess",
      "type": "event"
    },
    {
      "anonymous": false,
      "inputs": [
        {
          "indexed": true,
          "internalType": "uint256",
          "name": "boatId",
          "type": "uint256"
        },
        {
          "indexed": true,
          "internalType": "address",
          "name": "owner",
          "type": "address"
        },
        {
          "indexed": true,
          "internalType": "address",
          "name": "marketContract",
          "type": "address"
        }
      ],
      "name": "BoatRelisted",
      "type": "event"
    },
    {
      "anonymous": false,
      "inputs": [
        {
          "indexed": true,
          "internalType": "uint256",
          "name": "boatId",
          "type": "uint256"
        },
        {
          "indexed": false,
          "internalType": "uint256",
          "name": "newClosedPeriod",
          "type": "uint256"
        }
      ],
      "name": "ClosedPeriodUpdated",
      "type": "event"
    },
    {
      "anonymous": false,
      "inputs": [
        {
          "indexed": true,
          "internalType": "uint256",
          "name": "boatId",
          "type": "uint256"
        },
        {
          "indexed": false,
          "internalType": "bool",
          "name": "newCurrentlyListed",
          "type": "bool"
        }
      ],
      "name": "CurrentlyListedUpdated",
      "type": "event"
    },
    {
      "anonymous": false,
      "inputs": [
        {
          "indexed": true,
          "internalType": "uint256",
          "name": "boatId",
          "type": "uint256"
        },
        {
          "indexed": false,
          "internalType": "uint256",
          "name": "newDailyPrice",
          "type": "uint256"
        }
      ],
      "name": "DailyPriceUpdated",
      "type": "event"
    },
    {
      "anonymous": false,
      "inputs": [
        {
          "indexed": true,
          "internalType": "uint256",
          "name": "boatId",
          "type": "uint256"
        },
        {
          "indexed": false,
          "internalType": "uint256",
          "name": "newHourlyPrice",
          "type": "uint256"
        }
      ],
      "name": "HourlyPriceUpdated",
      "type": "event"
    },
    {
      "anonymous": false,
      "inputs": [
        {
          "indexed": true,
          "internalType": "address",
          "name": "previousOwner",
          "type": "address"
        },
        {
          "indexed": true,
          "internalType": "address",
          "name": "newOwner",
          "type": "address"
        }
      ],
      "name": "OwnershipTransferred",
      "type": "event"
    },
    {
      "anonymous": false,
      "inputs": [
        {
          "indexed": true,
          "internalType": "uint256",
          "name": "boatId",
          "type": "uint256"
        },
        {
          "indexed": false,
          "internalType": "uint256",
          "name": "newRefundabilityPeriod",
          "type": "uint256"
        }
      ],
      "name": "RefundabilityPeriodUpdated",
      "type": "event"
    },
    {
      "anonymous": false,
      "inputs": [
        {
          "indexed": true,
          "internalType": "address",
          "name": "from",
          "type": "address"
        },
        {
          "indexed": true,
          "internalType": "address",
          "name": "to",
          "type": "address"
        },
        {
          "indexed": true,
          "internalType": "uint256",
          "name": "tokenId",
          "type": "uint256"
        }
      ],
      "name": "Transfer",
      "type": "event"
    },
    {
      "anonymous": false,
      "inputs": [
        {
          "indexed": true,
          "internalType": "uint256",
          "name": "boatId",
          "type": "uint256"
        },
        {
          "indexed": false,
          "internalType": "uint256",
          "name": "newDepositPrice",
          "type": "uint256"
        }
      ],
      "name": "depositUpdated",
      "type": "event"
    },
    {
      "anonymous": false,
      "inputs": [
        {
          "indexed": true,
          "internalType": "uint256",
          "name": "boatId",
          "type": "uint256"
        },
        {
          "indexed": false,
          "internalType": "uint256",
          "name": "newSellPrice",
          "type": "uint256"
        }
      ],
      "name": "sellPriceUpdated",
      "type": "event"
    },
    {
      "inputs": [
        {
          "internalType": "address",
          "name": "to",
          "type": "address"
        },
        {
          "internalType": "uint256",
          "name": "tokenId",
          "type": "uint256"
        }
      ],
      "name": "approve",
      "outputs": [],
      "stateMutability": "nonpayable",
      "type": "function"
    },
    {
      "inputs": [
        {
          "internalType": "address",
          "name": "owner",
          "type": "address"
        }
      ],
      "name": "balanceOf",
      "outputs": [
        {
          "internalType": "uint256",
          "name": "",
          "type": "uint256"
        }
      ],
      "stateMutability": "view",
      "type": "function"
    },
    {
      "inputs": [
        {
          "internalType": "uint256",
          "name": "",
          "type": "uint256"
        }
      ],
      "name": "boats",
      "outputs": [
        {
          "internalType": "uint256",
          "name": "boatId",
          "type": "uint256"
        },
        {
          "internalType": "address payable",
          "name": "owner",
          "type": "address"
        },
        {
          "internalType": "uint256",
          "name": "hourlyPrice",
          "type": "uint256"
        },
        {
          "internalType": "uint256",
          "name": "dailyPrice",
          "type": "uint256"
        },
        {
          "internalType": "bool",
          "name": "currentlyListed",
          "type": "bool"
        },
        {
          "internalType": "uint256",
          "name": "refundabilityPeriod",
          "type": "uint256"
        },
        {
          "internalType": "uint256",
          "name": "deposit",
          "type": "uint256"
        },
        {
          "internalType": "uint256",
          "name": "closedPeriod",
          "type": "uint256"
        },
        {
          "internalType": "uint256",
          "name": "sellPrice",
          "type": "uint256"
        }
      ],
      "stateMutability": "view",
      "type": "function"
    },
    {
      "inputs": [
        {
          "internalType": "uint256",
          "name": "boatId",
          "type": "uint256"
        }
      ],
      "name": "executeSale",
      "outputs": [],
      "stateMutability": "payable",
      "type": "function"
    },
    {
      "inputs": [
        {
          "internalType": "uint256",
          "name": "tokenId",
          "type": "uint256"
        }
      ],
      "name": "getApproved",
      "outputs": [
        {
          "internalType": "address",
          "name": "",
          "type": "address"
        }
      ],
      "stateMutability": "view",
      "type": "function"
    },
    {
      "inputs": [
        {
          "internalType": "uint256",
          "name": "boatId",
          "type": "uint256"
        }
      ],
      "name": "getListedBoatForId",
      "outputs": [
        {
          "components": [
            {
              "internalType": "uint256",
              "name": "boatId",
              "type": "uint256"
            },
            {
              "internalType": "address payable",
              "name": "owner",
              "type": "address"
            },
            {
              "internalType": "uint256",
              "name": "hourlyPrice",
              "type": "uint256"
            },
            {
              "internalType": "uint256",
              "name": "dailyPrice",
              "type": "uint256"
            },
            {
              "internalType": "bool",
              "name": "currentlyListed",
              "type": "bool"
            },
            {
              "internalType": "uint256",
              "name": "refundabilityPeriod",
              "type": "uint256"
            },
            {
              "internalType": "uint256",
              "name": "deposit",
              "type": "uint256"
            },
            {
              "internalType": "uint256",
              "name": "closedPeriod",
              "type": "uint256"
            },
            {
              "internalType": "uint256",
              "name": "sellPrice",
              "type": "uint256"
            }
          ],
          "internalType": "struct Ahoy.Boat",
          "name": "",
          "type": "tuple"
        }
      ],
      "stateMutability": "view",
      "type": "function"
    },
    {
      "inputs": [
        {
          "internalType": "uint256",
          "name": "lowerBound",
          "type": "uint256"
        },
        {
          "internalType": "uint256",
          "name": "upperBound",
          "type": "uint256"
        }
      ],
      "name": "getNFTsInRange",
      "outputs": [
        {
          "components": [
            {
              "internalType": "uint256",
              "name": "boatId",
              "type": "uint256"
            },
            {
              "internalType": "address payable",
              "name": "owner",
              "type": "address"
            },
            {
              "internalType": "uint256",
              "name": "hourlyPrice",
              "type": "uint256"
            },
            {
              "internalType": "uint256",
              "name": "dailyPrice",
              "type": "uint256"
            },
            {
              "internalType": "bool",
              "name": "currentlyListed",
              "type": "bool"
            },
            {
              "internalType": "uint256",
              "name": "refundabilityPeriod",
              "type": "uint256"
            },
            {
              "internalType": "uint256",
              "name": "deposit",
              "type": "uint256"
            },
            {
              "internalType": "uint256",
              "name": "closedPeriod",
              "type": "uint256"
            },
            {
              "internalType": "uint256",
              "name": "sellPrice",
              "type": "uint256"
            }
          ],
          "internalType": "struct Ahoy.Boat[]",
          "name": "",
          "type": "tuple[]"
        }
      ],
      "stateMutability": "view",
      "type": "function"
    },
    {
      "inputs": [
        {
          "internalType": "address",
          "name": "operator",
          "type": "address"
        }
      ],
      "name": "inventoryOf",
      "outputs": [
        {
          "components": [
            {
              "internalType": "uint256",
              "name": "boatId",
              "type": "uint256"
            },
            {
              "internalType": "address payable",
              "name": "owner",
              "type": "address"
            },
            {
              "internalType": "uint256",
              "name": "hourlyPrice",
              "type": "uint256"
            },
            {
              "internalType": "uint256",
              "name": "dailyPrice",
              "type": "uint256"
            },
            {
              "internalType": "bool",
              "name": "currentlyListed",
              "type": "bool"
            },
            {
              "internalType": "uint256",
              "name": "refundabilityPeriod",
              "type": "uint256"
            },
            {
              "internalType": "uint256",
              "name": "deposit",
              "type": "uint256"
            },
            {
              "internalType": "uint256",
              "name": "closedPeriod",
              "type": "uint256"
            },
            {
              "internalType": "uint256",
              "name": "sellPrice",
              "type": "uint256"
            }
          ],
          "internalType": "struct Ahoy.Boat[]",
          "name": "",
          "type": "tuple[]"
        }
      ],
      "stateMutability": "view",
      "type": "function"
    },
    {
      "inputs": [
        {
          "internalType": "address",
          "name": "owner",
          "type": "address"
        },
        {
          "internalType": "address",
          "name": "operator",
          "type": "address"
        }
      ],
      "name": "isApprovedForAll",
      "outputs": [
        {
          "internalType": "bool",
          "name": "",
          "type": "bool"
        }
      ],
      "stateMutability": "view",
      "type": "function"
    },
    {
      "inputs": [
        {
          "internalType": "string",
          "name": "tokenURI",
          "type": "string"
        },
        {
          "internalType": "uint256",
          "name": "hourlyPrice",
          "type": "uint256"
        },
        {
          "internalType": "uint256",
          "name": "dailyPrice",
          "type": "uint256"
        },
        {
          "internalType": "bool",
          "name": "currentlyListed",
          "type": "bool"
        },
        {
          "internalType": "uint256",
          "name": "refundabilityPeriod",
          "type": "uint256"
        },
        {
          "internalType": "uint256",
          "name": "deposit",
          "type": "uint256"
        },
        {
          "internalType": "uint256",
          "name": "closedPeriod",
          "type": "uint256"
        },
        {
          "internalType": "uint256",
          "name": "_sellPrice",
          "type": "uint256"
        }
      ],
      "name": "mint",
      "outputs": [
        {
          "internalType": "uint256",
          "name": "",
          "type": "uint256"
        }
      ],
      "stateMutability": "payable",
      "type": "function"
    },
    {
      "inputs": [],
      "name": "name",
      "outputs": [
        {
          "internalType": "string",
          "name": "",
          "type": "string"
        }
      ],
      "stateMutability": "view",
      "type": "function"
    },
    {
      "inputs": [],
      "name": "owner",
      "outputs": [
        {
          "internalType": "address",
          "name": "",
          "type": "address"
        }
      ],
      "stateMutability": "view",
      "type": "function"
    },
    {
      "inputs": [
        {
          "internalType": "uint256",
          "name": "tokenId",
          "type": "uint256"
        }
      ],
      "name": "ownerOf",
      "outputs": [
        {
          "internalType": "address",
          "name": "",
          "type": "address"
        }
      ],
      "stateMutability": "view",
      "type": "function"
    },
    {
      "inputs": [
        {
          "internalType": "uint256",
          "name": "boatId",
          "type": "uint256"
        }
      ],
      "name": "relistBoat",
      "outputs": [],
      "stateMutability": "nonpayable",
      "type": "function"
    },
    {
      "inputs": [],
      "name": "renounceOwnership",
      "outputs": [],
      "stateMutability": "nonpayable",
      "type": "function"
    },
    {
      "inputs": [
        {
          "internalType": "address",
          "name": "from",
          "type": "address"
        },
        {
          "internalType": "address",
          "name": "to",
          "type": "address"
        },
        {
          "internalType": "uint256",
          "name": "tokenId",
          "type": "uint256"
        }
      ],
      "name": "safeTransferFrom",
      "outputs": [],
      "stateMutability": "nonpayable",
      "type": "function"
    },
    {
      "inputs": [
        {
          "internalType": "address",
          "name": "from",
          "type": "address"
        },
        {
          "internalType": "address",
          "name": "to",
          "type": "address"
        },
        {
          "internalType": "uint256",
          "name": "tokenId",
          "type": "uint256"
        },
        {
          "internalType": "bytes",
          "name": "_data",
          "type": "bytes"
        }
      ],
      "name": "safeTransferFrom",
      "outputs": [],
      "stateMutability": "nonpayable",
      "type": "function"
    },
    {
      "inputs": [
        {
          "internalType": "address",
          "name": "operator",
          "type": "address"
        },
        {
          "internalType": "bool",
          "name": "approved",
          "type": "bool"
        }
      ],
      "name": "setApprovalForAll",
      "outputs": [],
      "stateMutability": "nonpayable",
      "type": "function"
    },
    {
      "inputs": [
        {
          "internalType": "bytes4",
          "name": "interfaceId",
          "type": "bytes4"
        }
      ],
      "name": "supportsInterface",
      "outputs": [
        {
          "internalType": "bool",
          "name": "",
          "type": "bool"
        }
      ],
      "stateMutability": "view",
      "type": "function"
    },
    {
      "inputs": [],
      "name": "symbol",
      "outputs": [
        {
          "internalType": "string",
          "name": "",
          "type": "string"
        }
      ],
      "stateMutability": "view",
      "type": "function"
    },
    {
      "inputs": [],
      "name": "tokenCount",
      "outputs": [
        {
          "internalType": "uint256",
          "name": "",
          "type": "uint256"
        }
      ],
      "stateMutability": "view",
      "type": "function"
    },
    {
      "inputs": [
        {
          "internalType": "uint256",
          "name": "tokenId",
          "type": "uint256"
        }
      ],
      "name": "tokenURI",
      "outputs": [
        {
          "internalType": "string",
          "name": "",
          "type": "string"
        }
      ],
      "stateMutability": "view",
      "type": "function"
    },
    {
      "inputs": [
        {
          "internalType": "address",
          "name": "from",
          "type": "address"
        },
        {
          "internalType": "address",
          "name": "to",
          "type": "address"
        },
        {
          "internalType": "uint256",
          "name": "tokenId",
          "type": "uint256"
        }
      ],
      "name": "transferFrom",
      "outputs": [],
      "stateMutability": "nonpayable",
      "type": "function"
    },
    {
      "inputs": [
        {
          "internalType": "address",
          "name": "newOwner",
          "type": "address"
        }
      ],
      "name": "transferOwnership",
      "outputs": [],
      "stateMutability": "nonpayable",
      "type": "function"
    },
    {
      "inputs": [
        {
          "internalType": "uint256",
          "name": "boatId",
          "type": "uint256"
        },
        {
          "internalType": "uint256",
          "name": "newPeriod",
          "type": "uint256"
        }
      ],
      "name": "updateClosedPeriod",
      "outputs": [],
      "stateMutability": "nonpayable",
      "type": "function"
    },
    {
      "inputs": [
        {
          "internalType": "uint256",
          "name": "boatId",
          "type": "uint256"
        },
        {
          "internalType": "uint256",
          "name": "newDailyPrice",
          "type": "uint256"
        }
      ],
      "name": "updateDailyPrice",
      "outputs": [],
      "stateMutability": "nonpayable",
      "type": "function"
    },
    {
      "inputs": [
        {
          "internalType": "uint256",
          "name": "boatId",
          "type": "uint256"
        },
        {
          "internalType": "uint256",
          "name": "newDeposit",
          "type": "uint256"
        }
      ],
      "name": "updateDeposit",
      "outputs": [],
      "stateMutability": "nonpayable",
      "type": "function"
    },
    {
      "inputs": [
        {
          "internalType": "uint256",
          "name": "boatId",
          "type": "uint256"
        },
        {
          "internalType": "uint256",
          "name": "newHourlyPrice",
          "type": "uint256"
        }
      ],
      "name": "updateHourlyPrice",
      "outputs": [],
      "stateMutability": "nonpayable",
      "type": "function"
    },
    {
      "inputs": [
        {
          "internalType": "uint256",
          "name": "boatId",
          "type": "uint256"
        },
        {
          "internalType": "uint256",
          "name": "newPeriod",
          "type": "uint256"
        }
      ],
      "name": "updateRefundabilityPeriod",
      "outputs": [],
      "stateMutability": "nonpayable",
      "type": "function"
    },
    {
      "inputs": [
        {
          "internalType": "uint256",
          "name": "boatId",
          "type": "uint256"
        },
        {
          "internalType": "uint256",
          "name": "newSellPrice",
          "type": "uint256"
        }
      ],
      "name": "updateSellPrice",
      "outputs": [],
      "stateMutability": "nonpayable",
      "type": "function"
    },
    {
      "inputs": [
        {
          "internalType": "uint256",
          "name": "boatId",
          "type": "uint256"
        },
        {
          "internalType": "bool",
          "name": "_currentlyListed",
          "type": "bool"
        }
      ],
      "name": "updateStatus",
      "outputs": [],
      "stateMutability": "nonpayable",
      "type": "function"
    },
    {
      "inputs": [
        {
          "internalType": "uint256",
          "name": "boatId",
          "type": "uint256"
        },
        {
          "internalType": "string",
          "name": "newTokenURI",
          "type": "string"
        }
      ],
      "name": "updateTokenURI",
      "outputs": [],
      "stateMutability": "nonpayable",
      "type": "function"
    }
  ],
  "bytecode": "0x60806040523480156200001157600080fd5b506040518060400160405280600881526020017f426f6174204e46540000000000000000000000000000000000000000000000008152506040518060400160405280600481526020017f424f415400000000000000000000000000000000000000000000000000000000815250816000908051906020019062000096929190620001a6565b508060019080519060200190620000af929190620001a6565b505050620000d2620000c6620000d860201b60201c565b620000e060201b60201c565b620002bb565b600033905090565b6000600760009054906101000a900473ffffffffffffffffffffffffffffffffffffffff16905081600760006101000a81548173ffffffffffffffffffffffffffffffffffffffff021916908373ffffffffffffffffffffffffffffffffffffffff1602179055508173ffffffffffffffffffffffffffffffffffffffff168173ffffffffffffffffffffffffffffffffffffffff167f8be0079c531659141344cd1fd0a4f28419497f9722a3daafe3b4186f6b6457e060405160405180910390a35050565b828054620001b49062000256565b90600052602060002090601f016020900481019282620001d8576000855562000224565b82601f10620001f357805160ff191683800117855562000224565b8280016001018555821562000224579182015b828111156200022357825182559160200191906001019062000206565b5b50905062000233919062000237565b5090565b5b808211156200025257600081600090555060010162000238565b5090565b600060028204905060018216806200026f57607f821691505b602082108114156200028657620002856200028c565b5b50919050565b7f4e487b7100000000000000000000000000000000000000000000000000000000600052602260045260246000fd5b61553f80620002cb6000396000f3fe6080604052600436106101e35760003560e01c80636ea0681a116101025780639b1225c411610095578063b88d4fde11610064578063b88d4fde146106fc578063c87b56dd14610725578063e985e9c514610762578063f2fde38b1461079f576101e3565b80639b1225c4146106635780639f181b5e1461067f578063a22cb465146106aa578063b5001d74146106d3576101e3565b80637eaebb15116100d15780637eaebb15146105935780638da5cb5b146105d057806395d89b41146105fb578063984230d414610626576101e3565b80636ea0681a146104e657806370a0823114610516578063715018a6146105535780637c5a873e1461056a576101e3565b806323b872dd1161017a578063525919da11610149578063525919da146103fe57806352649ffd146104435780635969c0281461046c5780636352211e146104a9576101e3565b806323b872dd1461035a57806325b2d58d14610383578063387008c2146103ac57806342842e0e146103d5576101e3565b806309cd3531116101b657806309cd3531146102b657806318e97fd1146102df5780631d10faf6146103085780631e5ad7b014610331576101e3565b806301ffc9a7146101e857806306fdde0314610225578063081812fc14610250578063095ea7b31461028d575b600080fd5b3480156101f457600080fd5b5061020f600480360381019061020a9190613c83565b6107c8565b60405161021c91906145f8565b60405180910390f35b34801561023157600080fd5b5061023a6108aa565b6040516102479190614613565b60405180910390f35b34801561025c57600080fd5b5061027760048036038101906102729190613d9f565b61093c565b60405161028491906144f1565b60405180910390f35b34801561029957600080fd5b506102b460048036038101906102af9190613c47565b6109c1565b005b3480156102c257600080fd5b506102dd60048036038101906102d89190613e58565b610ad9565b005b3480156102eb57600080fd5b5061030660048036038101906103019190613e04565b610c5b565b005b34801561031457600080fd5b5061032f600480360381019061032a9190613e58565b610d94565b005b34801561033d57600080fd5b5061035860048036038101906103539190613e58565b610f16565b005b34801561036657600080fd5b50610381600480360381019061037c9190613b41565b611098565b005b34801561038f57600080fd5b506103aa60048036038101906103a59190613e58565b6110f8565b005b3480156103b857600080fd5b506103d360048036038101906103ce9190613dc8565b61127a565b005b3480156103e157600080fd5b506103fc60048036038101906103f79190613b41565b61140f565b005b34801561040a57600080fd5b5061042560048036038101906104209190613d9f565b61142f565b60405161043a9998979695949392919061496c565b60405180910390f35b34801561044f57600080fd5b5061046a60048036038101906104659190613e58565b6114aa565b005b34801561047857600080fd5b50610493600480360381019061048e9190613e58565b61162c565b6040516104a091906145d6565b60405180910390f35b3480156104b557600080fd5b506104d060048036038101906104cb9190613d9f565b6118c5565b6040516104dd91906144f1565b60405180910390f35b61050060048036038101906104fb9190613cd5565b611977565b60405161050d9190614951565b60405180910390f35b34801561052257600080fd5b5061053d60048036038101906105389190613adc565b6119cc565b60405161054a9190614951565b60405180910390f35b34801561055f57600080fd5b50610568611a84565b005b34801561057657600080fd5b50610591600480360381019061058c9190613d9f565b611b0c565b005b34801561059f57600080fd5b506105ba60048036038101906105b59190613adc565b611ca0565b6040516105c791906145d6565b60405180910390f35b3480156105dc57600080fd5b506105e5612041565b6040516105f291906144f1565b60405180910390f35b34801561060757600080fd5b5061061061206b565b60405161061d9190614613565b60405180910390f35b34801561063257600080fd5b5061064d60048036038101906106489190613d9f565b6120fd565b60405161065a9190614935565b60405180910390f35b61067d60048036038101906106789190613d9f565b6121e2565b005b34801561068b57600080fd5b506106946123a3565b6040516106a19190614951565b60405180910390f35b3480156106b657600080fd5b506106d160048036038101906106cc9190613c0b565b6123a9565b005b3480156106df57600080fd5b506106fa60048036038101906106f59190613e58565b6123bf565b005b34801561070857600080fd5b50610723600480360381019061071e9190613b90565b612541565b005b34801561073157600080fd5b5061074c60048036038101906107479190613d9f565b6125a3565b6040516107599190614613565b60405180910390f35b34801561076e57600080fd5b5061078960048036038101906107849190613b05565b6126f5565b60405161079691906145f8565b60405180910390f35b3480156107ab57600080fd5b506107c660048036038101906107c19190613adc565b612789565b005b60007f80ac58cd000000000000000000000000000000000000000000000000000000007bffffffffffffffffffffffffffffffffffffffffffffffffffffffff1916827bffffffffffffffffffffffffffffffffffffffffffffffffffffffff1916148061089357507f5b5e139f000000000000000000000000000000000000000000000000000000007bffffffffffffffffffffffffffffffffffffffffffffffffffffffff1916827bffffffffffffffffffffffffffffffffffffffffffffffffffffffff1916145b806108a357506108a282612881565b5b9050919050565b6060600080546108b990614c7f565b80601f01602080910402602001604051908101604052809291908181526020018280546108e590614c7f565b80156109325780601f1061090757610100808354040283529160200191610932565b820191906000526020600020905b81548152906001019060200180831161091557829003601f168201915b5050505050905090565b6000610947826128eb565b610986576040517f08c379a000000000000000000000000000000000000000000000000000000000815260040161097d90614855565b60405180910390fd5b6004600083815260200190815260200160002060009054906101000a900473ffffffffffffffffffffffffffffffffffffffff169050919050565b60006109cc826118c5565b90508073ffffffffffffffffffffffffffffffffffffffff168373ffffffffffffffffffffffffffffffffffffffff161415610a3d576040517f08c379a0000000000000000000000000000000000000000000000000000000008152600401610a34906148d5565b60405180910390fd5b8073ffffffffffffffffffffffffffffffffffffffff16610a5c612957565b73ffffffffffffffffffffffffffffffffffffffff161480610a8b5750610a8a81610a85612957565b6126f5565b5b610aca576040517f08c379a0000000000000000000000000000000000000000000000000000000008152600401610ac190614775565b60405180910390fd5b610ad4838361295f565b505050565b81610ae3816128eb565b610b22576040517f08c379a0000000000000000000000000000000000000000000000000000000008152600401610b1990614735565b60405180910390fd5b6009600082815260200190815260200160002060010160009054906101000a900473ffffffffffffffffffffffffffffffffffffffff1673ffffffffffffffffffffffffffffffffffffffff163373ffffffffffffffffffffffffffffffffffffffff161480610bc457503373ffffffffffffffffffffffffffffffffffffffff16610bac612041565b73ffffffffffffffffffffffffffffffffffffffff16145b610c03576040517f08c379a0000000000000000000000000000000000000000000000000000000008152600401610bfa906148b5565b60405180910390fd5b816009600085815260200190815260200160002060020181905550827fd30ea262383676c6ffb3594e7772217082e85acdb5c2e7fe8945ec593b16140883604051610c4e9190614951565b60405180910390a2505050565b81610c65816128eb565b610ca4576040517f08c379a0000000000000000000000000000000000000000000000000000000008152600401610c9b90614735565b60405180910390fd5b6009600082815260200190815260200160002060010160009054906101000a900473ffffffffffffffffffffffffffffffffffffffff1673ffffffffffffffffffffffffffffffffffffffff163373ffffffffffffffffffffffffffffffffffffffff161480610d4657503373ffffffffffffffffffffffffffffffffffffffff16610d2e612041565b73ffffffffffffffffffffffffffffffffffffffff16145b610d85576040517f08c379a0000000000000000000000000000000000000000000000000000000008152600401610d7c906148b5565b60405180910390fd5b610d8f8383612a18565b505050565b81610d9e816128eb565b610ddd576040517f08c379a0000000000000000000000000000000000000000000000000000000008152600401610dd490614735565b60405180910390fd5b6009600082815260200190815260200160002060010160009054906101000a900473ffffffffffffffffffffffffffffffffffffffff1673ffffffffffffffffffffffffffffffffffffffff163373ffffffffffffffffffffffffffffffffffffffff161480610e7f57503373ffffffffffffffffffffffffffffffffffffffff16610e67612041565b73ffffffffffffffffffffffffffffffffffffffff16145b610ebe576040517f08c379a0000000000000000000000000000000000000000000000000000000008152600401610eb5906148b5565b60405180910390fd5b816009600085815260200190815260200160002060060181905550827f30bb3fa444e97de5847bd43c09e8064f1964e80a8feccbd7f032180f03d3d53883604051610f099190614951565b60405180910390a2505050565b81610f20816128eb565b610f5f576040517f08c379a0000000000000000000000000000000000000000000000000000000008152600401610f5690614735565b60405180910390fd5b6009600082815260200190815260200160002060010160009054906101000a900473ffffffffffffffffffffffffffffffffffffffff1673ffffffffffffffffffffffffffffffffffffffff163373ffffffffffffffffffffffffffffffffffffffff16148061100157503373ffffffffffffffffffffffffffffffffffffffff16610fe9612041565b73ffffffffffffffffffffffffffffffffffffffff16145b611040576040517f08c379a0000000000000000000000000000000000000000000000000000000008152600401611037906148b5565b60405180910390fd5b816009600085815260200190815260200160002060080181905550827f80214732cb7b51409e143594f22dd89c147c85da33438f45c0d1bcd95bc2d4008360405161108b9190614951565b60405180910390a2505050565b6110a96110a3612957565b82612a8c565b6110e8576040517f08c379a00000000000000000000000000000000000000000000000000000000081526004016110df90614915565b60405180910390fd5b6110f3838383612b6a565b505050565b81611102816128eb565b611141576040517f08c379a000000000000000000000000000000000000000000000000000000000815260040161113890614735565b60405180910390fd5b6009600082815260200190815260200160002060010160009054906101000a900473ffffffffffffffffffffffffffffffffffffffff1673ffffffffffffffffffffffffffffffffffffffff163373ffffffffffffffffffffffffffffffffffffffff1614806111e357503373ffffffffffffffffffffffffffffffffffffffff166111cb612041565b73ffffffffffffffffffffffffffffffffffffffff16145b611222576040517f08c379a0000000000000000000000000000000000000000000000000000000008152600401611219906148b5565b60405180910390fd5b816009600085815260200190815260200160002060030181905550827f56f5b1c57e56d38ff62b49a4af8f52987709e36a3d4261765cf81eaaec6780338360405161126d9190614951565b60405180910390a2505050565b81611284816128eb565b6112c3576040517f08c379a00000000000000000000000000000000000000000000000000000000081526004016112ba90614735565b60405180910390fd5b6009600082815260200190815260200160002060010160009054906101000a900473ffffffffffffffffffffffffffffffffffffffff1673ffffffffffffffffffffffffffffffffffffffff163373ffffffffffffffffffffffffffffffffffffffff16148061136557503373ffffffffffffffffffffffffffffffffffffffff1661134d612041565b73ffffffffffffffffffffffffffffffffffffffff16145b6113a4576040517f08c379a000000000000000000000000000000000000000000000000000000000815260040161139b906148b5565b60405180910390fd5b816009600085815260200190815260200160002060040160006101000a81548160ff021916908315150217905550827f424e7b0d93f2668ac443a22364c7fe58a632fd614b4fb55ee2ac77c8a46251278360405161140291906145f8565b60405180910390a2505050565b61142a83838360405180602001604052806000815250612541565b505050565b60096020528060005260406000206000915090508060000154908060010160009054906101000a900473ffffffffffffffffffffffffffffffffffffffff16908060020154908060030154908060040160009054906101000a900460ff16908060050154908060060154908060070154908060080154905089565b816114b4816128eb565b6114f3576040517f08c379a00000000000000000000000000000000000000000000000000000000081526004016114ea90614735565b60405180910390fd5b6009600082815260200190815260200160002060010160009054906101000a900473ffffffffffffffffffffffffffffffffffffffff1673ffffffffffffffffffffffffffffffffffffffff163373ffffffffffffffffffffffffffffffffffffffff16148061159557503373ffffffffffffffffffffffffffffffffffffffff1661157d612041565b73ffffffffffffffffffffffffffffffffffffffff16145b6115d4576040517f08c379a00000000000000000000000000000000000000000000000000000000081526004016115cb906148b5565b60405180910390fd5b816009600085815260200190815260200160002060050181905550827f6659833065c5adcb2a4c3711b4a04eb23c358af7bc1b0fe0d04ca75ce9076ba18360405161161f9190614951565b60405180910390a2505050565b60606000600854905080841115611678576040517f08c379a000000000000000000000000000000000000000000000000000000000815260040161166f90614695565b60405180910390fd5b828411156116bb576040517f08c379a00000000000000000000000000000000000000000000000000000000081526004016116b2906148f5565b60405180910390fd5b60008414156116c957600193505b808311156116d5578092505b6000600185856116e59190614b83565b6116ef9190614afc565b905060008167ffffffffffffffff811115611733577f4e487b7100000000000000000000000000000000000000000000000000000000600052604160045260246000fd5b60405190808252806020026020018201604052801561176c57816020015b61175961389c565b8152602001906001900390816117515790505b50905060005b828110156118b857600060096000838a61178c9190614afc565b815260200190815260200160002090508060405180610120016040529081600082015481526020016001820160009054906101000a900473ffffffffffffffffffffffffffffffffffffffff1673ffffffffffffffffffffffffffffffffffffffff1673ffffffffffffffffffffffffffffffffffffffff16815260200160028201548152602001600382015481526020016004820160009054906101000a900460ff16151515158152602001600582015481526020016006820154815260200160078201548152602001600882015481525050838381518110611899577f4e487b7100000000000000000000000000000000000000000000000000000000600052603260045260246000fd5b60200260200101819052505080806118b090614ce2565b915050611772565b5080935050505092915050565b6000806002600084815260200190815260200160002060009054906101000a900473ffffffffffffffffffffffffffffffffffffffff169050600073ffffffffffffffffffffffffffffffffffffffff168173ffffffffffffffffffffffffffffffffffffffff16141561196e576040517f08c379a0000000000000000000000000000000000000000000000000000000008152600401611965906147b5565b60405180910390fd5b80915050919050565b60006008600081548092919061198c90614ce2565b919050555061199d33600854612dd1565b6119a96008548a612a18565b6119bb60085489898989898989612def565b600854905098975050505050505050565b60008073ffffffffffffffffffffffffffffffffffffffff168273ffffffffffffffffffffffffffffffffffffffff161415611a3d576040517f08c379a0000000000000000000000000000000000000000000000000000000008152600401611a3490614795565b60405180910390fd5b600360008373ffffffffffffffffffffffffffffffffffffffff1673ffffffffffffffffffffffffffffffffffffffff168152602001908152602001600020549050919050565b611a8c612957565b73ffffffffffffffffffffffffffffffffffffffff16611aaa612041565b73ffffffffffffffffffffffffffffffffffffffff1614611b00576040517f08c379a0000000000000000000000000000000000000000000000000000000008152600401611af790614875565b60405180910390fd5b611b0a6000612fa9565b565b80611b16816128eb565b611b55576040517f08c379a0000000000000000000000000000000000000000000000000000000008152600401611b4c90614735565b60405180910390fd5b6009600082815260200190815260200160002060010160009054906101000a900473ffffffffffffffffffffffffffffffffffffffff1673ffffffffffffffffffffffffffffffffffffffff163373ffffffffffffffffffffffffffffffffffffffff161480611bf757503373ffffffffffffffffffffffffffffffffffffffff16611bdf612041565b73ffffffffffffffffffffffffffffffffffffffff16145b611c36576040517f08c379a0000000000000000000000000000000000000000000000000000000008152600401611c2d906148b5565b60405180910390fd5b611c41333084612b6a565b3073ffffffffffffffffffffffffffffffffffffffff163373ffffffffffffffffffffffffffffffffffffffff16837f2c193914ffab78d33c96937fec19b6900903ca752d1d16df0395fe8b56cfac8c60405160405180910390a45050565b6060600060085490506000811415611d3557600067ffffffffffffffff811115611cf3577f4e487b7100000000000000000000000000000000000000000000000000000000600052604160045260246000fd5b604051908082528060200260200182016040528015611d2c57816020015b611d1961389c565b815260200190600190039081611d115790505b5091505061203c565b60008080600090505b83811015611ddf578573ffffffffffffffffffffffffffffffffffffffff1660096000600184611d6e9190614afc565b815260200190815260200160002060010160009054906101000a900473ffffffffffffffffffffffffffffffffffffffff1673ffffffffffffffffffffffffffffffffffffffff161415611dcc57600183611dc99190614afc565b92505b8080611dd790614ce2565b915050611d3e565b5060008267ffffffffffffffff811115611e22577f4e487b7100000000000000000000000000000000000000000000000000000000600052604160045260246000fd5b604051908082528060200260200182016040528015611e5b57816020015b611e4861389c565b815260200190600190039081611e405790505b5090506000805b85811015612032578773ffffffffffffffffffffffffffffffffffffffff1660096000600184611e929190614afc565b815260200190815260200160002060010160009054906101000a900473ffffffffffffffffffffffffffffffffffffffff1673ffffffffffffffffffffffffffffffffffffffff16141561201f57600181611eed9190614afc565b935060006009600086815260200190815260200160002090508060405180610120016040529081600082015481526020016001820160009054906101000a900473ffffffffffffffffffffffffffffffffffffffff1673ffffffffffffffffffffffffffffffffffffffff1673ffffffffffffffffffffffffffffffffffffffff16815260200160028201548152602001600382015481526020016004820160009054906101000a900460ff16151515158152602001600582015481526020016006820154815260200160078201548152602001600882015481525050848481518110612003577f4e487b7100000000000000000000000000000000000000000000000000000000600052603260045260246000fd5b602002602001018190525060018361201b9190614afc565b9250505b808061202a90614ce2565b915050611e62565b5081955050505050505b919050565b6000600760009054906101000a900473ffffffffffffffffffffffffffffffffffffffff16905090565b60606001805461207a90614c7f565b80601f01602080910402602001604051908101604052809291908181526020018280546120a690614c7f565b80156120f35780601f106120c8576101008083540402835291602001916120f3565b820191906000526020600020905b8154815290600101906020018083116120d657829003601f168201915b5050505050905090565b61210561389c565b6009600083815260200190815260200160002060405180610120016040529081600082015481526020016001820160009054906101000a900473ffffffffffffffffffffffffffffffffffffffff1673ffffffffffffffffffffffffffffffffffffffff1673ffffffffffffffffffffffffffffffffffffffff16815260200160028201548152602001600382015481526020016004820160009054906101000a900460ff161515151581526020016005820154815260200160068201548152602001600782015481526020016008820154815250509050919050565b6121eb816128eb565b61222a576040517f08c379a000000000000000000000000000000000000000000000000000000000815260040161222190614735565b60405180910390fd5b60006009600083815260200190815260200160002060080154905060006009600084815260200190815260200160002060010160009054906101000a900473ffffffffffffffffffffffffffffffffffffffff16905060003390508234146122c7576040517f08c379a00000000000000000000000000000000000000000000000000000000081526004016122be906147f5565b60405180910390fd5b6122d2303386612b6a565b806009600086815260200190815260200160002060010160006101000a81548173ffffffffffffffffffffffffffffffffffffffff021916908373ffffffffffffffffffffffffffffffffffffffff16021790555060006009600086815260200190815260200160002060040160006101000a81548160ff0219169083151502179055508173ffffffffffffffffffffffffffffffffffffffff166108fc349081150290604051600060405180830381858888f1935050505015801561239c573d6000803e3d6000fd5b5050505050565b60085481565b6123bb6123b4612957565b838361306f565b5050565b816123c9816128eb565b612408576040517f08c379a00000000000000000000000000000000000000000000000000000000081526004016123ff90614735565b60405180910390fd5b6009600082815260200190815260200160002060010160009054906101000a900473ffffffffffffffffffffffffffffffffffffffff1673ffffffffffffffffffffffffffffffffffffffff163373ffffffffffffffffffffffffffffffffffffffff1614806124aa57503373ffffffffffffffffffffffffffffffffffffffff16612492612041565b73ffffffffffffffffffffffffffffffffffffffff16145b6124e9576040517f08c379a00000000000000000000000000000000000000000000000000000000081526004016124e0906148b5565b60405180910390fd5b816009600085815260200190815260200160002060070181905550827f8cba03acb5595fdb6ff27c32503305aafee2573010e09fce6f2644093840d881836040516125349190614951565b60405180910390a2505050565b61255261254c612957565b83612a8c565b612591576040517f08c379a000000000000000000000000000000000000000000000000000000000815260040161258890614915565b60405180910390fd5b61259d848484846131dc565b50505050565b60606125ae826128eb565b6125ed576040517f08c379a00000000000000000000000000000000000000000000000000000000081526004016125e490614835565b60405180910390fd5b600060066000848152602001908152602001600020805461260d90614c7f565b80601f016020809104026020016040519081016040528092919081815260200182805461263990614c7f565b80156126865780601f1061265b57610100808354040283529160200191612686565b820191906000526020600020905b81548152906001019060200180831161266957829003601f168201915b505050505090506000612697613238565b90506000815114156126ad5781925050506126f0565b6000825111156126e25780826040516020016126ca9291906144cd565b604051602081830303815290604052925050506126f0565b6126eb8461324f565b925050505b919050565b6000600560008473ffffffffffffffffffffffffffffffffffffffff1673ffffffffffffffffffffffffffffffffffffffff16815260200190815260200160002060008373ffffffffffffffffffffffffffffffffffffffff1673ffffffffffffffffffffffffffffffffffffffff16815260200190815260200160002060009054906101000a900460ff16905092915050565b612791612957565b73ffffffffffffffffffffffffffffffffffffffff166127af612041565b73ffffffffffffffffffffffffffffffffffffffff1614612805576040517f08c379a00000000000000000000000000000000000000000000000000000000081526004016127fc90614875565b60405180910390fd5b600073ffffffffffffffffffffffffffffffffffffffff168173ffffffffffffffffffffffffffffffffffffffff161415612875576040517f08c379a000000000000000000000000000000000000000000000000000000000815260040161286c90614675565b60405180910390fd5b61287e81612fa9565b50565b60007f01ffc9a7000000000000000000000000000000000000000000000000000000007bffffffffffffffffffffffffffffffffffffffffffffffffffffffff1916827bffffffffffffffffffffffffffffffffffffffffffffffffffffffff1916149050919050565b60008073ffffffffffffffffffffffffffffffffffffffff166002600084815260200190815260200160002060009054906101000a900473ffffffffffffffffffffffffffffffffffffffff1673ffffffffffffffffffffffffffffffffffffffff1614159050919050565b600033905090565b816004600083815260200190815260200160002060006101000a81548173ffffffffffffffffffffffffffffffffffffffff021916908373ffffffffffffffffffffffffffffffffffffffff160217905550808273ffffffffffffffffffffffffffffffffffffffff166129d2836118c5565b73ffffffffffffffffffffffffffffffffffffffff167f8c5be1e5ebec7d5bd14f71427d1e84f3dd0314c0f7b2291e5b200ac8c7c3b92560405160405180910390a45050565b612a21826128eb565b612a60576040517f08c379a0000000000000000000000000000000000000000000000000000000008152600401612a57906147d5565b60405180910390fd5b80600660008481526020019081526020016000209080519060200190612a87929190613900565b505050565b6000612a97826128eb565b612ad6576040517f08c379a0000000000000000000000000000000000000000000000000000000008152600401612acd90614755565b60405180910390fd5b6000612ae1836118c5565b90508073ffffffffffffffffffffffffffffffffffffffff168473ffffffffffffffffffffffffffffffffffffffff161480612b5057508373ffffffffffffffffffffffffffffffffffffffff16612b388461093c565b73ffffffffffffffffffffffffffffffffffffffff16145b80612b615750612b6081856126f5565b5b91505092915050565b8273ffffffffffffffffffffffffffffffffffffffff16612b8a826118c5565b73ffffffffffffffffffffffffffffffffffffffff1614612be0576040517f08c379a0000000000000000000000000000000000000000000000000000000008152600401612bd7906146b5565b60405180910390fd5b600073ffffffffffffffffffffffffffffffffffffffff168273ffffffffffffffffffffffffffffffffffffffff161415612c50576040517f08c379a0000000000000000000000000000000000000000000000000000000008152600401612c47906146f5565b60405180910390fd5b612c5b8383836132f6565b612c6660008261295f565b6001600360008573ffffffffffffffffffffffffffffffffffffffff1673ffffffffffffffffffffffffffffffffffffffff1681526020019081526020016000206000828254612cb69190614b83565b925050819055506001600360008473ffffffffffffffffffffffffffffffffffffffff1673ffffffffffffffffffffffffffffffffffffffff1681526020019081526020016000206000828254612d0d9190614afc565b92505081905550816002600083815260200190815260200160002060006101000a81548173ffffffffffffffffffffffffffffffffffffffff021916908373ffffffffffffffffffffffffffffffffffffffff160217905550808273ffffffffffffffffffffffffffffffffffffffff168473ffffffffffffffffffffffffffffffffffffffff167fddf252ad1be2c89b69c2b068fc378daa952ba7f163c4a11628f55a4df523b3ef60405160405180910390a4612dcc8383836132fb565b505050565b612deb828260405180602001604052806000815250613300565b5050565b60008711612e32576040517f08c379a0000000000000000000000000000000000000000000000000000000008152600401612e2990614635565b60405180910390fd5b6040518061012001604052808981526020013373ffffffffffffffffffffffffffffffffffffffff168152602001888152602001878152602001861515815260200185815260200184815260200183815260200182815250600960008a81526020019081526020016000206000820151816000015560208201518160010160006101000a81548173ffffffffffffffffffffffffffffffffffffffff021916908373ffffffffffffffffffffffffffffffffffffffff160217905550604082015181600201556060820151816003015560808201518160040160006101000a81548160ff02191690831515021790555060a0820151816005015560c0820151816006015560e082015181600701556101008201518160080155905050612f5933308a612b6a565b877f0b4256e5d8c003621e62e4a21671ccc34d861f1d13cc746464b05ffb193762c83089898989898989604051612f97989796959493929190614558565b60405180910390a25050505050505050565b6000600760009054906101000a900473ffffffffffffffffffffffffffffffffffffffff16905081600760006101000a81548173ffffffffffffffffffffffffffffffffffffffff021916908373ffffffffffffffffffffffffffffffffffffffff1602179055508173ffffffffffffffffffffffffffffffffffffffff168173ffffffffffffffffffffffffffffffffffffffff167f8be0079c531659141344cd1fd0a4f28419497f9722a3daafe3b4186f6b6457e060405160405180910390a35050565b8173ffffffffffffffffffffffffffffffffffffffff168373ffffffffffffffffffffffffffffffffffffffff1614156130de576040517f08c379a00000000000000000000000000000000000000000000000000000000081526004016130d590614715565b60405180910390fd5b80600560008573ffffffffffffffffffffffffffffffffffffffff1673ffffffffffffffffffffffffffffffffffffffff16815260200190815260200160002060008473ffffffffffffffffffffffffffffffffffffffff1673ffffffffffffffffffffffffffffffffffffffff16815260200190815260200160002060006101000a81548160ff0219169083151502179055508173ffffffffffffffffffffffffffffffffffffffff168373ffffffffffffffffffffffffffffffffffffffff167f17307eab39ab6107e8899845ad3d59bd9653f200f220920489ca2b5937696c31836040516131cf91906145f8565b60405180910390a3505050565b6131e7848484612b6a565b6131f38484848461335b565b613232576040517f08c379a000000000000000000000000000000000000000000000000000000000815260040161322990614655565b60405180910390fd5b50505050565b606060405180602001604052806000815250905090565b606061325a826128eb565b613299576040517f08c379a000000000000000000000000000000000000000000000000000000000815260040161329090614895565b60405180910390fd5b60006132a3613238565b905060008151116132c357604051806020016040528060008152506132ee565b806132cd846134f2565b6040516020016132de9291906144cd565b6040516020818303038152906040525b915050919050565b505050565b505050565b61330a838361369f565b613317600084848461335b565b613356576040517f08c379a000000000000000000000000000000000000000000000000000000000815260040161334d90614655565b60405180910390fd5b505050565b600061337c8473ffffffffffffffffffffffffffffffffffffffff16613879565b156134e5578373ffffffffffffffffffffffffffffffffffffffff1663150b7a026133a5612957565b8786866040518563ffffffff1660e01b81526004016133c7949392919061450c565b602060405180830381600087803b1580156133e157600080fd5b505af192505050801561341257506040513d601f19601f8201168201806040525081019061340f9190613cac565b60015b613495573d8060008114613442576040519150601f19603f3d011682016040523d82523d6000602084013e613447565b606091505b5060008151141561348d576040517f08c379a000000000000000000000000000000000000000000000000000000000815260040161348490614655565b60405180910390fd5b805181602001fd5b63150b7a0260e01b7bffffffffffffffffffffffffffffffffffffffffffffffffffffffff1916817bffffffffffffffffffffffffffffffffffffffffffffffffffffffff1916149150506134ea565b600190505b949350505050565b6060600082141561353a576040518060400160405280600181526020017f3000000000000000000000000000000000000000000000000000000000000000815250905061369a565b600082905060005b6000821461356c57808061355590614ce2565b915050600a826135659190614b52565b9150613542565b60008167ffffffffffffffff8111156135ae577f4e487b7100000000000000000000000000000000000000000000000000000000600052604160045260246000fd5b6040519080825280601f01601f1916602001820160405280156135e05781602001600182028036833780820191505090505b5090505b60008514613693576001826135f99190614b83565b9150600a856136089190614d2b565b60306136149190614afc565b60f81b818381518110613650577f4e487b7100000000000000000000000000000000000000000000000000000000600052603260045260246000fd5b60200101907effffffffffffffffffffffffffffffffffffffffffffffffffffffffffffff1916908160001a905350600a8561368c9190614b52565b94506135e4565b8093505050505b919050565b600073ffffffffffffffffffffffffffffffffffffffff168273ffffffffffffffffffffffffffffffffffffffff16141561370f576040517f08c379a000000000000000000000000000000000000000000000000000000000815260040161370690614815565b60405180910390fd5b613718816128eb565b15613758576040517f08c379a000000000000000000000000000000000000000000000000000000000815260040161374f906146d5565b60405180910390fd5b613764600083836132f6565b6001600360008473ffffffffffffffffffffffffffffffffffffffff1673ffffffffffffffffffffffffffffffffffffffff16815260200190815260200160002060008282546137b49190614afc565b92505081905550816002600083815260200190815260200160002060006101000a81548173ffffffffffffffffffffffffffffffffffffffff021916908373ffffffffffffffffffffffffffffffffffffffff160217905550808273ffffffffffffffffffffffffffffffffffffffff16600073ffffffffffffffffffffffffffffffffffffffff167fddf252ad1be2c89b69c2b068fc378daa952ba7f163c4a11628f55a4df523b3ef60405160405180910390a4613875600083836132fb565b5050565b6000808273ffffffffffffffffffffffffffffffffffffffff163b119050919050565b60405180610120016040528060008152602001600073ffffffffffffffffffffffffffffffffffffffff1681526020016000815260200160008152602001600015158152602001600081526020016000815260200160008152602001600081525090565b82805461390c90614c7f565b90600052602060002090601f01602090048101928261392e5760008555613975565b82601f1061394757805160ff1916838001178555613975565b82800160010185558215613975579182015b82811115613974578251825591602001919060010190613959565b5b5090506139829190613986565b5090565b5b8082111561399f576000816000905550600101613987565b5090565b60006139b66139b184614a1e565b6149f9565b9050828152602081018484840111156139ce57600080fd5b6139d9848285614c3d565b509392505050565b60006139f46139ef84614a4f565b6149f9565b905082815260208101848484011115613a0c57600080fd5b613a17848285614c3d565b509392505050565b600081359050613a2e816154ad565b92915050565b600081359050613a43816154c4565b92915050565b600081359050613a58816154db565b92915050565b600081519050613a6d816154db565b92915050565b600082601f830112613a8457600080fd5b8135613a948482602086016139a3565b91505092915050565b600082601f830112613aae57600080fd5b8135613abe8482602086016139e1565b91505092915050565b600081359050613ad6816154f2565b92915050565b600060208284031215613aee57600080fd5b6000613afc84828501613a1f565b91505092915050565b60008060408385031215613b1857600080fd5b6000613b2685828601613a1f565b9250506020613b3785828601613a1f565b9150509250929050565b600080600060608486031215613b5657600080fd5b6000613b6486828701613a1f565b9350506020613b7586828701613a1f565b9250506040613b8686828701613ac7565b9150509250925092565b60008060008060808587031215613ba657600080fd5b6000613bb487828801613a1f565b9450506020613bc587828801613a1f565b9350506040613bd687828801613ac7565b925050606085013567ffffffffffffffff811115613bf357600080fd5b613bff87828801613a73565b91505092959194509250565b60008060408385031215613c1e57600080fd5b6000613c2c85828601613a1f565b9250506020613c3d85828601613a34565b9150509250929050565b60008060408385031215613c5a57600080fd5b6000613c6885828601613a1f565b9250506020613c7985828601613ac7565b9150509250929050565b600060208284031215613c9557600080fd5b6000613ca384828501613a49565b91505092915050565b600060208284031215613cbe57600080fd5b6000613ccc84828501613a5e565b91505092915050565b600080600080600080600080610100898b031215613cf257600080fd5b600089013567ffffffffffffffff811115613d0c57600080fd5b613d188b828c01613a9d565b9850506020613d298b828c01613ac7565b9750506040613d3a8b828c01613ac7565b9650506060613d4b8b828c01613a34565b9550506080613d5c8b828c01613ac7565b94505060a0613d6d8b828c01613ac7565b93505060c0613d7e8b828c01613ac7565b92505060e0613d8f8b828c01613ac7565b9150509295985092959890939650565b600060208284031215613db157600080fd5b6000613dbf84828501613ac7565b91505092915050565b60008060408385031215613ddb57600080fd5b6000613de985828601613ac7565b9250506020613dfa85828601613a34565b9150509250929050565b60008060408385031215613e1757600080fd5b6000613e2585828601613ac7565b925050602083013567ffffffffffffffff811115613e4257600080fd5b613e4e85828601613a9d565b9150509250929050565b60008060408385031215613e6b57600080fd5b6000613e7985828601613ac7565b9250506020613e8a85828601613ac7565b9150509250929050565b6000613ea08383614341565b6101208301905092915050565b613eb681614bc9565b82525050565b613ec581614bc9565b82525050565b613ed481614bb7565b82525050565b6000613ee582614a90565b613eef8185614abe565b9350613efa83614a80565b8060005b83811015613f2b578151613f128882613e94565b9750613f1d83614ab1565b925050600181019050613efe565b5085935050505092915050565b613f4181614bdb565b82525050565b613f5081614bdb565b82525050565b6000613f6182614a9b565b613f6b8185614acf565b9350613f7b818560208601614c4c565b613f8481614e18565b840191505092915050565b6000613f9a82614aa6565b613fa48185614ae0565b9350613fb4818560208601614c4c565b613fbd81614e18565b840191505092915050565b6000613fd382614aa6565b613fdd8185614af1565b9350613fed818560208601614c4c565b80840191505092915050565b6000614006601f83614ae0565b915061401182614e29565b602082019050919050565b6000614029603283614ae0565b915061403482614e52565b604082019050919050565b600061404c602683614ae0565b915061405782614ea1565b604082019050919050565b600061406f602e83614ae0565b915061407a82614ef0565b604082019050919050565b6000614092602583614ae0565b915061409d82614f3f565b604082019050919050565b60006140b5601c83614ae0565b91506140c082614f8e565b602082019050919050565b60006140d8602483614ae0565b91506140e382614fb7565b604082019050919050565b60006140fb601983614ae0565b915061410682615006565b602082019050919050565b600061411e601783614ae0565b91506141298261502f565b602082019050919050565b6000614141602c83614ae0565b915061414c82615058565b604082019050919050565b6000614164603883614ae0565b915061416f826150a7565b604082019050919050565b6000614187602a83614ae0565b9150614192826150f6565b604082019050919050565b60006141aa602983614ae0565b91506141b582615145565b604082019050919050565b60006141cd602e83614ae0565b91506141d882615194565b604082019050919050565b60006141f0604083614ae0565b91506141fb826151e3565b604082019050919050565b6000614213602083614ae0565b915061421e82615232565b602082019050919050565b6000614236603183614ae0565b91506142418261525b565b604082019050919050565b6000614259602c83614ae0565b9150614264826152aa565b604082019050919050565b600061427c602083614ae0565b9150614287826152f9565b602082019050919050565b600061429f602f83614ae0565b91506142aa82615322565b604082019050919050565b60006142c2602883614ae0565b91506142cd82615371565b604082019050919050565b60006142e5602183614ae0565b91506142f0826153c0565b604082019050919050565b6000614308603583614ae0565b91506143138261540f565b604082019050919050565b600061432b603183614ae0565b91506143368261545e565b604082019050919050565b6101208201600082015161435860008501826144af565b50602082015161436b6020850182613ead565b50604082015161437e60408501826144af565b50606082015161439160608501826144af565b5060808201516143a46080850182613f38565b5060a08201516143b760a08501826144af565b5060c08201516143ca60c08501826144af565b5060e08201516143dd60e08501826144af565b506101008201516143f26101008501826144af565b50505050565b6101208201600082015161440f60008501826144af565b5060208201516144226020850182613ead565b50604082015161443560408501826144af565b50606082015161444860608501826144af565b50608082015161445b6080850182613f38565b5060a082015161446e60a08501826144af565b5060c082015161448160c08501826144af565b5060e082015161449460e08501826144af565b506101008201516144a96101008501826144af565b50505050565b6144b881614c33565b82525050565b6144c781614c33565b82525050565b60006144d98285613fc8565b91506144e58284613fc8565b91508190509392505050565b60006020820190506145066000830184613ecb565b92915050565b60006080820190506145216000830187613ecb565b61452e6020830186613ecb565b61453b60408301856144be565b818103606083015261454d8184613f56565b905095945050505050565b60006101008201905061456e600083018b613ecb565b61457b602083018a6144be565b61458860408301896144be565b6145956060830188613f47565b6145a260808301876144be565b6145af60a08301866144be565b6145bc60c08301856144be565b6145c960e08301846144be565b9998505050505050505050565b600060208201905081810360008301526145f08184613eda565b905092915050565b600060208201905061460d6000830184613f47565b92915050565b6000602082019050818103600083015261462d8184613f8f565b905092915050565b6000602082019050818103600083015261464e81613ff9565b9050919050565b6000602082019050818103600083015261466e8161401c565b9050919050565b6000602082019050818103600083015261468e8161403f565b9050919050565b600060208201905081810360008301526146ae81614062565b9050919050565b600060208201905081810360008301526146ce81614085565b9050919050565b600060208201905081810360008301526146ee816140a8565b9050919050565b6000602082019050818103600083015261470e816140cb565b9050919050565b6000602082019050818103600083015261472e816140ee565b9050919050565b6000602082019050818103600083015261474e81614111565b9050919050565b6000602082019050818103600083015261476e81614134565b9050919050565b6000602082019050818103600083015261478e81614157565b9050919050565b600060208201905081810360008301526147ae8161417a565b9050919050565b600060208201905081810360008301526147ce8161419d565b9050919050565b600060208201905081810360008301526147ee816141c0565b9050919050565b6000602082019050818103600083015261480e816141e3565b9050919050565b6000602082019050818103600083015261482e81614206565b9050919050565b6000602082019050818103600083015261484e81614229565b9050919050565b6000602082019050818103600083015261486e8161424c565b9050919050565b6000602082019050818103600083015261488e8161426f565b9050919050565b600060208201905081810360008301526148ae81614292565b9050919050565b600060208201905081810360008301526148ce816142b5565b9050919050565b600060208201905081810360008301526148ee816142d8565b9050919050565b6000602082019050818103600083015261490e816142fb565b9050919050565b6000602082019050818103600083015261492e8161431e565b9050919050565b60006101208201905061494b60008301846143f8565b92915050565b600060208201905061496660008301846144be565b92915050565b600061012082019050614982600083018c6144be565b61498f602083018b613ebc565b61499c604083018a6144be565b6149a960608301896144be565b6149b66080830188613f47565b6149c360a08301876144be565b6149d060c08301866144be565b6149dd60e08301856144be565b6149eb6101008301846144be565b9a9950505050505050505050565b6000614a03614a14565b9050614a0f8282614cb1565b919050565b6000604051905090565b600067ffffffffffffffff821115614a3957614a38614de9565b5b614a4282614e18565b9050602081019050919050565b600067ffffffffffffffff821115614a6a57614a69614de9565b5b614a7382614e18565b9050602081019050919050565b6000819050602082019050919050565b600081519050919050565b600081519050919050565b600081519050919050565b6000602082019050919050565b600082825260208201905092915050565b600082825260208201905092915050565b600082825260208201905092915050565b600081905092915050565b6000614b0782614c33565b9150614b1283614c33565b9250827fffffffffffffffffffffffffffffffffffffffffffffffffffffffffffffffff03821115614b4757614b46614d5c565b5b828201905092915050565b6000614b5d82614c33565b9150614b6883614c33565b925082614b7857614b77614d8b565b5b828204905092915050565b6000614b8e82614c33565b9150614b9983614c33565b925082821015614bac57614bab614d5c565b5b828203905092915050565b6000614bc282614c13565b9050919050565b6000614bd482614c13565b9050919050565b60008115159050919050565b60007fffffffff0000000000000000000000000000000000000000000000000000000082169050919050565b600073ffffffffffffffffffffffffffffffffffffffff82169050919050565b6000819050919050565b82818337600083830152505050565b60005b83811015614c6a578082015181840152602081019050614c4f565b83811115614c79576000848401525b50505050565b60006002820490506001821680614c9757607f821691505b60208210811415614cab57614caa614dba565b5b50919050565b614cba82614e18565b810181811067ffffffffffffffff82111715614cd957614cd8614de9565b5b80604052505050565b6000614ced82614c33565b91507fffffffffffffffffffffffffffffffffffffffffffffffffffffffffffffffff821415614d2057614d1f614d5c565b5b600182019050919050565b6000614d3682614c33565b9150614d4183614c33565b925082614d5157614d50614d8b565b5b828206905092915050565b7f4e487b7100000000000000000000000000000000000000000000000000000000600052601160045260246000fd5b7f4e487b7100000000000000000000000000000000000000000000000000000000600052601260045260246000fd5b7f4e487b7100000000000000000000000000000000000000000000000000000000600052602260045260246000fd5b7f4e487b7100000000000000000000000000000000000000000000000000000000600052604160045260246000fd5b6000601f19601f8301169050919050565b7f5072696365206d7573742062652067726561746572207468616e207a65726f00600082015250565b7f4552433732313a207472616e7366657220746f206e6f6e20455243373231526560008201527f63656976657220696d706c656d656e7465720000000000000000000000000000602082015250565b7f4f776e61626c653a206e6577206f776e657220697320746865207a65726f206160008201527f6464726573730000000000000000000000000000000000000000000000000000602082015250565b7f4c6f77657220626f756e6420657863656564732074686520746f74616c206e7560008201527f6d626572206f6620746f6b656e73000000000000000000000000000000000000602082015250565b7f4552433732313a207472616e736665722066726f6d20696e636f72726563742060008201527f6f776e6572000000000000000000000000000000000000000000000000000000602082015250565b7f4552433732313a20746f6b656e20616c7265616479206d696e74656400000000600082015250565b7f4552433732313a207472616e7366657220746f20746865207a65726f2061646460008201527f7265737300000000000000000000000000000000000000000000000000000000602082015250565b7f4552433732313a20617070726f766520746f2063616c6c657200000000000000600082015250565b7f546f6b656e20494420646f6573206e6f74206578697374000000000000000000600082015250565b7f4552433732313a206f70657261746f7220717565727920666f72206e6f6e657860008201527f697374656e7420746f6b656e0000000000000000000000000000000000000000602082015250565b7f4552433732313a20617070726f76652063616c6c6572206973206e6f74206f7760008201527f6e6572206e6f7220617070726f76656420666f7220616c6c0000000000000000602082015250565b7f4552433732313a2062616c616e636520717565727920666f7220746865207a6560008201527f726f206164647265737300000000000000000000000000000000000000000000602082015250565b7f4552433732313a206f776e657220717565727920666f72206e6f6e657869737460008201527f656e7420746f6b656e0000000000000000000000000000000000000000000000602082015250565b7f45524337323155524953746f726167653a2055524920736574206f66206e6f6e60008201527f6578697374656e7420746f6b656e000000000000000000000000000000000000602082015250565b7f506c65617365207375626d6974207468652061736b696e67207072696365206960008201527f6e206f7264657220746f20636f6d706c65746520746865207075726368617365602082015250565b7f4552433732313a206d696e7420746f20746865207a65726f2061646472657373600082015250565b7f45524337323155524953746f726167653a2055524920717565727920666f722060008201527f6e6f6e6578697374656e7420746f6b656e000000000000000000000000000000602082015250565b7f4552433732313a20617070726f76656420717565727920666f72206e6f6e657860008201527f697374656e7420746f6b656e0000000000000000000000000000000000000000602082015250565b7f4f776e61626c653a2063616c6c6572206973206e6f7420746865206f776e6572600082015250565b7f4552433732314d657461646174613a2055524920717565727920666f72206e6f60008201527f6e6578697374656e7420746f6b656e0000000000000000000000000000000000602082015250565b7f43616c6c657220216f776e6572206f6620746f6b656e206f7220636f6e74726160008201527f6374206f776e6572000000000000000000000000000000000000000000000000602082015250565b7f4552433732313a20617070726f76616c20746f2063757272656e74206f776e6560008201527f7200000000000000000000000000000000000000000000000000000000000000602082015250565b7f4c6f77657220626f756e64206d757374206265206c657373207468616e206f7260008201527f20657175616c20746f20757070657220626f756e640000000000000000000000602082015250565b7f4552433732313a207472616e736665722063616c6c6572206973206e6f74206f60008201527f776e6572206e6f7220617070726f766564000000000000000000000000000000602082015250565b6154b681614bb7565b81146154c157600080fd5b50565b6154cd81614bdb565b81146154d857600080fd5b50565b6154e481614be7565b81146154ef57600080fd5b50565b6154fb81614c33565b811461550657600080fd5b5056fea2646970667358221220b7df995e8c435192d77c049fa84a34639dda95e060d961df5a06525f6db6a92e64736f6c63430008040033",
  "linkReferences": {},
  "deployedLinkReferences": {}
}