{
  "_format": "hh-sol-artifact-1",
  "contractName": "Ahoy",
  "sourceName": "src/backend/contracts/Ahoy.sol",
  "abi": [
    {
      "inputs": [],
      "stateMutability": "nonpayable",
      "type": "constructor"
    },
    {
      "anonymous": false,
      "inputs": [
        {
          "indexed": true,
          "internalType": "address",
          "name": "owner",
          "type": "address"
        },
        {
          "indexed": true,
          "internalType": "address",
          "name": "approved",
          "type": "address"
        },
        {
          "indexed": true,
          "internalType": "uint256",
          "name": "tokenId",
          "type": "uint256"
        }
      ],
      "name": "Approval",
      "type": "event"
    },
    {
      "anonymous": false,
      "inputs": [
        {
          "indexed": true,
          "internalType": "address",
          "name": "owner",
          "type": "address"
        },
        {
          "indexed": true,
          "internalType": "address",
          "name": "operator",
          "type": "address"
        },
        {
          "indexed": false,
          "internalType": "bool",
          "name": "approved",
          "type": "bool"
        }
      ],
      "name": "ApprovalForAll",
      "type": "event"
    },
    {
      "anonymous": false,
      "inputs": [
        {
          "indexed": true,
          "internalType": "uint256",
          "name": "tokenId",
          "type": "uint256"
        },
        {
          "indexed": false,
          "internalType": "string",
          "name": "boatUUID",
          "type": "string"
        },
        {
          "indexed": false,
          "internalType": "address",
          "name": "owner",
          "type": "address"
        },
        {
          "indexed": false,
          "internalType": "uint256",
          "name": "hourlyPrice",
          "type": "uint256"
        },
        {
          "indexed": false,
          "internalType": "uint256",
          "name": "dailyPrice",
          "type": "uint256"
        },
        {
          "indexed": false,
          "internalType": "bool",
          "name": "currentlyListed",
          "type": "bool"
        },
        {
          "indexed": false,
          "internalType": "uint256",
          "name": "refundabilityPeriod",
          "type": "uint256"
        },
        {
          "indexed": false,
          "internalType": "uint256",
          "name": "deposit",
          "type": "uint256"
        },
        {
          "indexed": false,
          "internalType": "uint256",
          "name": "closedPeriod",
          "type": "uint256"
        },
        {
          "indexed": false,
          "internalType": "uint256",
          "name": "sellPrice",
          "type": "uint256"
        }
      ],
      "name": "BoatListedSuccess",
      "type": "event"
    },
    {
      "anonymous": false,
      "inputs": [
        {
          "indexed": true,
          "internalType": "uint256",
          "name": "tokenId",
          "type": "uint256"
        },
        {
          "indexed": true,
          "internalType": "address",
          "name": "owner",
          "type": "address"
        },
        {
          "indexed": true,
          "internalType": "address",
          "name": "marketContract",
          "type": "address"
        }
      ],
      "name": "BoatRelisted",
      "type": "event"
    },
    {
      "anonymous": false,
      "inputs": [
        {
          "indexed": true,
          "internalType": "uint256",
          "name": "tokenId",
          "type": "uint256"
        },
        {
          "indexed": false,
          "internalType": "uint256",
          "name": "newClosedPeriod",
          "type": "uint256"
        }
      ],
      "name": "ClosedPeriodUpdated",
      "type": "event"
    },
    {
      "anonymous": false,
      "inputs": [
        {
          "indexed": true,
          "internalType": "uint256",
          "name": "tokenId",
          "type": "uint256"
        },
        {
          "indexed": false,
          "internalType": "bool",
          "name": "newCurrentlyListed",
          "type": "bool"
        }
      ],
      "name": "CurrentlyListedUpdated",
      "type": "event"
    },
    {
      "anonymous": false,
      "inputs": [
        {
          "indexed": true,
          "internalType": "uint256",
          "name": "tokenId",
          "type": "uint256"
        },
        {
          "indexed": false,
          "internalType": "uint256",
          "name": "newDailyPrice",
          "type": "uint256"
        }
      ],
      "name": "DailyPriceUpdated",
      "type": "event"
    },
    {
      "anonymous": false,
      "inputs": [
        {
          "indexed": true,
          "internalType": "uint256",
          "name": "tokenId",
          "type": "uint256"
        },
        {
          "indexed": false,
          "internalType": "uint256",
          "name": "newHourlyPrice",
          "type": "uint256"
        }
      ],
      "name": "HourlyPriceUpdated",
      "type": "event"
    },
    {
      "anonymous": false,
      "inputs": [
        {
          "indexed": true,
          "internalType": "address",
          "name": "previousOwner",
          "type": "address"
        },
        {
          "indexed": true,
          "internalType": "address",
          "name": "newOwner",
          "type": "address"
        }
      ],
      "name": "OwnershipTransferred",
      "type": "event"
    },
    {
      "anonymous": false,
      "inputs": [
        {
          "indexed": true,
          "internalType": "uint256",
          "name": "tokenId",
          "type": "uint256"
        },
        {
          "indexed": false,
          "internalType": "uint256",
          "name": "newRefundabilityPeriod",
          "type": "uint256"
        }
      ],
      "name": "RefundabilityPeriodUpdated",
      "type": "event"
    },
    {
      "anonymous": false,
      "inputs": [
        {
          "indexed": true,
          "internalType": "address",
          "name": "from",
          "type": "address"
        },
        {
          "indexed": true,
          "internalType": "address",
          "name": "to",
          "type": "address"
        },
        {
          "indexed": true,
          "internalType": "uint256",
          "name": "tokenId",
          "type": "uint256"
        }
      ],
      "name": "Transfer",
      "type": "event"
    },
    {
      "anonymous": false,
      "inputs": [
        {
          "indexed": true,
          "internalType": "uint256",
          "name": "tokenId",
          "type": "uint256"
        },
        {
          "indexed": false,
          "internalType": "uint256",
          "name": "newDepositPrice",
          "type": "uint256"
        }
      ],
      "name": "depositUpdated",
      "type": "event"
    },
    {
      "anonymous": false,
      "inputs": [
        {
          "indexed": true,
          "internalType": "uint256",
          "name": "tokenId",
          "type": "uint256"
        },
        {
          "indexed": false,
          "internalType": "uint256",
          "name": "newSellPrice",
          "type": "uint256"
        }
      ],
      "name": "sellPriceUpdated",
      "type": "event"
    },
    {
      "inputs": [
        {
          "internalType": "address",
          "name": "to",
          "type": "address"
        },
        {
          "internalType": "uint256",
          "name": "tokenId",
          "type": "uint256"
        }
      ],
      "name": "approve",
      "outputs": [],
      "stateMutability": "nonpayable",
      "type": "function"
    },
    {
      "inputs": [
        {
          "internalType": "address",
          "name": "owner",
          "type": "address"
        }
      ],
      "name": "balanceOf",
      "outputs": [
        {
          "internalType": "uint256",
          "name": "",
          "type": "uint256"
        }
      ],
      "stateMutability": "view",
      "type": "function"
    },
    {
      "inputs": [
        {
          "internalType": "uint256",
          "name": "",
          "type": "uint256"
        }
      ],
      "name": "boats",
      "outputs": [
        {
          "internalType": "uint256",
          "name": "tokenId",
          "type": "uint256"
        },
        {
          "internalType": "string",
          "name": "boatUUID",
          "type": "string"
        },
        {
          "internalType": "address payable",
          "name": "owner",
          "type": "address"
        },
        {
          "internalType": "uint256",
          "name": "hourlyPrice",
          "type": "uint256"
        },
        {
          "internalType": "uint256",
          "name": "dailyPrice",
          "type": "uint256"
        },
        {
          "internalType": "bool",
          "name": "currentlyListed",
          "type": "bool"
        },
        {
          "internalType": "uint256",
          "name": "refundabilityPeriod",
          "type": "uint256"
        },
        {
          "internalType": "uint256",
          "name": "deposit",
          "type": "uint256"
        },
        {
          "internalType": "uint256",
          "name": "closedPeriod",
          "type": "uint256"
        },
        {
          "internalType": "uint256",
          "name": "sellPrice",
          "type": "uint256"
        }
      ],
      "stateMutability": "view",
      "type": "function"
    },
    {
      "inputs": [
        {
          "internalType": "string",
          "name": "boatUUID",
          "type": "string"
        }
      ],
      "name": "executeSale",
      "outputs": [],
      "stateMutability": "payable",
      "type": "function"
    },
    {
      "inputs": [
        {
          "internalType": "uint256",
          "name": "tokenId",
          "type": "uint256"
        }
      ],
      "name": "getApproved",
      "outputs": [
        {
          "internalType": "address",
          "name": "",
          "type": "address"
        }
      ],
      "stateMutability": "view",
      "type": "function"
    },
    {
      "inputs": [
        {
          "internalType": "string",
          "name": "boatUUID",
          "type": "string"
        }
      ],
      "name": "getListedBoatForId",
      "outputs": [
        {
          "components": [
            {
              "internalType": "uint256",
              "name": "tokenId",
              "type": "uint256"
            },
            {
              "internalType": "string",
              "name": "boatUUID",
              "type": "string"
            },
            {
              "internalType": "address payable",
              "name": "owner",
              "type": "address"
            },
            {
              "internalType": "uint256",
              "name": "hourlyPrice",
              "type": "uint256"
            },
            {
              "internalType": "uint256",
              "name": "dailyPrice",
              "type": "uint256"
            },
            {
              "internalType": "bool",
              "name": "currentlyListed",
              "type": "bool"
            },
            {
              "internalType": "uint256",
              "name": "refundabilityPeriod",
              "type": "uint256"
            },
            {
              "internalType": "uint256",
              "name": "deposit",
              "type": "uint256"
            },
            {
              "internalType": "uint256",
              "name": "closedPeriod",
              "type": "uint256"
            },
            {
              "internalType": "uint256",
              "name": "sellPrice",
              "type": "uint256"
            }
          ],
          "internalType": "struct Ahoy.Boat",
          "name": "",
          "type": "tuple"
        }
      ],
      "stateMutability": "view",
      "type": "function"
    },
    {
      "inputs": [
        {
          "internalType": "uint256",
          "name": "lowerBound",
          "type": "uint256"
        },
        {
          "internalType": "uint256",
          "name": "upperBound",
          "type": "uint256"
        }
      ],
      "name": "getNFTsInRange",
      "outputs": [
        {
          "components": [
            {
              "internalType": "uint256",
              "name": "tokenId",
              "type": "uint256"
            },
            {
              "internalType": "string",
              "name": "boatUUID",
              "type": "string"
            },
            {
              "internalType": "address payable",
              "name": "owner",
              "type": "address"
            },
            {
              "internalType": "uint256",
              "name": "hourlyPrice",
              "type": "uint256"
            },
            {
              "internalType": "uint256",
              "name": "dailyPrice",
              "type": "uint256"
            },
            {
              "internalType": "bool",
              "name": "currentlyListed",
              "type": "bool"
            },
            {
              "internalType": "uint256",
              "name": "refundabilityPeriod",
              "type": "uint256"
            },
            {
              "internalType": "uint256",
              "name": "deposit",
              "type": "uint256"
            },
            {
              "internalType": "uint256",
              "name": "closedPeriod",
              "type": "uint256"
            },
            {
              "internalType": "uint256",
              "name": "sellPrice",
              "type": "uint256"
            }
          ],
          "internalType": "struct Ahoy.Boat[]",
          "name": "",
          "type": "tuple[]"
        }
      ],
      "stateMutability": "view",
      "type": "function"
    },
    {
      "inputs": [
        {
          "internalType": "address",
          "name": "operator",
          "type": "address"
        }
      ],
      "name": "inventoryOf",
      "outputs": [
        {
          "components": [
            {
              "internalType": "uint256",
              "name": "tokenId",
              "type": "uint256"
            },
            {
              "internalType": "string",
              "name": "boatUUID",
              "type": "string"
            },
            {
              "internalType": "address payable",
              "name": "owner",
              "type": "address"
            },
            {
              "internalType": "uint256",
              "name": "hourlyPrice",
              "type": "uint256"
            },
            {
              "internalType": "uint256",
              "name": "dailyPrice",
              "type": "uint256"
            },
            {
              "internalType": "bool",
              "name": "currentlyListed",
              "type": "bool"
            },
            {
              "internalType": "uint256",
              "name": "refundabilityPeriod",
              "type": "uint256"
            },
            {
              "internalType": "uint256",
              "name": "deposit",
              "type": "uint256"
            },
            {
              "internalType": "uint256",
              "name": "closedPeriod",
              "type": "uint256"
            },
            {
              "internalType": "uint256",
              "name": "sellPrice",
              "type": "uint256"
            }
          ],
          "internalType": "struct Ahoy.Boat[]",
          "name": "",
          "type": "tuple[]"
        }
      ],
      "stateMutability": "view",
      "type": "function"
    },
    {
      "inputs": [
        {
          "internalType": "address",
          "name": "owner",
          "type": "address"
        },
        {
          "internalType": "address",
          "name": "operator",
          "type": "address"
        }
      ],
      "name": "isApprovedForAll",
      "outputs": [
        {
          "internalType": "bool",
          "name": "",
          "type": "bool"
        }
      ],
      "stateMutability": "view",
      "type": "function"
    },
    {
      "inputs": [
        {
          "internalType": "string",
          "name": "tokenURI",
          "type": "string"
        },
        {
          "internalType": "string",
          "name": "uuid",
          "type": "string"
        },
        {
          "internalType": "uint256",
          "name": "hourlyPrice",
          "type": "uint256"
        },
        {
          "internalType": "uint256",
          "name": "dailyPrice",
          "type": "uint256"
        },
        {
          "internalType": "bool",
          "name": "currentlyListed",
          "type": "bool"
        },
        {
          "internalType": "uint256",
          "name": "refundabilityPeriod",
          "type": "uint256"
        },
        {
          "internalType": "uint256",
          "name": "deposit",
          "type": "uint256"
        },
        {
          "internalType": "uint256",
          "name": "closedPeriod",
          "type": "uint256"
        },
        {
          "internalType": "uint256",
          "name": "_sellPrice",
          "type": "uint256"
        }
      ],
      "name": "mint",
      "outputs": [
        {
          "internalType": "uint256",
          "name": "",
          "type": "uint256"
        }
      ],
      "stateMutability": "payable",
      "type": "function"
    },
    {
      "inputs": [],
      "name": "name",
      "outputs": [
        {
          "internalType": "string",
          "name": "",
          "type": "string"
        }
      ],
      "stateMutability": "view",
      "type": "function"
    },
    {
      "inputs": [],
      "name": "owner",
      "outputs": [
        {
          "internalType": "address",
          "name": "",
          "type": "address"
        }
      ],
      "stateMutability": "view",
      "type": "function"
    },
    {
      "inputs": [
        {
          "internalType": "uint256",
          "name": "tokenId",
          "type": "uint256"
        }
      ],
      "name": "ownerOf",
      "outputs": [
        {
          "internalType": "address",
          "name": "",
          "type": "address"
        }
      ],
      "stateMutability": "view",
      "type": "function"
    },
    {
      "inputs": [
        {
          "internalType": "string",
          "name": "boatUUID",
          "type": "string"
        }
      ],
      "name": "relistBoat",
      "outputs": [],
      "stateMutability": "nonpayable",
      "type": "function"
    },
    {
      "inputs": [],
      "name": "renounceOwnership",
      "outputs": [],
      "stateMutability": "nonpayable",
      "type": "function"
    },
    {
      "inputs": [
        {
          "internalType": "address",
          "name": "from",
          "type": "address"
        },
        {
          "internalType": "address",
          "name": "to",
          "type": "address"
        },
        {
          "internalType": "uint256",
          "name": "tokenId",
          "type": "uint256"
        }
      ],
      "name": "safeTransferFrom",
      "outputs": [],
      "stateMutability": "nonpayable",
      "type": "function"
    },
    {
      "inputs": [
        {
          "internalType": "address",
          "name": "from",
          "type": "address"
        },
        {
          "internalType": "address",
          "name": "to",
          "type": "address"
        },
        {
          "internalType": "uint256",
          "name": "tokenId",
          "type": "uint256"
        },
        {
          "internalType": "bytes",
          "name": "_data",
          "type": "bytes"
        }
      ],
      "name": "safeTransferFrom",
      "outputs": [],
      "stateMutability": "nonpayable",
      "type": "function"
    },
    {
      "inputs": [
        {
          "internalType": "address",
          "name": "operator",
          "type": "address"
        },
        {
          "internalType": "bool",
          "name": "approved",
          "type": "bool"
        }
      ],
      "name": "setApprovalForAll",
      "outputs": [],
      "stateMutability": "nonpayable",
      "type": "function"
    },
    {
      "inputs": [
        {
          "internalType": "bytes4",
          "name": "interfaceId",
          "type": "bytes4"
        }
      ],
      "name": "supportsInterface",
      "outputs": [
        {
          "internalType": "bool",
          "name": "",
          "type": "bool"
        }
      ],
      "stateMutability": "view",
      "type": "function"
    },
    {
      "inputs": [],
      "name": "symbol",
      "outputs": [
        {
          "internalType": "string",
          "name": "",
          "type": "string"
        }
      ],
      "stateMutability": "view",
      "type": "function"
    },
    {
      "inputs": [],
      "name": "tokenCount",
      "outputs": [
        {
          "internalType": "uint256",
          "name": "",
          "type": "uint256"
        }
      ],
      "stateMutability": "view",
      "type": "function"
    },
    {
      "inputs": [
        {
          "internalType": "uint256",
          "name": "tokenId",
          "type": "uint256"
        }
      ],
      "name": "tokenURI",
      "outputs": [
        {
          "internalType": "string",
          "name": "",
          "type": "string"
        }
      ],
      "stateMutability": "view",
      "type": "function"
    },
    {
      "inputs": [
        {
          "internalType": "address",
          "name": "from",
          "type": "address"
        },
        {
          "internalType": "address",
          "name": "to",
          "type": "address"
        },
        {
          "internalType": "uint256",
          "name": "tokenId",
          "type": "uint256"
        }
      ],
      "name": "transferFrom",
      "outputs": [],
      "stateMutability": "nonpayable",
      "type": "function"
    },
    {
      "inputs": [
        {
          "internalType": "address",
          "name": "newOwner",
          "type": "address"
        }
      ],
      "name": "transferOwnership",
      "outputs": [],
      "stateMutability": "nonpayable",
      "type": "function"
    },
    {
      "inputs": [
        {
          "internalType": "string",
          "name": "boatUUID",
          "type": "string"
        },
        {
          "internalType": "uint256",
          "name": "newPeriod",
          "type": "uint256"
        }
      ],
      "name": "updateClosedPeriod",
      "outputs": [],
      "stateMutability": "nonpayable",
      "type": "function"
    },
    {
      "inputs": [
        {
          "internalType": "string",
          "name": "boatUUID",
          "type": "string"
        },
        {
          "internalType": "uint256",
          "name": "newDailyPrice",
          "type": "uint256"
        }
      ],
      "name": "updateDailyPrice",
      "outputs": [],
      "stateMutability": "nonpayable",
      "type": "function"
    },
    {
      "inputs": [
        {
          "internalType": "string",
          "name": "boatUUID",
          "type": "string"
        },
        {
          "internalType": "uint256",
          "name": "newDeposit",
          "type": "uint256"
        }
      ],
      "name": "updateDeposit",
      "outputs": [],
      "stateMutability": "nonpayable",
      "type": "function"
    },
    {
      "inputs": [
        {
          "internalType": "string",
          "name": "boatUUID",
          "type": "string"
        },
        {
          "internalType": "uint256",
          "name": "newHourlyPrice",
          "type": "uint256"
        }
      ],
      "name": "updateHourlyPrice",
      "outputs": [],
      "stateMutability": "nonpayable",
      "type": "function"
    },
    {
      "inputs": [
        {
          "internalType": "string",
          "name": "boatUUID",
          "type": "string"
        },
        {
          "internalType": "uint256",
          "name": "newPeriod",
          "type": "uint256"
        }
      ],
      "name": "updateRefundabilityPeriod",
      "outputs": [],
      "stateMutability": "nonpayable",
      "type": "function"
    },
    {
      "inputs": [
        {
          "internalType": "string",
          "name": "boatUUID",
          "type": "string"
        },
        {
          "internalType": "uint256",
          "name": "newSellPrice",
          "type": "uint256"
        }
      ],
      "name": "updateSellPrice",
      "outputs": [],
      "stateMutability": "nonpayable",
      "type": "function"
    },
    {
      "inputs": [
        {
          "internalType": "string",
          "name": "boatUUID",
          "type": "string"
        },
        {
          "internalType": "bool",
          "name": "_currentlyListed",
          "type": "bool"
        }
      ],
      "name": "updateStatus",
      "outputs": [],
      "stateMutability": "nonpayable",
      "type": "function"
    },
    {
      "inputs": [
        {
          "internalType": "string",
          "name": "boatUUID",
          "type": "string"
        },
        {
          "internalType": "string",
          "name": "newTokenURI",
          "type": "string"
        }
      ],
      "name": "updateTokenURIByUUID",
      "outputs": [],
      "stateMutability": "nonpayable",
      "type": "function"
    }
  ],
  "bytecode": "0x60806040523480156200001157600080fd5b506040518060400160405280600881526020017f426f6174204e46540000000000000000000000000000000000000000000000008152506040518060400160405280600481526020017f424f415400000000000000000000000000000000000000000000000000000000815250816000908051906020019062000096929190620001a6565b508060019080519060200190620000af929190620001a6565b505050620000d2620000c6620000d860201b60201c565b620000e060201b60201c565b620002bb565b600033905090565b6000600760009054906101000a900473ffffffffffffffffffffffffffffffffffffffff16905081600760006101000a81548173ffffffffffffffffffffffffffffffffffffffff021916908373ffffffffffffffffffffffffffffffffffffffff1602179055508173ffffffffffffffffffffffffffffffffffffffff168173ffffffffffffffffffffffffffffffffffffffff167f8be0079c531659141344cd1fd0a4f28419497f9722a3daafe3b4186f6b6457e060405160405180910390a35050565b828054620001b49062000256565b90600052602060002090601f016020900481019282620001d8576000855562000224565b82601f10620001f357805160ff191683800117855562000224565b8280016001018555821562000224579182015b828111156200022357825182559160200191906001019062000206565b5b50905062000233919062000237565b5090565b5b808211156200025257600081600090555060010162000238565b5090565b600060028204905060018216806200026f57607f821691505b602082108114156200028657620002856200028c565b5b50919050565b7f4e487b7100000000000000000000000000000000000000000000000000000000600052602260045260246000fd5b615f6b80620002cb6000396000f3fe6080604052600436106101e35760003560e01c8063783a669311610102578063a22cb46511610095578063cc03251711610064578063cc032517146106fd578063d34bf06514610726578063e985e9c514610763578063f2fde38b146107a0576101e3565b8063a22cb46514610652578063b88d4fde1461067b578063baaf971d146106a4578063c87b56dd146106c0576101e3565b80638da5cb5b116100d15780638da5cb5b146105a85780638f5b7522146105d357806395d89b41146105fc5780639f181b5e14610627576101e3565b8063783a6693146104e957806378546470146105125780637eaebb1514610542578063816bd8541461057f576101e3565b806342842e0e1161017a57806369e9525b1161014957806369e9525b1461044357806370a082311461046c578063715018a6146104a9578063751d1ee9146104c0576101e3565b806342842e0e1461035a578063525919da146103835780635969c028146103c95780636352211e14610406576101e3565b80631e0b1c4d116101b65780631e0b1c4d146102b657806321d9f670146102df57806323b872dd146103085780633206dab714610331576101e3565b806301ffc9a7146101e857806306fdde0314610225578063081812fc14610250578063095ea7b31461028d575b600080fd5b3480156101f457600080fd5b5061020f600480360381019061020a9190614467565b6107c9565b60405161021c9190614f1a565b60405180910390f35b34801561023157600080fd5b5061023a6108ab565b6040516102479190614f35565b60405180910390f35b34801561025c57600080fd5b5061027760048036038101906102729190614704565b61093d565b6040516102849190614e91565b60405180910390f35b34801561029957600080fd5b506102b460048036038101906102af919061442b565b6109c2565b005b3480156102c257600080fd5b506102dd60048036038101906102d891906146b0565b610ada565b005b3480156102eb57600080fd5b50610306600480360381019061030191906146b0565b610ce8565b005b34801561031457600080fd5b5061032f600480360381019061032a9190614325565b610ef6565b005b34801561033d57600080fd5b50610358600480360381019061035391906146b0565b610f56565b005b34801561036657600080fd5b50610381600480360381019061037c9190614325565b611164565b005b34801561038f57600080fd5b506103aa60048036038101906103a59190614704565b611184565b6040516103c09a99989796959493929190615348565b60405180910390f35b3480156103d557600080fd5b506103f060048036038101906103eb919061472d565b61128d565b6040516103fd9190614ef8565b60405180910390f35b34801561041257600080fd5b5061042d60048036038101906104289190614704565b6115b8565b60405161043a9190614e91565b60405180910390f35b34801561044f57600080fd5b5061046a6004803603810190610465919061454e565b61166a565b005b34801561047857600080fd5b50610493600480360381019061048e91906142c0565b61182f565b6040516104a0919061532d565b60405180910390f35b3480156104b557600080fd5b506104be6118e7565b005b3480156104cc57600080fd5b506104e760048036038101906104e291906146b0565b61196f565b005b3480156104f557600080fd5b50610510600480360381019061050b91906146b0565b611b7d565b005b61052c600480360381019061052791906145ba565b611d8b565b604051610539919061532d565b60405180910390f35b34801561054e57600080fd5b50610569600480360381019061056491906142c0565b611e07565b6040516105769190614ef8565b60405180910390f35b34801561058b57600080fd5b506105a660048036038101906105a191906144b9565b61223a565b005b3480156105b457600080fd5b506105bd61245a565b6040516105ca9190614e91565b60405180910390f35b3480156105df57600080fd5b506105fa60048036038101906105f591906146b0565b612484565b005b34801561060857600080fd5b50610611612692565b60405161061e9190614f35565b60405180910390f35b34801561063357600080fd5b5061063c612724565b604051610649919061532d565b60405180910390f35b34801561065e57600080fd5b50610679600480360381019061067491906143ef565b61272a565b005b34801561068757600080fd5b506106a2600480360381019061069d9190614374565b612740565b005b6106be60048036038101906106b991906144b9565b6127a2565b005b3480156106cc57600080fd5b506106e760048036038101906106e29190614704565b612987565b6040516106f49190614f35565b60405180910390f35b34801561070957600080fd5b50610724600480360381019061071f91906144fa565b612ad9565b005b34801561073257600080fd5b5061074d600480360381019061074891906144b9565b612cfa565b60405161075a919061530b565b60405180910390f35b34801561076f57600080fd5b5061078a600480360381019061078591906142e9565b612e95565b6040516107979190614f1a565b60405180910390f35b3480156107ac57600080fd5b506107c760048036038101906107c291906142c0565b612f29565b005b60007f80ac58cd000000000000000000000000000000000000000000000000000000007bffffffffffffffffffffffffffffffffffffffffffffffffffffffff1916827bffffffffffffffffffffffffffffffffffffffffffffffffffffffff1916148061089457507f5b5e139f000000000000000000000000000000000000000000000000000000007bffffffffffffffffffffffffffffffffffffffffffffffffffffffff1916827bffffffffffffffffffffffffffffffffffffffffffffffffffffffff1916145b806108a457506108a382613021565b5b9050919050565b6060600080546108ba90615682565b80601f01602080910402602001604051908101604052809291908181526020018280546108e690615682565b80156109335780601f1061090857610100808354040283529160200191610933565b820191906000526020600020905b81548152906001019060200180831161091657829003601f168201915b5050505050905090565b60006109488261308b565b610987576040517f08c379a000000000000000000000000000000000000000000000000000000000815260040161097e906151eb565b60405180910390fd5b6004600083815260200190815260200160002060009054906101000a900473ffffffffffffffffffffffffffffffffffffffff169050919050565b60006109cd826115b8565b90508073ffffffffffffffffffffffffffffffffffffffff168373ffffffffffffffffffffffffffffffffffffffff161415610a3e576040517f08c379a0000000000000000000000000000000000000000000000000000000008152600401610a359061526b565b60405180910390fd5b8073ffffffffffffffffffffffffffffffffffffffff16610a5d6130f7565b73ffffffffffffffffffffffffffffffffffffffff161480610a8c5750610a8b81610a866130f7565b612e95565b5b610acb576040517f08c379a0000000000000000000000000000000000000000000000000000000008152600401610ac29061510b565b60405180910390fd5b610ad583836130ff565b505050565b816000600a82604051610aed9190614e56565b90815260200160405180910390205490506000811415610b42576040517f08c379a0000000000000000000000000000000000000000000000000000000008152600401610b39906152cb565b60405180910390fd5b610b4b8161308b565b610b8a576040517f08c379a0000000000000000000000000000000000000000000000000000000008152600401610b81906150cb565b60405180910390fd5b6009600082815260200190815260200160002060020160009054906101000a900473ffffffffffffffffffffffffffffffffffffffff1673ffffffffffffffffffffffffffffffffffffffff163373ffffffffffffffffffffffffffffffffffffffff161480610c2c57503373ffffffffffffffffffffffffffffffffffffffff16610c1461245a565b73ffffffffffffffffffffffffffffffffffffffff16145b610c6b576040517f08c379a0000000000000000000000000000000000000000000000000000000008152600401610c629061524b565b60405180910390fd5b6000600a85604051610c7d9190614e56565b9081526020016040518091039020549050836009600083815260200190815260200160002060030181905550807fd30ea262383676c6ffb3594e7772217082e85acdb5c2e7fe8945ec593b16140885604051610cd9919061532d565b60405180910390a25050505050565b816000600a82604051610cfb9190614e56565b90815260200160405180910390205490506000811415610d50576040517f08c379a0000000000000000000000000000000000000000000000000000000008152600401610d47906152cb565b60405180910390fd5b610d598161308b565b610d98576040517f08c379a0000000000000000000000000000000000000000000000000000000008152600401610d8f906150cb565b60405180910390fd5b6009600082815260200190815260200160002060020160009054906101000a900473ffffffffffffffffffffffffffffffffffffffff1673ffffffffffffffffffffffffffffffffffffffff163373ffffffffffffffffffffffffffffffffffffffff161480610e3a57503373ffffffffffffffffffffffffffffffffffffffff16610e2261245a565b73ffffffffffffffffffffffffffffffffffffffff16145b610e79576040517f08c379a0000000000000000000000000000000000000000000000000000000008152600401610e709061524b565b60405180910390fd5b6000600a85604051610e8b9190614e56565b9081526020016040518091039020549050836009600083815260200190815260200160002060090181905550807f80214732cb7b51409e143594f22dd89c147c85da33438f45c0d1bcd95bc2d40085604051610ee7919061532d565b60405180910390a25050505050565b610f07610f016130f7565b826131b8565b610f46576040517f08c379a0000000000000000000000000000000000000000000000000000000008152600401610f3d906152ab565b60405180910390fd5b610f51838383613296565b505050565b816000600a82604051610f699190614e56565b90815260200160405180910390205490506000811415610fbe576040517f08c379a0000000000000000000000000000000000000000000000000000000008152600401610fb5906152cb565b60405180910390fd5b610fc78161308b565b611006576040517f08c379a0000000000000000000000000000000000000000000000000000000008152600401610ffd906150cb565b60405180910390fd5b6009600082815260200190815260200160002060020160009054906101000a900473ffffffffffffffffffffffffffffffffffffffff1673ffffffffffffffffffffffffffffffffffffffff163373ffffffffffffffffffffffffffffffffffffffff1614806110a857503373ffffffffffffffffffffffffffffffffffffffff1661109061245a565b73ffffffffffffffffffffffffffffffffffffffff16145b6110e7576040517f08c379a00000000000000000000000000000000000000000000000000000000081526004016110de9061524b565b60405180910390fd5b6000600a856040516110f99190614e56565b9081526020016040518091039020549050836009600083815260200190815260200160002060040181905550807f56f5b1c57e56d38ff62b49a4af8f52987709e36a3d4261765cf81eaaec67803385604051611155919061532d565b60405180910390a25050505050565b61117f83838360405180602001604052806000815250612740565b505050565b60096020528060005260406000206000915090508060000154908060010180546111ad90615682565b80601f01602080910402602001604051908101604052809291908181526020018280546111d990615682565b80156112265780601f106111fb57610100808354040283529160200191611226565b820191906000526020600020905b81548152906001019060200180831161120957829003601f168201915b5050505050908060020160009054906101000a900473ffffffffffffffffffffffffffffffffffffffff16908060030154908060040154908060050160009054906101000a900460ff1690806006015490806007015490806008015490806009015490508a565b606060006008549050808411156112d9576040517f08c379a00000000000000000000000000000000000000000000000000000000081526004016112d09061502b565b60405180910390fd5b8284111561131c576040517f08c379a00000000000000000000000000000000000000000000000000000000081526004016113139061528b565b60405180910390fd5b600084141561132a57600193505b80831115611336578092505b6000600185856113469190615586565b61135091906154ff565b905060008167ffffffffffffffff811115611394577f4e487b7100000000000000000000000000000000000000000000000000000000600052604160045260246000fd5b6040519080825280602002602001820160405280156113cd57816020015b6113ba614079565b8152602001906001900390816113b25790505b50905060005b828110156115ab57600060096000838a6113ed91906154ff565b8152602001908152602001600020905080604051806101400160405290816000820154815260200160018201805461142490615682565b80601f016020809104026020016040519081016040528092919081815260200182805461145090615682565b801561149d5780601f106114725761010080835404028352916020019161149d565b820191906000526020600020905b81548152906001019060200180831161148057829003601f168201915b505050505081526020016002820160009054906101000a900473ffffffffffffffffffffffffffffffffffffffff1673ffffffffffffffffffffffffffffffffffffffff1673ffffffffffffffffffffffffffffffffffffffff16815260200160038201548152602001600482015481526020016005820160009054906101000a900460ff1615151515815260200160068201548152602001600782015481526020016008820154815260200160098201548152505083838151811061158c577f4e487b7100000000000000000000000000000000000000000000000000000000600052603260045260246000fd5b60200260200101819052505080806115a3906156e5565b9150506113d3565b5080935050505092915050565b6000806002600084815260200190815260200160002060009054906101000a900473ffffffffffffffffffffffffffffffffffffffff169050600073ffffffffffffffffffffffffffffffffffffffff168173ffffffffffffffffffffffffffffffffffffffff161415611661576040517f08c379a00000000000000000000000000000000000000000000000000000000081526004016116589061514b565b60405180910390fd5b80915050919050565b816000600a8260405161167d9190614e56565b908152602001604051809103902054905060008114156116d2576040517f08c379a00000000000000000000000000000000000000000000000000000000081526004016116c9906152cb565b60405180910390fd5b6116db8161308b565b61171a576040517f08c379a0000000000000000000000000000000000000000000000000000000008152600401611711906150cb565b60405180910390fd5b6009600082815260200190815260200160002060020160009054906101000a900473ffffffffffffffffffffffffffffffffffffffff1673ffffffffffffffffffffffffffffffffffffffff163373ffffffffffffffffffffffffffffffffffffffff1614806117bc57503373ffffffffffffffffffffffffffffffffffffffff166117a461245a565b73ffffffffffffffffffffffffffffffffffffffff16145b6117fb576040517f08c379a00000000000000000000000000000000000000000000000000000000081526004016117f29061524b565b60405180910390fd5b6000600a8560405161180d9190614e56565b908152602001604051809103902054905061182881856134fd565b5050505050565b60008073ffffffffffffffffffffffffffffffffffffffff168273ffffffffffffffffffffffffffffffffffffffff1614156118a0576040517f08c379a00000000000000000000000000000000000000000000000000000000081526004016118979061512b565b60405180910390fd5b600360008373ffffffffffffffffffffffffffffffffffffffff1673ffffffffffffffffffffffffffffffffffffffff168152602001908152602001600020549050919050565b6118ef6130f7565b73ffffffffffffffffffffffffffffffffffffffff1661190d61245a565b73ffffffffffffffffffffffffffffffffffffffff1614611963576040517f08c379a000000000000000000000000000000000000000000000000000000000815260040161195a9061520b565b60405180910390fd5b61196d6000613571565b565b816000600a826040516119829190614e56565b908152602001604051809103902054905060008114156119d7576040517f08c379a00000000000000000000000000000000000000000000000000000000081526004016119ce906152cb565b60405180910390fd5b6119e08161308b565b611a1f576040517f08c379a0000000000000000000000000000000000000000000000000000000008152600401611a16906150cb565b60405180910390fd5b6009600082815260200190815260200160002060020160009054906101000a900473ffffffffffffffffffffffffffffffffffffffff1673ffffffffffffffffffffffffffffffffffffffff163373ffffffffffffffffffffffffffffffffffffffff161480611ac157503373ffffffffffffffffffffffffffffffffffffffff16611aa961245a565b73ffffffffffffffffffffffffffffffffffffffff16145b611b00576040517f08c379a0000000000000000000000000000000000000000000000000000000008152600401611af79061524b565b60405180910390fd5b6000600a85604051611b129190614e56565b9081526020016040518091039020549050836009600083815260200190815260200160002060080181905550807f8cba03acb5595fdb6ff27c32503305aafee2573010e09fce6f2644093840d88185604051611b6e919061532d565b60405180910390a25050505050565b816000600a82604051611b909190614e56565b90815260200160405180910390205490506000811415611be5576040517f08c379a0000000000000000000000000000000000000000000000000000000008152600401611bdc906152cb565b60405180910390fd5b611bee8161308b565b611c2d576040517f08c379a0000000000000000000000000000000000000000000000000000000008152600401611c24906150cb565b60405180910390fd5b6009600082815260200190815260200160002060020160009054906101000a900473ffffffffffffffffffffffffffffffffffffffff1673ffffffffffffffffffffffffffffffffffffffff163373ffffffffffffffffffffffffffffffffffffffff161480611ccf57503373ffffffffffffffffffffffffffffffffffffffff16611cb761245a565b73ffffffffffffffffffffffffffffffffffffffff16145b611d0e576040517f08c379a0000000000000000000000000000000000000000000000000000000008152600401611d059061524b565b60405180910390fd5b6000600a85604051611d209190614e56565b9081526020016040518091039020549050836009600083815260200190815260200160002060070181905550807f30bb3fa444e97de5847bd43c09e8064f1964e80a8feccbd7f032180f03d3d53885604051611d7c919061532d565b60405180910390a25050505050565b600060086000815480929190611da0906156e5565b9190505550611db133600854613637565b611dbd6008548b6134fd565b600854600a8a604051611dd09190614e56565b908152602001604051809103902081905550611df56008548a8a8a8a8a8a8a8a613655565b60085490509998505050505050505050565b6060600060085490506000811415611e9c57600067ffffffffffffffff811115611e5a577f4e487b7100000000000000000000000000000000000000000000000000000000600052604160045260246000fd5b604051908082528060200260200182016040528015611e9357816020015b611e80614079565b815260200190600190039081611e785790505b50915050612235565b60008080600090505b83811015611f46578573ffffffffffffffffffffffffffffffffffffffff1660096000600184611ed591906154ff565b815260200190815260200160002060020160009054906101000a900473ffffffffffffffffffffffffffffffffffffffff1673ffffffffffffffffffffffffffffffffffffffff161415611f3357600183611f3091906154ff565b92505b8080611f3e906156e5565b915050611ea5565b5060008267ffffffffffffffff811115611f89577f4e487b7100000000000000000000000000000000000000000000000000000000600052604160045260246000fd5b604051908082528060200260200182016040528015611fc257816020015b611faf614079565b815260200190600190039081611fa75790505b5090506000805b8581101561222b578773ffffffffffffffffffffffffffffffffffffffff1660096000600184611ff991906154ff565b815260200190815260200160002060020160009054906101000a900473ffffffffffffffffffffffffffffffffffffffff1673ffffffffffffffffffffffffffffffffffffffff1614156122185760018161205491906154ff565b9350600060096000868152602001908152602001600020905080604051806101400160405290816000820154815260200160018201805461209490615682565b80601f01602080910402602001604051908101604052809291908181526020018280546120c090615682565b801561210d5780601f106120e25761010080835404028352916020019161210d565b820191906000526020600020905b8154815290600101906020018083116120f057829003601f168201915b505050505081526020016002820160009054906101000a900473ffffffffffffffffffffffffffffffffffffffff1673ffffffffffffffffffffffffffffffffffffffff1673ffffffffffffffffffffffffffffffffffffffff16815260200160038201548152602001600482015481526020016005820160009054906101000a900460ff161515151581526020016006820154815260200160078201548152602001600882015481526020016009820154815250508484815181106121fc577f4e487b7100000000000000000000000000000000000000000000000000000000600052603260045260246000fd5b602002602001018190525060018361221491906154ff565b9250505b8080612223906156e5565b915050611fc9565b5081955050505050505b919050565b806000600a8260405161224d9190614e56565b908152602001604051809103902054905060008114156122a2576040517f08c379a0000000000000000000000000000000000000000000000000000000008152600401612299906152cb565b60405180910390fd5b6122ab8161308b565b6122ea576040517f08c379a00000000000000000000000000000000000000000000000000000000081526004016122e1906150cb565b60405180910390fd5b6009600082815260200190815260200160002060020160009054906101000a900473ffffffffffffffffffffffffffffffffffffffff1673ffffffffffffffffffffffffffffffffffffffff163373ffffffffffffffffffffffffffffffffffffffff16148061238c57503373ffffffffffffffffffffffffffffffffffffffff1661237461245a565b73ffffffffffffffffffffffffffffffffffffffff16145b6123cb576040517f08c379a00000000000000000000000000000000000000000000000000000000081526004016123c29061524b565b60405180910390fd5b6000600a846040516123dd9190614e56565b90815260200160405180910390205490506123f9333083613296565b3073ffffffffffffffffffffffffffffffffffffffff163373ffffffffffffffffffffffffffffffffffffffff16827f2c193914ffab78d33c96937fec19b6900903ca752d1d16df0395fe8b56cfac8c60405160405180910390a450505050565b6000600760009054906101000a900473ffffffffffffffffffffffffffffffffffffffff16905090565b816000600a826040516124979190614e56565b908152602001604051809103902054905060008114156124ec576040517f08c379a00000000000000000000000000000000000000000000000000000000081526004016124e3906152cb565b60405180910390fd5b6124f58161308b565b612534576040517f08c379a000000000000000000000000000000000000000000000000000000000815260040161252b906150cb565b60405180910390fd5b6009600082815260200190815260200160002060020160009054906101000a900473ffffffffffffffffffffffffffffffffffffffff1673ffffffffffffffffffffffffffffffffffffffff163373ffffffffffffffffffffffffffffffffffffffff1614806125d657503373ffffffffffffffffffffffffffffffffffffffff166125be61245a565b73ffffffffffffffffffffffffffffffffffffffff16145b612615576040517f08c379a000000000000000000000000000000000000000000000000000000000815260040161260c9061524b565b60405180910390fd5b6000600a856040516126279190614e56565b9081526020016040518091039020549050836009600083815260200190815260200160002060060181905550807f6659833065c5adcb2a4c3711b4a04eb23c358af7bc1b0fe0d04ca75ce9076ba185604051612683919061532d565b60405180910390a25050505050565b6060600180546126a190615682565b80601f01602080910402602001604051908101604052809291908181526020018280546126cd90615682565b801561271a5780601f106126ef5761010080835404028352916020019161271a565b820191906000526020600020905b8154815290600101906020018083116126fd57829003601f168201915b5050505050905090565b60085481565b61273c6127356130f7565b838361384c565b5050565b61275161274b6130f7565b836131b8565b612790576040517f08c379a0000000000000000000000000000000000000000000000000000000008152600401612787906152ab565b60405180910390fd5b61279c848484846139b9565b50505050565b6000600a826040516127b49190614e56565b90815260200160405180910390205490506127ce8161308b565b61280d576040517f08c379a0000000000000000000000000000000000000000000000000000000008152600401612804906150cb565b60405180910390fd5b60006009600083815260200190815260200160002060090154905060006009600084815260200190815260200160002060020160009054906101000a900473ffffffffffffffffffffffffffffffffffffffff16905060003390508234146128aa576040517f08c379a00000000000000000000000000000000000000000000000000000000081526004016128a19061518b565b60405180910390fd5b6128b5303386613296565b806009600086815260200190815260200160002060020160006101000a81548173ffffffffffffffffffffffffffffffffffffffff021916908373ffffffffffffffffffffffffffffffffffffffff16021790555060006009600086815260200190815260200160002060050160006101000a81548160ff0219169083151502179055508173ffffffffffffffffffffffffffffffffffffffff166108fc349081150290604051600060405180830381858888f1935050505015801561297f573d6000803e3d6000fd5b505050505050565b60606129928261308b565b6129d1576040517f08c379a00000000000000000000000000000000000000000000000000000000081526004016129c8906151cb565b60405180910390fd5b60006006600084815260200190815260200160002080546129f190615682565b80601f0160208091040260200160405190810160405280929190818152602001828054612a1d90615682565b8015612a6a5780601f10612a3f57610100808354040283529160200191612a6a565b820191906000526020600020905b815481529060010190602001808311612a4d57829003601f168201915b505050505090506000612a7b613a15565b9050600081511415612a91578192505050612ad4565b600082511115612ac6578082604051602001612aae929190614e6d565b60405160208183030381529060405292505050612ad4565b612acf84613a2c565b925050505b919050565b816000600a82604051612aec9190614e56565b90815260200160405180910390205490506000811415612b41576040517f08c379a0000000000000000000000000000000000000000000000000000000008152600401612b38906152cb565b60405180910390fd5b612b4a8161308b565b612b89576040517f08c379a0000000000000000000000000000000000000000000000000000000008152600401612b80906150cb565b60405180910390fd5b6009600082815260200190815260200160002060020160009054906101000a900473ffffffffffffffffffffffffffffffffffffffff1673ffffffffffffffffffffffffffffffffffffffff163373ffffffffffffffffffffffffffffffffffffffff161480612c2b57503373ffffffffffffffffffffffffffffffffffffffff16612c1361245a565b73ffffffffffffffffffffffffffffffffffffffff16145b612c6a576040517f08c379a0000000000000000000000000000000000000000000000000000000008152600401612c619061524b565b60405180910390fd5b6000600a85604051612c7c9190614e56565b9081526020016040518091039020549050836009600083815260200190815260200160002060050160006101000a81548160ff021916908315150217905550807f424e7b0d93f2668ac443a22364c7fe58a632fd614b4fb55ee2ac77c8a462512785604051612ceb9190614f1a565b60405180910390a25050505050565b612d02614079565b6000600a83604051612d149190614e56565b9081526020016040518091039020549050600960008281526020019081526020016000206040518061014001604052908160008201548152602001600182018054612d5e90615682565b80601f0160208091040260200160405190810160405280929190818152602001828054612d8a90615682565b8015612dd75780601f10612dac57610100808354040283529160200191612dd7565b820191906000526020600020905b815481529060010190602001808311612dba57829003601f168201915b505050505081526020016002820160009054906101000a900473ffffffffffffffffffffffffffffffffffffffff1673ffffffffffffffffffffffffffffffffffffffff1673ffffffffffffffffffffffffffffffffffffffff16815260200160038201548152602001600482015481526020016005820160009054906101000a900460ff16151515158152602001600682015481526020016007820154815260200160088201548152602001600982015481525050915050919050565b6000600560008473ffffffffffffffffffffffffffffffffffffffff1673ffffffffffffffffffffffffffffffffffffffff16815260200190815260200160002060008373ffffffffffffffffffffffffffffffffffffffff1673ffffffffffffffffffffffffffffffffffffffff16815260200190815260200160002060009054906101000a900460ff16905092915050565b612f316130f7565b73ffffffffffffffffffffffffffffffffffffffff16612f4f61245a565b73ffffffffffffffffffffffffffffffffffffffff1614612fa5576040517f08c379a0000000000000000000000000000000000000000000000000000000008152600401612f9c9061520b565b60405180910390fd5b600073ffffffffffffffffffffffffffffffffffffffff168173ffffffffffffffffffffffffffffffffffffffff161415613015576040517f08c379a000000000000000000000000000000000000000000000000000000000815260040161300c9061500b565b60405180910390fd5b61301e81613571565b50565b60007f01ffc9a7000000000000000000000000000000000000000000000000000000007bffffffffffffffffffffffffffffffffffffffffffffffffffffffff1916827bffffffffffffffffffffffffffffffffffffffffffffffffffffffff1916149050919050565b60008073ffffffffffffffffffffffffffffffffffffffff166002600084815260200190815260200160002060009054906101000a900473ffffffffffffffffffffffffffffffffffffffff1673ffffffffffffffffffffffffffffffffffffffff1614159050919050565b600033905090565b816004600083815260200190815260200160002060006101000a81548173ffffffffffffffffffffffffffffffffffffffff021916908373ffffffffffffffffffffffffffffffffffffffff160217905550808273ffffffffffffffffffffffffffffffffffffffff16613172836115b8565b73ffffffffffffffffffffffffffffffffffffffff167f8c5be1e5ebec7d5bd14f71427d1e84f3dd0314c0f7b2291e5b200ac8c7c3b92560405160405180910390a45050565b60006131c38261308b565b613202576040517f08c379a00000000000000000000000000000000000000000000000000000000081526004016131f9906150eb565b60405180910390fd5b600061320d836115b8565b90508073ffffffffffffffffffffffffffffffffffffffff168473ffffffffffffffffffffffffffffffffffffffff16148061327c57508373ffffffffffffffffffffffffffffffffffffffff166132648461093d565b73ffffffffffffffffffffffffffffffffffffffff16145b8061328d575061328c8185612e95565b5b91505092915050565b8273ffffffffffffffffffffffffffffffffffffffff166132b6826115b8565b73ffffffffffffffffffffffffffffffffffffffff161461330c576040517f08c379a00000000000000000000000000000000000000000000000000000000081526004016133039061504b565b60405180910390fd5b600073ffffffffffffffffffffffffffffffffffffffff168273ffffffffffffffffffffffffffffffffffffffff16141561337c576040517f08c379a00000000000000000000000000000000000000000000000000000000081526004016133739061508b565b60405180910390fd5b613387838383613ad3565b6133926000826130ff565b6001600360008573ffffffffffffffffffffffffffffffffffffffff1673ffffffffffffffffffffffffffffffffffffffff16815260200190815260200160002060008282546133e29190615586565b925050819055506001600360008473ffffffffffffffffffffffffffffffffffffffff1673ffffffffffffffffffffffffffffffffffffffff168152602001908152602001600020600082825461343991906154ff565b92505081905550816002600083815260200190815260200160002060006101000a81548173ffffffffffffffffffffffffffffffffffffffff021916908373ffffffffffffffffffffffffffffffffffffffff160217905550808273ffffffffffffffffffffffffffffffffffffffff168473ffffffffffffffffffffffffffffffffffffffff167fddf252ad1be2c89b69c2b068fc378daa952ba7f163c4a11628f55a4df523b3ef60405160405180910390a46134f8838383613ad8565b505050565b6135068261308b565b613545576040517f08c379a000000000000000000000000000000000000000000000000000000000815260040161353c9061516b565b60405180910390fd5b8060066000848152602001908152602001600020908051906020019061356c9291906140e4565b505050565b6000600760009054906101000a900473ffffffffffffffffffffffffffffffffffffffff16905081600760006101000a81548173ffffffffffffffffffffffffffffffffffffffff021916908373ffffffffffffffffffffffffffffffffffffffff1602179055508173ffffffffffffffffffffffffffffffffffffffff168173ffffffffffffffffffffffffffffffffffffffff167f8be0079c531659141344cd1fd0a4f28419497f9722a3daafe3b4186f6b6457e060405160405180910390a35050565b613651828260405180602001604052806000815250613add565b5050565b60008711806136645750600086115b8061366f5750600081115b6136ae576040517f08c379a00000000000000000000000000000000000000000000000000000000081526004016136a5906152eb565b60405180910390fd5b6040518061014001604052808a81526020018981526020013373ffffffffffffffffffffffffffffffffffffffff168152602001888152602001878152602001861515815260200185815260200184815260200183815260200182815250600960008b81526020019081526020016000206000820151816000015560208201518160010190805190602001906137459291906140e4565b5060408201518160020160006101000a81548173ffffffffffffffffffffffffffffffffffffffff021916908373ffffffffffffffffffffffffffffffffffffffff160217905550606082015181600301556080820151816004015560a08201518160050160006101000a81548160ff02191690831515021790555060c0820151816006015560e08201518160070155610100820151816008015561012082015181600901559050506137f933308b613296565b887f79f1d2d993eaa677379d15b5c6702a69591d2f2dd1709dd51e531af20d583f5c89308a8a8a8a8a8a8a60405161383999989796959493929190614f57565b60405180910390a2505050505050505050565b8173ffffffffffffffffffffffffffffffffffffffff168373ffffffffffffffffffffffffffffffffffffffff1614156138bb576040517f08c379a00000000000000000000000000000000000000000000000000000000081526004016138b2906150ab565b60405180910390fd5b80600560008573ffffffffffffffffffffffffffffffffffffffff1673ffffffffffffffffffffffffffffffffffffffff16815260200190815260200160002060008473ffffffffffffffffffffffffffffffffffffffff1673ffffffffffffffffffffffffffffffffffffffff16815260200190815260200160002060006101000a81548160ff0219169083151502179055508173ffffffffffffffffffffffffffffffffffffffff168373ffffffffffffffffffffffffffffffffffffffff167f17307eab39ab6107e8899845ad3d59bd9653f200f220920489ca2b5937696c31836040516139ac9190614f1a565b60405180910390a3505050565b6139c4848484613296565b6139d084848484613b38565b613a0f576040517f08c379a0000000000000000000000000000000000000000000000000000000008152600401613a0690614feb565b60405180910390fd5b50505050565b606060405180602001604052806000815250905090565b6060613a378261308b565b613a76576040517f08c379a0000000000000000000000000000000000000000000000000000000008152600401613a6d9061522b565b60405180910390fd5b6000613a80613a15565b90506000815111613aa05760405180602001604052806000815250613acb565b80613aaa84613ccf565b604051602001613abb929190614e6d565b6040516020818303038152906040525b915050919050565b505050565b505050565b613ae78383613e7c565b613af46000848484613b38565b613b33576040517f08c379a0000000000000000000000000000000000000000000000000000000008152600401613b2a90614feb565b60405180910390fd5b505050565b6000613b598473ffffffffffffffffffffffffffffffffffffffff16614056565b15613cc2578373ffffffffffffffffffffffffffffffffffffffff1663150b7a02613b826130f7565b8786866040518563ffffffff1660e01b8152600401613ba49493929190614eac565b602060405180830381600087803b158015613bbe57600080fd5b505af1925050508015613bef57506040513d601f19601f82011682018060405250810190613bec9190614490565b60015b613c72573d8060008114613c1f576040519150601f19603f3d011682016040523d82523d6000602084013e613c24565b606091505b50600081511415613c6a576040517f08c379a0000000000000000000000000000000000000000000000000000000008152600401613c6190614feb565b60405180910390fd5b805181602001fd5b63150b7a0260e01b7bffffffffffffffffffffffffffffffffffffffffffffffffffffffff1916817bffffffffffffffffffffffffffffffffffffffffffffffffffffffff191614915050613cc7565b600190505b949350505050565b60606000821415613d17576040518060400160405280600181526020017f30000000000000000000000000000000000000000000000000000000000000008152509050613e77565b600082905060005b60008214613d49578080613d32906156e5565b915050600a82613d429190615555565b9150613d1f565b60008167ffffffffffffffff811115613d8b577f4e487b7100000000000000000000000000000000000000000000000000000000600052604160045260246000fd5b6040519080825280601f01601f191660200182016040528015613dbd5781602001600182028036833780820191505090505b5090505b60008514613e7057600182613dd69190615586565b9150600a85613de5919061572e565b6030613df191906154ff565b60f81b818381518110613e2d577f4e487b7100000000000000000000000000000000000000000000000000000000600052603260045260246000fd5b60200101907effffffffffffffffffffffffffffffffffffffffffffffffffffffffffffff1916908160001a905350600a85613e699190615555565b9450613dc1565b8093505050505b919050565b600073ffffffffffffffffffffffffffffffffffffffff168273ffffffffffffffffffffffffffffffffffffffff161415613eec576040517f08c379a0000000000000000000000000000000000000000000000000000000008152600401613ee3906151ab565b60405180910390fd5b613ef58161308b565b15613f35576040517f08c379a0000000000000000000000000000000000000000000000000000000008152600401613f2c9061506b565b60405180910390fd5b613f4160008383613ad3565b6001600360008473ffffffffffffffffffffffffffffffffffffffff1673ffffffffffffffffffffffffffffffffffffffff1681526020019081526020016000206000828254613f9191906154ff565b92505081905550816002600083815260200190815260200160002060006101000a81548173ffffffffffffffffffffffffffffffffffffffff021916908373ffffffffffffffffffffffffffffffffffffffff160217905550808273ffffffffffffffffffffffffffffffffffffffff16600073ffffffffffffffffffffffffffffffffffffffff167fddf252ad1be2c89b69c2b068fc378daa952ba7f163c4a11628f55a4df523b3ef60405160405180910390a461405260008383613ad8565b5050565b6000808273ffffffffffffffffffffffffffffffffffffffff163b119050919050565b6040518061014001604052806000815260200160608152602001600073ffffffffffffffffffffffffffffffffffffffff1681526020016000815260200160008152602001600015158152602001600081526020016000815260200160008152602001600081525090565b8280546140f090615682565b90600052602060002090601f0160209004810192826141125760008555614159565b82601f1061412b57805160ff1916838001178555614159565b82800160010185558215614159579182015b8281111561415857825182559160200191906001019061413d565b5b509050614166919061416a565b5090565b5b8082111561418357600081600090555060010161416b565b5090565b600061419a61419584615410565b6153eb565b9050828152602081018484840111156141b257600080fd5b6141bd848285615640565b509392505050565b60006141d86141d384615441565b6153eb565b9050828152602081018484840111156141f057600080fd5b6141fb848285615640565b509392505050565b60008135905061421281615ed9565b92915050565b60008135905061422781615ef0565b92915050565b60008135905061423c81615f07565b92915050565b60008151905061425181615f07565b92915050565b600082601f83011261426857600080fd5b8135614278848260208601614187565b91505092915050565b600082601f83011261429257600080fd5b81356142a28482602086016141c5565b91505092915050565b6000813590506142ba81615f1e565b92915050565b6000602082840312156142d257600080fd5b60006142e084828501614203565b91505092915050565b600080604083850312156142fc57600080fd5b600061430a85828601614203565b925050602061431b85828601614203565b9150509250929050565b60008060006060848603121561433a57600080fd5b600061434886828701614203565b935050602061435986828701614203565b925050604061436a868287016142ab565b9150509250925092565b6000806000806080858703121561438a57600080fd5b600061439887828801614203565b94505060206143a987828801614203565b93505060406143ba878288016142ab565b925050606085013567ffffffffffffffff8111156143d757600080fd5b6143e387828801614257565b91505092959194509250565b6000806040838503121561440257600080fd5b600061441085828601614203565b925050602061442185828601614218565b9150509250929050565b6000806040838503121561443e57600080fd5b600061444c85828601614203565b925050602061445d858286016142ab565b9150509250929050565b60006020828403121561447957600080fd5b60006144878482850161422d565b91505092915050565b6000602082840312156144a257600080fd5b60006144b084828501614242565b91505092915050565b6000602082840312156144cb57600080fd5b600082013567ffffffffffffffff8111156144e557600080fd5b6144f184828501614281565b91505092915050565b6000806040838503121561450d57600080fd5b600083013567ffffffffffffffff81111561452757600080fd5b61453385828601614281565b925050602061454485828601614218565b9150509250929050565b6000806040838503121561456157600080fd5b600083013567ffffffffffffffff81111561457b57600080fd5b61458785828601614281565b925050602083013567ffffffffffffffff8111156145a457600080fd5b6145b085828601614281565b9150509250929050565b60008060008060008060008060006101208a8c0312156145d957600080fd5b60008a013567ffffffffffffffff8111156145f357600080fd5b6145ff8c828d01614281565b99505060208a013567ffffffffffffffff81111561461c57600080fd5b6146288c828d01614281565b98505060406146398c828d016142ab565b975050606061464a8c828d016142ab565b965050608061465b8c828d01614218565b95505060a061466c8c828d016142ab565b94505060c061467d8c828d016142ab565b93505060e061468e8c828d016142ab565b9250506101006146a08c828d016142ab565b9150509295985092959850929598565b600080604083850312156146c357600080fd5b600083013567ffffffffffffffff8111156146dd57600080fd5b6146e985828601614281565b92505060206146fa858286016142ab565b9150509250929050565b60006020828403121561471657600080fd5b6000614724848285016142ab565b91505092915050565b6000806040838503121561474057600080fd5b600061474e858286016142ab565b925050602061475f858286016142ab565b9150509250929050565b60006147758383614c84565b905092915050565b614786816155cc565b82525050565b614795816155cc565b82525050565b6147a4816155ba565b82525050565b60006147b582615482565b6147bf81856154b0565b9350836020820285016147d185615472565b8060005b8581101561480d57848403895281516147ee8582614769565b94506147f9836154a3565b925060208a019950506001810190506147d5565b50829750879550505050505092915050565b614828816155de565b82525050565b614837816155de565b82525050565b60006148488261548d565b61485281856154c1565b935061486281856020860161564f565b61486b8161581b565b840191505092915050565b600061488182615498565b61488b81856154d2565b935061489b81856020860161564f565b6148a48161581b565b840191505092915050565b60006148ba82615498565b6148c481856154e3565b93506148d481856020860161564f565b6148dd8161581b565b840191505092915050565b60006148f382615498565b6148fd81856154f4565b935061490d81856020860161564f565b80840191505092915050565b60006149266032836154e3565b91506149318261582c565b604082019050919050565b60006149496026836154e3565b91506149548261587b565b604082019050919050565b600061496c602e836154e3565b9150614977826158ca565b604082019050919050565b600061498f6025836154e3565b915061499a82615919565b604082019050919050565b60006149b2601c836154e3565b91506149bd82615968565b602082019050919050565b60006149d56024836154e3565b91506149e082615991565b604082019050919050565b60006149f86019836154e3565b9150614a03826159e0565b602082019050919050565b6000614a1b6017836154e3565b9150614a2682615a09565b602082019050919050565b6000614a3e602c836154e3565b9150614a4982615a32565b604082019050919050565b6000614a616038836154e3565b9150614a6c82615a81565b604082019050919050565b6000614a84602a836154e3565b9150614a8f82615ad0565b604082019050919050565b6000614aa76029836154e3565b9150614ab282615b1f565b604082019050919050565b6000614aca602e836154e3565b9150614ad582615b6e565b604082019050919050565b6000614aed6040836154e3565b9150614af882615bbd565b604082019050919050565b6000614b106020836154e3565b9150614b1b82615c0c565b602082019050919050565b6000614b336031836154e3565b9150614b3e82615c35565b604082019050919050565b6000614b56602c836154e3565b9150614b6182615c84565b604082019050919050565b6000614b796020836154e3565b9150614b8482615cd3565b602082019050919050565b6000614b9c602f836154e3565b9150614ba782615cfc565b604082019050919050565b6000614bbf6028836154e3565b9150614bca82615d4b565b604082019050919050565b6000614be26021836154e3565b9150614bed82615d9a565b604082019050919050565b6000614c056035836154e3565b9150614c1082615de9565b604082019050919050565b6000614c286031836154e3565b9150614c3382615e38565b604082019050919050565b6000614c4b6018836154e3565b9150614c5682615e87565b602082019050919050565b6000614c6e601f836154e3565b9150614c7982615eb0565b602082019050919050565b600061014083016000830151614c9d6000860182614e38565b5060208301518482036020860152614cb58282614876565b9150506040830151614cca604086018261477d565b506060830151614cdd6060860182614e38565b506080830151614cf06080860182614e38565b5060a0830151614d0360a086018261481f565b5060c0830151614d1660c0860182614e38565b5060e0830151614d2960e0860182614e38565b50610100830151614d3e610100860182614e38565b50610120830151614d53610120860182614e38565b508091505092915050565b600061014083016000830151614d776000860182614e38565b5060208301518482036020860152614d8f8282614876565b9150506040830151614da4604086018261477d565b506060830151614db76060860182614e38565b506080830151614dca6080860182614e38565b5060a0830151614ddd60a086018261481f565b5060c0830151614df060c0860182614e38565b5060e0830151614e0360e0860182614e38565b50610100830151614e18610100860182614e38565b50610120830151614e2d610120860182614e38565b508091505092915050565b614e4181615636565b82525050565b614e5081615636565b82525050565b6000614e6282846148e8565b915081905092915050565b6000614e7982856148e8565b9150614e8582846148e8565b91508190509392505050565b6000602082019050614ea6600083018461479b565b92915050565b6000608082019050614ec1600083018761479b565b614ece602083018661479b565b614edb6040830185614e47565b8181036060830152614eed818461483d565b905095945050505050565b60006020820190508181036000830152614f1281846147aa565b905092915050565b6000602082019050614f2f600083018461482e565b92915050565b60006020820190508181036000830152614f4f81846148af565b905092915050565b6000610120820190508181036000830152614f72818c6148af565b9050614f81602083018b61479b565b614f8e604083018a614e47565b614f9b6060830189614e47565b614fa8608083018861482e565b614fb560a0830187614e47565b614fc260c0830186614e47565b614fcf60e0830185614e47565b614fdd610100830184614e47565b9a9950505050505050505050565b6000602082019050818103600083015261500481614919565b9050919050565b600060208201905081810360008301526150248161493c565b9050919050565b600060208201905081810360008301526150448161495f565b9050919050565b6000602082019050818103600083015261506481614982565b9050919050565b60006020820190508181036000830152615084816149a5565b9050919050565b600060208201905081810360008301526150a4816149c8565b9050919050565b600060208201905081810360008301526150c4816149eb565b9050919050565b600060208201905081810360008301526150e481614a0e565b9050919050565b6000602082019050818103600083015261510481614a31565b9050919050565b6000602082019050818103600083015261512481614a54565b9050919050565b6000602082019050818103600083015261514481614a77565b9050919050565b6000602082019050818103600083015261516481614a9a565b9050919050565b6000602082019050818103600083015261518481614abd565b9050919050565b600060208201905081810360008301526151a481614ae0565b9050919050565b600060208201905081810360008301526151c481614b03565b9050919050565b600060208201905081810360008301526151e481614b26565b9050919050565b6000602082019050818103600083015261520481614b49565b9050919050565b6000602082019050818103600083015261522481614b6c565b9050919050565b6000602082019050818103600083015261524481614b8f565b9050919050565b6000602082019050818103600083015261526481614bb2565b9050919050565b6000602082019050818103600083015261528481614bd5565b9050919050565b600060208201905081810360008301526152a481614bf8565b9050919050565b600060208201905081810360008301526152c481614c1b565b9050919050565b600060208201905081810360008301526152e481614c3e565b9050919050565b6000602082019050818103600083015261530481614c61565b9050919050565b600060208201905081810360008301526153258184614d5e565b905092915050565b60006020820190506153426000830184614e47565b92915050565b60006101408201905061535e600083018d614e47565b8181036020830152615370818c6148af565b905061537f604083018b61478c565b61538c606083018a614e47565b6153996080830189614e47565b6153a660a083018861482e565b6153b360c0830187614e47565b6153c060e0830186614e47565b6153ce610100830185614e47565b6153dc610120830184614e47565b9b9a5050505050505050505050565b60006153f5615406565b905061540182826156b4565b919050565b6000604051905090565b600067ffffffffffffffff82111561542b5761542a6157ec565b5b6154348261581b565b9050602081019050919050565b600067ffffffffffffffff82111561545c5761545b6157ec565b5b6154658261581b565b9050602081019050919050565b6000819050602082019050919050565b600081519050919050565b600081519050919050565b600081519050919050565b6000602082019050919050565b600082825260208201905092915050565b600082825260208201905092915050565b600082825260208201905092915050565b600082825260208201905092915050565b600081905092915050565b600061550a82615636565b915061551583615636565b9250827fffffffffffffffffffffffffffffffffffffffffffffffffffffffffffffffff0382111561554a5761554961575f565b5b828201905092915050565b600061556082615636565b915061556b83615636565b92508261557b5761557a61578e565b5b828204905092915050565b600061559182615636565b915061559c83615636565b9250828210156155af576155ae61575f565b5b828203905092915050565b60006155c582615616565b9050919050565b60006155d782615616565b9050919050565b60008115159050919050565b60007fffffffff0000000000000000000000000000000000000000000000000000000082169050919050565b600073ffffffffffffffffffffffffffffffffffffffff82169050919050565b6000819050919050565b82818337600083830152505050565b60005b8381101561566d578082015181840152602081019050615652565b8381111561567c576000848401525b50505050565b6000600282049050600182168061569a57607f821691505b602082108114156156ae576156ad6157bd565b5b50919050565b6156bd8261581b565b810181811067ffffffffffffffff821117156156dc576156db6157ec565b5b80604052505050565b60006156f082615636565b91507fffffffffffffffffffffffffffffffffffffffffffffffffffffffffffffffff8214156157235761572261575f565b5b600182019050919050565b600061573982615636565b915061574483615636565b9250826157545761575361578e565b5b828206905092915050565b7f4e487b7100000000000000000000000000000000000000000000000000000000600052601160045260246000fd5b7f4e487b7100000000000000000000000000000000000000000000000000000000600052601260045260246000fd5b7f4e487b7100000000000000000000000000000000000000000000000000000000600052602260045260246000fd5b7f4e487b7100000000000000000000000000000000000000000000000000000000600052604160045260246000fd5b6000601f19601f8301169050919050565b7f4552433732313a207472616e7366657220746f206e6f6e20455243373231526560008201527f63656976657220696d706c656d656e7465720000000000000000000000000000602082015250565b7f4f776e61626c653a206e6577206f776e657220697320746865207a65726f206160008201527f6464726573730000000000000000000000000000000000000000000000000000602082015250565b7f4c6f77657220626f756e6420657863656564732074686520746f74616c206e7560008201527f6d626572206f6620746f6b656e73000000000000000000000000000000000000602082015250565b7f4552433732313a207472616e736665722066726f6d20696e636f72726563742060008201527f6f776e6572000000000000000000000000000000000000000000000000000000602082015250565b7f4552433732313a20746f6b656e20616c7265616479206d696e74656400000000600082015250565b7f4552433732313a207472616e7366657220746f20746865207a65726f2061646460008201527f7265737300000000000000000000000000000000000000000000000000000000602082015250565b7f4552433732313a20617070726f766520746f2063616c6c657200000000000000600082015250565b7f546f6b656e20494420646f6573206e6f74206578697374000000000000000000600082015250565b7f4552433732313a206f70657261746f7220717565727920666f72206e6f6e657860008201527f697374656e7420746f6b656e0000000000000000000000000000000000000000602082015250565b7f4552433732313a20617070726f76652063616c6c6572206973206e6f74206f7760008201527f6e6572206e6f7220617070726f76656420666f7220616c6c0000000000000000602082015250565b7f4552433732313a2062616c616e636520717565727920666f7220746865207a6560008201527f726f206164647265737300000000000000000000000000000000000000000000602082015250565b7f4552433732313a206f776e657220717565727920666f72206e6f6e657869737460008201527f656e7420746f6b656e0000000000000000000000000000000000000000000000602082015250565b7f45524337323155524953746f726167653a2055524920736574206f66206e6f6e60008201527f6578697374656e7420746f6b656e000000000000000000000000000000000000602082015250565b7f506c65617365207375626d6974207468652061736b696e67207072696365206960008201527f6e206f7264657220746f20636f6d706c65746520746865207075726368617365602082015250565b7f4552433732313a206d696e7420746f20746865207a65726f2061646472657373600082015250565b7f45524337323155524953746f726167653a2055524920717565727920666f722060008201527f6e6f6e6578697374656e7420746f6b656e000000000000000000000000000000602082015250565b7f4552433732313a20617070726f76656420717565727920666f72206e6f6e657860008201527f697374656e7420746f6b656e0000000000000000000000000000000000000000602082015250565b7f4f776e61626c653a2063616c6c6572206973206e6f7420746865206f776e6572600082015250565b7f4552433732314d657461646174613a2055524920717565727920666f72206e6f60008201527f6e6578697374656e7420746f6b656e0000000000000000000000000000000000602082015250565b7f43616c6c657220216f776e6572206f6620746f6b656e206f7220636f6e74726160008201527f6374206f776e6572000000000000000000000000000000000000000000000000602082015250565b7f4552433732313a20617070726f76616c20746f2063757272656e74206f776e6560008201527f7200000000000000000000000000000000000000000000000000000000000000602082015250565b7f4c6f77657220626f756e64206d757374206265206c657373207468616e206f7260008201527f20657175616c20746f20757070657220626f756e640000000000000000000000602082015250565b7f4552433732313a207472616e736665722063616c6c6572206973206e6f74206f60008201527f776e6572206e6f7220617070726f766564000000000000000000000000000000602082015250565b7f426f6174205555494420646f6573206e6f742065786973740000000000000000600082015250565b7f7072696365206d7573742062652067726561746572207468616e207a65726f00600082015250565b615ee2816155ba565b8114615eed57600080fd5b50565b615ef9816155de565b8114615f0457600080fd5b50565b615f10816155ea565b8114615f1b57600080fd5b50565b615f2781615636565b8114615f3257600080fd5b5056fea2646970667358221220d4b759ec7848871985218086d91add5f16fb295bdab66d167a2929f4469eab1164736f6c63430008040033",
  "linkReferences": {},
  "deployedLinkReferences": {}
}