{
  "_format": "hh-sol-artifact-1",
  "contractName": "AhoyRental",
  "sourceName": "src/backend/contracts/AhoyRental.sol",
  "abi": [
    {
      "inputs": [
        {
          "internalType": "address",
          "name": "_escrowContractAddress",
          "type": "address"
        }
      ],
      "stateMutability": "nonpayable",
      "type": "constructor"
    },
    {
      "anonymous": false,
      "inputs": [
        {
          "indexed": true,
          "internalType": "address",
          "name": "owner",
          "type": "address"
        },
        {
          "indexed": true,
          "internalType": "address",
          "name": "approved",
          "type": "address"
        },
        {
          "indexed": true,
          "internalType": "uint256",
          "name": "tokenId",
          "type": "uint256"
        }
      ],
      "name": "Approval",
      "type": "event"
    },
    {
      "anonymous": false,
      "inputs": [
        {
          "indexed": true,
          "internalType": "address",
          "name": "owner",
          "type": "address"
        },
        {
          "indexed": true,
          "internalType": "address",
          "name": "operator",
          "type": "address"
        },
        {
          "indexed": false,
          "internalType": "bool",
          "name": "approved",
          "type": "bool"
        }
      ],
      "name": "ApprovalForAll",
      "type": "event"
    },
    {
      "anonymous": false,
      "inputs": [
        {
          "indexed": true,
          "internalType": "uint256",
          "name": "rentalId",
          "type": "uint256"
        },
        {
          "indexed": false,
          "internalType": "address",
          "name": "boatOwner",
          "type": "address"
        },
        {
          "indexed": false,
          "internalType": "address",
          "name": "renter",
          "type": "address"
        }
      ],
      "name": "FundsReleased",
      "type": "event"
    },
    {
      "anonymous": false,
      "inputs": [
        {
          "indexed": true,
          "internalType": "uint256",
          "name": "rentalId",
          "type": "uint256"
        },
        {
          "indexed": false,
          "internalType": "address",
          "name": "renter",
          "type": "address"
        }
      ],
      "name": "RefundRequested",
      "type": "event"
    },
    {
      "anonymous": false,
      "inputs": [
        {
          "indexed": true,
          "internalType": "uint256",
          "name": "rentalId",
          "type": "uint256"
        },
        {
          "indexed": false,
          "internalType": "address",
          "name": "renter",
          "type": "address"
        }
      ],
      "name": "RentalCheckedIn",
      "type": "event"
    },
    {
      "anonymous": false,
      "inputs": [
        {
          "indexed": true,
          "internalType": "uint256",
          "name": "rentalId",
          "type": "uint256"
        },
        {
          "indexed": false,
          "internalType": "address",
          "name": "boatOwner",
          "type": "address"
        }
      ],
      "name": "RentalCheckedOut",
      "type": "event"
    },
    {
      "anonymous": false,
      "inputs": [
        {
          "indexed": true,
          "internalType": "uint256",
          "name": "rentalId",
          "type": "uint256"
        },
        {
          "indexed": false,
          "internalType": "address",
          "name": "boatOwner",
          "type": "address"
        }
      ],
      "name": "RentalInspection",
      "type": "event"
    },
    {
      "anonymous": false,
      "inputs": [
        {
          "indexed": true,
          "internalType": "uint256",
          "name": "rentalId",
          "type": "uint256"
        },
        {
          "indexed": false,
          "internalType": "uint256",
          "name": "boatId",
          "type": "uint256"
        },
        {
          "indexed": false,
          "internalType": "address",
          "name": "boatOwner",
          "type": "address"
        },
        {
          "indexed": false,
          "internalType": "address",
          "name": "renter",
          "type": "address"
        },
        {
          "indexed": false,
          "internalType": "bool",
          "name": "checkedIn",
          "type": "bool"
        },
        {
          "indexed": false,
          "internalType": "bool",
          "name": "checkedOut",
          "type": "bool"
        },
        {
          "indexed": false,
          "internalType": "uint256",
          "name": "lateCheckOutHours",
          "type": "uint256"
        },
        {
          "indexed": false,
          "internalType": "bool",
          "name": "inspection",
          "type": "bool"
        },
        {
          "indexed": false,
          "internalType": "bool",
          "name": "refundRequested",
          "type": "bool"
        }
      ],
      "name": "RentalListedSuccess",
      "type": "event"
    },
    {
      "anonymous": false,
      "inputs": [
        {
          "indexed": true,
          "internalType": "address",
          "name": "from",
          "type": "address"
        },
        {
          "indexed": true,
          "internalType": "address",
          "name": "to",
          "type": "address"
        },
        {
          "indexed": true,
          "internalType": "uint256",
          "name": "tokenId",
          "type": "uint256"
        }
      ],
      "name": "Transfer",
      "type": "event"
    },
    {
      "inputs": [
        {
          "internalType": "address",
          "name": "to",
          "type": "address"
        },
        {
          "internalType": "uint256",
          "name": "tokenId",
          "type": "uint256"
        }
      ],
      "name": "approve",
      "outputs": [],
      "stateMutability": "nonpayable",
      "type": "function"
    },
    {
      "inputs": [
        {
          "internalType": "address",
          "name": "owner",
          "type": "address"
        }
      ],
      "name": "balanceOf",
      "outputs": [
        {
          "internalType": "uint256",
          "name": "",
          "type": "uint256"
        }
      ],
      "stateMutability": "view",
      "type": "function"
    },
    {
      "inputs": [
        {
          "internalType": "uint256",
          "name": "rentalId",
          "type": "uint256"
        }
      ],
      "name": "burn",
      "outputs": [],
      "stateMutability": "nonpayable",
      "type": "function"
    },
    {
      "inputs": [
        {
          "internalType": "uint256",
          "name": "rentalId",
          "type": "uint256"
        },
        {
          "internalType": "uint256",
          "name": "currentTime",
          "type": "uint256"
        },
        {
          "internalType": "uint256",
          "name": "checkInTime",
          "type": "uint256"
        }
      ],
      "name": "checkIn",
      "outputs": [
        {
          "internalType": "bool",
          "name": "",
          "type": "bool"
        }
      ],
      "stateMutability": "nonpayable",
      "type": "function"
    },
    {
      "inputs": [
        {
          "internalType": "uint256",
          "name": "rentalId",
          "type": "uint256"
        },
        {
          "internalType": "bool",
          "name": "_inspectionPassed",
          "type": "bool"
        }
      ],
      "name": "checkInspection",
      "outputs": [
        {
          "internalType": "bool",
          "name": "",
          "type": "bool"
        }
      ],
      "stateMutability": "nonpayable",
      "type": "function"
    },
    {
      "inputs": [
        {
          "internalType": "uint256",
          "name": "rentalId",
          "type": "uint256"
        },
        {
          "internalType": "uint256",
          "name": "lateTime",
          "type": "uint256"
        }
      ],
      "name": "checkOut",
      "outputs": [
        {
          "internalType": "bool",
          "name": "",
          "type": "bool"
        }
      ],
      "stateMutability": "nonpayable",
      "type": "function"
    },
    {
      "inputs": [],
      "name": "escrowContract",
      "outputs": [
        {
          "internalType": "contract IEscrow",
          "name": "",
          "type": "address"
        }
      ],
      "stateMutability": "view",
      "type": "function"
    },
    {
      "inputs": [
        {
          "internalType": "uint256",
          "name": "tokenId",
          "type": "uint256"
        }
      ],
      "name": "getApproved",
      "outputs": [
        {
          "internalType": "address",
          "name": "",
          "type": "address"
        }
      ],
      "stateMutability": "view",
      "type": "function"
    },
    {
      "inputs": [
        {
          "internalType": "uint256",
          "name": "rentalId",
          "type": "uint256"
        }
      ],
      "name": "getCheckInStatus",
      "outputs": [
        {
          "internalType": "bool",
          "name": "",
          "type": "bool"
        }
      ],
      "stateMutability": "view",
      "type": "function"
    },
    {
      "inputs": [
        {
          "internalType": "uint256",
          "name": "rentalId",
          "type": "uint256"
        }
      ],
      "name": "getCheckOutStatus",
      "outputs": [
        {
          "internalType": "bool",
          "name": "",
          "type": "bool"
        }
      ],
      "stateMutability": "view",
      "type": "function"
    },
    {
      "inputs": [
        {
          "internalType": "uint256",
          "name": "rentalId",
          "type": "uint256"
        }
      ],
      "name": "getInspectionStatus",
      "outputs": [
        {
          "internalType": "bool",
          "name": "",
          "type": "bool"
        }
      ],
      "stateMutability": "view",
      "type": "function"
    },
    {
      "inputs": [],
      "name": "getMyRentals",
      "outputs": [
        {
          "components": [
            {
              "internalType": "uint256",
              "name": "rentalId",
              "type": "uint256"
            },
            {
              "internalType": "uint256",
              "name": "boatId",
              "type": "uint256"
            },
            {
              "internalType": "address",
              "name": "boatOwner",
              "type": "address"
            },
            {
              "internalType": "address",
              "name": "renter",
              "type": "address"
            },
            {
              "internalType": "bool",
              "name": "checkedIn",
              "type": "bool"
            },
            {
              "internalType": "bool",
              "name": "checkedOut",
              "type": "bool"
            },
            {
              "internalType": "uint256",
              "name": "lateCheckOutHours",
              "type": "uint256"
            },
            {
              "internalType": "bool",
              "name": "inspectionPassed",
              "type": "bool"
            },
            {
              "internalType": "bool",
              "name": "refundRequested",
              "type": "bool"
            }
          ],
          "internalType": "struct AhoyRental.Rental[]",
          "name": "",
          "type": "tuple[]"
        }
      ],
      "stateMutability": "view",
      "type": "function"
    },
    {
      "inputs": [],
      "name": "getOwner",
      "outputs": [
        {
          "internalType": "address",
          "name": "",
          "type": "address"
        }
      ],
      "stateMutability": "view",
      "type": "function"
    },
    {
      "inputs": [
        {
          "internalType": "address",
          "name": "owner",
          "type": "address"
        },
        {
          "internalType": "address",
          "name": "operator",
          "type": "address"
        }
      ],
      "name": "isApprovedForAll",
      "outputs": [
        {
          "internalType": "bool",
          "name": "",
          "type": "bool"
        }
      ],
      "stateMutability": "view",
      "type": "function"
    },
    {
      "inputs": [
        {
          "internalType": "string",
          "name": "rentalURI",
          "type": "string"
        },
        {
          "internalType": "uint256",
          "name": "boatId",
          "type": "uint256"
        },
        {
          "internalType": "address",
          "name": "boatOwner",
          "type": "address"
        },
        {
          "internalType": "uint256",
          "name": "_deposit",
          "type": "uint256"
        }
      ],
      "name": "mint",
      "outputs": [
        {
          "internalType": "uint256",
          "name": "",
          "type": "uint256"
        }
      ],
      "stateMutability": "payable",
      "type": "function"
    },
    {
      "inputs": [],
      "name": "name",
      "outputs": [
        {
          "internalType": "string",
          "name": "",
          "type": "string"
        }
      ],
      "stateMutability": "view",
      "type": "function"
    },
    {
      "inputs": [
        {
          "internalType": "uint256",
          "name": "tokenId",
          "type": "uint256"
        }
      ],
      "name": "ownerOf",
      "outputs": [
        {
          "internalType": "address",
          "name": "",
          "type": "address"
        }
      ],
      "stateMutability": "view",
      "type": "function"
    },
    {
      "inputs": [
        {
          "internalType": "uint256",
          "name": "rentalId",
          "type": "uint256"
        }
      ],
      "name": "releaseFunds",
      "outputs": [],
      "stateMutability": "nonpayable",
      "type": "function"
    },
    {
      "inputs": [
        {
          "internalType": "uint256",
          "name": "",
          "type": "uint256"
        }
      ],
      "name": "rentals",
      "outputs": [
        {
          "internalType": "uint256",
          "name": "rentalId",
          "type": "uint256"
        },
        {
          "internalType": "uint256",
          "name": "boatId",
          "type": "uint256"
        },
        {
          "internalType": "address",
          "name": "boatOwner",
          "type": "address"
        },
        {
          "internalType": "address",
          "name": "renter",
          "type": "address"
        },
        {
          "internalType": "bool",
          "name": "checkedIn",
          "type": "bool"
        },
        {
          "internalType": "bool",
          "name": "checkedOut",
          "type": "bool"
        },
        {
          "internalType": "uint256",
          "name": "lateCheckOutHours",
          "type": "uint256"
        },
        {
          "internalType": "bool",
          "name": "inspectionPassed",
          "type": "bool"
        },
        {
          "internalType": "bool",
          "name": "refundRequested",
          "type": "bool"
        }
      ],
      "stateMutability": "view",
      "type": "function"
    },
    {
      "inputs": [
        {
          "internalType": "uint256",
          "name": "rentalId",
          "type": "uint256"
        },
        {
          "internalType": "bool",
          "name": "beforeClosedPeriod",
          "type": "bool"
        }
      ],
      "name": "requestRefund",
      "outputs": [
        {
          "internalType": "bool",
          "name": "",
          "type": "bool"
        }
      ],
      "stateMutability": "nonpayable",
      "type": "function"
    },
    {
      "inputs": [
        {
          "internalType": "address",
          "name": "from",
          "type": "address"
        },
        {
          "internalType": "address",
          "name": "to",
          "type": "address"
        },
        {
          "internalType": "uint256",
          "name": "tokenId",
          "type": "uint256"
        }
      ],
      "name": "safeTransferFrom",
      "outputs": [],
      "stateMutability": "nonpayable",
      "type": "function"
    },
    {
      "inputs": [
        {
          "internalType": "address",
          "name": "from",
          "type": "address"
        },
        {
          "internalType": "address",
          "name": "to",
          "type": "address"
        },
        {
          "internalType": "uint256",
          "name": "tokenId",
          "type": "uint256"
        },
        {
          "internalType": "bytes",
          "name": "_data",
          "type": "bytes"
        }
      ],
      "name": "safeTransferFrom",
      "outputs": [],
      "stateMutability": "nonpayable",
      "type": "function"
    },
    {
      "inputs": [
        {
          "internalType": "address",
          "name": "operator",
          "type": "address"
        },
        {
          "internalType": "bool",
          "name": "approved",
          "type": "bool"
        }
      ],
      "name": "setApprovalForAll",
      "outputs": [],
      "stateMutability": "nonpayable",
      "type": "function"
    },
    {
      "inputs": [
        {
          "internalType": "bytes4",
          "name": "interfaceId",
          "type": "bytes4"
        }
      ],
      "name": "supportsInterface",
      "outputs": [
        {
          "internalType": "bool",
          "name": "",
          "type": "bool"
        }
      ],
      "stateMutability": "view",
      "type": "function"
    },
    {
      "inputs": [],
      "name": "symbol",
      "outputs": [
        {
          "internalType": "string",
          "name": "",
          "type": "string"
        }
      ],
      "stateMutability": "view",
      "type": "function"
    },
    {
      "inputs": [],
      "name": "tokenCount",
      "outputs": [
        {
          "internalType": "uint256",
          "name": "",
          "type": "uint256"
        }
      ],
      "stateMutability": "view",
      "type": "function"
    },
    {
      "inputs": [
        {
          "internalType": "uint256",
          "name": "tokenId",
          "type": "uint256"
        }
      ],
      "name": "tokenURI",
      "outputs": [
        {
          "internalType": "string",
          "name": "",
          "type": "string"
        }
      ],
      "stateMutability": "view",
      "type": "function"
    },
    {
      "inputs": [
        {
          "internalType": "address",
          "name": "from",
          "type": "address"
        },
        {
          "internalType": "address",
          "name": "to",
          "type": "address"
        },
        {
          "internalType": "uint256",
          "name": "tokenId",
          "type": "uint256"
        }
      ],
      "name": "transferFrom",
      "outputs": [],
      "stateMutability": "nonpayable",
      "type": "function"
    }
  ],
  "bytecode": "0x60806040523480156200001157600080fd5b506040516200608538038062006085833981810160405281019062000037919062000227565b6040518060400160405280600a81526020017f52656e74616c204e4654000000000000000000000000000000000000000000008152506040518060400160405280600681526020017f52454e54414c00000000000000000000000000000000000000000000000000008152508160009080519060200190620000bb92919062000160565b508060019080519060200190620000d492919062000160565b50505033600860006101000a81548173ffffffffffffffffffffffffffffffffffffffff021916908373ffffffffffffffffffffffffffffffffffffffff16021790555080600960006101000a81548173ffffffffffffffffffffffffffffffffffffffff021916908373ffffffffffffffffffffffffffffffffffffffff1602179055505062000306565b8280546200016e9062000287565b90600052602060002090601f016020900481019282620001925760008555620001de565b82601f10620001ad57805160ff1916838001178555620001de565b82800160010185558215620001de579182015b82811115620001dd578251825591602001919060010190620001c0565b5b509050620001ed9190620001f1565b5090565b5b808211156200020c576000816000905550600101620001f2565b5090565b6000815190506200022181620002ec565b92915050565b6000602082840312156200023a57600080fd5b60006200024a8482850162000210565b91505092915050565b6000620002608262000267565b9050919050565b600073ffffffffffffffffffffffffffffffffffffffff82169050919050565b60006002820490506001821680620002a057607f821691505b60208210811415620002b757620002b6620002bd565b5b50919050565b7f4e487b7100000000000000000000000000000000000000000000000000000000600052602260045260246000fd5b620002f78162000253565b81146200030357600080fd5b50565b615d6f80620003166000396000f3fe6080604052600436106101b75760003560e01c80636d0bb158116100ec578063af94a1d11161008a578063c87b56dd11610064578063c87b56dd14610689578063e42a96e7146106c6578063e985e9c5146106f1578063f4809ed01461072e576101b7565b8063af94a1d1146105de578063b88d4fde14610623578063c2ca073b1461064c576101b7565b8063893d20e8116100c6578063893d20e81461053457806395d89b411461055f5780639f181b5e1461058a578063a22cb465146105b5576101b7565b80636d0bb1581461047d57806370a08231146104ba5780638613c3f8146104f7576101b7565b806326f6613c116101595780634d68282f116101335780634d68282f1461039d578063621ea854146103c65780636240fe34146104035780636352211e14610440576101b7565b806326f6613c1461030e57806342842e0e1461034b57806342966c6814610374576101b7565b8063095ea7b311610195578063095ea7b314610261578063214affdf1461028a578063224f3c8f146102ba57806323b872dd146102e5576101b7565b806301ffc9a7146101bc57806306fdde03146101f9578063081812fc14610224575b600080fd5b3480156101c857600080fd5b506101e360048036038101906101de91906140d5565b61076b565b6040516101f09190614a88565b60405180910390f35b34801561020557600080fd5b5061020e61084d565b60405161021b9190614abe565b60405180910390f35b34801561023057600080fd5b5061024b600480360381019061024691906141a2565b6108df565b60405161025891906149d6565b60405180910390f35b34801561026d57600080fd5b5061028860048036038101906102839190614099565b610964565b005b6102a4600480360381019061029f9190614127565b610a7c565b6040516102b19190614ee0565b60405180910390f35b3480156102c657600080fd5b506102cf610c34565b6040516102dc9190614a66565b60405180910390f35b3480156102f157600080fd5b5061030c60048036038101906103079190613f93565b61106e565b005b34801561031a57600080fd5b50610335600480360381019061033091906141a2565b6110ce565b6040516103429190614a88565b60405180910390f35b34801561035757600080fd5b50610372600480360381019061036d9190613f93565b6112ad565b005b34801561038057600080fd5b5061039b600480360381019061039691906141a2565b6112cd565b005b3480156103a957600080fd5b506103c460048036038101906103bf91906141a2565b611610565b005b3480156103d257600080fd5b506103ed60048036038101906103e891906142ba565b611921565b6040516103fa9190614a88565b60405180910390f35b34801561040f57600080fd5b5061042a600480360381019061042591906141cb565b611b3a565b6040516104379190614a88565b60405180910390f35b34801561044c57600080fd5b50610467600480360381019061046291906141a2565b611caa565b60405161047491906149d6565b60405180910390f35b34801561048957600080fd5b506104a4600480360381019061049f91906141cb565b611d5c565b6040516104b19190614a88565b60405180910390f35b3480156104c657600080fd5b506104e160048036038101906104dc9190613f2e565b6120b2565b6040516104ee9190614ee0565b60405180910390f35b34801561050357600080fd5b5061051e60048036038101906105199190614207565b61216a565b60405161052b9190614a88565b60405180910390f35b34801561054057600080fd5b5061054961235a565b60405161055691906149d6565b60405180910390f35b34801561056b57600080fd5b50610574612384565b6040516105819190614abe565b60405180910390f35b34801561059657600080fd5b5061059f612416565b6040516105ac9190614ee0565b60405180910390f35b3480156105c157600080fd5b506105dc60048036038101906105d7919061405d565b61241c565b005b3480156105ea57600080fd5b50610605600480360381019061060091906141a2565b612432565b60405161061a99989796959493929190614fbe565b60405180910390f35b34801561062f57600080fd5b5061064a60048036038101906106459190613fe2565b6124f4565b005b34801561065857600080fd5b50610673600480360381019061066e91906141a2565b612556565b6040516106809190614a88565b60405180910390f35b34801561069557600080fd5b506106b060048036038101906106ab91906141a2565b612735565b6040516106bd9190614abe565b60405180910390f35b3480156106d257600080fd5b506106db612747565b6040516106e89190614aa3565b60405180910390f35b3480156106fd57600080fd5b5061071860048036038101906107139190613f57565b61276d565b6040516107259190614a88565b60405180910390f35b34801561073a57600080fd5b50610755600480360381019061075091906141a2565b612801565b6040516107629190614a88565b60405180910390f35b60007f80ac58cd000000000000000000000000000000000000000000000000000000007bffffffffffffffffffffffffffffffffffffffffffffffffffffffff1916827bffffffffffffffffffffffffffffffffffffffffffffffffffffffff1916148061083657507f5b5e139f000000000000000000000000000000000000000000000000000000007bffffffffffffffffffffffffffffffffffffffffffffffffffffffff1916827bffffffffffffffffffffffffffffffffffffffffffffffffffffffff1916145b806108465750610845826129e0565b5b9050919050565b60606000805461085c906152f5565b80601f0160208091040260200160405190810160405280929190818152602001828054610888906152f5565b80156108d55780601f106108aa576101008083540402835291602001916108d5565b820191906000526020600020905b8154815290600101906020018083116108b857829003601f168201915b5050505050905090565b60006108ea82612a4a565b610929576040517f08c379a000000000000000000000000000000000000000000000000000000000815260040161092090614d00565b60405180910390fd5b6004600083815260200190815260200160002060009054906101000a900473ffffffffffffffffffffffffffffffffffffffff169050919050565b600061096f82611caa565b90508073ffffffffffffffffffffffffffffffffffffffff168373ffffffffffffffffffffffffffffffffffffffff1614156109e0576040517f08c379a00000000000000000000000000000000000000000000000000000000081526004016109d790614da0565b60405180910390fd5b8073ffffffffffffffffffffffffffffffffffffffff166109ff612ab6565b73ffffffffffffffffffffffffffffffffffffffff161480610a2e5750610a2d81610a28612ab6565b61276d565b5b610a6d576040517f08c379a0000000000000000000000000000000000000000000000000000000008152600401610a6490614c00565b60405180910390fd5b610a778383612abe565b505050565b6000808211610ac0576040517f08c379a0000000000000000000000000000000000000000000000000000000008152600401610ab790614de0565b60405180910390fd5b813411610b02576040517f08c379a0000000000000000000000000000000000000000000000000000000008152600401610af990614ca0565b60405180910390fd5b60008234610b1091906151d5565b905060008111610b55576040517f08c379a0000000000000000000000000000000000000000000000000000000008152600401610b4c90614e80565b60405180910390fd5b60076000815480929190610b6890615358565b919050555060006007549050610b7e3382612b77565b610b888188612b95565b600960009054906101000a900473ffffffffffffffffffffffffffffffffffffffff1673ffffffffffffffffffffffffffffffffffffffff166384715b1134838789336040518663ffffffff1660e01b8152600401610bea9493929190614f79565b6000604051808303818588803b158015610c0357600080fd5b505af1158015610c17573d6000803e3d6000fd5b5050505050610c27818787612c09565b8092505050949350505050565b606060006007549050600080600190505b828111610d44573373ffffffffffffffffffffffffffffffffffffffff16600a600083815260200190815260200160002060020160009054906101000a900473ffffffffffffffffffffffffffffffffffffffff1673ffffffffffffffffffffffffffffffffffffffff161480610d1d57503373ffffffffffffffffffffffffffffffffffffffff16600a600083815260200190815260200160002060030160009054906101000a900473ffffffffffffffffffffffffffffffffffffffff1673ffffffffffffffffffffffffffffffffffffffff16145b15610d31578180610d2d90615358565b9250505b8080610d3c90615358565b915050610c45565b5060008167ffffffffffffffff811115610d87577f4e487b7100000000000000000000000000000000000000000000000000000000600052604160045260246000fd5b604051908082528060200260200182016040528015610dc057816020015b610dad613c53565b815260200190600190039081610da55790505b509050600080600190505b848111611063573373ffffffffffffffffffffffffffffffffffffffff16600a600083815260200190815260200160002060020160009054906101000a900473ffffffffffffffffffffffffffffffffffffffff1673ffffffffffffffffffffffffffffffffffffffff161480610ea357503373ffffffffffffffffffffffffffffffffffffffff16600a600083815260200190815260200160002060030160009054906101000a900473ffffffffffffffffffffffffffffffffffffffff1673ffffffffffffffffffffffffffffffffffffffff16145b1561105057600a60008281526020019081526020016000206040518061012001604052908160008201548152602001600182015481526020016002820160009054906101000a900473ffffffffffffffffffffffffffffffffffffffff1673ffffffffffffffffffffffffffffffffffffffff1673ffffffffffffffffffffffffffffffffffffffff1681526020016003820160009054906101000a900473ffffffffffffffffffffffffffffffffffffffff1673ffffffffffffffffffffffffffffffffffffffff1673ffffffffffffffffffffffffffffffffffffffff1681526020016003820160149054906101000a900460ff161515151581526020016003820160159054906101000a900460ff16151515158152602001600482015481526020016005820160009054906101000a900460ff161515151581526020016005820160019054906101000a900460ff161515151581525050838381518110611036577f4e487b7100000000000000000000000000000000000000000000000000000000600052603260045260246000fd5b6020026020010181905250818061104c90615358565b9250505b808061105b90615358565b915050610dcb565b508194505050505090565b61107f611079612ab6565b82612e13565b6110be576040517f08c379a00000000000000000000000000000000000000000000000000000000081526004016110b590614e20565b60405180910390fd5b6110c9838383612ef1565b505050565b600081600a600082815260200190815260200160002060020160009054906101000a900473ffffffffffffffffffffffffffffffffffffffff1673ffffffffffffffffffffffffffffffffffffffff163373ffffffffffffffffffffffffffffffffffffffff16148061118e5750600860009054906101000a900473ffffffffffffffffffffffffffffffffffffffff1673ffffffffffffffffffffffffffffffffffffffff163373ffffffffffffffffffffffffffffffffffffffff16145b806111fa5750600a600082815260200190815260200160002060030160009054906101000a900473ffffffffffffffffffffffffffffffffffffffff1673ffffffffffffffffffffffffffffffffffffffff163373ffffffffffffffffffffffffffffffffffffffff16145b611239576040517f08c379a000000000000000000000000000000000000000000000000000000000815260040161123090614ea0565b60405180910390fd5b61124283612a4a565b611281576040517f08c379a000000000000000000000000000000000000000000000000000000000815260040161127890614c80565b60405180910390fd5b600a600084815260200190815260200160002060030160149054906101000a900460ff16915050919050565b6112c8838383604051806020016040528060008152506124f4565b505050565b600860009054906101000a900473ffffffffffffffffffffffffffffffffffffffff1673ffffffffffffffffffffffffffffffffffffffff163373ffffffffffffffffffffffffffffffffffffffff161461135d576040517f08c379a000000000000000000000000000000000000000000000000000000000815260040161135490614b60565b60405180910390fd5b61136681612a4a565b6113a5576040517f08c379a000000000000000000000000000000000000000000000000000000000815260040161139c90614c80565b60405180910390fd5b600080600960009054906101000a900473ffffffffffffffffffffffffffffffffffffffff1673ffffffffffffffffffffffffffffffffffffffff1663b996ec2a846040518263ffffffff1660e01b81526004016114039190614ee0565b60a06040518083038186803b15801561141b57600080fd5b505afa15801561142f573d6000803e3d6000fd5b505050506040513d601f19601f820116820180604052508101906114539190614243565b5050509150915060008214801561146a5750600081145b6114a9576040517f08c379a00000000000000000000000000000000000000000000000000000000081526004016114a090614dc0565b60405180910390fd5b600960009054906101000a900473ffffffffffffffffffffffffffffffffffffffff1673ffffffffffffffffffffffffffffffffffffffff1663e9b05678846040518263ffffffff1660e01b81526004016115049190614ee0565b600060405180830381600087803b15801561151e57600080fd5b505af1158015611532573d6000803e3d6000fd5b5050505061153f83613158565b600a600084815260200190815260200160002060008082016000905560018201600090556002820160006101000a81549073ffffffffffffffffffffffffffffffffffffffff02191690556003820160006101000a81549073ffffffffffffffffffffffffffffffffffffffff02191690556003820160146101000a81549060ff02191690556003820160156101000a81549060ff021916905560048201600090556005820160006101000a81549060ff02191690556005820160016101000a81549060ff02191690555050505050565b80600a600082815260200190815260200160002060020160009054906101000a900473ffffffffffffffffffffffffffffffffffffffff1673ffffffffffffffffffffffffffffffffffffffff163373ffffffffffffffffffffffffffffffffffffffff1614806116ce5750600860009054906101000a900473ffffffffffffffffffffffffffffffffffffffff1673ffffffffffffffffffffffffffffffffffffffff163373ffffffffffffffffffffffffffffffffffffffff16145b61170d576040517f08c379a000000000000000000000000000000000000000000000000000000000815260040161170490614d80565b60405180910390fd5b6000600a600084815260200190815260200160002090508060030160159054906101000a900460ff16611775576040517f08c379a000000000000000000000000000000000000000000000000000000000815260040161176c90614e60565b60405180910390fd5b60008160040154146117bc576040517f08c379a00000000000000000000000000000000000000000000000000000000081526004016117b390614d20565b60405180910390fd5b8060050160009054906101000a900460ff1661180d576040517f08c379a000000000000000000000000000000000000000000000000000000000815260040161180490614d60565b60405180910390fd5b600960009054906101000a900473ffffffffffffffffffffffffffffffffffffffff1673ffffffffffffffffffffffffffffffffffffffff1663cf297bcc846040518263ffffffff1660e01b81526004016118689190614ee0565b600060405180830381600087803b15801561188257600080fd5b505af1158015611896573d6000803e3d6000fd5b50505050827fa2f53bc0e18b0bc5dd570921bdefafa92f1b5ab9d0427ab540e89716a6bf40f38260020160009054906101000a900473ffffffffffffffffffffffffffffffffffffffff168360030160009054906101000a900473ffffffffffffffffffffffffffffffffffffffff166040516119149291906149f1565b60405180910390a2505050565b600083600a600082815260200190815260200160002060020160009054906101000a900473ffffffffffffffffffffffffffffffffffffffff1673ffffffffffffffffffffffffffffffffffffffff163373ffffffffffffffffffffffffffffffffffffffff1614806119e15750600860009054906101000a900473ffffffffffffffffffffffffffffffffffffffff1673ffffffffffffffffffffffffffffffffffffffff163373ffffffffffffffffffffffffffffffffffffffff16145b611a20576040517f08c379a0000000000000000000000000000000000000000000000000000000008152600401611a1790614d80565b60405180910390fd5b600a600086815260200190815260200160002060030160149054906101000a900460ff1615611a84576040517f08c379a0000000000000000000000000000000000000000000000000000000008152600401611a7b90614e40565b60405180910390fd5b82841015611ac7576040517f08c379a0000000000000000000000000000000000000000000000000000000008152600401611abe90614ae0565b60405180910390fd5b6001600a600087815260200190815260200160002060030160146101000a81548160ff021916908315150217905550847fc00a25d0e0acd109108e9a073662dd09e67c46edcaa6d23ac18d7c021b9cdf5533604051611b2691906149d6565b60405180910390a260019150509392505050565b600082600a600082815260200190815260200160002060020160009054906101000a900473ffffffffffffffffffffffffffffffffffffffff1673ffffffffffffffffffffffffffffffffffffffff163373ffffffffffffffffffffffffffffffffffffffff161480611bfa5750600860009054906101000a900473ffffffffffffffffffffffffffffffffffffffff1673ffffffffffffffffffffffffffffffffffffffff163373ffffffffffffffffffffffffffffffffffffffff16145b611c39576040517f08c379a0000000000000000000000000000000000000000000000000000000008152600401611c3090614d80565b60405180910390fd5b82600a600086815260200190815260200160002060050160006101000a81548160ff021916908315150217905550837f030b31cc3ac2b9bfe883db5234e1bf3b9a8a12009233f7ccf8b6258700973e5e33604051611c9791906149d6565b60405180910390a2600191505092915050565b6000806002600084815260200190815260200160002060009054906101000a900473ffffffffffffffffffffffffffffffffffffffff169050600073ffffffffffffffffffffffffffffffffffffffff168173ffffffffffffffffffffffffffffffffffffffff161415611d53576040517f08c379a0000000000000000000000000000000000000000000000000000000008152600401611d4a90614c40565b60405180910390fd5b80915050919050565b600082600a600082815260200190815260200160002060020160009054906101000a900473ffffffffffffffffffffffffffffffffffffffff1673ffffffffffffffffffffffffffffffffffffffff163373ffffffffffffffffffffffffffffffffffffffff161480611e1c5750600860009054906101000a900473ffffffffffffffffffffffffffffffffffffffff1673ffffffffffffffffffffffffffffffffffffffff163373ffffffffffffffffffffffffffffffffffffffff16145b80611e885750600a600082815260200190815260200160002060030160009054906101000a900473ffffffffffffffffffffffffffffffffffffffff1673ffffffffffffffffffffffffffffffffffffffff163373ffffffffffffffffffffffffffffffffffffffff16145b611ec7576040517f08c379a0000000000000000000000000000000000000000000000000000000008152600401611ebe90614ea0565b60405180910390fd5b611ed084612a4a565b611f0f576040517f08c379a0000000000000000000000000000000000000000000000000000000008152600401611f0690614c80565b60405180910390fd5b600a600085815260200190815260200160002060030160149054906101000a900460ff1615611f73576040517f08c379a0000000000000000000000000000000000000000000000000000000008152600401611f6a90614e00565b60405180910390fd5b82611fb3576040517f08c379a0000000000000000000000000000000000000000000000000000000008152600401611faa90614bc0565b60405180910390fd5b6001600a600086815260200190815260200160002060050160016101000a81548160ff021916908315150217905550600960009054906101000a900473ffffffffffffffffffffffffffffffffffffffff1673ffffffffffffffffffffffffffffffffffffffff16637584e197856040518263ffffffff1660e01b815260040161203d9190614ee0565b600060405180830381600087803b15801561205757600080fd5b505af115801561206b573d6000803e3d6000fd5b50505050837fd8420f97dab0b820e066ebfad617848c1eab2d260922358cc1d5cdcdc568d5723360405161209f91906149d6565b60405180910390a2600191505092915050565b60008073ffffffffffffffffffffffffffffffffffffffff168273ffffffffffffffffffffffffffffffffffffffff161415612123576040517f08c379a000000000000000000000000000000000000000000000000000000000815260040161211a90614c20565b60405180910390fd5b600360008373ffffffffffffffffffffffffffffffffffffffff1673ffffffffffffffffffffffffffffffffffffffff168152602001908152602001600020549050919050565b600082600a600082815260200190815260200160002060020160009054906101000a900473ffffffffffffffffffffffffffffffffffffffff1673ffffffffffffffffffffffffffffffffffffffff163373ffffffffffffffffffffffffffffffffffffffff16148061222a5750600860009054906101000a900473ffffffffffffffffffffffffffffffffffffffff1673ffffffffffffffffffffffffffffffffffffffff163373ffffffffffffffffffffffffffffffffffffffff16145b612269576040517f08c379a000000000000000000000000000000000000000000000000000000000815260040161226090614d80565b60405180910390fd5b600a600085815260200190815260200160002060030160159054906101000a900460ff16156122cd576040517f08c379a00000000000000000000000000000000000000000000000000000000081526004016122c490614ec0565b60405180910390fd5b6001600a600086815260200190815260200160002060030160156101000a81548160ff02191690831515021790555082600a600086815260200190815260200160002060040181905550837fdcd509647eb01fb1549b8c9e4cbac26fc33951fec42c83a3de14b3a253351ad03360405161234791906149d6565b60405180910390a2600191505092915050565b6000600860009054906101000a900473ffffffffffffffffffffffffffffffffffffffff16905090565b606060018054612393906152f5565b80601f01602080910402602001604051908101604052809291908181526020018280546123bf906152f5565b801561240c5780601f106123e15761010080835404028352916020019161240c565b820191906000526020600020905b8154815290600101906020018083116123ef57829003601f168201915b5050505050905090565b60075481565b61242e612427612ab6565b8383613164565b5050565b600a6020528060005260406000206000915090508060000154908060010154908060020160009054906101000a900473ffffffffffffffffffffffffffffffffffffffff16908060030160009054906101000a900473ffffffffffffffffffffffffffffffffffffffff16908060030160149054906101000a900460ff16908060030160159054906101000a900460ff16908060040154908060050160009054906101000a900460ff16908060050160019054906101000a900460ff16905089565b6125056124ff612ab6565b83612e13565b612544576040517f08c379a000000000000000000000000000000000000000000000000000000000815260040161253b90614e20565b60405180910390fd5b612550848484846132d1565b50505050565b600081600a600082815260200190815260200160002060020160009054906101000a900473ffffffffffffffffffffffffffffffffffffffff1673ffffffffffffffffffffffffffffffffffffffff163373ffffffffffffffffffffffffffffffffffffffff1614806126165750600860009054906101000a900473ffffffffffffffffffffffffffffffffffffffff1673ffffffffffffffffffffffffffffffffffffffff163373ffffffffffffffffffffffffffffffffffffffff16145b806126825750600a600082815260200190815260200160002060030160009054906101000a900473ffffffffffffffffffffffffffffffffffffffff1673ffffffffffffffffffffffffffffffffffffffff163373ffffffffffffffffffffffffffffffffffffffff16145b6126c1576040517f08c379a00000000000000000000000000000000000000000000000000000000081526004016126b890614ea0565b60405180910390fd5b6126ca83612a4a565b612709576040517f08c379a000000000000000000000000000000000000000000000000000000000815260040161270090614c80565b60405180910390fd5b600a600084815260200190815260200160002060030160159054906101000a900460ff16915050919050565b60606127408261332d565b9050919050565b600960009054906101000a900473ffffffffffffffffffffffffffffffffffffffff1681565b6000600560008473ffffffffffffffffffffffffffffffffffffffff1673ffffffffffffffffffffffffffffffffffffffff16815260200190815260200160002060008373ffffffffffffffffffffffffffffffffffffffff1673ffffffffffffffffffffffffffffffffffffffff16815260200190815260200160002060009054906101000a900460ff16905092915050565b600081600a600082815260200190815260200160002060020160009054906101000a900473ffffffffffffffffffffffffffffffffffffffff1673ffffffffffffffffffffffffffffffffffffffff163373ffffffffffffffffffffffffffffffffffffffff1614806128c15750600860009054906101000a900473ffffffffffffffffffffffffffffffffffffffff1673ffffffffffffffffffffffffffffffffffffffff163373ffffffffffffffffffffffffffffffffffffffff16145b8061292d5750600a600082815260200190815260200160002060030160009054906101000a900473ffffffffffffffffffffffffffffffffffffffff1673ffffffffffffffffffffffffffffffffffffffff163373ffffffffffffffffffffffffffffffffffffffff16145b61296c576040517f08c379a000000000000000000000000000000000000000000000000000000000815260040161296390614ea0565b60405180910390fd5b61297583612a4a565b6129b4576040517f08c379a00000000000000000000000000000000000000000000000000000000081526004016129ab90614c80565b60405180910390fd5b600a600084815260200190815260200160002060050160009054906101000a900460ff16915050919050565b60007f01ffc9a7000000000000000000000000000000000000000000000000000000007bffffffffffffffffffffffffffffffffffffffffffffffffffffffff1916827bffffffffffffffffffffffffffffffffffffffffffffffffffffffff1916149050919050565b60008073ffffffffffffffffffffffffffffffffffffffff166002600084815260200190815260200160002060009054906101000a900473ffffffffffffffffffffffffffffffffffffffff1673ffffffffffffffffffffffffffffffffffffffff1614159050919050565b600033905090565b816004600083815260200190815260200160002060006101000a81548173ffffffffffffffffffffffffffffffffffffffff021916908373ffffffffffffffffffffffffffffffffffffffff160217905550808273ffffffffffffffffffffffffffffffffffffffff16612b3183611caa565b73ffffffffffffffffffffffffffffffffffffffff167f8c5be1e5ebec7d5bd14f71427d1e84f3dd0314c0f7b2291e5b200ac8c7c3b92560405160405180910390a45050565b612b9182826040518060200160405280600081525061347f565b5050565b612b9e82612a4a565b612bdd576040517f08c379a0000000000000000000000000000000000000000000000000000000008152600401612bd490614c60565b60405180910390fd5b80600660008481526020019081526020016000209080519060200190612c04929190613cd3565b505050565b6040518061012001604052808481526020018381526020018273ffffffffffffffffffffffffffffffffffffffff1681526020013373ffffffffffffffffffffffffffffffffffffffff1681526020016000151581526020016000151581526020016000815260200160001515815260200160001515815250600a6000858152602001908152602001600020600082015181600001556020820151816001015560408201518160020160006101000a81548173ffffffffffffffffffffffffffffffffffffffff021916908373ffffffffffffffffffffffffffffffffffffffff16021790555060608201518160030160006101000a81548173ffffffffffffffffffffffffffffffffffffffff021916908373ffffffffffffffffffffffffffffffffffffffff16021790555060808201518160030160146101000a81548160ff02191690831515021790555060a08201518160030160156101000a81548160ff02191690831515021790555060c0820151816004015560e08201518160050160006101000a81548160ff0219169083151502179055506101008201518160050160016101000a81548160ff021916908315150217905550905050827f7add9db2c8f79bd9a1a4bb1e05fca8b651aec9ac38c613a01a1fb844e8a16f058383336000806000806000604051612e06989796959493929190614efb565b60405180910390a2505050565b6000612e1e82612a4a565b612e5d576040517f08c379a0000000000000000000000000000000000000000000000000000000008152600401612e5490614be0565b60405180910390fd5b6000612e6883611caa565b90508073ffffffffffffffffffffffffffffffffffffffff168473ffffffffffffffffffffffffffffffffffffffff161480612ed757508373ffffffffffffffffffffffffffffffffffffffff16612ebf846108df565b73ffffffffffffffffffffffffffffffffffffffff16145b80612ee85750612ee7818561276d565b5b91505092915050565b8273ffffffffffffffffffffffffffffffffffffffff16612f1182611caa565b73ffffffffffffffffffffffffffffffffffffffff1614612f67576040517f08c379a0000000000000000000000000000000000000000000000000000000008152600401612f5e90614b20565b60405180910390fd5b600073ffffffffffffffffffffffffffffffffffffffff168273ffffffffffffffffffffffffffffffffffffffff161415612fd7576040517f08c379a0000000000000000000000000000000000000000000000000000000008152600401612fce90614b80565b60405180910390fd5b612fe28383836134da565b612fed600082612abe565b6001600360008573ffffffffffffffffffffffffffffffffffffffff1673ffffffffffffffffffffffffffffffffffffffff168152602001908152602001600020600082825461303d91906151d5565b925050819055506001600360008473ffffffffffffffffffffffffffffffffffffffff1673ffffffffffffffffffffffffffffffffffffffff1681526020019081526020016000206000828254613094919061514e565b92505081905550816002600083815260200190815260200160002060006101000a81548173ffffffffffffffffffffffffffffffffffffffff021916908373ffffffffffffffffffffffffffffffffffffffff160217905550808273ffffffffffffffffffffffffffffffffffffffff168473ffffffffffffffffffffffffffffffffffffffff167fddf252ad1be2c89b69c2b068fc378daa952ba7f163c4a11628f55a4df523b3ef60405160405180910390a46131538383836134df565b505050565b613161816134e4565b50565b8173ffffffffffffffffffffffffffffffffffffffff168373ffffffffffffffffffffffffffffffffffffffff1614156131d3576040517f08c379a00000000000000000000000000000000000000000000000000000000081526004016131ca90614ba0565b60405180910390fd5b80600560008573ffffffffffffffffffffffffffffffffffffffff1673ffffffffffffffffffffffffffffffffffffffff16815260200190815260200160002060008473ffffffffffffffffffffffffffffffffffffffff1673ffffffffffffffffffffffffffffffffffffffff16815260200190815260200160002060006101000a81548160ff0219169083151502179055508173ffffffffffffffffffffffffffffffffffffffff168373ffffffffffffffffffffffffffffffffffffffff167f17307eab39ab6107e8899845ad3d59bd9653f200f220920489ca2b5937696c31836040516132c49190614a88565b60405180910390a3505050565b6132dc848484612ef1565b6132e884848484613537565b613327576040517f08c379a000000000000000000000000000000000000000000000000000000000815260040161331e90614b00565b60405180910390fd5b50505050565b606061333882612a4a565b613377576040517f08c379a000000000000000000000000000000000000000000000000000000000815260040161336e90614ce0565b60405180910390fd5b6000600660008481526020019081526020016000208054613397906152f5565b80601f01602080910402602001604051908101604052809291908181526020018280546133c3906152f5565b80156134105780601f106133e557610100808354040283529160200191613410565b820191906000526020600020905b8154815290600101906020018083116133f357829003601f168201915b5050505050905060006134216136ce565b905060008151141561343757819250505061347a565b60008251111561346c5780826040516020016134549291906149b2565b6040516020818303038152906040529250505061347a565b613475846136e5565b925050505b919050565b613489838361378c565b6134966000848484613537565b6134d5576040517f08c379a00000000000000000000000000000000000000000000000000000000081526004016134cc90614b00565b60405180910390fd5b505050565b505050565b505050565b6134ed81613966565b600060066000838152602001908152602001600020805461350d906152f5565b905014613534576006600082815260200190815260200160002060006135339190613d59565b5b50565b60006135588473ffffffffffffffffffffffffffffffffffffffff16613a83565b156136c1578373ffffffffffffffffffffffffffffffffffffffff1663150b7a02613581612ab6565b8786866040518563ffffffff1660e01b81526004016135a39493929190614a1a565b602060405180830381600087803b1580156135bd57600080fd5b505af19250505080156135ee57506040513d601f19601f820116820180604052508101906135eb91906140fe565b60015b613671573d806000811461361e576040519150601f19603f3d011682016040523d82523d6000602084013e613623565b606091505b50600081511415613669576040517f08c379a000000000000000000000000000000000000000000000000000000000815260040161366090614b00565b60405180910390fd5b805181602001fd5b63150b7a0260e01b7bffffffffffffffffffffffffffffffffffffffffffffffffffffffff1916817bffffffffffffffffffffffffffffffffffffffffffffffffffffffff1916149150506136c6565b600190505b949350505050565b606060405180602001604052806000815250905090565b60606136f082612a4a565b61372f576040517f08c379a000000000000000000000000000000000000000000000000000000000815260040161372690614d40565b60405180910390fd5b60006137396136ce565b905060008151116137595760405180602001604052806000815250613784565b8061376384613aa6565b6040516020016137749291906149b2565b6040516020818303038152906040525b915050919050565b600073ffffffffffffffffffffffffffffffffffffffff168273ffffffffffffffffffffffffffffffffffffffff1614156137fc576040517f08c379a00000000000000000000000000000000000000000000000000000000081526004016137f390614cc0565b60405180910390fd5b61380581612a4a565b15613845576040517f08c379a000000000000000000000000000000000000000000000000000000000815260040161383c90614b40565b60405180910390fd5b613851600083836134da565b6001600360008473ffffffffffffffffffffffffffffffffffffffff1673ffffffffffffffffffffffffffffffffffffffff16815260200190815260200160002060008282546138a1919061514e565b92505081905550816002600083815260200190815260200160002060006101000a81548173ffffffffffffffffffffffffffffffffffffffff021916908373ffffffffffffffffffffffffffffffffffffffff160217905550808273ffffffffffffffffffffffffffffffffffffffff16600073ffffffffffffffffffffffffffffffffffffffff167fddf252ad1be2c89b69c2b068fc378daa952ba7f163c4a11628f55a4df523b3ef60405160405180910390a4613962600083836134df565b5050565b600061397182611caa565b905061397f816000846134da565b61398a600083612abe565b6001600360008373ffffffffffffffffffffffffffffffffffffffff1673ffffffffffffffffffffffffffffffffffffffff16815260200190815260200160002060008282546139da91906151d5565b925050819055506002600083815260200190815260200160002060006101000a81549073ffffffffffffffffffffffffffffffffffffffff021916905581600073ffffffffffffffffffffffffffffffffffffffff168273ffffffffffffffffffffffffffffffffffffffff167fddf252ad1be2c89b69c2b068fc378daa952ba7f163c4a11628f55a4df523b3ef60405160405180910390a4613a7f816000846134df565b5050565b6000808273ffffffffffffffffffffffffffffffffffffffff163b119050919050565b60606000821415613aee576040518060400160405280600181526020017f30000000000000000000000000000000000000000000000000000000000000008152509050613c4e565b600082905060005b60008214613b20578080613b0990615358565b915050600a82613b1991906151a4565b9150613af6565b60008167ffffffffffffffff811115613b62577f4e487b7100000000000000000000000000000000000000000000000000000000600052604160045260246000fd5b6040519080825280601f01601f191660200182016040528015613b945781602001600182028036833780820191505090505b5090505b60008514613c4757600182613bad91906151d5565b9150600a85613bbc91906153a1565b6030613bc8919061514e565b60f81b818381518110613c04577f4e487b7100000000000000000000000000000000000000000000000000000000600052603260045260246000fd5b60200101907effffffffffffffffffffffffffffffffffffffffffffffffffffffffffffff1916908160001a905350600a85613c4091906151a4565b9450613b98565b8093505050505b919050565b6040518061012001604052806000815260200160008152602001600073ffffffffffffffffffffffffffffffffffffffff168152602001600073ffffffffffffffffffffffffffffffffffffffff168152602001600015158152602001600015158152602001600081526020016000151581526020016000151581525090565b828054613cdf906152f5565b90600052602060002090601f016020900481019282613d015760008555613d48565b82601f10613d1a57805160ff1916838001178555613d48565b82800160010185558215613d48579182015b82811115613d47578251825591602001919060010190613d2c565b5b509050613d559190613d99565b5090565b508054613d65906152f5565b6000825580601f10613d775750613d96565b601f016020900490600052602060002090810190613d959190613d99565b5b50565b5b80821115613db2576000816000905550600101613d9a565b5090565b6000613dc9613dc484615070565b61504b565b905082815260208101848484011115613de157600080fd5b613dec8482856152b3565b509392505050565b6000613e07613e02846150a1565b61504b565b905082815260208101848484011115613e1f57600080fd5b613e2a8482856152b3565b509392505050565b600081359050613e4181615cdd565b92915050565b600081519050613e5681615cdd565b92915050565b600081359050613e6b81615cf4565b92915050565b600081519050613e8081615cf4565b92915050565b600081359050613e9581615d0b565b92915050565b600081519050613eaa81615d0b565b92915050565b600082601f830112613ec157600080fd5b8135613ed1848260208601613db6565b91505092915050565b600082601f830112613eeb57600080fd5b8135613efb848260208601613df4565b91505092915050565b600081359050613f1381615d22565b92915050565b600081519050613f2881615d22565b92915050565b600060208284031215613f4057600080fd5b6000613f4e84828501613e32565b91505092915050565b60008060408385031215613f6a57600080fd5b6000613f7885828601613e32565b9250506020613f8985828601613e32565b9150509250929050565b600080600060608486031215613fa857600080fd5b6000613fb686828701613e32565b9350506020613fc786828701613e32565b9250506040613fd886828701613f04565b9150509250925092565b60008060008060808587031215613ff857600080fd5b600061400687828801613e32565b945050602061401787828801613e32565b935050604061402887828801613f04565b925050606085013567ffffffffffffffff81111561404557600080fd5b61405187828801613eb0565b91505092959194509250565b6000806040838503121561407057600080fd5b600061407e85828601613e32565b925050602061408f85828601613e5c565b9150509250929050565b600080604083850312156140ac57600080fd5b60006140ba85828601613e32565b92505060206140cb85828601613f04565b9150509250929050565b6000602082840312156140e757600080fd5b60006140f584828501613e86565b91505092915050565b60006020828403121561411057600080fd5b600061411e84828501613e9b565b91505092915050565b6000806000806080858703121561413d57600080fd5b600085013567ffffffffffffffff81111561415757600080fd5b61416387828801613eda565b945050602061417487828801613f04565b935050604061418587828801613e32565b925050606061419687828801613f04565b91505092959194509250565b6000602082840312156141b457600080fd5b60006141c284828501613f04565b91505092915050565b600080604083850312156141de57600080fd5b60006141ec85828601613f04565b92505060206141fd85828601613e5c565b9150509250929050565b6000806040838503121561421a57600080fd5b600061422885828601613f04565b925050602061423985828601613f04565b9150509250929050565b600080600080600060a0868803121561425b57600080fd5b600061426988828901613f19565b955050602061427a88828901613f19565b945050604061428b88828901613e47565b935050606061429c88828901613e47565b92505060806142ad88828901613e71565b9150509295509295909350565b6000806000606084860312156142cf57600080fd5b60006142dd86828701613f04565b93505060206142ee86828701613f04565b92505060406142ff86828701613f04565b9150509250925092565b600061431583836148dd565b6101208301905092915050565b61432b81615209565b82525050565b61433a81615209565b82525050565b600061434b826150e2565b6143558185615110565b9350614360836150d2565b8060005b838110156143915781516143788882614309565b975061438383615103565b925050600181019050614364565b5085935050505092915050565b6143a78161521b565b82525050565b6143b68161521b565b82525050565b60006143c7826150ed565b6143d18185615121565b93506143e18185602086016152c2565b6143ea8161548e565b840191505092915050565b6143fe8161527d565b82525050565b61440d816152a1565b82525050565b600061441e826150f8565b6144288185615132565b93506144388185602086016152c2565b6144418161548e565b840191505092915050565b6000614457826150f8565b6144618185615143565b93506144718185602086016152c2565b80840191505092915050565b600061448a601983615132565b91506144958261549f565b602082019050919050565b60006144ad603283615132565b91506144b8826154c8565b604082019050919050565b60006144d0602583615132565b91506144db82615517565b604082019050919050565b60006144f3601c83615132565b91506144fe82615566565b602082019050919050565b6000614516602b83615132565b91506145218261558f565b604082019050919050565b6000614539602483615132565b9150614544826155de565b604082019050919050565b600061455c601983615132565b91506145678261562d565b602082019050919050565b600061457f602283615132565b915061458a82615656565b604082019050919050565b60006145a2602c83615132565b91506145ad826156a5565b604082019050919050565b60006145c5603883615132565b91506145d0826156f4565b604082019050919050565b60006145e8602a83615132565b91506145f382615743565b604082019050919050565b600061460b602983615132565b915061461682615792565b604082019050919050565b600061462e602e83615132565b9150614639826157e1565b604082019050919050565b6000614651601883615132565b915061465c82615830565b602082019050919050565b6000614674603583615132565b915061467f82615859565b604082019050919050565b6000614697602083615132565b91506146a2826158a8565b602082019050919050565b60006146ba603183615132565b91506146c5826158d1565b604082019050919050565b60006146dd602c83615132565b91506146e882615920565b604082019050919050565b6000614700601683615132565b915061470b8261596f565b602082019050919050565b6000614723602f83615132565b915061472e82615998565b604082019050919050565b6000614746601583615132565b9150614751826159e7565b602082019050919050565b6000614769603983615132565b915061477482615a10565b604082019050919050565b600061478c602183615132565b915061479782615a5f565b604082019050919050565b60006147af602f83615132565b91506147ba82615aae565b604082019050919050565b60006147d2602183615132565b91506147dd82615afd565b604082019050919050565b60006147f5602983615132565b915061480082615b4c565b604082019050919050565b6000614818603183615132565b915061482382615b9b565b604082019050919050565b600061483b601983615132565b915061484682615bea565b602082019050919050565b600061485e601683615132565b915061486982615c13565b602082019050919050565b6000614881602483615132565b915061488c82615c3c565b604082019050919050565b60006148a4600d83615132565b91506148af82615c8b565b602082019050919050565b60006148c7601a83615132565b91506148d282615cb4565b602082019050919050565b610120820160008201516148f46000850182614994565b5060208201516149076020850182614994565b50604082015161491a6040850182614322565b50606082015161492d6060850182614322565b506080820151614940608085018261439e565b5060a082015161495360a085018261439e565b5060c082015161496660c0850182614994565b5060e082015161497960e085018261439e565b5061010082015161498e61010085018261439e565b50505050565b61499d81615273565b82525050565b6149ac81615273565b82525050565b60006149be828561444c565b91506149ca828461444c565b91508190509392505050565b60006020820190506149eb6000830184614331565b92915050565b6000604082019050614a066000830185614331565b614a136020830184614331565b9392505050565b6000608082019050614a2f6000830187614331565b614a3c6020830186614331565b614a4960408301856149a3565b8181036060830152614a5b81846143bc565b905095945050505050565b60006020820190508181036000830152614a808184614340565b905092915050565b6000602082019050614a9d60008301846143ad565b92915050565b6000602082019050614ab860008301846143f5565b92915050565b60006020820190508181036000830152614ad88184614413565b905092915050565b60006020820190508181036000830152614af98161447d565b9050919050565b60006020820190508181036000830152614b19816144a0565b9050919050565b60006020820190508181036000830152614b39816144c3565b9050919050565b60006020820190508181036000830152614b59816144e6565b9050919050565b60006020820190508181036000830152614b7981614509565b9050919050565b60006020820190508181036000830152614b998161452c565b9050919050565b60006020820190508181036000830152614bb98161454f565b9050919050565b60006020820190508181036000830152614bd981614572565b9050919050565b60006020820190508181036000830152614bf981614595565b9050919050565b60006020820190508181036000830152614c19816145b8565b9050919050565b60006020820190508181036000830152614c39816145db565b9050919050565b60006020820190508181036000830152614c59816145fe565b9050919050565b60006020820190508181036000830152614c7981614621565b9050919050565b60006020820190508181036000830152614c9981614644565b9050919050565b60006020820190508181036000830152614cb981614667565b9050919050565b60006020820190508181036000830152614cd98161468a565b9050919050565b60006020820190508181036000830152614cf9816146ad565b9050919050565b60006020820190508181036000830152614d19816146d0565b9050919050565b60006020820190508181036000830152614d39816146f3565b9050919050565b60006020820190508181036000830152614d5981614716565b9050919050565b60006020820190508181036000830152614d7981614739565b9050919050565b60006020820190508181036000830152614d998161475c565b9050919050565b60006020820190508181036000830152614db98161477f565b9050919050565b60006020820190508181036000830152614dd9816147a2565b9050919050565b60006020820190508181036000830152614df9816147c5565b9050919050565b60006020820190508181036000830152614e19816147e8565b9050919050565b60006020820190508181036000830152614e398161480b565b9050919050565b60006020820190508181036000830152614e598161482e565b9050919050565b60006020820190508181036000830152614e7981614851565b9050919050565b60006020820190508181036000830152614e9981614874565b9050919050565b60006020820190508181036000830152614eb981614897565b9050919050565b60006020820190508181036000830152614ed9816148ba565b9050919050565b6000602082019050614ef560008301846149a3565b92915050565b600061010082019050614f11600083018b6149a3565b614f1e602083018a614331565b614f2b6040830189614331565b614f3860608301886143ad565b614f4560808301876143ad565b614f5260a0830186614404565b614f5f60c08301856143ad565b614f6c60e08301846143ad565b9998505050505050505050565b6000608082019050614f8e60008301876149a3565b614f9b60208301866149a3565b614fa86040830185614331565b614fb56060830184614331565b95945050505050565b600061012082019050614fd4600083018c6149a3565b614fe1602083018b6149a3565b614fee604083018a614331565b614ffb6060830189614331565b61500860808301886143ad565b61501560a08301876143ad565b61502260c08301866149a3565b61502f60e08301856143ad565b61503d6101008301846143ad565b9a9950505050505050505050565b6000615055615066565b90506150618282615327565b919050565b6000604051905090565b600067ffffffffffffffff82111561508b5761508a61545f565b5b6150948261548e565b9050602081019050919050565b600067ffffffffffffffff8211156150bc576150bb61545f565b5b6150c58261548e565b9050602081019050919050565b6000819050602082019050919050565b600081519050919050565b600081519050919050565b600081519050919050565b6000602082019050919050565b600082825260208201905092915050565b600082825260208201905092915050565b600082825260208201905092915050565b600081905092915050565b600061515982615273565b915061516483615273565b9250827fffffffffffffffffffffffffffffffffffffffffffffffffffffffffffffffff03821115615199576151986153d2565b5b828201905092915050565b60006151af82615273565b91506151ba83615273565b9250826151ca576151c9615401565b5b828204905092915050565b60006151e082615273565b91506151eb83615273565b9250828210156151fe576151fd6153d2565b5b828203905092915050565b600061521482615253565b9050919050565b60008115159050919050565b60007fffffffff0000000000000000000000000000000000000000000000000000000082169050919050565b600073ffffffffffffffffffffffffffffffffffffffff82169050919050565b6000819050919050565b60006152888261528f565b9050919050565b600061529a82615253565b9050919050565b60006152ac82615273565b9050919050565b82818337600083830152505050565b60005b838110156152e05780820151818401526020810190506152c5565b838111156152ef576000848401525b50505050565b6000600282049050600182168061530d57607f821691505b6020821081141561532157615320615430565b5b50919050565b6153308261548e565b810181811067ffffffffffffffff8211171561534f5761534e61545f565b5b80604052505050565b600061536382615273565b91507fffffffffffffffffffffffffffffffffffffffffffffffffffffffffffffffff821415615396576153956153d2565b5b600182019050919050565b60006153ac82615273565b91506153b783615273565b9250826153c7576153c6615401565b5b828206905092915050565b7f4e487b7100000000000000000000000000000000000000000000000000000000600052601160045260246000fd5b7f4e487b7100000000000000000000000000000000000000000000000000000000600052601260045260246000fd5b7f4e487b7100000000000000000000000000000000000000000000000000000000600052602260045260246000fd5b7f4e487b7100000000000000000000000000000000000000000000000000000000600052604160045260246000fd5b6000601f19601f8301169050919050565b7f436865636b2d696e2074696d65206e6f74207265616368656400000000000000600082015250565b7f4552433732313a207472616e7366657220746f206e6f6e20455243373231526560008201527f63656976657220696d706c656d656e7465720000000000000000000000000000602082015250565b7f4552433732313a207472616e736665722066726f6d20696e636f72726563742060008201527f6f776e6572000000000000000000000000000000000000000000000000000000602082015250565b7f4552433732313a20746f6b656e20616c7265616479206d696e74656400000000600082015250565b7f4f6e6c7920636f6e7472616374206f776e65722063616e20706572666f726d2060008201527f7468697320616374696f6e000000000000000000000000000000000000000000602082015250565b7f4552433732313a207472616e7366657220746f20746865207a65726f2061646460008201527f7265737300000000000000000000000000000000000000000000000000000000602082015250565b7f4552433732313a20617070726f766520746f2063616c6c657200000000000000600082015250565b7f5265717565737420616674657220726566756e6420706572696f6420636c6f7360008201527f6564000000000000000000000000000000000000000000000000000000000000602082015250565b7f4552433732313a206f70657261746f7220717565727920666f72206e6f6e657860008201527f697374656e7420746f6b656e0000000000000000000000000000000000000000602082015250565b7f4552433732313a20617070726f76652063616c6c6572206973206e6f74206f7760008201527f6e6572206e6f7220617070726f76656420666f7220616c6c0000000000000000602082015250565b7f4552433732313a2062616c616e636520717565727920666f7220746865207a6560008201527f726f206164647265737300000000000000000000000000000000000000000000602082015250565b7f4552433732313a206f776e657220717565727920666f72206e6f6e657869737460008201527f656e7420746f6b656e0000000000000000000000000000000000000000000000602082015250565b7f45524337323155524953746f726167653a2055524920736574206f66206e6f6e60008201527f6578697374656e7420746f6b656e000000000000000000000000000000000000602082015250565b7f52656e74616c20494420646f6573206e6f742065786973740000000000000000600082015250565b7f546f74616c20616d6f756e74206d75737420626520677265617465722074686160008201527f6e206f7220657175616c20746f206465706f7369740000000000000000000000602082015250565b7f4552433732313a206d696e7420746f20746865207a65726f2061646472657373600082015250565b7f45524337323155524953746f726167653a2055524920717565727920666f722060008201527f6e6f6e6578697374656e7420746f6b656e000000000000000000000000000000602082015250565b7f4552433732313a20617070726f76656420717565727920666f72206e6f6e657860008201527f697374656e7420746f6b656e0000000000000000000000000000000000000000602082015250565b7f4c61746520636865636b6f757420646574656374656400000000000000000000600082015250565b7f4552433732314d657461646174613a2055524920717565727920666f72206e6f60008201527f6e6578697374656e7420746f6b656e0000000000000000000000000000000000602082015250565b7f496e7370656374696f6e206e6f74207061737365640000000000000000000000600082015250565b7f4f6e6c7920626f6174206f776e6572206f7220636f6e7472616374206f776e6560008201527f722063616e20706572666f726d207468697320616374696f6e00000000000000602082015250565b7f4552433732313a20617070726f76616c20746f2063757272656e74206f776e6560008201527f7200000000000000000000000000000000000000000000000000000000000000602082015250565b7f43616e6e6f74206275726e2072656e74616c2077697468206e6f6e2d7a65726f60008201527f20657363726f772064657461696c730000000000000000000000000000000000602082015250565b7f4465706f736974206d7573742062652067726561746572207468616e207a657260008201527f6f00000000000000000000000000000000000000000000000000000000000000602082015250565b7f526566756e642063616e6e6f742062652072657175657374656420616674657260008201527f20636865636b2d696e0000000000000000000000000000000000000000000000602082015250565b7f4552433732313a207472616e736665722063616c6c6572206973206e6f74206f60008201527f776e6572206e6f7220617070726f766564000000000000000000000000000000602082015250565b7f52656e74616c20616c726561647920636865636b656420696e00000000000000600082015250565b7f52656e74616c206e6f7420636865636b6564206f757400000000000000000000600082015250565b7f52656e74616c20666565206d7573742062652067726561746572207468616e2060008201527f7a65726f00000000000000000000000000000000000000000000000000000000602082015250565b7f63616c6c65722064656e69656400000000000000000000000000000000000000600082015250565b7f52656e74616c20616c726561647920636865636b6564206f7574000000000000600082015250565b615ce681615209565b8114615cf157600080fd5b50565b615cfd8161521b565b8114615d0857600080fd5b50565b615d1481615227565b8114615d1f57600080fd5b50565b615d2b81615273565b8114615d3657600080fd5b5056fea2646970667358221220e55a47469ed343f046420be91cf5d15f068409425db9434d645476440319007464736f6c63430008040033",
  "linkReferences": {},
  "deployedLinkReferences": {}
}