{
  "_format": "hh-sol-artifact-1",
  "contractName": "Ahoy",
  "sourceName": "src/backend/contracts/Ahoy.sol",
  "abi": [
    {
      "inputs": [],
      "stateMutability": "nonpayable",
      "type": "constructor"
    },
    {
      "anonymous": false,
      "inputs": [
        {
          "indexed": true,
          "internalType": "address",
          "name": "owner",
          "type": "address"
        },
        {
          "indexed": true,
          "internalType": "address",
          "name": "approved",
          "type": "address"
        },
        {
          "indexed": true,
          "internalType": "uint256",
          "name": "tokenId",
          "type": "uint256"
        }
      ],
      "name": "Approval",
      "type": "event"
    },
    {
      "anonymous": false,
      "inputs": [
        {
          "indexed": true,
          "internalType": "address",
          "name": "owner",
          "type": "address"
        },
        {
          "indexed": true,
          "internalType": "address",
          "name": "operator",
          "type": "address"
        },
        {
          "indexed": false,
          "internalType": "bool",
          "name": "approved",
          "type": "bool"
        }
      ],
      "name": "ApprovalForAll",
      "type": "event"
    },
    {
      "anonymous": false,
      "inputs": [
        {
          "indexed": true,
          "internalType": "uint256",
          "name": "tokenId",
          "type": "uint256"
        },
        {
          "indexed": false,
          "internalType": "string",
          "name": "boatUUID",
          "type": "string"
        },
        {
          "indexed": false,
          "internalType": "address",
          "name": "owner",
          "type": "address"
        },
        {
          "indexed": false,
          "internalType": "uint256",
          "name": "hourlyPrice",
          "type": "uint256"
        },
        {
          "indexed": false,
          "internalType": "uint256",
          "name": "dailyPrice",
          "type": "uint256"
        },
        {
          "indexed": false,
          "internalType": "bool",
          "name": "currentlyListed",
          "type": "bool"
        },
        {
          "indexed": false,
          "internalType": "uint256",
          "name": "refundabilityPeriod",
          "type": "uint256"
        },
        {
          "indexed": false,
          "internalType": "uint256",
          "name": "deposit",
          "type": "uint256"
        },
        {
          "indexed": false,
          "internalType": "uint256",
          "name": "closedPeriod",
          "type": "uint256"
        },
        {
          "indexed": false,
          "internalType": "uint256",
          "name": "sellPrice",
          "type": "uint256"
        }
      ],
      "name": "BoatListedSuccess",
      "type": "event"
    },
    {
      "anonymous": false,
      "inputs": [
        {
          "indexed": true,
          "internalType": "uint256",
          "name": "tokenId",
          "type": "uint256"
        },
        {
          "indexed": true,
          "internalType": "address",
          "name": "owner",
          "type": "address"
        },
        {
          "indexed": true,
          "internalType": "address",
          "name": "marketContract",
          "type": "address"
        }
      ],
      "name": "BoatRelisted",
      "type": "event"
    },
    {
      "anonymous": false,
      "inputs": [
        {
          "indexed": true,
          "internalType": "uint256",
          "name": "tokenId",
          "type": "uint256"
        },
        {
          "indexed": false,
          "internalType": "uint256",
          "name": "newClosedPeriod",
          "type": "uint256"
        }
      ],
      "name": "ClosedPeriodUpdated",
      "type": "event"
    },
    {
      "anonymous": false,
      "inputs": [
        {
          "indexed": true,
          "internalType": "uint256",
          "name": "tokenId",
          "type": "uint256"
        },
        {
          "indexed": false,
          "internalType": "bool",
          "name": "newCurrentlyListed",
          "type": "bool"
        }
      ],
      "name": "CurrentlyListedUpdated",
      "type": "event"
    },
    {
      "anonymous": false,
      "inputs": [
        {
          "indexed": true,
          "internalType": "uint256",
          "name": "tokenId",
          "type": "uint256"
        },
        {
          "indexed": false,
          "internalType": "uint256",
          "name": "newDailyPrice",
          "type": "uint256"
        }
      ],
      "name": "DailyPriceUpdated",
      "type": "event"
    },
    {
      "anonymous": false,
      "inputs": [
        {
          "indexed": true,
          "internalType": "uint256",
          "name": "tokenId",
          "type": "uint256"
        },
        {
          "indexed": false,
          "internalType": "uint256",
          "name": "newHourlyPrice",
          "type": "uint256"
        }
      ],
      "name": "HourlyPriceUpdated",
      "type": "event"
    },
    {
      "anonymous": false,
      "inputs": [
        {
          "indexed": true,
          "internalType": "address",
          "name": "previousOwner",
          "type": "address"
        },
        {
          "indexed": true,
          "internalType": "address",
          "name": "newOwner",
          "type": "address"
        }
      ],
      "name": "OwnershipTransferred",
      "type": "event"
    },
    {
      "anonymous": false,
      "inputs": [
        {
          "indexed": true,
          "internalType": "uint256",
          "name": "tokenId",
          "type": "uint256"
        },
        {
          "indexed": false,
          "internalType": "uint256",
          "name": "newRefundabilityPeriod",
          "type": "uint256"
        }
      ],
      "name": "RefundabilityPeriodUpdated",
      "type": "event"
    },
    {
      "anonymous": false,
      "inputs": [
        {
          "indexed": true,
          "internalType": "address",
          "name": "from",
          "type": "address"
        },
        {
          "indexed": true,
          "internalType": "address",
          "name": "to",
          "type": "address"
        },
        {
          "indexed": true,
          "internalType": "uint256",
          "name": "tokenId",
          "type": "uint256"
        }
      ],
      "name": "Transfer",
      "type": "event"
    },
    {
      "anonymous": false,
      "inputs": [
        {
          "indexed": true,
          "internalType": "uint256",
          "name": "tokenId",
          "type": "uint256"
        },
        {
          "indexed": false,
          "internalType": "uint256",
          "name": "newDepositPrice",
          "type": "uint256"
        }
      ],
      "name": "depositUpdated",
      "type": "event"
    },
    {
      "anonymous": false,
      "inputs": [
        {
          "indexed": true,
          "internalType": "uint256",
          "name": "tokenId",
          "type": "uint256"
        },
        {
          "indexed": false,
          "internalType": "uint256",
          "name": "newSellPrice",
          "type": "uint256"
        }
      ],
      "name": "sellPriceUpdated",
      "type": "event"
    },
    {
      "inputs": [
        {
          "internalType": "address",
          "name": "to",
          "type": "address"
        },
        {
          "internalType": "uint256",
          "name": "tokenId",
          "type": "uint256"
        }
      ],
      "name": "approve",
      "outputs": [],
      "stateMutability": "nonpayable",
      "type": "function"
    },
    {
      "inputs": [
        {
          "internalType": "address",
          "name": "owner",
          "type": "address"
        }
      ],
      "name": "balanceOf",
      "outputs": [
        {
          "internalType": "uint256",
          "name": "",
          "type": "uint256"
        }
      ],
      "stateMutability": "view",
      "type": "function"
    },
    {
      "inputs": [
        {
          "internalType": "string",
          "name": "",
          "type": "string"
        }
      ],
      "name": "boats",
      "outputs": [
        {
          "internalType": "uint256",
          "name": "tokenId",
          "type": "uint256"
        },
        {
          "internalType": "string",
          "name": "boatUUID",
          "type": "string"
        },
        {
          "internalType": "address payable",
          "name": "owner",
          "type": "address"
        },
        {
          "internalType": "uint256",
          "name": "hourlyPrice",
          "type": "uint256"
        },
        {
          "internalType": "uint256",
          "name": "dailyPrice",
          "type": "uint256"
        },
        {
          "internalType": "bool",
          "name": "currentlyListed",
          "type": "bool"
        },
        {
          "internalType": "uint256",
          "name": "refundabilityPeriod",
          "type": "uint256"
        },
        {
          "internalType": "uint256",
          "name": "deposit",
          "type": "uint256"
        },
        {
          "internalType": "uint256",
          "name": "closedPeriod",
          "type": "uint256"
        },
        {
          "internalType": "uint256",
          "name": "sellPrice",
          "type": "uint256"
        }
      ],
      "stateMutability": "view",
      "type": "function"
    },
    {
      "inputs": [
        {
          "internalType": "string",
          "name": "boatUUID",
          "type": "string"
        }
      ],
      "name": "executeSale",
      "outputs": [],
      "stateMutability": "payable",
      "type": "function"
    },
    {
      "inputs": [
        {
          "internalType": "uint256",
          "name": "tokenId",
          "type": "uint256"
        }
      ],
      "name": "getApproved",
      "outputs": [
        {
          "internalType": "address",
          "name": "",
          "type": "address"
        }
      ],
      "stateMutability": "view",
      "type": "function"
    },
    {
      "inputs": [
        {
          "internalType": "uint256",
          "name": "tokenId",
          "type": "uint256"
        }
      ],
      "name": "getBoatByTokenId",
      "outputs": [
        {
          "components": [
            {
              "internalType": "uint256",
              "name": "tokenId",
              "type": "uint256"
            },
            {
              "internalType": "string",
              "name": "boatUUID",
              "type": "string"
            },
            {
              "internalType": "address payable",
              "name": "owner",
              "type": "address"
            },
            {
              "internalType": "uint256",
              "name": "hourlyPrice",
              "type": "uint256"
            },
            {
              "internalType": "uint256",
              "name": "dailyPrice",
              "type": "uint256"
            },
            {
              "internalType": "bool",
              "name": "currentlyListed",
              "type": "bool"
            },
            {
              "internalType": "uint256",
              "name": "refundabilityPeriod",
              "type": "uint256"
            },
            {
              "internalType": "uint256",
              "name": "deposit",
              "type": "uint256"
            },
            {
              "internalType": "uint256",
              "name": "closedPeriod",
              "type": "uint256"
            },
            {
              "internalType": "uint256",
              "name": "sellPrice",
              "type": "uint256"
            }
          ],
          "internalType": "struct Ahoy.Boat",
          "name": "",
          "type": "tuple"
        }
      ],
      "stateMutability": "view",
      "type": "function"
    },
    {
      "inputs": [
        {
          "internalType": "string",
          "name": "boatUUID",
          "type": "string"
        }
      ],
      "name": "getListedBoatForUUID",
      "outputs": [
        {
          "components": [
            {
              "internalType": "uint256",
              "name": "tokenId",
              "type": "uint256"
            },
            {
              "internalType": "string",
              "name": "boatUUID",
              "type": "string"
            },
            {
              "internalType": "address payable",
              "name": "owner",
              "type": "address"
            },
            {
              "internalType": "uint256",
              "name": "hourlyPrice",
              "type": "uint256"
            },
            {
              "internalType": "uint256",
              "name": "dailyPrice",
              "type": "uint256"
            },
            {
              "internalType": "bool",
              "name": "currentlyListed",
              "type": "bool"
            },
            {
              "internalType": "uint256",
              "name": "refundabilityPeriod",
              "type": "uint256"
            },
            {
              "internalType": "uint256",
              "name": "deposit",
              "type": "uint256"
            },
            {
              "internalType": "uint256",
              "name": "closedPeriod",
              "type": "uint256"
            },
            {
              "internalType": "uint256",
              "name": "sellPrice",
              "type": "uint256"
            }
          ],
          "internalType": "struct Ahoy.Boat",
          "name": "",
          "type": "tuple"
        }
      ],
      "stateMutability": "view",
      "type": "function"
    },
    {
      "inputs": [
        {
          "internalType": "address",
          "name": "owner",
          "type": "address"
        },
        {
          "internalType": "address",
          "name": "operator",
          "type": "address"
        }
      ],
      "name": "isApprovedForAll",
      "outputs": [
        {
          "internalType": "bool",
          "name": "",
          "type": "bool"
        }
      ],
      "stateMutability": "view",
      "type": "function"
    },
    {
      "inputs": [
        {
          "internalType": "string",
          "name": "tokenURI",
          "type": "string"
        },
        {
          "internalType": "string",
          "name": "uuid",
          "type": "string"
        },
        {
          "internalType": "uint256",
          "name": "hourlyPrice",
          "type": "uint256"
        },
        {
          "internalType": "uint256",
          "name": "dailyPrice",
          "type": "uint256"
        },
        {
          "internalType": "bool",
          "name": "currentlyListed",
          "type": "bool"
        },
        {
          "internalType": "uint256",
          "name": "refundabilityPeriod",
          "type": "uint256"
        },
        {
          "internalType": "uint256",
          "name": "deposit",
          "type": "uint256"
        },
        {
          "internalType": "uint256",
          "name": "closedPeriod",
          "type": "uint256"
        },
        {
          "internalType": "uint256",
          "name": "_sellPrice",
          "type": "uint256"
        }
      ],
      "name": "mint",
      "outputs": [
        {
          "internalType": "uint256",
          "name": "",
          "type": "uint256"
        }
      ],
      "stateMutability": "payable",
      "type": "function"
    },
    {
      "inputs": [],
      "name": "name",
      "outputs": [
        {
          "internalType": "string",
          "name": "",
          "type": "string"
        }
      ],
      "stateMutability": "view",
      "type": "function"
    },
    {
      "inputs": [],
      "name": "owner",
      "outputs": [
        {
          "internalType": "address",
          "name": "",
          "type": "address"
        }
      ],
      "stateMutability": "view",
      "type": "function"
    },
    {
      "inputs": [
        {
          "internalType": "uint256",
          "name": "tokenId",
          "type": "uint256"
        }
      ],
      "name": "ownerOf",
      "outputs": [
        {
          "internalType": "address",
          "name": "",
          "type": "address"
        }
      ],
      "stateMutability": "view",
      "type": "function"
    },
    {
      "inputs": [
        {
          "internalType": "string",
          "name": "boatUUID",
          "type": "string"
        }
      ],
      "name": "relistBoat",
      "outputs": [],
      "stateMutability": "nonpayable",
      "type": "function"
    },
    {
      "inputs": [],
      "name": "renounceOwnership",
      "outputs": [],
      "stateMutability": "nonpayable",
      "type": "function"
    },
    {
      "inputs": [
        {
          "internalType": "address",
          "name": "from",
          "type": "address"
        },
        {
          "internalType": "address",
          "name": "to",
          "type": "address"
        },
        {
          "internalType": "uint256",
          "name": "tokenId",
          "type": "uint256"
        }
      ],
      "name": "safeTransferFrom",
      "outputs": [],
      "stateMutability": "nonpayable",
      "type": "function"
    },
    {
      "inputs": [
        {
          "internalType": "address",
          "name": "from",
          "type": "address"
        },
        {
          "internalType": "address",
          "name": "to",
          "type": "address"
        },
        {
          "internalType": "uint256",
          "name": "tokenId",
          "type": "uint256"
        },
        {
          "internalType": "bytes",
          "name": "_data",
          "type": "bytes"
        }
      ],
      "name": "safeTransferFrom",
      "outputs": [],
      "stateMutability": "nonpayable",
      "type": "function"
    },
    {
      "inputs": [
        {
          "internalType": "address",
          "name": "operator",
          "type": "address"
        },
        {
          "internalType": "bool",
          "name": "approved",
          "type": "bool"
        }
      ],
      "name": "setApprovalForAll",
      "outputs": [],
      "stateMutability": "nonpayable",
      "type": "function"
    },
    {
      "inputs": [
        {
          "internalType": "bytes4",
          "name": "interfaceId",
          "type": "bytes4"
        }
      ],
      "name": "supportsInterface",
      "outputs": [
        {
          "internalType": "bool",
          "name": "",
          "type": "bool"
        }
      ],
      "stateMutability": "view",
      "type": "function"
    },
    {
      "inputs": [],
      "name": "symbol",
      "outputs": [
        {
          "internalType": "string",
          "name": "",
          "type": "string"
        }
      ],
      "stateMutability": "view",
      "type": "function"
    },
    {
      "inputs": [],
      "name": "tokenCount",
      "outputs": [
        {
          "internalType": "uint256",
          "name": "",
          "type": "uint256"
        }
      ],
      "stateMutability": "view",
      "type": "function"
    },
    {
      "inputs": [
        {
          "internalType": "uint256",
          "name": "tokenId",
          "type": "uint256"
        }
      ],
      "name": "tokenURI",
      "outputs": [
        {
          "internalType": "string",
          "name": "",
          "type": "string"
        }
      ],
      "stateMutability": "view",
      "type": "function"
    },
    {
      "inputs": [
        {
          "internalType": "address",
          "name": "from",
          "type": "address"
        },
        {
          "internalType": "address",
          "name": "to",
          "type": "address"
        },
        {
          "internalType": "uint256",
          "name": "tokenId",
          "type": "uint256"
        }
      ],
      "name": "transferFrom",
      "outputs": [],
      "stateMutability": "nonpayable",
      "type": "function"
    },
    {
      "inputs": [
        {
          "internalType": "address",
          "name": "newOwner",
          "type": "address"
        }
      ],
      "name": "transferOwnership",
      "outputs": [],
      "stateMutability": "nonpayable",
      "type": "function"
    },
    {
      "inputs": [
        {
          "internalType": "string",
          "name": "boatUUID",
          "type": "string"
        },
        {
          "internalType": "uint256",
          "name": "newPeriod",
          "type": "uint256"
        }
      ],
      "name": "updateClosedPeriod",
      "outputs": [],
      "stateMutability": "nonpayable",
      "type": "function"
    },
    {
      "inputs": [
        {
          "internalType": "string",
          "name": "boatUUID",
          "type": "string"
        },
        {
          "internalType": "uint256",
          "name": "newDailyPrice",
          "type": "uint256"
        }
      ],
      "name": "updateDailyPrice",
      "outputs": [],
      "stateMutability": "nonpayable",
      "type": "function"
    },
    {
      "inputs": [
        {
          "internalType": "string",
          "name": "boatUUID",
          "type": "string"
        },
        {
          "internalType": "uint256",
          "name": "newDeposit",
          "type": "uint256"
        }
      ],
      "name": "updateDeposit",
      "outputs": [],
      "stateMutability": "nonpayable",
      "type": "function"
    },
    {
      "inputs": [
        {
          "internalType": "string",
          "name": "boatUUID",
          "type": "string"
        },
        {
          "internalType": "uint256",
          "name": "newHourlyPrice",
          "type": "uint256"
        }
      ],
      "name": "updateHourlyPrice",
      "outputs": [],
      "stateMutability": "nonpayable",
      "type": "function"
    },
    {
      "inputs": [
        {
          "internalType": "string",
          "name": "boatUUID",
          "type": "string"
        },
        {
          "internalType": "uint256",
          "name": "newPeriod",
          "type": "uint256"
        }
      ],
      "name": "updateRefundabilityPeriod",
      "outputs": [],
      "stateMutability": "nonpayable",
      "type": "function"
    },
    {
      "inputs": [
        {
          "internalType": "string",
          "name": "boatUUID",
          "type": "string"
        },
        {
          "internalType": "uint256",
          "name": "newSellPrice",
          "type": "uint256"
        }
      ],
      "name": "updateSellPrice",
      "outputs": [],
      "stateMutability": "nonpayable",
      "type": "function"
    },
    {
      "inputs": [
        {
          "internalType": "string",
          "name": "boatUUID",
          "type": "string"
        },
        {
          "internalType": "bool",
          "name": "_currentlyListed",
          "type": "bool"
        }
      ],
      "name": "updateStatus",
      "outputs": [],
      "stateMutability": "nonpayable",
      "type": "function"
    },
    {
      "inputs": [
        {
          "internalType": "string",
          "name": "boatUUID",
          "type": "string"
        },
        {
          "internalType": "string",
          "name": "newTokenURI",
          "type": "string"
        }
      ],
      "name": "updateTokenURIByUUID",
      "outputs": [],
      "stateMutability": "nonpayable",
      "type": "function"
    }
  ],
  "bytecode": "0x60806040523480156200001157600080fd5b506040518060400160405280600881526020017f426f6174204e46540000000000000000000000000000000000000000000000008152506040518060400160405280600481526020017f424f415400000000000000000000000000000000000000000000000000000000815250816000908051906020019062000096929190620001a6565b508060019080519060200190620000af929190620001a6565b505050620000d2620000c6620000d860201b60201c565b620000e060201b60201c565b620002bb565b600033905090565b6000600760009054906101000a900473ffffffffffffffffffffffffffffffffffffffff16905081600760006101000a81548173ffffffffffffffffffffffffffffffffffffffff021916908373ffffffffffffffffffffffffffffffffffffffff1602179055508173ffffffffffffffffffffffffffffffffffffffff168173ffffffffffffffffffffffffffffffffffffffff167f8be0079c531659141344cd1fd0a4f28419497f9722a3daafe3b4186f6b6457e060405160405180910390a35050565b828054620001b49062000256565b90600052602060002090601f016020900481019282620001d8576000855562000224565b82601f10620001f357805160ff191683800117855562000224565b8280016001018555821562000224579182015b828111156200022357825182559160200191906001019062000206565b5b50905062000233919062000237565b5090565b5b808211156200025257600081600090555060010162000238565b5090565b600060028204905060018216806200026f57607f821691505b602082108114156200028657620002856200028c565b5b50919050565b7f4e487b7100000000000000000000000000000000000000000000000000000000600052602260045260246000fd5b6156d080620002cb6000396000f3fe6080604052600436106101d85760003560e01c8063751d1ee9116101025780639f181b5e11610095578063c87b56dd11610064578063c87b56dd146106b5578063cc032517146106f2578063e985e9c51461071b578063f2fde38b14610758576101d8565b80639f181b5e1461061c578063a22cb46514610647578063b88d4fde14610670578063baaf971d14610699576101d8565b80638da5cb5b116100d15780638da5cb5b146105575780638f5b75221461058257806395d89b41146105ab5780639c6155fa146105d6576101d8565b8063751d1ee9146104ac578063783a6693146104d557806378546470146104fe578063816bd8541461052e576101d8565b80633206dab71161017a5780636703dc69116101495780636703dc69146103f257806369e9525b1461042f57806370a0823114610458578063715018a614610495576101d8565b80633206dab71461032657806342842e0e1461034f578063590b070c146103785780636352211e146103b5576101d8565b8063095ea7b3116101b6578063095ea7b3146102825780631e0b1c4d146102ab57806321d9f670146102d457806323b872dd146102fd576101d8565b806301ffc9a7146101dd57806306fdde031461021a578063081812fc14610245575b600080fd5b3480156101e957600080fd5b5061020460048036038101906101ff9190613f36565b610781565b60405161021191906147e2565b60405180910390f35b34801561022657600080fd5b5061022f610863565b60405161023c91906147fd565b60405180910390f35b34801561025157600080fd5b5061026c600480360381019061026791906141d3565b6108f5565b604051610279919061477b565b60405180910390f35b34801561028e57600080fd5b506102a960048036038101906102a49190613efa565b61097a565b005b3480156102b757600080fd5b506102d260048036038101906102cd919061417f565b610a92565b005b3480156102e057600080fd5b506102fb60048036038101906102f6919061417f565b610cb0565b005b34801561030957600080fd5b50610324600480360381019061031f9190613df4565b610ece565b005b34801561033257600080fd5b5061034d6004803603810190610348919061417f565b610f2e565b005b34801561035b57600080fd5b5061037660048036038101906103719190613df4565b61114c565b005b34801561038457600080fd5b5061039f600480360381019061039a91906141d3565b61116c565b6040516103ac9190614b93565b60405180910390f35b3480156103c157600080fd5b506103dc60048036038101906103d791906141d3565b61138f565b6040516103e9919061477b565b60405180910390f35b3480156103fe57600080fd5b5061041960048036038101906104149190613f88565b611441565b6040516104269190614b93565b60405180910390f35b34801561043b57600080fd5b506104566004803603810190610451919061401d565b6115c3565b005b34801561046457600080fd5b5061047f600480360381019061047a9190613d8f565b611793565b60405161048c9190614bb5565b60405180910390f35b3480156104a157600080fd5b506104aa61184b565b005b3480156104b857600080fd5b506104d360048036038101906104ce919061417f565b6118d3565b005b3480156104e157600080fd5b506104fc60048036038101906104f7919061417f565b611af1565b005b61051860048036038101906105139190614089565b611d0f565b6040516105259190614bb5565b60405180910390f35b34801561053a57600080fd5b5061055560048036038101906105509190613f88565b611d90565b005b34801561056357600080fd5b5061056c611fbb565b604051610579919061477b565b60405180910390f35b34801561058e57600080fd5b506105a960048036038101906105a4919061417f565b611fe5565b005b3480156105b757600080fd5b506105c0612203565b6040516105cd91906147fd565b60405180910390f35b3480156105e257600080fd5b506105fd60048036038101906105f89190613f88565b612295565b6040516106139a99989796959493929190614bd0565b60405180910390f35b34801561062857600080fd5b506106316123b4565b60405161063e9190614bb5565b60405180910390f35b34801561065357600080fd5b5061066e60048036038101906106699190613ebe565b6123ba565b005b34801561067c57600080fd5b5061069760048036038101906106929190613e43565b6123d0565b005b6106b360048036038101906106ae9190613f88565b612432565b005b3480156106c157600080fd5b506106dc60048036038101906106d791906141d3565b6125d6565b6040516106e991906147fd565b60405180910390f35b3480156106fe57600080fd5b5061071960048036038101906107149190613fc9565b612728565b005b34801561072757600080fd5b50610742600480360381019061073d9190613db8565b612959565b60405161074f91906147e2565b60405180910390f35b34801561076457600080fd5b5061077f600480360381019061077a9190613d8f565b6129ed565b005b60007f80ac58cd000000000000000000000000000000000000000000000000000000007bffffffffffffffffffffffffffffffffffffffffffffffffffffffff1916827bffffffffffffffffffffffffffffffffffffffffffffffffffffffff1916148061084c57507f5b5e139f000000000000000000000000000000000000000000000000000000007bffffffffffffffffffffffffffffffffffffffffffffffffffffffff1916827bffffffffffffffffffffffffffffffffffffffffffffffffffffffff1916145b8061085c575061085b82612ae5565b5b9050919050565b60606000805461087290614ed1565b80601f016020809104026020016040519081016040528092919081815260200182805461089e90614ed1565b80156108eb5780601f106108c0576101008083540402835291602001916108eb565b820191906000526020600020905b8154815290600101906020018083116108ce57829003601f168201915b5050505050905090565b600061090082612b4f565b61093f576040517f08c379a000000000000000000000000000000000000000000000000000000000815260040161093690614a93565b60405180910390fd5b6004600083815260200190815260200160002060009054906101000a900473ffffffffffffffffffffffffffffffffffffffff169050919050565b60006109858261138f565b90508073ffffffffffffffffffffffffffffffffffffffff168373ffffffffffffffffffffffffffffffffffffffff1614156109f6576040517f08c379a00000000000000000000000000000000000000000000000000000000081526004016109ed90614af3565b60405180910390fd5b8073ffffffffffffffffffffffffffffffffffffffff16610a15612bbb565b73ffffffffffffffffffffffffffffffffffffffff161480610a445750610a4381610a3e612bbb565b612959565b5b610a83576040517f08c379a0000000000000000000000000000000000000000000000000000000008152600401610a7a906149d3565b60405180910390fd5b610a8d8383612bc3565b505050565b816000815111610ad7576040517f08c379a0000000000000000000000000000000000000000000000000000000008152600401610ace90614b73565b60405180910390fd5b610b01600982604051610aea9190614740565b908152602001604051809103902060000154612b4f565b610b40576040517f08c379a0000000000000000000000000000000000000000000000000000000008152600401610b3790614b13565b60405180910390fd5b600981604051610b509190614740565b908152602001604051809103902060020160009054906101000a900473ffffffffffffffffffffffffffffffffffffffff1673ffffffffffffffffffffffffffffffffffffffff163373ffffffffffffffffffffffffffffffffffffffff161480610bed57503373ffffffffffffffffffffffffffffffffffffffff16610bd5611fbb565b73ffffffffffffffffffffffffffffffffffffffff16145b610c2c576040517f08c379a0000000000000000000000000000000000000000000000000000000008152600401610c2390614993565b60405180910390fd5b81600984604051610c3d9190614740565b908152602001604051809103902060030181905550600983604051610c629190614740565b9081526020016040518091039020600001547fd30ea262383676c6ffb3594e7772217082e85acdb5c2e7fe8945ec593b16140883604051610ca39190614bb5565b60405180910390a2505050565b816000815111610cf5576040517f08c379a0000000000000000000000000000000000000000000000000000000008152600401610cec90614b73565b60405180910390fd5b610d1f600982604051610d089190614740565b908152602001604051809103902060000154612b4f565b610d5e576040517f08c379a0000000000000000000000000000000000000000000000000000000008152600401610d5590614b13565b60405180910390fd5b600981604051610d6e9190614740565b908152602001604051809103902060020160009054906101000a900473ffffffffffffffffffffffffffffffffffffffff1673ffffffffffffffffffffffffffffffffffffffff163373ffffffffffffffffffffffffffffffffffffffff161480610e0b57503373ffffffffffffffffffffffffffffffffffffffff16610df3611fbb565b73ffffffffffffffffffffffffffffffffffffffff16145b610e4a576040517f08c379a0000000000000000000000000000000000000000000000000000000008152600401610e4190614993565b60405180910390fd5b81600984604051610e5b9190614740565b908152602001604051809103902060090181905550600983604051610e809190614740565b9081526020016040518091039020600001547f80214732cb7b51409e143594f22dd89c147c85da33438f45c0d1bcd95bc2d40083604051610ec19190614bb5565b60405180910390a2505050565b610edf610ed9612bbb565b82612c7c565b610f1e576040517f08c379a0000000000000000000000000000000000000000000000000000000008152600401610f1590614b33565b60405180910390fd5b610f29838383612d5a565b505050565b816000815111610f73576040517f08c379a0000000000000000000000000000000000000000000000000000000008152600401610f6a90614b73565b60405180910390fd5b610f9d600982604051610f869190614740565b908152602001604051809103902060000154612b4f565b610fdc576040517f08c379a0000000000000000000000000000000000000000000000000000000008152600401610fd390614b13565b60405180910390fd5b600981604051610fec9190614740565b908152602001604051809103902060020160009054906101000a900473ffffffffffffffffffffffffffffffffffffffff1673ffffffffffffffffffffffffffffffffffffffff163373ffffffffffffffffffffffffffffffffffffffff16148061108957503373ffffffffffffffffffffffffffffffffffffffff16611071611fbb565b73ffffffffffffffffffffffffffffffffffffffff16145b6110c8576040517f08c379a00000000000000000000000000000000000000000000000000000000081526004016110bf90614993565b60405180910390fd5b816009846040516110d99190614740565b9081526020016040518091039020600401819055506009836040516110fe9190614740565b9081526020016040518091039020600001547f56f5b1c57e56d38ff62b49a4af8f52987709e36a3d4261765cf81eaaec6780338360405161113f9190614bb5565b60405180910390a2505050565b611167838383604051806020016040528060008152506123d0565b505050565b611174613b48565b6000600a6000848152602001908152602001600020805461119490614ed1565b80601f01602080910402602001604051908101604052809291908181526020018280546111c090614ed1565b801561120d5780601f106111e25761010080835404028352916020019161120d565b820191906000526020600020905b8154815290600101906020018083116111f057829003601f168201915b505050505090506009816040516112249190614740565b9081526020016040518091039020604051806101400160405290816000820154815260200160018201805461125890614ed1565b80601f016020809104026020016040519081016040528092919081815260200182805461128490614ed1565b80156112d15780601f106112a6576101008083540402835291602001916112d1565b820191906000526020600020905b8154815290600101906020018083116112b457829003601f168201915b505050505081526020016002820160009054906101000a900473ffffffffffffffffffffffffffffffffffffffff1673ffffffffffffffffffffffffffffffffffffffff1673ffffffffffffffffffffffffffffffffffffffff16815260200160038201548152602001600482015481526020016005820160009054906101000a900460ff16151515158152602001600682015481526020016007820154815260200160088201548152602001600982015481525050915050919050565b6000806002600084815260200190815260200160002060009054906101000a900473ffffffffffffffffffffffffffffffffffffffff169050600073ffffffffffffffffffffffffffffffffffffffff168173ffffffffffffffffffffffffffffffffffffffff161415611438576040517f08c379a000000000000000000000000000000000000000000000000000000000815260040161142f90614a13565b60405180910390fd5b80915050919050565b611449613b48565b6009826040516114599190614740565b9081526020016040518091039020604051806101400160405290816000820154815260200160018201805461148d90614ed1565b80601f01602080910402602001604051908101604052809291908181526020018280546114b990614ed1565b80156115065780601f106114db57610100808354040283529160200191611506565b820191906000526020600020905b8154815290600101906020018083116114e957829003601f168201915b505050505081526020016002820160009054906101000a900473ffffffffffffffffffffffffffffffffffffffff1673ffffffffffffffffffffffffffffffffffffffff1673ffffffffffffffffffffffffffffffffffffffff16815260200160038201548152602001600482015481526020016005820160009054906101000a900460ff161515151581526020016006820154815260200160078201548152602001600882015481526020016009820154815250509050919050565b816000815111611608576040517f08c379a00000000000000000000000000000000000000000000000000000000081526004016115ff90614b73565b60405180910390fd5b61163260098260405161161b9190614740565b908152602001604051809103902060000154612b4f565b611671576040517f08c379a000000000000000000000000000000000000000000000000000000000815260040161166890614b13565b60405180910390fd5b6009816040516116819190614740565b908152602001604051809103902060020160009054906101000a900473ffffffffffffffffffffffffffffffffffffffff1673ffffffffffffffffffffffffffffffffffffffff163373ffffffffffffffffffffffffffffffffffffffff16148061171e57503373ffffffffffffffffffffffffffffffffffffffff16611706611fbb565b73ffffffffffffffffffffffffffffffffffffffff16145b61175d576040517f08c379a000000000000000000000000000000000000000000000000000000000815260040161175490614993565b60405180910390fd5b600060098460405161176f9190614740565b908152602001604051809103902060000154905061178d8184612fc1565b50505050565b60008073ffffffffffffffffffffffffffffffffffffffff168273ffffffffffffffffffffffffffffffffffffffff161415611804576040517f08c379a00000000000000000000000000000000000000000000000000000000081526004016117fb906149f3565b60405180910390fd5b600360008373ffffffffffffffffffffffffffffffffffffffff1673ffffffffffffffffffffffffffffffffffffffff168152602001908152602001600020549050919050565b611853612bbb565b73ffffffffffffffffffffffffffffffffffffffff16611871611fbb565b73ffffffffffffffffffffffffffffffffffffffff16146118c7576040517f08c379a00000000000000000000000000000000000000000000000000000000081526004016118be90614ab3565b60405180910390fd5b6118d16000613035565b565b816000815111611918576040517f08c379a000000000000000000000000000000000000000000000000000000000815260040161190f90614b73565b60405180910390fd5b61194260098260405161192b9190614740565b908152602001604051809103902060000154612b4f565b611981576040517f08c379a000000000000000000000000000000000000000000000000000000000815260040161197890614b13565b60405180910390fd5b6009816040516119919190614740565b908152602001604051809103902060020160009054906101000a900473ffffffffffffffffffffffffffffffffffffffff1673ffffffffffffffffffffffffffffffffffffffff163373ffffffffffffffffffffffffffffffffffffffff161480611a2e57503373ffffffffffffffffffffffffffffffffffffffff16611a16611fbb565b73ffffffffffffffffffffffffffffffffffffffff16145b611a6d576040517f08c379a0000000000000000000000000000000000000000000000000000000008152600401611a6490614993565b60405180910390fd5b81600984604051611a7e9190614740565b908152602001604051809103902060080181905550600983604051611aa39190614740565b9081526020016040518091039020600001547f8cba03acb5595fdb6ff27c32503305aafee2573010e09fce6f2644093840d88183604051611ae49190614bb5565b60405180910390a2505050565b816000815111611b36576040517f08c379a0000000000000000000000000000000000000000000000000000000008152600401611b2d90614b73565b60405180910390fd5b611b60600982604051611b499190614740565b908152602001604051809103902060000154612b4f565b611b9f576040517f08c379a0000000000000000000000000000000000000000000000000000000008152600401611b9690614b13565b60405180910390fd5b600981604051611baf9190614740565b908152602001604051809103902060020160009054906101000a900473ffffffffffffffffffffffffffffffffffffffff1673ffffffffffffffffffffffffffffffffffffffff163373ffffffffffffffffffffffffffffffffffffffff161480611c4c57503373ffffffffffffffffffffffffffffffffffffffff16611c34611fbb565b73ffffffffffffffffffffffffffffffffffffffff16145b611c8b576040517f08c379a0000000000000000000000000000000000000000000000000000000008152600401611c8290614993565b60405180910390fd5b81600984604051611c9c9190614740565b908152602001604051809103902060070181905550600983604051611cc19190614740565b9081526020016040518091039020600001547f30bb3fa444e97de5847bd43c09e8064f1964e80a8feccbd7f032180f03d3d53883604051611d029190614bb5565b60405180910390a2505050565b600060086000815480929190611d2490614f34565b9190505550611d35336008546130fb565b611d416008548b612fc1565b88600a600060085481526020019081526020016000209080519060200190611d6a929190613bb3565b50611d7e6008548a8a8a8a8a8a8a8a613119565b60085490509998505050505050505050565b806000815111611dd5576040517f08c379a0000000000000000000000000000000000000000000000000000000008152600401611dcc90614b73565b60405180910390fd5b611dff600982604051611de89190614740565b908152602001604051809103902060000154612b4f565b611e3e576040517f08c379a0000000000000000000000000000000000000000000000000000000008152600401611e3590614b13565b60405180910390fd5b600981604051611e4e9190614740565b908152602001604051809103902060020160009054906101000a900473ffffffffffffffffffffffffffffffffffffffff1673ffffffffffffffffffffffffffffffffffffffff163373ffffffffffffffffffffffffffffffffffffffff161480611eeb57503373ffffffffffffffffffffffffffffffffffffffff16611ed3611fbb565b73ffffffffffffffffffffffffffffffffffffffff16145b611f2a576040517f08c379a0000000000000000000000000000000000000000000000000000000008152600401611f2190614993565b60405180910390fd5b6000600983604051611f3c9190614740565b9081526020016040518091039020600001549050611f5b333083612d5a565b3073ffffffffffffffffffffffffffffffffffffffff163373ffffffffffffffffffffffffffffffffffffffff16827f2c193914ffab78d33c96937fec19b6900903ca752d1d16df0395fe8b56cfac8c60405160405180910390a4505050565b6000600760009054906101000a900473ffffffffffffffffffffffffffffffffffffffff16905090565b81600081511161202a576040517f08c379a000000000000000000000000000000000000000000000000000000000815260040161202190614b73565b60405180910390fd5b61205460098260405161203d9190614740565b908152602001604051809103902060000154612b4f565b612093576040517f08c379a000000000000000000000000000000000000000000000000000000000815260040161208a90614b13565b60405180910390fd5b6009816040516120a39190614740565b908152602001604051809103902060020160009054906101000a900473ffffffffffffffffffffffffffffffffffffffff1673ffffffffffffffffffffffffffffffffffffffff163373ffffffffffffffffffffffffffffffffffffffff16148061214057503373ffffffffffffffffffffffffffffffffffffffff16612128611fbb565b73ffffffffffffffffffffffffffffffffffffffff16145b61217f576040517f08c379a000000000000000000000000000000000000000000000000000000000815260040161217690614993565b60405180910390fd5b816009846040516121909190614740565b9081526020016040518091039020600601819055506009836040516121b59190614740565b9081526020016040518091039020600001547f6659833065c5adcb2a4c3711b4a04eb23c358af7bc1b0fe0d04ca75ce9076ba1836040516121f69190614bb5565b60405180910390a2505050565b60606001805461221290614ed1565b80601f016020809104026020016040519081016040528092919081815260200182805461223e90614ed1565b801561228b5780601f106122605761010080835404028352916020019161228b565b820191906000526020600020905b81548152906001019060200180831161226e57829003601f168201915b5050505050905090565b6009818051602081018201805184825260208301602085012081835280955050505050506000915090508060000154908060010180546122d490614ed1565b80601f016020809104026020016040519081016040528092919081815260200182805461230090614ed1565b801561234d5780601f106123225761010080835404028352916020019161234d565b820191906000526020600020905b81548152906001019060200180831161233057829003601f168201915b5050505050908060020160009054906101000a900473ffffffffffffffffffffffffffffffffffffffff16908060030154908060040154908060050160009054906101000a900460ff1690806006015490806007015490806008015490806009015490508a565b60085481565b6123cc6123c5612bbb565b838361331b565b5050565b6123e16123db612bbb565b83612c7c565b612420576040517f08c379a000000000000000000000000000000000000000000000000000000000815260040161241790614b33565b60405180910390fd5b61242c84848484613488565b50505050565b60006009826040516124449190614740565b908152602001604051809103902090506124618160000154612b4f565b6124a0576040517f08c379a000000000000000000000000000000000000000000000000000000000815260040161249790614b13565b60405180910390fd5b60008160090154905060008260020160009054906101000a900473ffffffffffffffffffffffffffffffffffffffff1690506000339050823414612519576040517f08c379a000000000000000000000000000000000000000000000000000000000815260040161251090614b53565b60405180910390fd5b61252830338660000154612d5a565b808460020160006101000a81548173ffffffffffffffffffffffffffffffffffffffff021916908373ffffffffffffffffffffffffffffffffffffffff16021790555060008460050160006101000a81548160ff0219169083151502179055508173ffffffffffffffffffffffffffffffffffffffff166108fc349081150290604051600060405180830381858888f193505050501580156125ce573d6000803e3d6000fd5b505050505050565b60606125e182612b4f565b612620576040517f08c379a000000000000000000000000000000000000000000000000000000000815260040161261790614a73565b60405180910390fd5b600060066000848152602001908152602001600020805461264090614ed1565b80601f016020809104026020016040519081016040528092919081815260200182805461266c90614ed1565b80156126b95780601f1061268e576101008083540402835291602001916126b9565b820191906000526020600020905b81548152906001019060200180831161269c57829003601f168201915b5050505050905060006126ca6134e4565b90506000815114156126e0578192505050612723565b6000825111156127155780826040516020016126fd929190614757565b60405160208183030381529060405292505050612723565b61271e846134fb565b925050505b919050565b81600081511161276d576040517f08c379a000000000000000000000000000000000000000000000000000000000815260040161276490614b73565b60405180910390fd5b6127976009826040516127809190614740565b908152602001604051809103902060000154612b4f565b6127d6576040517f08c379a00000000000000000000000000000000000000000000000000000000081526004016127cd90614b13565b60405180910390fd5b6009816040516127e69190614740565b908152602001604051809103902060020160009054906101000a900473ffffffffffffffffffffffffffffffffffffffff1673ffffffffffffffffffffffffffffffffffffffff163373ffffffffffffffffffffffffffffffffffffffff16148061288357503373ffffffffffffffffffffffffffffffffffffffff1661286b611fbb565b73ffffffffffffffffffffffffffffffffffffffff16145b6128c2576040517f08c379a00000000000000000000000000000000000000000000000000000000081526004016128b990614993565b60405180910390fd5b816009846040516128d39190614740565b908152602001604051809103902060050160006101000a81548160ff02191690831515021790555060098360405161290b9190614740565b9081526020016040518091039020600001547f424e7b0d93f2668ac443a22364c7fe58a632fd614b4fb55ee2ac77c8a46251278360405161294c91906147e2565b60405180910390a2505050565b6000600560008473ffffffffffffffffffffffffffffffffffffffff1673ffffffffffffffffffffffffffffffffffffffff16815260200190815260200160002060008373ffffffffffffffffffffffffffffffffffffffff1673ffffffffffffffffffffffffffffffffffffffff16815260200190815260200160002060009054906101000a900460ff16905092915050565b6129f5612bbb565b73ffffffffffffffffffffffffffffffffffffffff16612a13611fbb565b73ffffffffffffffffffffffffffffffffffffffff1614612a69576040517f08c379a0000000000000000000000000000000000000000000000000000000008152600401612a6090614ab3565b60405180910390fd5b600073ffffffffffffffffffffffffffffffffffffffff168173ffffffffffffffffffffffffffffffffffffffff161415612ad9576040517f08c379a0000000000000000000000000000000000000000000000000000000008152600401612ad0906148d3565b60405180910390fd5b612ae281613035565b50565b60007f01ffc9a7000000000000000000000000000000000000000000000000000000007bffffffffffffffffffffffffffffffffffffffffffffffffffffffff1916827bffffffffffffffffffffffffffffffffffffffffffffffffffffffff1916149050919050565b60008073ffffffffffffffffffffffffffffffffffffffff166002600084815260200190815260200160002060009054906101000a900473ffffffffffffffffffffffffffffffffffffffff1673ffffffffffffffffffffffffffffffffffffffff1614159050919050565b600033905090565b816004600083815260200190815260200160002060006101000a81548173ffffffffffffffffffffffffffffffffffffffff021916908373ffffffffffffffffffffffffffffffffffffffff160217905550808273ffffffffffffffffffffffffffffffffffffffff16612c368361138f565b73ffffffffffffffffffffffffffffffffffffffff167f8c5be1e5ebec7d5bd14f71427d1e84f3dd0314c0f7b2291e5b200ac8c7c3b92560405160405180910390a45050565b6000612c8782612b4f565b612cc6576040517f08c379a0000000000000000000000000000000000000000000000000000000008152600401612cbd90614973565b60405180910390fd5b6000612cd18361138f565b90508073ffffffffffffffffffffffffffffffffffffffff168473ffffffffffffffffffffffffffffffffffffffff161480612d4057508373ffffffffffffffffffffffffffffffffffffffff16612d28846108f5565b73ffffffffffffffffffffffffffffffffffffffff16145b80612d515750612d508185612959565b5b91505092915050565b8273ffffffffffffffffffffffffffffffffffffffff16612d7a8261138f565b73ffffffffffffffffffffffffffffffffffffffff1614612dd0576040517f08c379a0000000000000000000000000000000000000000000000000000000008152600401612dc7906148f3565b60405180910390fd5b600073ffffffffffffffffffffffffffffffffffffffff168273ffffffffffffffffffffffffffffffffffffffff161415612e40576040517f08c379a0000000000000000000000000000000000000000000000000000000008152600401612e3790614933565b60405180910390fd5b612e4b8383836135a2565b612e56600082612bc3565b6001600360008573ffffffffffffffffffffffffffffffffffffffff1673ffffffffffffffffffffffffffffffffffffffff1681526020019081526020016000206000828254612ea69190614dd5565b925050819055506001600360008473ffffffffffffffffffffffffffffffffffffffff1673ffffffffffffffffffffffffffffffffffffffff1681526020019081526020016000206000828254612efd9190614d4e565b92505081905550816002600083815260200190815260200160002060006101000a81548173ffffffffffffffffffffffffffffffffffffffff021916908373ffffffffffffffffffffffffffffffffffffffff160217905550808273ffffffffffffffffffffffffffffffffffffffff168473ffffffffffffffffffffffffffffffffffffffff167fddf252ad1be2c89b69c2b068fc378daa952ba7f163c4a11628f55a4df523b3ef60405160405180910390a4612fbc8383836135a7565b505050565b612fca82612b4f565b613009576040517f08c379a000000000000000000000000000000000000000000000000000000000815260040161300090614a33565b60405180910390fd5b80600660008481526020019081526020016000209080519060200190613030929190613bb3565b505050565b6000600760009054906101000a900473ffffffffffffffffffffffffffffffffffffffff16905081600760006101000a81548173ffffffffffffffffffffffffffffffffffffffff021916908373ffffffffffffffffffffffffffffffffffffffff1602179055508173ffffffffffffffffffffffffffffffffffffffff168173ffffffffffffffffffffffffffffffffffffffff167f8be0079c531659141344cd1fd0a4f28419497f9722a3daafe3b4186f6b6457e060405160405180910390a35050565b6131158282604051806020016040528060008152506135ac565b5050565b60008711806131285750600086115b806131335750600081115b613172576040517f08c379a0000000000000000000000000000000000000000000000000000000008152600401613169906149b3565b60405180910390fd5b6040518061014001604052808a81526020018981526020013373ffffffffffffffffffffffffffffffffffffffff1681526020018881526020018781526020018615158152602001858152602001848152602001838152602001828152506009896040516131e09190614740565b9081526020016040518091039020600082015181600001556020820151816001019080519060200190613214929190613bb3565b5060408201518160020160006101000a81548173ffffffffffffffffffffffffffffffffffffffff021916908373ffffffffffffffffffffffffffffffffffffffff160217905550606082015181600301556080820151816004015560a08201518160050160006101000a81548160ff02191690831515021790555060c0820151816006015560e08201518160070155610100820151816008015561012082015181600901559050506132c833308b612d5a565b887f79f1d2d993eaa677379d15b5c6702a69591d2f2dd1709dd51e531af20d583f5c89308a8a8a8a8a8a8a6040516133089998979695949392919061481f565b60405180910390a2505050505050505050565b8173ffffffffffffffffffffffffffffffffffffffff168373ffffffffffffffffffffffffffffffffffffffff16141561338a576040517f08c379a000000000000000000000000000000000000000000000000000000000815260040161338190614953565b60405180910390fd5b80600560008573ffffffffffffffffffffffffffffffffffffffff1673ffffffffffffffffffffffffffffffffffffffff16815260200190815260200160002060008473ffffffffffffffffffffffffffffffffffffffff1673ffffffffffffffffffffffffffffffffffffffff16815260200190815260200160002060006101000a81548160ff0219169083151502179055508173ffffffffffffffffffffffffffffffffffffffff168373ffffffffffffffffffffffffffffffffffffffff167f17307eab39ab6107e8899845ad3d59bd9653f200f220920489ca2b5937696c318360405161347b91906147e2565b60405180910390a3505050565b613493848484612d5a565b61349f84848484613607565b6134de576040517f08c379a00000000000000000000000000000000000000000000000000000000081526004016134d5906148b3565b60405180910390fd5b50505050565b606060405180602001604052806000815250905090565b606061350682612b4f565b613545576040517f08c379a000000000000000000000000000000000000000000000000000000000815260040161353c90614ad3565b60405180910390fd5b600061354f6134e4565b9050600081511161356f576040518060200160405280600081525061359a565b806135798461379e565b60405160200161358a929190614757565b6040516020818303038152906040525b915050919050565b505050565b505050565b6135b6838361394b565b6135c36000848484613607565b613602576040517f08c379a00000000000000000000000000000000000000000000000000000000081526004016135f9906148b3565b60405180910390fd5b505050565b60006136288473ffffffffffffffffffffffffffffffffffffffff16613b25565b15613791578373ffffffffffffffffffffffffffffffffffffffff1663150b7a02613651612bbb565b8786866040518563ffffffff1660e01b81526004016136739493929190614796565b602060405180830381600087803b15801561368d57600080fd5b505af19250505080156136be57506040513d601f19601f820116820180604052508101906136bb9190613f5f565b60015b613741573d80600081146136ee576040519150601f19603f3d011682016040523d82523d6000602084013e6136f3565b606091505b50600081511415613739576040517f08c379a0000000000000000000000000000000000000000000000000000000008152600401613730906148b3565b60405180910390fd5b805181602001fd5b63150b7a0260e01b7bffffffffffffffffffffffffffffffffffffffffffffffffffffffff1916817bffffffffffffffffffffffffffffffffffffffffffffffffffffffff191614915050613796565b600190505b949350505050565b606060008214156137e6576040518060400160405280600181526020017f30000000000000000000000000000000000000000000000000000000000000008152509050613946565b600082905060005b6000821461381857808061380190614f34565b915050600a826138119190614da4565b91506137ee565b60008167ffffffffffffffff81111561385a577f4e487b7100000000000000000000000000000000000000000000000000000000600052604160045260246000fd5b6040519080825280601f01601f19166020018201604052801561388c5781602001600182028036833780820191505090505b5090505b6000851461393f576001826138a59190614dd5565b9150600a856138b49190614f7d565b60306138c09190614d4e565b60f81b8183815181106138fc577f4e487b7100000000000000000000000000000000000000000000000000000000600052603260045260246000fd5b60200101907effffffffffffffffffffffffffffffffffffffffffffffffffffffffffffff1916908160001a905350600a856139389190614da4565b9450613890565b8093505050505b919050565b600073ffffffffffffffffffffffffffffffffffffffff168273ffffffffffffffffffffffffffffffffffffffff1614156139bb576040517f08c379a00000000000000000000000000000000000000000000000000000000081526004016139b290614a53565b60405180910390fd5b6139c481612b4f565b15613a04576040517f08c379a00000000000000000000000000000000000000000000000000000000081526004016139fb90614913565b60405180910390fd5b613a10600083836135a2565b6001600360008473ffffffffffffffffffffffffffffffffffffffff1673ffffffffffffffffffffffffffffffffffffffff1681526020019081526020016000206000828254613a609190614d4e565b92505081905550816002600083815260200190815260200160002060006101000a81548173ffffffffffffffffffffffffffffffffffffffff021916908373ffffffffffffffffffffffffffffffffffffffff160217905550808273ffffffffffffffffffffffffffffffffffffffff16600073ffffffffffffffffffffffffffffffffffffffff167fddf252ad1be2c89b69c2b068fc378daa952ba7f163c4a11628f55a4df523b3ef60405160405180910390a4613b21600083836135a7565b5050565b6000808273ffffffffffffffffffffffffffffffffffffffff163b119050919050565b6040518061014001604052806000815260200160608152602001600073ffffffffffffffffffffffffffffffffffffffff1681526020016000815260200160008152602001600015158152602001600081526020016000815260200160008152602001600081525090565b828054613bbf90614ed1565b90600052602060002090601f016020900481019282613be15760008555613c28565b82601f10613bfa57805160ff1916838001178555613c28565b82800160010185558215613c28579182015b82811115613c27578251825591602001919060010190613c0c565b5b509050613c359190613c39565b5090565b5b80821115613c52576000816000905550600101613c3a565b5090565b6000613c69613c6484614c98565b614c73565b905082815260208101848484011115613c8157600080fd5b613c8c848285614e8f565b509392505050565b6000613ca7613ca284614cc9565b614c73565b905082815260208101848484011115613cbf57600080fd5b613cca848285614e8f565b509392505050565b600081359050613ce18161563e565b92915050565b600081359050613cf681615655565b92915050565b600081359050613d0b8161566c565b92915050565b600081519050613d208161566c565b92915050565b600082601f830112613d3757600080fd5b8135613d47848260208601613c56565b91505092915050565b600082601f830112613d6157600080fd5b8135613d71848260208601613c94565b91505092915050565b600081359050613d8981615683565b92915050565b600060208284031215613da157600080fd5b6000613daf84828501613cd2565b91505092915050565b60008060408385031215613dcb57600080fd5b6000613dd985828601613cd2565b9250506020613dea85828601613cd2565b9150509250929050565b600080600060608486031215613e0957600080fd5b6000613e1786828701613cd2565b9350506020613e2886828701613cd2565b9250506040613e3986828701613d7a565b9150509250925092565b60008060008060808587031215613e5957600080fd5b6000613e6787828801613cd2565b9450506020613e7887828801613cd2565b9350506040613e8987828801613d7a565b925050606085013567ffffffffffffffff811115613ea657600080fd5b613eb287828801613d26565b91505092959194509250565b60008060408385031215613ed157600080fd5b6000613edf85828601613cd2565b9250506020613ef085828601613ce7565b9150509250929050565b60008060408385031215613f0d57600080fd5b6000613f1b85828601613cd2565b9250506020613f2c85828601613d7a565b9150509250929050565b600060208284031215613f4857600080fd5b6000613f5684828501613cfc565b91505092915050565b600060208284031215613f7157600080fd5b6000613f7f84828501613d11565b91505092915050565b600060208284031215613f9a57600080fd5b600082013567ffffffffffffffff811115613fb457600080fd5b613fc084828501613d50565b91505092915050565b60008060408385031215613fdc57600080fd5b600083013567ffffffffffffffff811115613ff657600080fd5b61400285828601613d50565b925050602061401385828601613ce7565b9150509250929050565b6000806040838503121561403057600080fd5b600083013567ffffffffffffffff81111561404a57600080fd5b61405685828601613d50565b925050602083013567ffffffffffffffff81111561407357600080fd5b61407f85828601613d50565b9150509250929050565b60008060008060008060008060006101208a8c0312156140a857600080fd5b60008a013567ffffffffffffffff8111156140c257600080fd5b6140ce8c828d01613d50565b99505060208a013567ffffffffffffffff8111156140eb57600080fd5b6140f78c828d01613d50565b98505060406141088c828d01613d7a565b97505060606141198c828d01613d7a565b965050608061412a8c828d01613ce7565b95505060a061413b8c828d01613d7a565b94505060c061414c8c828d01613d7a565b93505060e061415d8c828d01613d7a565b92505061010061416f8c828d01613d7a565b9150509295985092959850929598565b6000806040838503121561419257600080fd5b600083013567ffffffffffffffff8111156141ac57600080fd5b6141b885828601613d50565b92505060206141c985828601613d7a565b9150509250929050565b6000602082840312156141e557600080fd5b60006141f384828501613d7a565b91505092915050565b61420581614e1b565b82525050565b61421481614e1b565b82525050565b61422381614e09565b82525050565b61423281614e2d565b82525050565b61424181614e2d565b82525050565b600061425282614cfa565b61425c8185614d10565b935061426c818560208601614e9e565b6142758161506a565b840191505092915050565b600061428b82614d05565b6142958185614d21565b93506142a5818560208601614e9e565b6142ae8161506a565b840191505092915050565b60006142c482614d05565b6142ce8185614d32565b93506142de818560208601614e9e565b6142e78161506a565b840191505092915050565b60006142fd82614d05565b6143078185614d43565b9350614317818560208601614e9e565b80840191505092915050565b6000614330603283614d32565b915061433b8261507b565b604082019050919050565b6000614353602683614d32565b915061435e826150ca565b604082019050919050565b6000614376602583614d32565b915061438182615119565b604082019050919050565b6000614399601c83614d32565b91506143a482615168565b602082019050919050565b60006143bc602483614d32565b91506143c782615191565b604082019050919050565b60006143df601983614d32565b91506143ea826151e0565b602082019050919050565b6000614402602c83614d32565b915061440d82615209565b604082019050919050565b6000614425600d83614d32565b915061443082615258565b602082019050919050565b6000614448600983614d32565b915061445382615281565b602082019050919050565b600061446b603883614d32565b9150614476826152aa565b604082019050919050565b600061448e602a83614d32565b9150614499826152f9565b604082019050919050565b60006144b1602983614d32565b91506144bc82615348565b604082019050919050565b60006144d4602e83614d32565b91506144df82615397565b604082019050919050565b60006144f7602083614d32565b9150614502826153e6565b602082019050919050565b600061451a603183614d32565b91506145258261540f565b604082019050919050565b600061453d602c83614d32565b91506145488261545e565b604082019050919050565b6000614560602083614d32565b915061456b826154ad565b602082019050919050565b6000614583602f83614d32565b915061458e826154d6565b604082019050919050565b60006145a6602183614d32565b91506145b182615525565b604082019050919050565b60006145c9601083614d32565b91506145d482615574565b602082019050919050565b60006145ec603183614d32565b91506145f78261559d565b604082019050919050565b600061460f600b83614d32565b915061461a826155ec565b602082019050919050565b6000614632600a83614d32565b915061463d82615615565b602082019050919050565b6000610140830160008301516146616000860182614722565b50602083015184820360208601526146798282614280565b915050604083015161468e60408601826141fc565b5060608301516146a16060860182614722565b5060808301516146b46080860182614722565b5060a08301516146c760a0860182614229565b5060c08301516146da60c0860182614722565b5060e08301516146ed60e0860182614722565b50610100830151614702610100860182614722565b50610120830151614717610120860182614722565b508091505092915050565b61472b81614e85565b82525050565b61473a81614e85565b82525050565b600061474c82846142f2565b915081905092915050565b600061476382856142f2565b915061476f82846142f2565b91508190509392505050565b6000602082019050614790600083018461421a565b92915050565b60006080820190506147ab600083018761421a565b6147b8602083018661421a565b6147c56040830185614731565b81810360608301526147d78184614247565b905095945050505050565b60006020820190506147f76000830184614238565b92915050565b6000602082019050818103600083015261481781846142b9565b905092915050565b600061012082019050818103600083015261483a818c6142b9565b9050614849602083018b61421a565b614856604083018a614731565b6148636060830189614731565b6148706080830188614238565b61487d60a0830187614731565b61488a60c0830186614731565b61489760e0830185614731565b6148a5610100830184614731565b9a9950505050505050505050565b600060208201905081810360008301526148cc81614323565b9050919050565b600060208201905081810360008301526148ec81614346565b9050919050565b6000602082019050818103600083015261490c81614369565b9050919050565b6000602082019050818103600083015261492c8161438c565b9050919050565b6000602082019050818103600083015261494c816143af565b9050919050565b6000602082019050818103600083015261496c816143d2565b9050919050565b6000602082019050818103600083015261498c816143f5565b9050919050565b600060208201905081810360008301526149ac81614418565b9050919050565b600060208201905081810360008301526149cc8161443b565b9050919050565b600060208201905081810360008301526149ec8161445e565b9050919050565b60006020820190508181036000830152614a0c81614481565b9050919050565b60006020820190508181036000830152614a2c816144a4565b9050919050565b60006020820190508181036000830152614a4c816144c7565b9050919050565b60006020820190508181036000830152614a6c816144ea565b9050919050565b60006020820190508181036000830152614a8c8161450d565b9050919050565b60006020820190508181036000830152614aac81614530565b9050919050565b60006020820190508181036000830152614acc81614553565b9050919050565b60006020820190508181036000830152614aec81614576565b9050919050565b60006020820190508181036000830152614b0c81614599565b9050919050565b60006020820190508181036000830152614b2c816145bc565b9050919050565b60006020820190508181036000830152614b4c816145df565b9050919050565b60006020820190508181036000830152614b6c81614602565b9050919050565b60006020820190508181036000830152614b8c81614625565b9050919050565b60006020820190508181036000830152614bad8184614648565b905092915050565b6000602082019050614bca6000830184614731565b92915050565b600061014082019050614be6600083018d614731565b8181036020830152614bf8818c6142b9565b9050614c07604083018b61420b565b614c14606083018a614731565b614c216080830189614731565b614c2e60a0830188614238565b614c3b60c0830187614731565b614c4860e0830186614731565b614c56610100830185614731565b614c64610120830184614731565b9b9a5050505050505050505050565b6000614c7d614c8e565b9050614c898282614f03565b919050565b6000604051905090565b600067ffffffffffffffff821115614cb357614cb261503b565b5b614cbc8261506a565b9050602081019050919050565b600067ffffffffffffffff821115614ce457614ce361503b565b5b614ced8261506a565b9050602081019050919050565b600081519050919050565b600081519050919050565b600082825260208201905092915050565b600082825260208201905092915050565b600082825260208201905092915050565b600081905092915050565b6000614d5982614e85565b9150614d6483614e85565b9250827fffffffffffffffffffffffffffffffffffffffffffffffffffffffffffffffff03821115614d9957614d98614fae565b5b828201905092915050565b6000614daf82614e85565b9150614dba83614e85565b925082614dca57614dc9614fdd565b5b828204905092915050565b6000614de082614e85565b9150614deb83614e85565b925082821015614dfe57614dfd614fae565b5b828203905092915050565b6000614e1482614e65565b9050919050565b6000614e2682614e65565b9050919050565b60008115159050919050565b60007fffffffff0000000000000000000000000000000000000000000000000000000082169050919050565b600073ffffffffffffffffffffffffffffffffffffffff82169050919050565b6000819050919050565b82818337600083830152505050565b60005b83811015614ebc578082015181840152602081019050614ea1565b83811115614ecb576000848401525b50505050565b60006002820490506001821680614ee957607f821691505b60208210811415614efd57614efc61500c565b5b50919050565b614f0c8261506a565b810181811067ffffffffffffffff82111715614f2b57614f2a61503b565b5b80604052505050565b6000614f3f82614e85565b91507fffffffffffffffffffffffffffffffffffffffffffffffffffffffffffffffff821415614f7257614f71614fae565b5b600182019050919050565b6000614f8882614e85565b9150614f9383614e85565b925082614fa357614fa2614fdd565b5b828206905092915050565b7f4e487b7100000000000000000000000000000000000000000000000000000000600052601160045260246000fd5b7f4e487b7100000000000000000000000000000000000000000000000000000000600052601260045260246000fd5b7f4e487b7100000000000000000000000000000000000000000000000000000000600052602260045260246000fd5b7f4e487b7100000000000000000000000000000000000000000000000000000000600052604160045260246000fd5b6000601f19601f8301169050919050565b7f4552433732313a207472616e7366657220746f206e6f6e20455243373231526560008201527f63656976657220696d706c656d656e7465720000000000000000000000000000602082015250565b7f4f776e61626c653a206e6577206f776e657220697320746865207a65726f206160008201527f6464726573730000000000000000000000000000000000000000000000000000602082015250565b7f4552433732313a207472616e736665722066726f6d20696e636f72726563742060008201527f6f776e6572000000000000000000000000000000000000000000000000000000602082015250565b7f4552433732313a20746f6b656e20616c7265616479206d696e74656400000000600082015250565b7f4552433732313a207472616e7366657220746f20746865207a65726f2061646460008201527f7265737300000000000000000000000000000000000000000000000000000000602082015250565b7f4552433732313a20617070726f766520746f2063616c6c657200000000000000600082015250565b7f4552433732313a206f70657261746f7220717565727920666f72206e6f6e657860008201527f697374656e7420746f6b656e0000000000000000000000000000000000000000602082015250565b7f43616c6c65722064656e69656400000000000000000000000000000000000000600082015250565b7f7072696365203e20300000000000000000000000000000000000000000000000600082015250565b7f4552433732313a20617070726f76652063616c6c6572206973206e6f74206f7760008201527f6e6572206e6f7220617070726f76656420666f7220616c6c0000000000000000602082015250565b7f4552433732313a2062616c616e636520717565727920666f7220746865207a6560008201527f726f206164647265737300000000000000000000000000000000000000000000602082015250565b7f4552433732313a206f776e657220717565727920666f72206e6f6e657869737460008201527f656e7420746f6b656e0000000000000000000000000000000000000000000000602082015250565b7f45524337323155524953746f726167653a2055524920736574206f66206e6f6e60008201527f6578697374656e7420746f6b656e000000000000000000000000000000000000602082015250565b7f4552433732313a206d696e7420746f20746865207a65726f2061646472657373600082015250565b7f45524337323155524953746f726167653a2055524920717565727920666f722060008201527f6e6f6e6578697374656e7420746f6b656e000000000000000000000000000000602082015250565b7f4552433732313a20617070726f76656420717565727920666f72206e6f6e657860008201527f697374656e7420746f6b656e0000000000000000000000000000000000000000602082015250565b7f4f776e61626c653a2063616c6c6572206973206e6f7420746865206f776e6572600082015250565b7f4552433732314d657461646174613a2055524920717565727920666f72206e6f60008201527f6e6578697374656e7420746f6b656e0000000000000000000000000000000000602082015250565b7f4552433732313a20617070726f76616c20746f2063757272656e74206f776e6560008201527f7200000000000000000000000000000000000000000000000000000000000000602082015250565b7f494420646f65736e277420657869737400000000000000000000000000000000600082015250565b7f4552433732313a207472616e736665722063616c6c6572206973206e6f74206f60008201527f776e6572206e6f7220617070726f766564000000000000000000000000000000602082015250565b7f7072696365206973737565000000000000000000000000000000000000000000600082015250565b7f5555494420697373756500000000000000000000000000000000000000000000600082015250565b61564781614e09565b811461565257600080fd5b50565b61565e81614e2d565b811461566957600080fd5b50565b61567581614e39565b811461568057600080fd5b50565b61568c81614e85565b811461569757600080fd5b5056fea264697066735822122062a99b47e3a87893e88565ab8d30af80036a4299c169014e6a8bb363d8216a6364736f6c63430008040033",
  "linkReferences": {},
  "deployedLinkReferences": {}
}