{
  "_format": "hh-sol-artifact-1",
  "contractName": "Ahoy",
  "sourceName": "src/backend/contracts/Ahoy.sol",
  "abi": [
    {
      "inputs": [],
      "stateMutability": "nonpayable",
      "type": "constructor"
    },
    {
      "anonymous": false,
      "inputs": [
        {
          "indexed": true,
          "internalType": "address",
          "name": "owner",
          "type": "address"
        },
        {
          "indexed": true,
          "internalType": "address",
          "name": "approved",
          "type": "address"
        },
        {
          "indexed": true,
          "internalType": "uint256",
          "name": "tokenId",
          "type": "uint256"
        }
      ],
      "name": "Approval",
      "type": "event"
    },
    {
      "anonymous": false,
      "inputs": [
        {
          "indexed": true,
          "internalType": "address",
          "name": "owner",
          "type": "address"
        },
        {
          "indexed": true,
          "internalType": "address",
          "name": "operator",
          "type": "address"
        },
        {
          "indexed": false,
          "internalType": "bool",
          "name": "approved",
          "type": "bool"
        }
      ],
      "name": "ApprovalForAll",
      "type": "event"
    },
    {
      "anonymous": false,
      "inputs": [
        {
          "indexed": true,
          "internalType": "uint256",
          "name": "boatId",
          "type": "uint256"
        },
        {
          "indexed": false,
          "internalType": "address",
          "name": "owner",
          "type": "address"
        },
        {
          "indexed": false,
          "internalType": "uint256",
          "name": "hourlyPrice",
          "type": "uint256"
        },
        {
          "indexed": false,
          "internalType": "uint256",
          "name": "dailyPrice",
          "type": "uint256"
        },
        {
          "indexed": false,
          "internalType": "bool",
          "name": "currentlyListed",
          "type": "bool"
        },
        {
          "indexed": false,
          "internalType": "uint256",
          "name": "refundabilityPeriod",
          "type": "uint256"
        },
        {
          "indexed": false,
          "internalType": "uint256",
          "name": "deposit",
          "type": "uint256"
        },
        {
          "indexed": false,
          "internalType": "uint256",
          "name": "closedPeriod",
          "type": "uint256"
        },
        {
          "indexed": false,
          "internalType": "uint256",
          "name": "sellPrice",
          "type": "uint256"
        }
      ],
      "name": "BoatListedSuccess",
      "type": "event"
    },
    {
      "anonymous": false,
      "inputs": [
        {
          "indexed": true,
          "internalType": "uint256",
          "name": "boatId",
          "type": "uint256"
        },
        {
          "indexed": false,
          "internalType": "uint256",
          "name": "newClosedPeriod",
          "type": "uint256"
        }
      ],
      "name": "ClosedPeriodUpdated",
      "type": "event"
    },
    {
      "anonymous": false,
      "inputs": [
        {
          "indexed": true,
          "internalType": "uint256",
          "name": "boatId",
          "type": "uint256"
        },
        {
          "indexed": false,
          "internalType": "bool",
          "name": "newCurrentlyListed",
          "type": "bool"
        }
      ],
      "name": "CurrentlyListedUpdated",
      "type": "event"
    },
    {
      "anonymous": false,
      "inputs": [
        {
          "indexed": true,
          "internalType": "uint256",
          "name": "boatId",
          "type": "uint256"
        },
        {
          "indexed": false,
          "internalType": "uint256",
          "name": "newDailyPrice",
          "type": "uint256"
        }
      ],
      "name": "DailyPriceUpdated",
      "type": "event"
    },
    {
      "anonymous": false,
      "inputs": [
        {
          "indexed": true,
          "internalType": "uint256",
          "name": "boatId",
          "type": "uint256"
        },
        {
          "indexed": false,
          "internalType": "uint256",
          "name": "newHourlyPrice",
          "type": "uint256"
        }
      ],
      "name": "HourlyPriceUpdated",
      "type": "event"
    },
    {
      "anonymous": false,
      "inputs": [
        {
          "indexed": true,
          "internalType": "uint256",
          "name": "boatId",
          "type": "uint256"
        },
        {
          "indexed": false,
          "internalType": "uint256",
          "name": "newRefundabilityPeriod",
          "type": "uint256"
        }
      ],
      "name": "RefundabilityPeriodUpdated",
      "type": "event"
    },
    {
      "anonymous": false,
      "inputs": [
        {
          "indexed": true,
          "internalType": "address",
          "name": "from",
          "type": "address"
        },
        {
          "indexed": true,
          "internalType": "address",
          "name": "to",
          "type": "address"
        },
        {
          "indexed": true,
          "internalType": "uint256",
          "name": "tokenId",
          "type": "uint256"
        }
      ],
      "name": "Transfer",
      "type": "event"
    },
    {
      "anonymous": false,
      "inputs": [
        {
          "indexed": true,
          "internalType": "uint256",
          "name": "boatId",
          "type": "uint256"
        },
        {
          "indexed": false,
          "internalType": "uint256",
          "name": "newDepositPrice",
          "type": "uint256"
        }
      ],
      "name": "depositUpdated",
      "type": "event"
    },
    {
      "anonymous": false,
      "inputs": [
        {
          "indexed": true,
          "internalType": "uint256",
          "name": "boatId",
          "type": "uint256"
        },
        {
          "indexed": false,
          "internalType": "uint256",
          "name": "newSellPrice",
          "type": "uint256"
        }
      ],
      "name": "sellPriceUpdated",
      "type": "event"
    },
    {
      "inputs": [
        {
          "internalType": "address",
          "name": "to",
          "type": "address"
        },
        {
          "internalType": "uint256",
          "name": "tokenId",
          "type": "uint256"
        }
      ],
      "name": "approve",
      "outputs": [],
      "stateMutability": "nonpayable",
      "type": "function"
    },
    {
      "inputs": [
        {
          "internalType": "address",
          "name": "owner",
          "type": "address"
        }
      ],
      "name": "balanceOf",
      "outputs": [
        {
          "internalType": "uint256",
          "name": "",
          "type": "uint256"
        }
      ],
      "stateMutability": "view",
      "type": "function"
    },
    {
      "inputs": [
        {
          "internalType": "uint256",
          "name": "",
          "type": "uint256"
        }
      ],
      "name": "boats",
      "outputs": [
        {
          "internalType": "uint256",
          "name": "boatId",
          "type": "uint256"
        },
        {
          "internalType": "address payable",
          "name": "owner",
          "type": "address"
        },
        {
          "internalType": "uint256",
          "name": "hourlyPrice",
          "type": "uint256"
        },
        {
          "internalType": "uint256",
          "name": "dailyPrice",
          "type": "uint256"
        },
        {
          "internalType": "bool",
          "name": "currentlyListed",
          "type": "bool"
        },
        {
          "internalType": "uint256",
          "name": "refundabilityPeriod",
          "type": "uint256"
        },
        {
          "internalType": "uint256",
          "name": "deposit",
          "type": "uint256"
        },
        {
          "internalType": "uint256",
          "name": "closedPeriod",
          "type": "uint256"
        },
        {
          "internalType": "uint256",
          "name": "sellPrice",
          "type": "uint256"
        }
      ],
      "stateMutability": "view",
      "type": "function"
    },
    {
      "inputs": [
        {
          "internalType": "uint256",
          "name": "boatId",
          "type": "uint256"
        }
      ],
      "name": "executeSale",
      "outputs": [],
      "stateMutability": "payable",
      "type": "function"
    },
    {
      "inputs": [],
      "name": "getAllNFTs",
      "outputs": [
        {
          "components": [
            {
              "internalType": "uint256",
              "name": "boatId",
              "type": "uint256"
            },
            {
              "internalType": "address payable",
              "name": "owner",
              "type": "address"
            },
            {
              "internalType": "uint256",
              "name": "hourlyPrice",
              "type": "uint256"
            },
            {
              "internalType": "uint256",
              "name": "dailyPrice",
              "type": "uint256"
            },
            {
              "internalType": "bool",
              "name": "currentlyListed",
              "type": "bool"
            },
            {
              "internalType": "uint256",
              "name": "refundabilityPeriod",
              "type": "uint256"
            },
            {
              "internalType": "uint256",
              "name": "deposit",
              "type": "uint256"
            },
            {
              "internalType": "uint256",
              "name": "closedPeriod",
              "type": "uint256"
            },
            {
              "internalType": "uint256",
              "name": "sellPrice",
              "type": "uint256"
            }
          ],
          "internalType": "struct Ahoy.Boat[]",
          "name": "",
          "type": "tuple[]"
        }
      ],
      "stateMutability": "view",
      "type": "function"
    },
    {
      "inputs": [
        {
          "internalType": "uint256",
          "name": "tokenId",
          "type": "uint256"
        }
      ],
      "name": "getApproved",
      "outputs": [
        {
          "internalType": "address",
          "name": "",
          "type": "address"
        }
      ],
      "stateMutability": "view",
      "type": "function"
    },
    {
      "inputs": [
        {
          "internalType": "uint256",
          "name": "boatId",
          "type": "uint256"
        }
      ],
      "name": "getListedBoatForId",
      "outputs": [
        {
          "components": [
            {
              "internalType": "uint256",
              "name": "boatId",
              "type": "uint256"
            },
            {
              "internalType": "address payable",
              "name": "owner",
              "type": "address"
            },
            {
              "internalType": "uint256",
              "name": "hourlyPrice",
              "type": "uint256"
            },
            {
              "internalType": "uint256",
              "name": "dailyPrice",
              "type": "uint256"
            },
            {
              "internalType": "bool",
              "name": "currentlyListed",
              "type": "bool"
            },
            {
              "internalType": "uint256",
              "name": "refundabilityPeriod",
              "type": "uint256"
            },
            {
              "internalType": "uint256",
              "name": "deposit",
              "type": "uint256"
            },
            {
              "internalType": "uint256",
              "name": "closedPeriod",
              "type": "uint256"
            },
            {
              "internalType": "uint256",
              "name": "sellPrice",
              "type": "uint256"
            }
          ],
          "internalType": "struct Ahoy.Boat",
          "name": "",
          "type": "tuple"
        }
      ],
      "stateMutability": "view",
      "type": "function"
    },
    {
      "inputs": [],
      "name": "getMyNFTs",
      "outputs": [
        {
          "components": [
            {
              "internalType": "uint256",
              "name": "boatId",
              "type": "uint256"
            },
            {
              "internalType": "address payable",
              "name": "owner",
              "type": "address"
            },
            {
              "internalType": "uint256",
              "name": "hourlyPrice",
              "type": "uint256"
            },
            {
              "internalType": "uint256",
              "name": "dailyPrice",
              "type": "uint256"
            },
            {
              "internalType": "bool",
              "name": "currentlyListed",
              "type": "bool"
            },
            {
              "internalType": "uint256",
              "name": "refundabilityPeriod",
              "type": "uint256"
            },
            {
              "internalType": "uint256",
              "name": "deposit",
              "type": "uint256"
            },
            {
              "internalType": "uint256",
              "name": "closedPeriod",
              "type": "uint256"
            },
            {
              "internalType": "uint256",
              "name": "sellPrice",
              "type": "uint256"
            }
          ],
          "internalType": "struct Ahoy.Boat[]",
          "name": "",
          "type": "tuple[]"
        }
      ],
      "stateMutability": "view",
      "type": "function"
    },
    {
      "inputs": [],
      "name": "getOwner",
      "outputs": [
        {
          "internalType": "address",
          "name": "",
          "type": "address"
        }
      ],
      "stateMutability": "view",
      "type": "function"
    },
    {
      "inputs": [
        {
          "internalType": "address",
          "name": "owner",
          "type": "address"
        },
        {
          "internalType": "address",
          "name": "operator",
          "type": "address"
        }
      ],
      "name": "isApprovedForAll",
      "outputs": [
        {
          "internalType": "bool",
          "name": "",
          "type": "bool"
        }
      ],
      "stateMutability": "view",
      "type": "function"
    },
    {
      "inputs": [
        {
          "internalType": "string",
          "name": "tokenURI",
          "type": "string"
        },
        {
          "internalType": "uint256",
          "name": "hourlyPrice",
          "type": "uint256"
        },
        {
          "internalType": "uint256",
          "name": "dailyPrice",
          "type": "uint256"
        },
        {
          "internalType": "bool",
          "name": "currentlyListed",
          "type": "bool"
        },
        {
          "internalType": "uint256",
          "name": "refundabilityPeriod",
          "type": "uint256"
        },
        {
          "internalType": "uint256",
          "name": "deposit",
          "type": "uint256"
        },
        {
          "internalType": "uint256",
          "name": "closedPeriod",
          "type": "uint256"
        },
        {
          "internalType": "uint256",
          "name": "_sellPrice",
          "type": "uint256"
        }
      ],
      "name": "mint",
      "outputs": [
        {
          "internalType": "uint256",
          "name": "",
          "type": "uint256"
        }
      ],
      "stateMutability": "payable",
      "type": "function"
    },
    {
      "inputs": [],
      "name": "name",
      "outputs": [
        {
          "internalType": "string",
          "name": "",
          "type": "string"
        }
      ],
      "stateMutability": "view",
      "type": "function"
    },
    {
      "inputs": [
        {
          "internalType": "uint256",
          "name": "tokenId",
          "type": "uint256"
        }
      ],
      "name": "ownerOf",
      "outputs": [
        {
          "internalType": "address",
          "name": "",
          "type": "address"
        }
      ],
      "stateMutability": "view",
      "type": "function"
    },
    {
      "inputs": [
        {
          "internalType": "address",
          "name": "from",
          "type": "address"
        },
        {
          "internalType": "address",
          "name": "to",
          "type": "address"
        },
        {
          "internalType": "uint256",
          "name": "tokenId",
          "type": "uint256"
        }
      ],
      "name": "safeTransferFrom",
      "outputs": [],
      "stateMutability": "nonpayable",
      "type": "function"
    },
    {
      "inputs": [
        {
          "internalType": "address",
          "name": "from",
          "type": "address"
        },
        {
          "internalType": "address",
          "name": "to",
          "type": "address"
        },
        {
          "internalType": "uint256",
          "name": "tokenId",
          "type": "uint256"
        },
        {
          "internalType": "bytes",
          "name": "_data",
          "type": "bytes"
        }
      ],
      "name": "safeTransferFrom",
      "outputs": [],
      "stateMutability": "nonpayable",
      "type": "function"
    },
    {
      "inputs": [
        {
          "internalType": "address",
          "name": "operator",
          "type": "address"
        },
        {
          "internalType": "bool",
          "name": "approved",
          "type": "bool"
        }
      ],
      "name": "setApprovalForAll",
      "outputs": [],
      "stateMutability": "nonpayable",
      "type": "function"
    },
    {
      "inputs": [
        {
          "internalType": "bytes4",
          "name": "interfaceId",
          "type": "bytes4"
        }
      ],
      "name": "supportsInterface",
      "outputs": [
        {
          "internalType": "bool",
          "name": "",
          "type": "bool"
        }
      ],
      "stateMutability": "view",
      "type": "function"
    },
    {
      "inputs": [],
      "name": "symbol",
      "outputs": [
        {
          "internalType": "string",
          "name": "",
          "type": "string"
        }
      ],
      "stateMutability": "view",
      "type": "function"
    },
    {
      "inputs": [
        {
          "internalType": "uint256",
          "name": "tokenId",
          "type": "uint256"
        }
      ],
      "name": "tokenURI",
      "outputs": [
        {
          "internalType": "string",
          "name": "",
          "type": "string"
        }
      ],
      "stateMutability": "view",
      "type": "function"
    },
    {
      "inputs": [
        {
          "internalType": "address",
          "name": "from",
          "type": "address"
        },
        {
          "internalType": "address",
          "name": "to",
          "type": "address"
        },
        {
          "internalType": "uint256",
          "name": "tokenId",
          "type": "uint256"
        }
      ],
      "name": "transferFrom",
      "outputs": [],
      "stateMutability": "nonpayable",
      "type": "function"
    },
    {
      "inputs": [
        {
          "internalType": "uint256",
          "name": "boatId",
          "type": "uint256"
        },
        {
          "internalType": "uint256",
          "name": "newPeriod",
          "type": "uint256"
        }
      ],
      "name": "updateClosedPeriod",
      "outputs": [],
      "stateMutability": "nonpayable",
      "type": "function"
    },
    {
      "inputs": [
        {
          "internalType": "uint256",
          "name": "boatId",
          "type": "uint256"
        },
        {
          "internalType": "uint256",
          "name": "newDailyPrice",
          "type": "uint256"
        }
      ],
      "name": "updateDailyPrice",
      "outputs": [],
      "stateMutability": "nonpayable",
      "type": "function"
    },
    {
      "inputs": [
        {
          "internalType": "uint256",
          "name": "boatId",
          "type": "uint256"
        },
        {
          "internalType": "uint256",
          "name": "newDeposit",
          "type": "uint256"
        }
      ],
      "name": "updateDeposit",
      "outputs": [],
      "stateMutability": "nonpayable",
      "type": "function"
    },
    {
      "inputs": [
        {
          "internalType": "uint256",
          "name": "boatId",
          "type": "uint256"
        },
        {
          "internalType": "uint256",
          "name": "newHourlyPrice",
          "type": "uint256"
        }
      ],
      "name": "updateHourlyPrice",
      "outputs": [],
      "stateMutability": "nonpayable",
      "type": "function"
    },
    {
      "inputs": [
        {
          "internalType": "uint256",
          "name": "boatId",
          "type": "uint256"
        },
        {
          "internalType": "uint256",
          "name": "newPeriod",
          "type": "uint256"
        }
      ],
      "name": "updateRefundabilityPeriod",
      "outputs": [],
      "stateMutability": "nonpayable",
      "type": "function"
    },
    {
      "inputs": [
        {
          "internalType": "uint256",
          "name": "boatId",
          "type": "uint256"
        },
        {
          "internalType": "uint256",
          "name": "newSellPrice",
          "type": "uint256"
        }
      ],
      "name": "updateSellPrice",
      "outputs": [],
      "stateMutability": "nonpayable",
      "type": "function"
    },
    {
      "inputs": [
        {
          "internalType": "uint256",
          "name": "boatId",
          "type": "uint256"
        },
        {
          "internalType": "bool",
          "name": "newStatus",
          "type": "bool"
        }
      ],
      "name": "updateStatus",
      "outputs": [],
      "stateMutability": "nonpayable",
      "type": "function"
    },
    {
      "inputs": [
        {
          "internalType": "uint256",
          "name": "boatId",
          "type": "uint256"
        },
        {
          "internalType": "string",
          "name": "newTokenURI",
          "type": "string"
        }
      ],
      "name": "updateTokenURI",
      "outputs": [],
      "stateMutability": "nonpayable",
      "type": "function"
    }
  ],
  "bytecode": "0x60806040523480156200001157600080fd5b506040518060400160405280600881526020017f426f6174204e46540000000000000000000000000000000000000000000000008152506040518060400160405280600481526020017f424f415400000000000000000000000000000000000000000000000000000000815250816000908051906020019062000096929190620000f9565b508060019080519060200190620000af929190620000f9565b50505033600860006101000a81548173ffffffffffffffffffffffffffffffffffffffff021916908373ffffffffffffffffffffffffffffffffffffffff1602179055506200020e565b8280546200010790620001a9565b90600052602060002090601f0160209004810192826200012b576000855562000177565b82601f106200014657805160ff191683800117855562000177565b8280016001018555821562000177579182015b828111156200017657825182559160200191906001019062000159565b5b5090506200018691906200018a565b5090565b5b80821115620001a55760008160009055506001016200018b565b5090565b60006002820490506001821680620001c257607f821691505b60208210811415620001d957620001d8620001df565b5b50919050565b7f4e487b7100000000000000000000000000000000000000000000000000000000600052602260045260246000fd5b614fb7806200021e6000396000f3fe6080604052600436106101b75760003560e01c8063629cb2e4116100ec5780639b1225c41161008a578063b88d4fde11610064578063b88d4fde14610616578063c87b56dd1461063f578063e0391b091461067c578063e985e9c5146106a7576101b7565b80639b1225c4146105a8578063a22cb465146105c4578063b5001d74146105ed576101b7565b806370a08231116100c657806370a08231146104d8578063893d20e81461051557806395d89b4114610540578063984230d41461056b576101b7565b8063629cb2e4146104405780636352211e1461046b5780636ea0681a146104a8576101b7565b80631e5ad7b011610159578063387008c211610133578063387008c21461038057806342842e0e146103a9578063525919da146103d257806352649ffd14610417576101b7565b80631e5ad7b01461030557806323b872dd1461032e57806325b2d58d14610357576101b7565b8063095ea7b311610195578063095ea7b31461026157806309cd35311461028a57806318e97fd1146102b35780631d10faf6146102dc576101b7565b806301ffc9a7146101bc57806306fdde03146101f9578063081812fc14610224575b600080fd5b3480156101c857600080fd5b506101e360048036038101906101de91906135f7565b6106e4565b6040516101f09190613f8f565b60405180910390f35b34801561020557600080fd5b5061020e6107c6565b60405161021b9190613faa565b60405180910390f35b34801561023057600080fd5b5061024b60048036038101906102469190613713565b610858565b6040516102589190613e88565b60405180910390f35b34801561026d57600080fd5b50610288600480360381019061028391906135bb565b6108dd565b005b34801561029657600080fd5b506102b160048036038101906102ac91906137cc565b6109f5565b005b3480156102bf57600080fd5b506102da60048036038101906102d59190613778565b610b62565b005b3480156102e857600080fd5b5061030360048036038101906102fe91906137cc565b610c86565b005b34801561031157600080fd5b5061032c600480360381019061032791906137cc565b610df3565b005b34801561033a57600080fd5b50610355600480360381019061035091906134b5565b610f60565b005b34801561036357600080fd5b5061037e600480360381019061037991906137cc565b610fc0565b005b34801561038c57600080fd5b506103a760048036038101906103a2919061373c565b61112d565b005b3480156103b557600080fd5b506103d060048036038101906103cb91906134b5565b6112ad565b005b3480156103de57600080fd5b506103f960048036038101906103f49190613713565b6112cd565b60405161040e99989796959493929190614323565b60405180910390f35b34801561042357600080fd5b5061043e600480360381019061043991906137cc565b611348565b005b34801561044c57600080fd5b506104556114b5565b6040516104629190613f6d565b60405180910390f35b34801561047757600080fd5b50610492600480360381019061048d9190613713565b6117ce565b60405161049f9190613e88565b60405180910390f35b6104c260048036038101906104bd9190613649565b611880565b6040516104cf9190614308565b60405180910390f35b3480156104e457600080fd5b506104ff60048036038101906104fa9190613450565b6118ce565b60405161050c9190614308565b60405180910390f35b34801561052157600080fd5b5061052a611986565b6040516105379190613e88565b60405180910390f35b34801561054c57600080fd5b506105556119b0565b6040516105629190613faa565b60405180910390f35b34801561057757600080fd5b50610592600480360381019061058d9190613713565b611a42565b60405161059f91906142ec565b60405180910390f35b6105c260048036038101906105bd9190613713565b611b27565b005b3480156105d057600080fd5b506105eb60048036038101906105e6919061357f565b611ce8565b005b3480156105f957600080fd5b50610614600480360381019061060f91906137cc565b611cfe565b005b34801561062257600080fd5b5061063d60048036038101906106389190613504565b611e6b565b005b34801561064b57600080fd5b5061066660048036038101906106619190613713565b611ecd565b6040516106739190613faa565b60405180910390f35b34801561068857600080fd5b5061069161201f565b60405161069e9190613f6d565b60405180910390f35b3480156106b357600080fd5b506106ce60048036038101906106c99190613479565b612203565b6040516106db9190613f8f565b60405180910390f35b60007f80ac58cd000000000000000000000000000000000000000000000000000000007bffffffffffffffffffffffffffffffffffffffffffffffffffffffff1916827bffffffffffffffffffffffffffffffffffffffffffffffffffffffff191614806107af57507f5b5e139f000000000000000000000000000000000000000000000000000000007bffffffffffffffffffffffffffffffffffffffffffffffffffffffff1916827bffffffffffffffffffffffffffffffffffffffffffffffffffffffff1916145b806107bf57506107be82612297565b5b9050919050565b6060600080546107d590614636565b80601f016020809104026020016040519081016040528092919081815260200182805461080190614636565b801561084e5780601f106108235761010080835404028352916020019161084e565b820191906000526020600020905b81548152906001019060200180831161083157829003601f168201915b5050505050905090565b600061086382612301565b6108a2576040517f08c379a00000000000000000000000000000000000000000000000000000000081526004016108999061420c565b60405180910390fd5b6004600083815260200190815260200160002060009054906101000a900473ffffffffffffffffffffffffffffffffffffffff169050919050565b60006108e8826117ce565b90508073ffffffffffffffffffffffffffffffffffffffff168373ffffffffffffffffffffffffffffffffffffffff161415610959576040517f08c379a00000000000000000000000000000000000000000000000000000000081526004016109509061424c565b60405180910390fd5b8073ffffffffffffffffffffffffffffffffffffffff1661097861236d565b73ffffffffffffffffffffffffffffffffffffffff1614806109a757506109a6816109a161236d565b612203565b5b6109e6576040517f08c379a00000000000000000000000000000000000000000000000000000000081526004016109dd906140cc565b60405180910390fd5b6109f08383612375565b505050565b6109fe82612301565b610a3d576040517f08c379a0000000000000000000000000000000000000000000000000000000008152600401610a349061408c565b60405180910390fd5b3373ffffffffffffffffffffffffffffffffffffffff16610a5d836117ce565b73ffffffffffffffffffffffffffffffffffffffff161480610acc5750600860009054906101000a900473ffffffffffffffffffffffffffffffffffffffff1673ffffffffffffffffffffffffffffffffffffffff163373ffffffffffffffffffffffffffffffffffffffff16145b610b0b576040517f08c379a0000000000000000000000000000000000000000000000000000000008152600401610b029061426c565b60405180910390fd5b806009600084815260200190815260200160002060020181905550817fd30ea262383676c6ffb3594e7772217082e85acdb5c2e7fe8945ec593b16140882604051610b569190614308565b60405180910390a25050565b610b6b82612301565b610baa576040517f08c379a0000000000000000000000000000000000000000000000000000000008152600401610ba1906142ac565b60405180910390fd5b3373ffffffffffffffffffffffffffffffffffffffff16610bca836117ce565b73ffffffffffffffffffffffffffffffffffffffff161480610c395750600860009054906101000a900473ffffffffffffffffffffffffffffffffffffffff1673ffffffffffffffffffffffffffffffffffffffff163373ffffffffffffffffffffffffffffffffffffffff16145b610c78576040517f08c379a0000000000000000000000000000000000000000000000000000000008152600401610c6f9061416c565b60405180910390fd5b610c82828261242e565b5050565b610c8f82612301565b610cce576040517f08c379a0000000000000000000000000000000000000000000000000000000008152600401610cc59061408c565b60405180910390fd5b3373ffffffffffffffffffffffffffffffffffffffff16610cee836117ce565b73ffffffffffffffffffffffffffffffffffffffff161480610d5d5750600860009054906101000a900473ffffffffffffffffffffffffffffffffffffffff1673ffffffffffffffffffffffffffffffffffffffff163373ffffffffffffffffffffffffffffffffffffffff16145b610d9c576040517f08c379a0000000000000000000000000000000000000000000000000000000008152600401610d93906140ec565b60405180910390fd5b806009600084815260200190815260200160002060060181905550817f30bb3fa444e97de5847bd43c09e8064f1964e80a8feccbd7f032180f03d3d53882604051610de79190614308565b60405180910390a25050565b610dfc82612301565b610e3b576040517f08c379a0000000000000000000000000000000000000000000000000000000008152600401610e329061408c565b60405180910390fd5b3373ffffffffffffffffffffffffffffffffffffffff16610e5b836117ce565b73ffffffffffffffffffffffffffffffffffffffff161480610eca5750600860009054906101000a900473ffffffffffffffffffffffffffffffffffffffff1673ffffffffffffffffffffffffffffffffffffffff163373ffffffffffffffffffffffffffffffffffffffff16145b610f09576040517f08c379a0000000000000000000000000000000000000000000000000000000008152600401610f00906140ec565b60405180910390fd5b806009600084815260200190815260200160002060080181905550817f80214732cb7b51409e143594f22dd89c147c85da33438f45c0d1bcd95bc2d40082604051610f549190614308565b60405180910390a25050565b610f71610f6b61236d565b826124a2565b610fb0576040517f08c379a0000000000000000000000000000000000000000000000000000000008152600401610fa79061428c565b60405180910390fd5b610fbb838383612580565b505050565b610fc982612301565b611008576040517f08c379a0000000000000000000000000000000000000000000000000000000008152600401610fff9061408c565b60405180910390fd5b3373ffffffffffffffffffffffffffffffffffffffff16611028836117ce565b73ffffffffffffffffffffffffffffffffffffffff1614806110975750600860009054906101000a900473ffffffffffffffffffffffffffffffffffffffff1673ffffffffffffffffffffffffffffffffffffffff163373ffffffffffffffffffffffffffffffffffffffff16145b6110d6576040517f08c379a00000000000000000000000000000000000000000000000000000000081526004016110cd906142cc565b60405180910390fd5b806009600084815260200190815260200160002060030181905550817f56f5b1c57e56d38ff62b49a4af8f52987709e36a3d4261765cf81eaaec678033826040516111219190614308565b60405180910390a25050565b61113682612301565b611175576040517f08c379a000000000000000000000000000000000000000000000000000000000815260040161116c9061408c565b60405180910390fd5b3373ffffffffffffffffffffffffffffffffffffffff16611195836117ce565b73ffffffffffffffffffffffffffffffffffffffff1614806112045750600860009054906101000a900473ffffffffffffffffffffffffffffffffffffffff1673ffffffffffffffffffffffffffffffffffffffff163373ffffffffffffffffffffffffffffffffffffffff16145b611243576040517f08c379a000000000000000000000000000000000000000000000000000000000815260040161123a9061418c565b60405180910390fd5b806009600084815260200190815260200160002060040160006101000a81548160ff021916908315150217905550817f424e7b0d93f2668ac443a22364c7fe58a632fd614b4fb55ee2ac77c8a4625127826040516112a19190613f8f565b60405180910390a25050565b6112c883838360405180602001604052806000815250611e6b565b505050565b60096020528060005260406000206000915090508060000154908060010160009054906101000a900473ffffffffffffffffffffffffffffffffffffffff16908060020154908060030154908060040160009054906101000a900460ff16908060050154908060060154908060070154908060080154905089565b61135182612301565b611390576040517f08c379a00000000000000000000000000000000000000000000000000000000081526004016113879061408c565b60405180910390fd5b3373ffffffffffffffffffffffffffffffffffffffff166113b0836117ce565b73ffffffffffffffffffffffffffffffffffffffff16148061141f5750600860009054906101000a900473ffffffffffffffffffffffffffffffffffffffff1673ffffffffffffffffffffffffffffffffffffffff163373ffffffffffffffffffffffffffffffffffffffff16145b61145e576040517f08c379a0000000000000000000000000000000000000000000000000000000008152600401611455906140ec565b60405180910390fd5b806009600084815260200190815260200160002060050181905550817f6659833065c5adcb2a4c3711b4a04eb23c358af7bc1b0fe0d04ca75ce9076ba1826040516114a99190614308565b60405180910390a25050565b606060006114c360076127e7565b905060008080600090505b8381101561156f573373ffffffffffffffffffffffffffffffffffffffff16600960006001846114fe91906144b3565b815260200190815260200160002060010160009054906101000a900473ffffffffffffffffffffffffffffffffffffffff1673ffffffffffffffffffffffffffffffffffffffff16141561155c5760018361155991906144b3565b92505b808061156790614699565b9150506114ce565b5060008267ffffffffffffffff8111156115b2577f4e487b7100000000000000000000000000000000000000000000000000000000600052604160045260246000fd5b6040519080825280602002602001820160405280156115eb57816020015b6115d8613210565b8152602001906001900390816115d05790505b5090506000805b858110156117c2573373ffffffffffffffffffffffffffffffffffffffff166009600060018461162291906144b3565b815260200190815260200160002060010160009054906101000a900473ffffffffffffffffffffffffffffffffffffffff1673ffffffffffffffffffffffffffffffffffffffff1614156117af5760018161167d91906144b3565b935060006009600086815260200190815260200160002090508060405180610120016040529081600082015481526020016001820160009054906101000a900473ffffffffffffffffffffffffffffffffffffffff1673ffffffffffffffffffffffffffffffffffffffff1673ffffffffffffffffffffffffffffffffffffffff16815260200160028201548152602001600382015481526020016004820160009054906101000a900460ff16151515158152602001600582015481526020016006820154815260200160078201548152602001600882015481525050848481518110611793577f4e487b7100000000000000000000000000000000000000000000000000000000600052603260045260246000fd5b60200260200101819052506001836117ab91906144b3565b9250505b80806117ba90614699565b9150506115f2565b50819550505050505090565b6000806002600084815260200190815260200160002060009054906101000a900473ffffffffffffffffffffffffffffffffffffffff169050600073ffffffffffffffffffffffffffffffffffffffff168173ffffffffffffffffffffffffffffffffffffffff161415611877576040517f08c379a000000000000000000000000000000000000000000000000000000000815260040161186e9061412c565b60405180910390fd5b80915050919050565b600061188c60076127f5565b600061189860076127e7565b90506118a4338261280b565b6118ae818b61242e565b6118be818a8a8a8a8a8a8a612829565b8091505098975050505050505050565b60008073ffffffffffffffffffffffffffffffffffffffff168273ffffffffffffffffffffffffffffffffffffffff16141561193f576040517f08c379a00000000000000000000000000000000000000000000000000000000081526004016119369061410c565b60405180910390fd5b600360008373ffffffffffffffffffffffffffffffffffffffff1673ffffffffffffffffffffffffffffffffffffffff168152602001908152602001600020549050919050565b6000600860009054906101000a900473ffffffffffffffffffffffffffffffffffffffff16905090565b6060600180546119bf90614636565b80601f01602080910402602001604051908101604052809291908181526020018280546119eb90614636565b8015611a385780601f10611a0d57610100808354040283529160200191611a38565b820191906000526020600020905b815481529060010190602001808311611a1b57829003601f168201915b5050505050905090565b611a4a613210565b6009600083815260200190815260200160002060405180610120016040529081600082015481526020016001820160009054906101000a900473ffffffffffffffffffffffffffffffffffffffff1673ffffffffffffffffffffffffffffffffffffffff1673ffffffffffffffffffffffffffffffffffffffff16815260200160028201548152602001600382015481526020016004820160009054906101000a900460ff161515151581526020016005820154815260200160068201548152602001600782015481526020016008820154815250509050919050565b611b3081612301565b611b6f576040517f08c379a0000000000000000000000000000000000000000000000000000000008152600401611b669061408c565b60405180910390fd5b60006009600083815260200190815260200160002060080154905060006009600084815260200190815260200160002060010160009054906101000a900473ffffffffffffffffffffffffffffffffffffffff1690506000339050823414611c0c576040517f08c379a0000000000000000000000000000000000000000000000000000000008152600401611c03906141ac565b60405180910390fd5b611c17303386612580565b806009600086815260200190815260200160002060010160006101000a81548173ffffffffffffffffffffffffffffffffffffffff021916908373ffffffffffffffffffffffffffffffffffffffff16021790555060006009600086815260200190815260200160002060040160006101000a81548160ff0219169083151502179055508173ffffffffffffffffffffffffffffffffffffffff166108fc349081150290604051600060405180830381858888f19350505050158015611ce1573d6000803e3d6000fd5b5050505050565b611cfa611cf361236d565b83836129e3565b5050565b611d0782612301565b611d46576040517f08c379a0000000000000000000000000000000000000000000000000000000008152600401611d3d9061408c565b60405180910390fd5b3373ffffffffffffffffffffffffffffffffffffffff16611d66836117ce565b73ffffffffffffffffffffffffffffffffffffffff161480611dd55750600860009054906101000a900473ffffffffffffffffffffffffffffffffffffffff1673ffffffffffffffffffffffffffffffffffffffff163373ffffffffffffffffffffffffffffffffffffffff16145b611e14576040517f08c379a0000000000000000000000000000000000000000000000000000000008152600401611e0b9061418c565b60405180910390fd5b806009600084815260200190815260200160002060070181905550817f8cba03acb5595fdb6ff27c32503305aafee2573010e09fce6f2644093840d88182604051611e5f9190614308565b60405180910390a25050565b611e7c611e7661236d565b836124a2565b611ebb576040517f08c379a0000000000000000000000000000000000000000000000000000000008152600401611eb29061428c565b60405180910390fd5b611ec784848484612b50565b50505050565b6060611ed882612301565b611f17576040517f08c379a0000000000000000000000000000000000000000000000000000000008152600401611f0e906141ec565b60405180910390fd5b6000600660008481526020019081526020016000208054611f3790614636565b80601f0160208091040260200160405190810160405280929190818152602001828054611f6390614636565b8015611fb05780601f10611f8557610100808354040283529160200191611fb0565b820191906000526020600020905b815481529060010190602001808311611f9357829003601f168201915b505050505090506000611fc1612bac565b9050600081511415611fd757819250505061201a565b60008251111561200c578082604051602001611ff4929190613e64565b6040516020818303038152906040529250505061201a565b61201584612bc3565b925050505b919050565b6060600061202d60076127e7565b905060008167ffffffffffffffff811115612071577f4e487b7100000000000000000000000000000000000000000000000000000000600052604160045260246000fd5b6040519080825280602002602001820160405280156120aa57816020015b612097613210565b81526020019060019003908161208f5790505b5090506000600190505b8281116121fa5760006009600083815260200190815260200160002090508060405180610120016040529081600082015481526020016001820160009054906101000a900473ffffffffffffffffffffffffffffffffffffffff1673ffffffffffffffffffffffffffffffffffffffff1673ffffffffffffffffffffffffffffffffffffffff16815260200160028201548152602001600382015481526020016004820160009054906101000a900460ff16151515158152602001600582015481526020016006820154815260200160078201548152602001600882015481525050836001846121a4919061453a565b815181106121db577f4e487b7100000000000000000000000000000000000000000000000000000000600052603260045260246000fd5b60200260200101819052505080806121f290614699565b9150506120b4565b50809250505090565b6000600560008473ffffffffffffffffffffffffffffffffffffffff1673ffffffffffffffffffffffffffffffffffffffff16815260200190815260200160002060008373ffffffffffffffffffffffffffffffffffffffff1673ffffffffffffffffffffffffffffffffffffffff16815260200190815260200160002060009054906101000a900460ff16905092915050565b60007f01ffc9a7000000000000000000000000000000000000000000000000000000007bffffffffffffffffffffffffffffffffffffffffffffffffffffffff1916827bffffffffffffffffffffffffffffffffffffffffffffffffffffffff1916149050919050565b60008073ffffffffffffffffffffffffffffffffffffffff166002600084815260200190815260200160002060009054906101000a900473ffffffffffffffffffffffffffffffffffffffff1673ffffffffffffffffffffffffffffffffffffffff1614159050919050565b600033905090565b816004600083815260200190815260200160002060006101000a81548173ffffffffffffffffffffffffffffffffffffffff021916908373ffffffffffffffffffffffffffffffffffffffff160217905550808273ffffffffffffffffffffffffffffffffffffffff166123e8836117ce565b73ffffffffffffffffffffffffffffffffffffffff167f8c5be1e5ebec7d5bd14f71427d1e84f3dd0314c0f7b2291e5b200ac8c7c3b92560405160405180910390a45050565b61243782612301565b612476576040517f08c379a000000000000000000000000000000000000000000000000000000000815260040161246d9061414c565b60405180910390fd5b8060066000848152602001908152602001600020908051906020019061249d929190613274565b505050565b60006124ad82612301565b6124ec576040517f08c379a00000000000000000000000000000000000000000000000000000000081526004016124e3906140ac565b60405180910390fd5b60006124f7836117ce565b90508073ffffffffffffffffffffffffffffffffffffffff168473ffffffffffffffffffffffffffffffffffffffff16148061256657508373ffffffffffffffffffffffffffffffffffffffff1661254e84610858565b73ffffffffffffffffffffffffffffffffffffffff16145b8061257757506125768185612203565b5b91505092915050565b8273ffffffffffffffffffffffffffffffffffffffff166125a0826117ce565b73ffffffffffffffffffffffffffffffffffffffff16146125f6576040517f08c379a00000000000000000000000000000000000000000000000000000000081526004016125ed9061400c565b60405180910390fd5b600073ffffffffffffffffffffffffffffffffffffffff168273ffffffffffffffffffffffffffffffffffffffff161415612666576040517f08c379a000000000000000000000000000000000000000000000000000000000815260040161265d9061404c565b60405180910390fd5b612671838383612c6a565b61267c600082612375565b6001600360008573ffffffffffffffffffffffffffffffffffffffff1673ffffffffffffffffffffffffffffffffffffffff16815260200190815260200160002060008282546126cc919061453a565b925050819055506001600360008473ffffffffffffffffffffffffffffffffffffffff1673ffffffffffffffffffffffffffffffffffffffff168152602001908152602001600020600082825461272391906144b3565b92505081905550816002600083815260200190815260200160002060006101000a81548173ffffffffffffffffffffffffffffffffffffffff021916908373ffffffffffffffffffffffffffffffffffffffff160217905550808273ffffffffffffffffffffffffffffffffffffffff168473ffffffffffffffffffffffffffffffffffffffff167fddf252ad1be2c89b69c2b068fc378daa952ba7f163c4a11628f55a4df523b3ef60405160405180910390a46127e2838383612c6f565b505050565b600081600001549050919050565b6001816000016000828254019250508190555050565b612825828260405180602001604052806000815250612c74565b5050565b6000871161286c576040517f08c379a000000000000000000000000000000000000000000000000000000000815260040161286390613fcc565b60405180910390fd5b6040518061012001604052808981526020013373ffffffffffffffffffffffffffffffffffffffff168152602001888152602001878152602001861515815260200185815260200184815260200183815260200182815250600960008a81526020019081526020016000206000820151816000015560208201518160010160006101000a81548173ffffffffffffffffffffffffffffffffffffffff021916908373ffffffffffffffffffffffffffffffffffffffff160217905550604082015181600201556060820151816003015560808201518160040160006101000a81548160ff02191690831515021790555060a0820151816005015560c0820151816006015560e08201518160070155610100820151816008015590505061299333308a612580565b877f0b4256e5d8c003621e62e4a21671ccc34d861f1d13cc746464b05ffb193762c830898989898989896040516129d1989796959493929190613eef565b60405180910390a25050505050505050565b8173ffffffffffffffffffffffffffffffffffffffff168373ffffffffffffffffffffffffffffffffffffffff161415612a52576040517f08c379a0000000000000000000000000000000000000000000000000000000008152600401612a499061406c565b60405180910390fd5b80600560008573ffffffffffffffffffffffffffffffffffffffff1673ffffffffffffffffffffffffffffffffffffffff16815260200190815260200160002060008473ffffffffffffffffffffffffffffffffffffffff1673ffffffffffffffffffffffffffffffffffffffff16815260200190815260200160002060006101000a81548160ff0219169083151502179055508173ffffffffffffffffffffffffffffffffffffffff168373ffffffffffffffffffffffffffffffffffffffff167f17307eab39ab6107e8899845ad3d59bd9653f200f220920489ca2b5937696c3183604051612b439190613f8f565b60405180910390a3505050565b612b5b848484612580565b612b6784848484612ccf565b612ba6576040517f08c379a0000000000000000000000000000000000000000000000000000000008152600401612b9d90613fec565b60405180910390fd5b50505050565b606060405180602001604052806000815250905090565b6060612bce82612301565b612c0d576040517f08c379a0000000000000000000000000000000000000000000000000000000008152600401612c049061422c565b60405180910390fd5b6000612c17612bac565b90506000815111612c375760405180602001604052806000815250612c62565b80612c4184612e66565b604051602001612c52929190613e64565b6040516020818303038152906040525b915050919050565b505050565b505050565b612c7e8383613013565b612c8b6000848484612ccf565b612cca576040517f08c379a0000000000000000000000000000000000000000000000000000000008152600401612cc190613fec565b60405180910390fd5b505050565b6000612cf08473ffffffffffffffffffffffffffffffffffffffff166131ed565b15612e59578373ffffffffffffffffffffffffffffffffffffffff1663150b7a02612d1961236d565b8786866040518563ffffffff1660e01b8152600401612d3b9493929190613ea3565b602060405180830381600087803b158015612d5557600080fd5b505af1925050508015612d8657506040513d601f19601f82011682018060405250810190612d839190613620565b60015b612e09573d8060008114612db6576040519150601f19603f3d011682016040523d82523d6000602084013e612dbb565b606091505b50600081511415612e01576040517f08c379a0000000000000000000000000000000000000000000000000000000008152600401612df890613fec565b60405180910390fd5b805181602001fd5b63150b7a0260e01b7bffffffffffffffffffffffffffffffffffffffffffffffffffffffff1916817bffffffffffffffffffffffffffffffffffffffffffffffffffffffff191614915050612e5e565b600190505b949350505050565b60606000821415612eae576040518060400160405280600181526020017f3000000000000000000000000000000000000000000000000000000000000000815250905061300e565b600082905060005b60008214612ee0578080612ec990614699565b915050600a82612ed99190614509565b9150612eb6565b60008167ffffffffffffffff811115612f22577f4e487b7100000000000000000000000000000000000000000000000000000000600052604160045260246000fd5b6040519080825280601f01601f191660200182016040528015612f545781602001600182028036833780820191505090505b5090505b6000851461300757600182612f6d919061453a565b9150600a85612f7c91906146e2565b6030612f8891906144b3565b60f81b818381518110612fc4577f4e487b7100000000000000000000000000000000000000000000000000000000600052603260045260246000fd5b60200101907effffffffffffffffffffffffffffffffffffffffffffffffffffffffffffff1916908160001a905350600a856130009190614509565b9450612f58565b8093505050505b919050565b600073ffffffffffffffffffffffffffffffffffffffff168273ffffffffffffffffffffffffffffffffffffffff161415613083576040517f08c379a000000000000000000000000000000000000000000000000000000000815260040161307a906141cc565b60405180910390fd5b61308c81612301565b156130cc576040517f08c379a00000000000000000000000000000000000000000000000000000000081526004016130c39061402c565b60405180910390fd5b6130d860008383612c6a565b6001600360008473ffffffffffffffffffffffffffffffffffffffff1673ffffffffffffffffffffffffffffffffffffffff168152602001908152602001600020600082825461312891906144b3565b92505081905550816002600083815260200190815260200160002060006101000a81548173ffffffffffffffffffffffffffffffffffffffff021916908373ffffffffffffffffffffffffffffffffffffffff160217905550808273ffffffffffffffffffffffffffffffffffffffff16600073ffffffffffffffffffffffffffffffffffffffff167fddf252ad1be2c89b69c2b068fc378daa952ba7f163c4a11628f55a4df523b3ef60405160405180910390a46131e960008383612c6f565b5050565b6000808273ffffffffffffffffffffffffffffffffffffffff163b119050919050565b60405180610120016040528060008152602001600073ffffffffffffffffffffffffffffffffffffffff1681526020016000815260200160008152602001600015158152602001600081526020016000815260200160008152602001600081525090565b82805461328090614636565b90600052602060002090601f0160209004810192826132a257600085556132e9565b82601f106132bb57805160ff19168380011785556132e9565b828001600101855582156132e9579182015b828111156132e85782518255916020019190600101906132cd565b5b5090506132f691906132fa565b5090565b5b808211156133135760008160009055506001016132fb565b5090565b600061332a613325846143d5565b6143b0565b90508281526020810184848401111561334257600080fd5b61334d8482856145f4565b509392505050565b600061336861336384614406565b6143b0565b90508281526020810184848401111561338057600080fd5b61338b8482856145f4565b509392505050565b6000813590506133a281614f25565b92915050565b6000813590506133b781614f3c565b92915050565b6000813590506133cc81614f53565b92915050565b6000815190506133e181614f53565b92915050565b600082601f8301126133f857600080fd5b8135613408848260208601613317565b91505092915050565b600082601f83011261342257600080fd5b8135613432848260208601613355565b91505092915050565b60008135905061344a81614f6a565b92915050565b60006020828403121561346257600080fd5b600061347084828501613393565b91505092915050565b6000806040838503121561348c57600080fd5b600061349a85828601613393565b92505060206134ab85828601613393565b9150509250929050565b6000806000606084860312156134ca57600080fd5b60006134d886828701613393565b93505060206134e986828701613393565b92505060406134fa8682870161343b565b9150509250925092565b6000806000806080858703121561351a57600080fd5b600061352887828801613393565b945050602061353987828801613393565b935050604061354a8782880161343b565b925050606085013567ffffffffffffffff81111561356757600080fd5b613573878288016133e7565b91505092959194509250565b6000806040838503121561359257600080fd5b60006135a085828601613393565b92505060206135b1858286016133a8565b9150509250929050565b600080604083850312156135ce57600080fd5b60006135dc85828601613393565b92505060206135ed8582860161343b565b9150509250929050565b60006020828403121561360957600080fd5b6000613617848285016133bd565b91505092915050565b60006020828403121561363257600080fd5b6000613640848285016133d2565b91505092915050565b600080600080600080600080610100898b03121561366657600080fd5b600089013567ffffffffffffffff81111561368057600080fd5b61368c8b828c01613411565b985050602061369d8b828c0161343b565b97505060406136ae8b828c0161343b565b96505060606136bf8b828c016133a8565b95505060806136d08b828c0161343b565b94505060a06136e18b828c0161343b565b93505060c06136f28b828c0161343b565b92505060e06137038b828c0161343b565b9150509295985092959890939650565b60006020828403121561372557600080fd5b60006137338482850161343b565b91505092915050565b6000806040838503121561374f57600080fd5b600061375d8582860161343b565b925050602061376e858286016133a8565b9150509250929050565b6000806040838503121561378b57600080fd5b60006137998582860161343b565b925050602083013567ffffffffffffffff8111156137b657600080fd5b6137c285828601613411565b9150509250929050565b600080604083850312156137df57600080fd5b60006137ed8582860161343b565b92505060206137fe8582860161343b565b9150509250929050565b60006138148383613cd8565b6101208301905092915050565b61382a81614580565b82525050565b61383981614580565b82525050565b6138488161456e565b82525050565b600061385982614447565b6138638185614475565b935061386e83614437565b8060005b8381101561389f5781516138868882613808565b975061389183614468565b925050600181019050613872565b5085935050505092915050565b6138b581614592565b82525050565b6138c481614592565b82525050565b60006138d582614452565b6138df8185614486565b93506138ef818560208601614603565b6138f8816147cf565b840191505092915050565b600061390e8261445d565b6139188185614497565b9350613928818560208601614603565b613931816147cf565b840191505092915050565b60006139478261445d565b61395181856144a8565b9350613961818560208601614603565b80840191505092915050565b600061397a601f83614497565b9150613985826147e0565b602082019050919050565b600061399d603283614497565b91506139a882614809565b604082019050919050565b60006139c0602583614497565b91506139cb82614858565b604082019050919050565b60006139e3601c83614497565b91506139ee826148a7565b602082019050919050565b6000613a06602483614497565b9150613a11826148d0565b604082019050919050565b6000613a29601983614497565b9150613a348261491f565b602082019050919050565b6000613a4c601783614497565b9150613a5782614948565b602082019050919050565b6000613a6f602c83614497565b9150613a7a82614971565b604082019050919050565b6000613a92603883614497565b9150613a9d826149c0565b604082019050919050565b6000613ab5604583614497565b9150613ac082614a0f565b606082019050919050565b6000613ad8602a83614497565b9150613ae382614a84565b604082019050919050565b6000613afb602983614497565b9150613b0682614ad3565b604082019050919050565b6000613b1e602e83614497565b9150613b2982614b22565b604082019050919050565b6000613b41602f83614497565b9150613b4c82614b71565b604082019050919050565b6000613b64604383614497565b9150613b6f82614bc0565b606082019050919050565b6000613b87604083614497565b9150613b9282614c35565b604082019050919050565b6000613baa602083614497565b9150613bb582614c84565b602082019050919050565b6000613bcd603183614497565b9150613bd882614cad565b604082019050919050565b6000613bf0602c83614497565b9150613bfb82614cfc565b604082019050919050565b6000613c13602f83614497565b9150613c1e82614d4b565b604082019050919050565b6000613c36602183614497565b9150613c4182614d9a565b604082019050919050565b6000613c59604083614497565b9150613c6482614de9565b604082019050919050565b6000613c7c603183614497565b9150613c8782614e38565b604082019050919050565b6000613c9f602283614497565b9150613caa82614e87565b604082019050919050565b6000613cc2603f83614497565b9150613ccd82614ed6565b604082019050919050565b61012082016000820151613cef6000850182613e46565b506020820151613d026020850182613821565b506040820151613d156040850182613e46565b506060820151613d286060850182613e46565b506080820151613d3b60808501826138ac565b5060a0820151613d4e60a0850182613e46565b5060c0820151613d6160c0850182613e46565b5060e0820151613d7460e0850182613e46565b50610100820151613d89610100850182613e46565b50505050565b61012082016000820151613da66000850182613e46565b506020820151613db96020850182613821565b506040820151613dcc6040850182613e46565b506060820151613ddf6060850182613e46565b506080820151613df260808501826138ac565b5060a0820151613e0560a0850182613e46565b5060c0820151613e1860c0850182613e46565b5060e0820151613e2b60e0850182613e46565b50610100820151613e40610100850182613e46565b50505050565b613e4f816145ea565b82525050565b613e5e816145ea565b82525050565b6000613e70828561393c565b9150613e7c828461393c565b91508190509392505050565b6000602082019050613e9d600083018461383f565b92915050565b6000608082019050613eb8600083018761383f565b613ec5602083018661383f565b613ed26040830185613e55565b8181036060830152613ee481846138ca565b905095945050505050565b600061010082019050613f05600083018b61383f565b613f12602083018a613e55565b613f1f6040830189613e55565b613f2c60608301886138bb565b613f396080830187613e55565b613f4660a0830186613e55565b613f5360c0830185613e55565b613f6060e0830184613e55565b9998505050505050505050565b60006020820190508181036000830152613f87818461384e565b905092915050565b6000602082019050613fa460008301846138bb565b92915050565b60006020820190508181036000830152613fc48184613903565b905092915050565b60006020820190508181036000830152613fe58161396d565b9050919050565b6000602082019050818103600083015261400581613990565b9050919050565b60006020820190508181036000830152614025816139b3565b9050919050565b60006020820190508181036000830152614045816139d6565b9050919050565b60006020820190508181036000830152614065816139f9565b9050919050565b6000602082019050818103600083015261408581613a1c565b9050919050565b600060208201905081810360008301526140a581613a3f565b9050919050565b600060208201905081810360008301526140c581613a62565b9050919050565b600060208201905081810360008301526140e581613a85565b9050919050565b6000602082019050818103600083015261410581613aa8565b9050919050565b6000602082019050818103600083015261412581613acb565b9050919050565b6000602082019050818103600083015261414581613aee565b9050919050565b6000602082019050818103600083015261416581613b11565b9050919050565b6000602082019050818103600083015261418581613b34565b9050919050565b600060208201905081810360008301526141a581613b57565b9050919050565b600060208201905081810360008301526141c581613b7a565b9050919050565b600060208201905081810360008301526141e581613b9d565b9050919050565b6000602082019050818103600083015261420581613bc0565b9050919050565b6000602082019050818103600083015261422581613be3565b9050919050565b6000602082019050818103600083015261424581613c06565b9050919050565b6000602082019050818103600083015261426581613c29565b9050919050565b6000602082019050818103600083015261428581613c4c565b9050919050565b600060208201905081810360008301526142a581613c6f565b9050919050565b600060208201905081810360008301526142c581613c92565b9050919050565b600060208201905081810360008301526142e581613cb5565b9050919050565b6000610120820190506143026000830184613d8f565b92915050565b600060208201905061431d6000830184613e55565b92915050565b600061012082019050614339600083018c613e55565b614346602083018b613830565b614353604083018a613e55565b6143606060830189613e55565b61436d60808301886138bb565b61437a60a0830187613e55565b61438760c0830186613e55565b61439460e0830185613e55565b6143a2610100830184613e55565b9a9950505050505050505050565b60006143ba6143cb565b90506143c68282614668565b919050565b6000604051905090565b600067ffffffffffffffff8211156143f0576143ef6147a0565b5b6143f9826147cf565b9050602081019050919050565b600067ffffffffffffffff821115614421576144206147a0565b5b61442a826147cf565b9050602081019050919050565b6000819050602082019050919050565b600081519050919050565b600081519050919050565b600081519050919050565b6000602082019050919050565b600082825260208201905092915050565b600082825260208201905092915050565b600082825260208201905092915050565b600081905092915050565b60006144be826145ea565b91506144c9836145ea565b9250827fffffffffffffffffffffffffffffffffffffffffffffffffffffffffffffffff038211156144fe576144fd614713565b5b828201905092915050565b6000614514826145ea565b915061451f836145ea565b92508261452f5761452e614742565b5b828204905092915050565b6000614545826145ea565b9150614550836145ea565b92508282101561456357614562614713565b5b828203905092915050565b6000614579826145ca565b9050919050565b600061458b826145ca565b9050919050565b60008115159050919050565b60007fffffffff0000000000000000000000000000000000000000000000000000000082169050919050565b600073ffffffffffffffffffffffffffffffffffffffff82169050919050565b6000819050919050565b82818337600083830152505050565b60005b83811015614621578082015181840152602081019050614606565b83811115614630576000848401525b50505050565b6000600282049050600182168061464e57607f821691505b6020821081141561466257614661614771565b5b50919050565b614671826147cf565b810181811067ffffffffffffffff821117156146905761468f6147a0565b5b80604052505050565b60006146a4826145ea565b91507fffffffffffffffffffffffffffffffffffffffffffffffffffffffffffffffff8214156146d7576146d6614713565b5b600182019050919050565b60006146ed826145ea565b91506146f8836145ea565b92508261470857614707614742565b5b828206905092915050565b7f4e487b7100000000000000000000000000000000000000000000000000000000600052601160045260246000fd5b7f4e487b7100000000000000000000000000000000000000000000000000000000600052601260045260246000fd5b7f4e487b7100000000000000000000000000000000000000000000000000000000600052602260045260246000fd5b7f4e487b7100000000000000000000000000000000000000000000000000000000600052604160045260246000fd5b6000601f19601f8301169050919050565b7f5072696365206d7573742062652067726561746572207468616e207a65726f00600082015250565b7f4552433732313a207472616e7366657220746f206e6f6e20455243373231526560008201527f63656976657220696d706c656d656e7465720000000000000000000000000000602082015250565b7f4552433732313a207472616e736665722066726f6d20696e636f72726563742060008201527f6f776e6572000000000000000000000000000000000000000000000000000000602082015250565b7f4552433732313a20746f6b656e20616c7265616479206d696e74656400000000600082015250565b7f4552433732313a207472616e7366657220746f20746865207a65726f2061646460008201527f7265737300000000000000000000000000000000000000000000000000000000602082015250565b7f4552433732313a20617070726f766520746f2063616c6c657200000000000000600082015250565b7f546f6b656e20494420646f6573206e6f74206578697374000000000000000000600082015250565b7f4552433732313a206f70657261746f7220717565727920666f72206e6f6e657860008201527f697374656e7420746f6b656e0000000000000000000000000000000000000000602082015250565b7f4552433732313a20617070726f76652063616c6c6572206973206e6f74206f7760008201527f6e6572206e6f7220617070726f76656420666f7220616c6c0000000000000000602082015250565b7f4f6e6c7920746865206f776e6572206f6620746865206e6674206f7220636f6e60008201527f7472616374206f776e65722063616e2075706461746520746865206e6577207060208201527f6572696f64000000000000000000000000000000000000000000000000000000604082015250565b7f4552433732313a2062616c616e636520717565727920666f7220746865207a6560008201527f726f206164647265737300000000000000000000000000000000000000000000602082015250565b7f4552433732313a206f776e657220717565727920666f72206e6f6e657869737460008201527f656e7420746f6b656e0000000000000000000000000000000000000000000000602082015250565b7f45524337323155524953746f726167653a2055524920736574206f66206e6f6e60008201527f6578697374656e7420746f6b656e000000000000000000000000000000000000602082015250565b7f4f6e6c79206e6674206f776e6572206f7220636f6e7472616374206f776e657260008201527f2063616e20757064617465205552490000000000000000000000000000000000602082015250565b7f4f6e6c7920746865206e6674206f776e6572206f7220636f6e7472616374206f60008201527f776e65722063616e207570646174652069662063757272656e746c79206c697360208201527f7465640000000000000000000000000000000000000000000000000000000000604082015250565b7f506c65617365207375626d6974207468652061736b696e67207072696365206960008201527f6e206f7264657220746f20636f6d706c65746520746865207075726368617365602082015250565b7f4552433732313a206d696e7420746f20746865207a65726f2061646472657373600082015250565b7f45524337323155524953746f726167653a2055524920717565727920666f722060008201527f6e6f6e6578697374656e7420746f6b656e000000000000000000000000000000602082015250565b7f4552433732313a20617070726f76656420717565727920666f72206e6f6e657860008201527f697374656e7420746f6b656e0000000000000000000000000000000000000000602082015250565b7f4552433732314d657461646174613a2055524920717565727920666f72206e6f60008201527f6e6578697374656e7420746f6b656e0000000000000000000000000000000000602082015250565b7f4552433732313a20617070726f76616c20746f2063757272656e74206f776e6560008201527f7200000000000000000000000000000000000000000000000000000000000000602082015250565b7f4f6e6c7920746865206e6674206f776e6572206f7220636f6e7472616374206f60008201527f776e65722063616e207570646174652074686520686f75726c79207072696365602082015250565b7f4552433732313a207472616e736665722063616c6c6572206973206e6f74206f60008201527f776e6572206e6f7220617070726f766564000000000000000000000000000000602082015250565b7f546f6b656e207769746820676976656e20494420646f6573206e6f742065786960008201527f7374000000000000000000000000000000000000000000000000000000000000602082015250565b7f4f6e6c7920746865206e6674206f776e6572206f7220636f6e7472616374206f60008201527f776e65722063616e2075706461746520746865206461696c7920707269636500602082015250565b614f2e8161456e565b8114614f3957600080fd5b50565b614f4581614592565b8114614f5057600080fd5b50565b614f5c8161459e565b8114614f6757600080fd5b50565b614f73816145ea565b8114614f7e57600080fd5b5056fea264697066735822122017dc2d89fc33e6b31ca97863144cd29767f1d82eabbad5ab5739174b641615c864736f6c63430008040033",
  "linkReferences": {},
  "deployedLinkReferences": {}
}