{
  "_format": "hh-sol-artifact-1",
  "contractName": "Escrow",
  "sourceName": "src/backend/contracts/RentalTransactions.sol",
  "abi": [
    {
      "anonymous": false,
      "inputs": [
        {
          "indexed": true,
          "internalType": "uint256",
          "name": "rentalId",
          "type": "uint256"
        },
        {
          "indexed": false,
          "internalType": "uint256",
          "name": "rentalFee",
          "type": "uint256"
        },
        {
          "indexed": false,
          "internalType": "uint256",
          "name": "securityDeposit",
          "type": "uint256"
        },
        {
          "indexed": false,
          "internalType": "address",
          "name": "boatOwner",
          "type": "address"
        },
        {
          "indexed": false,
          "internalType": "address",
          "name": "renter",
          "type": "address"
        },
        {
          "indexed": false,
          "internalType": "bool",
          "name": "disputeRequested",
          "type": "bool"
        }
      ],
      "name": "DepositMade",
      "type": "event"
    },
    {
      "anonymous": false,
      "inputs": [
        {
          "indexed": true,
          "internalType": "uint256",
          "name": "rentalId",
          "type": "uint256"
        },
        {
          "indexed": false,
          "internalType": "bool",
          "name": "newStatus",
          "type": "bool"
        },
        {
          "indexed": false,
          "internalType": "address",
          "name": "changer",
          "type": "address"
        }
      ],
      "name": "DisputeStatusChanged",
      "type": "event"
    },
    {
      "anonymous": false,
      "inputs": [
        {
          "indexed": true,
          "internalType": "uint256",
          "name": "rentalId",
          "type": "uint256"
        }
      ],
      "name": "EscrowDetailsDeleted",
      "type": "event"
    },
    {
      "anonymous": false,
      "inputs": [
        {
          "indexed": true,
          "internalType": "uint256",
          "name": "rentalId",
          "type": "uint256"
        },
        {
          "indexed": false,
          "internalType": "uint256",
          "name": "boatOwnerAmount",
          "type": "uint256"
        },
        {
          "indexed": false,
          "internalType": "uint256",
          "name": "renterAmount",
          "type": "uint256"
        },
        {
          "indexed": false,
          "internalType": "address",
          "name": "boatOwner",
          "type": "address"
        },
        {
          "indexed": false,
          "internalType": "address",
          "name": "renter",
          "type": "address"
        }
      ],
      "name": "FundsDisputed",
      "type": "event"
    },
    {
      "anonymous": false,
      "inputs": [
        {
          "indexed": true,
          "internalType": "uint256",
          "name": "rentalId",
          "type": "uint256"
        },
        {
          "indexed": false,
          "internalType": "uint256",
          "name": "rentalFee",
          "type": "uint256"
        },
        {
          "indexed": false,
          "internalType": "uint256",
          "name": "securityDeposit",
          "type": "uint256"
        },
        {
          "indexed": false,
          "internalType": "address",
          "name": "boatOwner",
          "type": "address"
        },
        {
          "indexed": false,
          "internalType": "address",
          "name": "renter",
          "type": "address"
        },
        {
          "indexed": false,
          "internalType": "bool",
          "name": "disputeRequested",
          "type": "bool"
        }
      ],
      "name": "FundsReleased",
      "type": "event"
    },
    {
      "anonymous": false,
      "inputs": [
        {
          "indexed": true,
          "internalType": "address",
          "name": "previousOwner",
          "type": "address"
        },
        {
          "indexed": true,
          "internalType": "address",
          "name": "newOwner",
          "type": "address"
        }
      ],
      "name": "OwnershipTransferred",
      "type": "event"
    },
    {
      "anonymous": false,
      "inputs": [
        {
          "indexed": true,
          "internalType": "uint256",
          "name": "rentalId",
          "type": "uint256"
        },
        {
          "indexed": false,
          "internalType": "uint256",
          "name": "rentalFee",
          "type": "uint256"
        },
        {
          "indexed": false,
          "internalType": "uint256",
          "name": "securityDeposit",
          "type": "uint256"
        },
        {
          "indexed": false,
          "internalType": "address",
          "name": "boatOwner",
          "type": "address"
        },
        {
          "indexed": false,
          "internalType": "address",
          "name": "renter",
          "type": "address"
        },
        {
          "indexed": false,
          "internalType": "bool",
          "name": "disputeRequested",
          "type": "bool"
        }
      ],
      "name": "RefundIssued",
      "type": "event"
    },
    {
      "inputs": [
        {
          "internalType": "uint256",
          "name": "rentalId",
          "type": "uint256"
        },
        {
          "internalType": "bool",
          "name": "status",
          "type": "bool"
        }
      ],
      "name": "changeDisputeStatus",
      "outputs": [],
      "stateMutability": "nonpayable",
      "type": "function"
    },
    {
      "inputs": [
        {
          "internalType": "uint256",
          "name": "rentalId",
          "type": "uint256"
        }
      ],
      "name": "deleteEscrowDetails",
      "outputs": [],
      "stateMutability": "nonpayable",
      "type": "function"
    },
    {
      "inputs": [
        {
          "internalType": "uint256",
          "name": "rentalId",
          "type": "uint256"
        },
        {
          "internalType": "uint256",
          "name": "_deposit",
          "type": "uint256"
        },
        {
          "internalType": "address",
          "name": "_boatOwner",
          "type": "address"
        },
        {
          "internalType": "address",
          "name": "_renter",
          "type": "address"
        }
      ],
      "name": "deposit",
      "outputs": [],
      "stateMutability": "payable",
      "type": "function"
    },
    {
      "inputs": [
        {
          "internalType": "uint256",
          "name": "rentalId",
          "type": "uint256"
        },
        {
          "internalType": "uint256",
          "name": "boatOwnerAmount",
          "type": "uint256"
        },
        {
          "internalType": "uint256",
          "name": "renterAmount",
          "type": "uint256"
        }
      ],
      "name": "disputeFunds",
      "outputs": [],
      "stateMutability": "nonpayable",
      "type": "function"
    },
    {
      "inputs": [
        {
          "internalType": "uint256",
          "name": "",
          "type": "uint256"
        }
      ],
      "name": "escrowDetails",
      "outputs": [
        {
          "internalType": "uint256",
          "name": "rentalFee",
          "type": "uint256"
        },
        {
          "internalType": "uint256",
          "name": "securityDeposit",
          "type": "uint256"
        },
        {
          "internalType": "address",
          "name": "boatOwner",
          "type": "address"
        },
        {
          "internalType": "address",
          "name": "renter",
          "type": "address"
        },
        {
          "internalType": "bool",
          "name": "disputeRequested",
          "type": "bool"
        }
      ],
      "stateMutability": "view",
      "type": "function"
    },
    {
      "inputs": [
        {
          "internalType": "uint256",
          "name": "rentalId",
          "type": "uint256"
        }
      ],
      "name": "fundsRelease",
      "outputs": [],
      "stateMutability": "nonpayable",
      "type": "function"
    },
    {
      "inputs": [
        {
          "internalType": "uint256",
          "name": "rentalId",
          "type": "uint256"
        }
      ],
      "name": "getEscrowDetails",
      "outputs": [
        {
          "internalType": "uint256",
          "name": "",
          "type": "uint256"
        },
        {
          "internalType": "uint256",
          "name": "",
          "type": "uint256"
        },
        {
          "internalType": "address",
          "name": "",
          "type": "address"
        },
        {
          "internalType": "address",
          "name": "",
          "type": "address"
        },
        {
          "internalType": "bool",
          "name": "",
          "type": "bool"
        }
      ],
      "stateMutability": "view",
      "type": "function"
    },
    {
      "inputs": [
        {
          "internalType": "uint256",
          "name": "rentalId",
          "type": "uint256"
        }
      ],
      "name": "issueRefund",
      "outputs": [],
      "stateMutability": "payable",
      "type": "function"
    },
    {
      "inputs": [],
      "name": "owner",
      "outputs": [
        {
          "internalType": "address",
          "name": "",
          "type": "address"
        }
      ],
      "stateMutability": "view",
      "type": "function"
    },
    {
      "inputs": [],
      "name": "renounceOwnership",
      "outputs": [],
      "stateMutability": "nonpayable",
      "type": "function"
    },
    {
      "inputs": [
        {
          "internalType": "address",
          "name": "newOwner",
          "type": "address"
        }
      ],
      "name": "transferOwnership",
      "outputs": [],
      "stateMutability": "nonpayable",
      "type": "function"
    }
  ],
  "bytecode": "0x608060405234801561001057600080fd5b5061002d61002261003960201b60201c565b61004160201b60201c565b60018081905550610105565b600033905090565b60008060009054906101000a900473ffffffffffffffffffffffffffffffffffffffff169050816000806101000a81548173ffffffffffffffffffffffffffffffffffffffff021916908373ffffffffffffffffffffffffffffffffffffffff1602179055508173ffffffffffffffffffffffffffffffffffffffff168173ffffffffffffffffffffffffffffffffffffffff167f8be0079c531659141344cd1fd0a4f28419497f9722a3daafe3b4186f6b6457e060405160405180910390a35050565b611cc7806101146000396000f3fe60806040526004361061009c5760003560e01c80638da5cb5b116100645780638da5cb5b1461015a578063af13cb1814610185578063b996ec2a146101ae578063cf297bcc146101ef578063e9b0567814610218578063f2fde38b146102415761009c565b806305833f40146100a157806328467624146100e2578063715018a61461010b5780637584e1971461012257806384715b111461013e575b600080fd5b3480156100ad57600080fd5b506100c860048036038101906100c39190611398565b61026a565b6040516100d9959493929190611889565b60405180910390f35b3480156100ee57600080fd5b5061010960048036038101906101049190611460565b6102ed565b005b34801561011757600080fd5b506101206105d8565b005b61013c60048036038101906101379190611398565b610660565b005b610158600480360381019061015391906113fd565b61090b565b005b34801561016657600080fd5b5061016f610b44565b60405161017c9190611680565b60405180910390f35b34801561019157600080fd5b506101ac60048036038101906101a791906113c1565b610b6d565b005b3480156101ba57600080fd5b506101d560048036038101906101d09190611398565b610ccb565b6040516101e6959493929190611889565b60405180910390f35b3480156101fb57600080fd5b5061021660048036038101906102119190611398565b610d63565b005b34801561022457600080fd5b5061023f600480360381019061023a9190611398565b61100e565b005b34801561024d57600080fd5b506102686004803603810190610263919061136f565b61116c565b005b60026020528060005260406000206000915090508060000154908060010154908060020160009054906101000a900473ffffffffffffffffffffffffffffffffffffffff16908060030160009054906101000a900473ffffffffffffffffffffffffffffffffffffffff16908060030160149054906101000a900460ff16905085565b6102f5611264565b73ffffffffffffffffffffffffffffffffffffffff16610313610b44565b73ffffffffffffffffffffffffffffffffffffffff1614610369576040517f08c379a000000000000000000000000000000000000000000000000000000000815260040161036090611764565b60405180910390fd5b60006002600085815260200190815260200160002090508060030160149054906101000a900460ff166103d1576040517f08c379a00000000000000000000000000000000000000000000000000000000081526004016103c890611744565b60405180910390fd5b806000015481600101546103e591906118ed565b82846103f191906118ed565b14610431576040517f08c379a0000000000000000000000000000000000000000000000000000000008152600401610428906117a4565b60405180910390fd5b600081600101819055506000816000018190555060008160030160146101000a81548160ff02191690831515021790555060008311156104d7578060020160009054906101000a900473ffffffffffffffffffffffffffffffffffffffff1673ffffffffffffffffffffffffffffffffffffffff166108fc849081150290604051600060405180830381858888f193505050501580156104d5573d6000803e3d6000fd5b505b600082111561054c578060030160009054906101000a900473ffffffffffffffffffffffffffffffffffffffff1673ffffffffffffffffffffffffffffffffffffffff166108fc839081150290604051600060405180830381858888f1935050505015801561054a573d6000803e3d6000fd5b505b837f0fd2ede8cecb3470fdf951d3251a87ca56a3824614f03a11de216eb59c005d1884848460020160009054906101000a900473ffffffffffffffffffffffffffffffffffffffff168560030160009054906101000a900473ffffffffffffffffffffffffffffffffffffffff166040516105ca9493929190611844565b60405180910390a250505050565b6105e0611264565b73ffffffffffffffffffffffffffffffffffffffff166105fe610b44565b73ffffffffffffffffffffffffffffffffffffffff1614610654576040517f08c379a000000000000000000000000000000000000000000000000000000000815260040161064b90611764565b60405180910390fd5b61065e600061126c565b565b600260015414156106a6576040517f08c379a000000000000000000000000000000000000000000000000000000000815260040161069d90611824565b60405180910390fd5b600260018190555060006002600083815260200190815260200160002090508060030160149054906101000a900460ff1615610717576040517f08c379a000000000000000000000000000000000000000000000000000000000815260040161070e90611804565b60405180910390fd5b60008160010154905060008260000154905060008211806107385750600081115b610777576040517f08c379a000000000000000000000000000000000000000000000000000000000815260040161076e906117c4565b60405180910390fd5b60008360010181905550600083600001819055506000821115610800578260030160009054906101000a900473ffffffffffffffffffffffffffffffffffffffff1673ffffffffffffffffffffffffffffffffffffffff166108fc839081150290604051600060405180830381858888f193505050501580156107fe573d6000803e3d6000fd5b505b6000811115610875578260030160009054906101000a900473ffffffffffffffffffffffffffffffffffffffff1673ffffffffffffffffffffffffffffffffffffffff166108fc829081150290604051600060405180830381858888f19350505050158015610873573d6000803e3d6000fd5b505b837f8009bd273a1878d5aa2af5fca326145f79ea6eba9c8215537d5915fbb9163c9082848660020160009054906101000a900473ffffffffffffffffffffffffffffffffffffffff168760030160009054906101000a900473ffffffffffffffffffffffffffffffffffffffff1660006040516108f6959493929190611889565b60405180910390a25050506001808190555050565b60026001541415610951576040517f08c379a000000000000000000000000000000000000000000000000000000000815260040161094890611824565b60405180910390fd5b600260018190555060006002600086815260200190815260200160002060010154146109b2576040517f08c379a00000000000000000000000000000000000000000000000000000000081526004016109a990611724565b60405180910390fd5b600083346109c09190611943565b9050806002600087815260200190815260200160002060000160008282546109e891906118ed565b9250508190555083600260008781526020019081526020016000206001016000828254610a1591906118ed565b92505081905550826002600087815260200190815260200160002060020160006101000a81548173ffffffffffffffffffffffffffffffffffffffff021916908373ffffffffffffffffffffffffffffffffffffffff160217905550816002600087815260200190815260200160002060030160006101000a81548173ffffffffffffffffffffffffffffffffffffffff021916908373ffffffffffffffffffffffffffffffffffffffff16021790555060006002600087815260200190815260200160002060030160146101000a81548160ff021916908315150217905550847ffda5dc9d3dcc4a6a35a279c4df47e818916f4ecc4bd0a97cda75e83605b6c4c2828686866000604051610b2e959493929190611889565b60405180910390a2506001808190555050505050565b60008060009054906101000a900473ffffffffffffffffffffffffffffffffffffffff16905090565b60006002600084815260200190815260200160002090508060020160009054906101000a900473ffffffffffffffffffffffffffffffffffffffff1673ffffffffffffffffffffffffffffffffffffffff163373ffffffffffffffffffffffffffffffffffffffff161480610c3157508060030160009054906101000a900473ffffffffffffffffffffffffffffffffffffffff1673ffffffffffffffffffffffffffffffffffffffff163373ffffffffffffffffffffffffffffffffffffffff16145b610c70576040517f08c379a0000000000000000000000000000000000000000000000000000000008152600401610c6790611704565b60405180910390fd5b818160030160146101000a81548160ff021916908315150217905550827f94079738edf75bbc1e27af0afc2d2bd89f60b13259ee2e847d1d04bab05ae2e38333604051610cbe92919061169b565b60405180910390a2505050565b600080600080600080600260008881526020019081526020016000209050806000015481600101548260020160009054906101000a900473ffffffffffffffffffffffffffffffffffffffff168360030160009054906101000a900473ffffffffffffffffffffffffffffffffffffffff168460030160149054906101000a900460ff16955095509550955095505091939590929450565b60026001541415610da9576040517f08c379a0000000000000000000000000000000000000000000000000000000008152600401610da090611824565b60405180910390fd5b600260018190555060006002600083815260200190815260200160002090508060030160149054906101000a900460ff1615610e1a576040517f08c379a0000000000000000000000000000000000000000000000000000000008152600401610e1190611804565b60405180910390fd5b6000816001015490506000826000015490506000821180610e3b5750600081115b610e7a576040517f08c379a0000000000000000000000000000000000000000000000000000000008152600401610e71906116e4565b60405180910390fd5b60008360010181905550600083600001819055506000821115610f03578260030160009054906101000a900473ffffffffffffffffffffffffffffffffffffffff1673ffffffffffffffffffffffffffffffffffffffff166108fc839081150290604051600060405180830381858888f19350505050158015610f01573d6000803e3d6000fd5b505b6000811115610f78578260020160009054906101000a900473ffffffffffffffffffffffffffffffffffffffff1673ffffffffffffffffffffffffffffffffffffffff166108fc829081150290604051600060405180830381858888f19350505050158015610f76573d6000803e3d6000fd5b505b837f373e264bdf25eb7fe7e3ba02e5898dba19a24492cfdeeab22cc07f072563191582848660020160009054906101000a900473ffffffffffffffffffffffffffffffffffffffff168760030160009054906101000a900473ffffffffffffffffffffffffffffffffffffffff166000604051610ff9959493929190611889565b60405180910390a25050506001808190555050565b6000600260008381526020019081526020016000209050600081600101541461106c576040517f08c379a0000000000000000000000000000000000000000000000000000000008152600401611063906117e4565b60405180910390fd5b60008160000154146110b3576040517f08c379a00000000000000000000000000000000000000000000000000000000081526004016110aa90611784565b60405180910390fd5b6002600083815260200190815260200160002060008082016000905560018201600090556002820160006101000a81549073ffffffffffffffffffffffffffffffffffffffff02191690556003820160006101000a81549073ffffffffffffffffffffffffffffffffffffffff02191690556003820160146101000a81549060ff02191690555050817ff6a1cb4d6e49b0d2121c79f241d11d51836e67fc1720c7ae491465ae0d755f4360405160405180910390a25050565b611174611264565b73ffffffffffffffffffffffffffffffffffffffff16611192610b44565b73ffffffffffffffffffffffffffffffffffffffff16146111e8576040517f08c379a00000000000000000000000000000000000000000000000000000000081526004016111df90611764565b60405180910390fd5b600073ffffffffffffffffffffffffffffffffffffffff168173ffffffffffffffffffffffffffffffffffffffff161415611258576040517f08c379a000000000000000000000000000000000000000000000000000000000815260040161124f906116c4565b60405180910390fd5b6112618161126c565b50565b600033905090565b60008060009054906101000a900473ffffffffffffffffffffffffffffffffffffffff169050816000806101000a81548173ffffffffffffffffffffffffffffffffffffffff021916908373ffffffffffffffffffffffffffffffffffffffff1602179055508173ffffffffffffffffffffffffffffffffffffffff168173ffffffffffffffffffffffffffffffffffffffff167f8be0079c531659141344cd1fd0a4f28419497f9722a3daafe3b4186f6b6457e060405160405180910390a35050565b60008135905061133f81611c4c565b92915050565b60008135905061135481611c63565b92915050565b60008135905061136981611c7a565b92915050565b60006020828403121561138157600080fd5b600061138f84828501611330565b91505092915050565b6000602082840312156113aa57600080fd5b60006113b88482850161135a565b91505092915050565b600080604083850312156113d457600080fd5b60006113e28582860161135a565b92505060206113f385828601611345565b9150509250929050565b6000806000806080858703121561141357600080fd5b60006114218782880161135a565b94505060206114328782880161135a565b935050604061144387828801611330565b925050606061145487828801611330565b91505092959194509250565b60008060006060848603121561147557600080fd5b60006114838682870161135a565b93505060206114948682870161135a565b92505060406114a58682870161135a565b9150509250925092565b6114b881611977565b82525050565b6114c781611989565b82525050565b60006114da6026836118dc565b91506114e5826119ee565b604082019050919050565b60006114fd601e836118dc565b915061150882611a3d565b602082019050919050565b6000611520601f836118dc565b915061152b82611a66565b602082019050919050565b60006115436019836118dc565b915061154e82611a8f565b602082019050919050565b60006115666015836118dc565b915061157182611ab8565b602082019050919050565b60006115896020836118dc565b915061159482611ae1565b602082019050919050565b60006115ac6017836118dc565b91506115b782611b0a565b602082019050919050565b60006115cf6025836118dc565b91506115da82611b33565b604082019050919050565b60006115f2601d836118dc565b91506115fd82611b82565b602082019050919050565b6000611615601d836118dc565b915061162082611bab565b602082019050919050565b60006116386027836118dc565b915061164382611bd4565b604082019050919050565b600061165b601f836118dc565b915061166682611c23565b602082019050919050565b61167a816119b5565b82525050565b600060208201905061169560008301846114af565b92915050565b60006040820190506116b060008301856114be565b6116bd60208301846114af565b9392505050565b600060208201905081810360008301526116dd816114cd565b9050919050565b600060208201905081810360008301526116fd816114f0565b9050919050565b6000602082019050818103600083015261171d81611513565b9050919050565b6000602082019050818103600083015261173d81611536565b9050919050565b6000602082019050818103600083015261175d81611559565b9050919050565b6000602082019050818103600083015261177d8161157c565b9050919050565b6000602082019050818103600083015261179d8161159f565b9050919050565b600060208201905081810360008301526117bd816115c2565b9050919050565b600060208201905081810360008301526117dd816115e5565b9050919050565b600060208201905081810360008301526117fd81611608565b9050919050565b6000602082019050818103600083015261181d8161162b565b9050919050565b6000602082019050818103600083015261183d8161164e565b9050919050565b60006080820190506118596000830187611671565b6118666020830186611671565b61187360408301856114af565b61188060608301846114af565b95945050505050565b600060a08201905061189e6000830188611671565b6118ab6020830187611671565b6118b860408301866114af565b6118c560608301856114af565b6118d260808301846114be565b9695505050505050565b600082825260208201905092915050565b60006118f8826119b5565b9150611903836119b5565b9250827fffffffffffffffffffffffffffffffffffffffffffffffffffffffffffffffff03821115611938576119376119bf565b5b828201905092915050565b600061194e826119b5565b9150611959836119b5565b92508282101561196c5761196b6119bf565b5b828203905092915050565b600061198282611995565b9050919050565b60008115159050919050565b600073ffffffffffffffffffffffffffffffffffffffff82169050919050565b6000819050919050565b7f4e487b7100000000000000000000000000000000000000000000000000000000600052601160045260246000fd5b7f4f776e61626c653a206e6577206f776e657220697320746865207a65726f206160008201527f6464726573730000000000000000000000000000000000000000000000000000602082015250565b7f4e6f2066756e647320617661696c61626c6520666f722072656c656173650000600082015250565b7f43616c6c6572206e6f7420626f6174206f776e6572206f722072656e74657200600082015250565b7f4465706f7369742065786973747320666f722072656e74616c00000000000000600082015250565b7f44697370757465206e6f74207265717565737465640000000000000000000000600082015250565b7f4f776e61626c653a2063616c6c6572206973206e6f7420746865206f776e6572600082015250565b7f52656e74616c20666565206d757374206265207a65726f000000000000000000600082015250565b7f446973707574656420616d6f756e7473206d6f72652f6c657373207468616e2060008201527f76616c7565000000000000000000000000000000000000000000000000000000602082015250565b7f4e6f2066756e647320617661696c61626c6520666f7220726566756e64000000600082015250565b7f5365637572697479206465706f736974206d757374206265207a65726f000000600082015250565b7f44697370757465207265717565737465642c2063616e6e6f742072656c65617360008201527f652066756e647300000000000000000000000000000000000000000000000000602082015250565b7f5265656e7472616e637947756172643a207265656e7472616e742063616c6c00600082015250565b611c5581611977565b8114611c6057600080fd5b50565b611c6c81611989565b8114611c7757600080fd5b50565b611c83816119b5565b8114611c8e57600080fd5b5056fea26469706673582212203d091241e838e71c35b074d49a386035d17e56dec10540f410694fc10863ce8764736f6c63430008040033",
  "linkReferences": {},
  "deployedLinkReferences": {}
}