{
  "_format": "hh-sol-artifact-1",
  "contractName": "RentalTermsManager",
  "sourceName": "src/backend/contracts/AhoyRentals/RentalTermsManager.sol",
  "abi": [
    {
      "inputs": [
        {
          "internalType": "address",
          "name": "_usdc",
          "type": "address"
        },
        {
          "internalType": "address",
          "name": "_ahoyToken",
          "type": "address"
        }
      ],
      "stateMutability": "nonpayable",
      "type": "constructor"
    },
    {
      "inputs": [
        {
          "internalType": "address",
          "name": "owner",
          "type": "address"
        }
      ],
      "name": "OwnableInvalidOwner",
      "type": "error"
    },
    {
      "inputs": [
        {
          "internalType": "address",
          "name": "account",
          "type": "address"
        }
      ],
      "name": "OwnableUnauthorizedAccount",
      "type": "error"
    },
    {
      "anonymous": false,
      "inputs": [
        {
          "indexed": false,
          "internalType": "string",
          "name": "name",
          "type": "string"
        },
        {
          "indexed": true,
          "internalType": "address",
          "name": "oldAddr",
          "type": "address"
        },
        {
          "indexed": true,
          "internalType": "address",
          "name": "newAddr",
          "type": "address"
        }
      ],
      "name": "AddressUpdated",
      "type": "event"
    },
    {
      "anonymous": false,
      "inputs": [
        {
          "indexed": true,
          "internalType": "uint256",
          "name": "boatId",
          "type": "uint256"
        },
        {
          "indexed": false,
          "internalType": "bool",
          "name": "isRentable",
          "type": "bool"
        }
      ],
      "name": "BoatOwnerConsentToggled",
      "type": "event"
    },
    {
      "anonymous": false,
      "inputs": [
        {
          "indexed": true,
          "internalType": "address",
          "name": "previousOwner",
          "type": "address"
        },
        {
          "indexed": true,
          "internalType": "address",
          "name": "newOwner",
          "type": "address"
        }
      ],
      "name": "OwnershipTransferred",
      "type": "event"
    },
    {
      "anonymous": false,
      "inputs": [
        {
          "indexed": true,
          "internalType": "uint256",
          "name": "boatId",
          "type": "uint256"
        },
        {
          "indexed": false,
          "internalType": "uint256",
          "name": "oldHourlyRate",
          "type": "uint256"
        },
        {
          "indexed": false,
          "internalType": "uint256",
          "name": "hourlyRate",
          "type": "uint256"
        },
        {
          "indexed": false,
          "internalType": "uint256",
          "name": "oldDailyRate",
          "type": "uint256"
        },
        {
          "indexed": false,
          "internalType": "uint256",
          "name": "dailyRate",
          "type": "uint256"
        },
        {
          "indexed": false,
          "internalType": "uint256",
          "name": "oldClosedPeriod",
          "type": "uint256"
        },
        {
          "indexed": false,
          "internalType": "uint256",
          "name": "closedPeriod",
          "type": "uint256"
        },
        {
          "indexed": false,
          "internalType": "uint256",
          "name": "oldRefundabilityPeriod",
          "type": "uint256"
        },
        {
          "indexed": false,
          "internalType": "uint256",
          "name": "refundabilityPeriod",
          "type": "uint256"
        },
        {
          "indexed": false,
          "internalType": "uint256",
          "name": "oldSecurityDeposit",
          "type": "uint256"
        },
        {
          "indexed": false,
          "internalType": "uint256",
          "name": "securityDeposit",
          "type": "uint256"
        }
      ],
      "name": "TermsSet",
      "type": "event"
    },
    {
      "inputs": [],
      "name": "getAhoyToken",
      "outputs": [
        {
          "internalType": "address",
          "name": "",
          "type": "address"
        }
      ],
      "stateMutability": "view",
      "type": "function"
    },
    {
      "inputs": [],
      "name": "getUsdc",
      "outputs": [
        {
          "internalType": "address",
          "name": "",
          "type": "address"
        }
      ],
      "stateMutability": "view",
      "type": "function"
    },
    {
      "inputs": [],
      "name": "owner",
      "outputs": [
        {
          "internalType": "address",
          "name": "",
          "type": "address"
        }
      ],
      "stateMutability": "view",
      "type": "function"
    },
    {
      "inputs": [],
      "name": "renounceOwnership",
      "outputs": [],
      "stateMutability": "nonpayable",
      "type": "function"
    },
    {
      "inputs": [
        {
          "internalType": "address",
          "name": "newAddr",
          "type": "address"
        }
      ],
      "name": "setAhoyToken",
      "outputs": [],
      "stateMutability": "nonpayable",
      "type": "function"
    },
    {
      "inputs": [
        {
          "internalType": "uint256",
          "name": "boatId",
          "type": "uint256"
        },
        {
          "internalType": "uint256",
          "name": "hourlyRate",
          "type": "uint256"
        },
        {
          "internalType": "uint256",
          "name": "dailyRate",
          "type": "uint256"
        },
        {
          "internalType": "uint256",
          "name": "closedPeriod",
          "type": "uint256"
        },
        {
          "internalType": "uint256",
          "name": "refundabilityPeriod",
          "type": "uint256"
        },
        {
          "internalType": "uint256",
          "name": "securityDeposit",
          "type": "uint256"
        }
      ],
      "name": "setRentalTerms",
      "outputs": [],
      "stateMutability": "nonpayable",
      "type": "function"
    },
    {
      "inputs": [
        {
          "internalType": "address",
          "name": "newAddr",
          "type": "address"
        }
      ],
      "name": "setUsdc",
      "outputs": [],
      "stateMutability": "nonpayable",
      "type": "function"
    },
    {
      "inputs": [
        {
          "internalType": "uint256",
          "name": "boatId",
          "type": "uint256"
        }
      ],
      "name": "terms",
      "outputs": [
        {
          "components": [
            {
              "internalType": "uint256",
              "name": "hourlyRate",
              "type": "uint256"
            },
            {
              "internalType": "uint256",
              "name": "dailyRate",
              "type": "uint256"
            },
            {
              "internalType": "uint256",
              "name": "closedPeriod",
              "type": "uint256"
            },
            {
              "internalType": "uint256",
              "name": "refundabilityPeriod",
              "type": "uint256"
            },
            {
              "internalType": "uint256",
              "name": "securityDeposit",
              "type": "uint256"
            }
          ],
          "internalType": "struct RentalTermsManager.RentalTerms",
          "name": "",
          "type": "tuple"
        }
      ],
      "stateMutability": "view",
      "type": "function"
    },
    {
      "inputs": [
        {
          "internalType": "address",
          "name": "newOwner",
          "type": "address"
        }
      ],
      "name": "transferOwnership",
      "outputs": [],
      "stateMutability": "nonpayable",
      "type": "function"
    }
  ],
  "bytecode": "0x60c06040526011608090815270216861734f776e657228626f617449642960781b60a0526004906200003290826200023f565b5060408051808201909152600b81526a08585d5d1a1bdc9a5e995960aa1b60208201526005906200006490826200023f565b5060408051808201909152601481527f496e76616c69642052656e74616c205465726d730000000000000000000000006020820152600690620000a890826200023f565b50348015620000b657600080fd5b5060405162000c9138038062000c91833981016040819052620000d99162000328565b8181808233806200010457604051631e4fbdf760e01b81526000600482015260240160405180910390fd5b6200010f816200014a565b50600180546001600160a01b039283166001600160a01b03199182161790915560028054939092169216919091179055506200036092505050565b600080546001600160a01b038381166001600160a01b0319831681178455604051919092169283917f8be0079c531659141344cd1fd0a4f28419497f9722a3daafe3b4186f6b6457e09190a35050565b634e487b7160e01b600052604160045260246000fd5b600181811c90821680620001c557607f821691505b602082108103620001e657634e487b7160e01b600052602260045260246000fd5b50919050565b601f8211156200023a57600081815260208120601f850160051c81016020861015620002155750805b601f850160051c820191505b81811015620002365782815560010162000221565b5050505b505050565b81516001600160401b038111156200025b576200025b6200019a565b62000273816200026c8454620001b0565b84620001ec565b602080601f831160018114620002ab5760008415620002925750858301515b600019600386901b1c1916600185901b17855562000236565b600085815260208120601f198616915b82811015620002dc57888601518255948401946001909101908401620002bb565b5085821015620002fb5787850151600019600388901b60f8161c191681555b5050505050600190811b01905550565b80516001600160a01b03811681146200032357600080fd5b919050565b600080604083850312156200033c57600080fd5b62000347836200030b565b915062000357602084016200030b565b90509250929050565b61092180620003706000396000f3fe608060405234801561001057600080fd5b50600436106100935760003560e01c8063b86738ec11610066578063b86738ec146100f0578063c0aa0e8a14610103578063cb14687914610158578063d8fdbf7c1461016b578063f2fde38b1461017c57600080fd5b806312f3fe761461009857806316e3dae6146100c2578063715018a6146100d75780638da5cb5b146100df575b600080fd5b6001546001600160a01b03165b6040516001600160a01b0390911681526020015b60405180910390f35b6100d56100d03660046107a2565b61018f565b005b6100d56101a3565b6000546001600160a01b03166100a5565b6100d56100fe3660046107c6565b6101b7565b610116610111366004610809565b6104c8565b6040516100b99190600060a082019050825182526020830151602083015260408301516040830152606083015160608301526080830151608083015292915050565b6100d56101663660046107a2565b610548565b6002546001600160a01b03166100a5565b6100d561018a3660046107a2565b610559565b610197610594565b6101a0816105c1565b50565b6101ab610594565b6101b56000610649565b565b8560006101c382610699565b905060046001600160a01b0382166101f75760405162461bcd60e51b81526004016101ee9190610822565b60405180910390fd5b506001600160a01b03811633148061022857503361021d6000546001600160a01b031690565b6001600160a01b0316145b6005906102485760405162461bcd60e51b81526004016101ee9190610822565b506000871161028a5760405162461bcd60e51b815260206004820152600e60248201526d0686f75726c7952617465203c20360941b60448201526064016101ee565b600086116102ca5760405162461bcd60e51b815260206004820152600d60248201526c06461696c7952617465203c203609c1b60448201526064016101ee565b6000851161030d5760405162461bcd60e51b815260206004820152601060248201526f0636c6f736564506572696f64203c20360841b60448201526064016101ee565b6000841161035d5760405162461bcd60e51b815260206004820152601760248201527f726566756e646162696c697479506572696f64203c203000000000000000000060448201526064016101ee565b600083116103a35760405162461bcd60e51b8152602060048201526013602482015272073656375726974794465706f736974203c203606c1b60448201526064016101ee565b60006103ae896104c8565b90506040518060a0016040528089815260200188815260200187815260200186815260200185815250600360008b81526020019081526020016000206000820151816000015560208201518160010155604082015181600201556060820151816003015560808201518160040155905050887fdd455da24a9a52a5f49d9d3196f6c0c89ae04551594842e744ed47060517ea4582600001518a84602001518b86604001518c88606001518d8a608001518e6040516104b59a99989796959493929190998a5260208a019890985260408901969096526060880194909452608087019290925260a086015260c085015260e08401526101008301526101208201526101400190565b60405180910390a2505050505050505050565b6104fa6040518060a0016040528060008152602001600081526020016000815260200160008152602001600081525090565b50600090815260036020818152604092839020835160a08101855281548152600182015492810192909252600281015493820193909352908201546060820152600490910154608082015290565b610550610594565b6101a081610721565b610561610594565b6001600160a01b03811661058b57604051631e4fbdf760e01b8152600060048201526024016101ee565b6101a081610649565b6000546001600160a01b031633146101b55760405163118cdaa760e01b81523360048201526024016101ee565b600280546001600160a01b038381166001600160a01b0319831681179093556040519116919082907f7878dffb4ada647885186a00ea129964d140835f125808ba48b1f3974b5f81899061063d9060208082526014908201527341686f7920546f6b656e697a656420426f61747360601b604082015260600190565b60405180910390a35050565b600080546001600160a01b038381166001600160a01b0319831681178455604051919092169283917f8be0079c531659141344cd1fd0a4f28419497f9722a3daafe3b4186f6b6457e09190a35050565b60006106ad6002546001600160a01b031690565b6001600160a01b0316636352211e836040518263ffffffff1660e01b81526004016106da91815260200190565b602060405180830381865afa1580156106f7573d6000803e3d6000fd5b505050506040513d601f19601f8201168201806040525081019061071b91906108ce565b92915050565b600180546001600160a01b038381166001600160a01b0319831681179093556040519116919082907f7878dffb4ada647885186a00ea129964d140835f125808ba48b1f3974b5f81899061063d906020808252600490820152635553444360e01b604082015260600190565b6001600160a01b03811681146101a057600080fd5b6000602082840312156107b457600080fd5b81356107bf8161078d565b9392505050565b60008060008060008060c087890312156107df57600080fd5b505084359660208601359650604086013595606081013595506080810135945060a0013592509050565b60006020828403121561081b57600080fd5b5035919050565b600060208083526000845481600182811c91508083168061084457607f831692505b858310810361086157634e487b7160e01b85526022600452602485fd5b87860183815260200181801561087e5760018114610894576108bf565b60ff198616825284151560051b820196506108bf565b60008b81526020902060005b868110156108b9578154848201529085019089016108a0565b83019750505b50949998505050505050505050565b6000602082840312156108e057600080fd5b81516107bf8161078d56fea26469706673582212201c19d4dd48d92c12a03efef695d728212e3aad5da6a6d8d1f91f553b0119735064736f6c63430008140033",
  "linkReferences": {},
  "deployedLinkReferences": {}
}