{
  "_format": "hh-sol-artifact-1",
  "contractName": "AhoyMarket",
  "sourceName": "src/backend/contracts/Market.sol",
  "abi": [
    {
      "inputs": [
        {
          "internalType": "address",
          "name": "token",
          "type": "address"
        },
        {
          "internalType": "address",
          "name": "_usdc",
          "type": "address"
        }
      ],
      "stateMutability": "nonpayable",
      "type": "constructor"
    },
    {
      "inputs": [
        {
          "internalType": "address",
          "name": "owner",
          "type": "address"
        }
      ],
      "name": "OwnableInvalidOwner",
      "type": "error"
    },
    {
      "inputs": [
        {
          "internalType": "address",
          "name": "account",
          "type": "address"
        }
      ],
      "name": "OwnableUnauthorizedAccount",
      "type": "error"
    },
    {
      "anonymous": false,
      "inputs": [
        {
          "indexed": true,
          "internalType": "uint256",
          "name": "boatId",
          "type": "uint256"
        },
        {
          "indexed": false,
          "internalType": "uint256",
          "name": "price",
          "type": "uint256"
        }
      ],
      "name": "BoatListedSuccess",
      "type": "event"
    },
    {
      "anonymous": false,
      "inputs": [
        {
          "indexed": true,
          "internalType": "uint256",
          "name": "boatId",
          "type": "uint256"
        },
        {
          "indexed": false,
          "internalType": "address",
          "name": "buyer",
          "type": "address"
        },
        {
          "indexed": false,
          "internalType": "address",
          "name": "seller",
          "type": "address"
        },
        {
          "indexed": false,
          "internalType": "uint256",
          "name": "price",
          "type": "uint256"
        }
      ],
      "name": "BoatSold",
      "type": "event"
    },
    {
      "anonymous": false,
      "inputs": [
        {
          "indexed": true,
          "internalType": "uint256",
          "name": "boatId",
          "type": "uint256"
        },
        {
          "indexed": false,
          "internalType": "bool",
          "name": "newCurrentlyListed",
          "type": "bool"
        }
      ],
      "name": "CurrentlyListedUpdated",
      "type": "event"
    },
    {
      "anonymous": false,
      "inputs": [
        {
          "indexed": true,
          "internalType": "address",
          "name": "previousOwner",
          "type": "address"
        },
        {
          "indexed": true,
          "internalType": "address",
          "name": "newOwner",
          "type": "address"
        }
      ],
      "name": "OwnershipTransferred",
      "type": "event"
    },
    {
      "anonymous": false,
      "inputs": [
        {
          "indexed": true,
          "internalType": "uint256",
          "name": "boatId",
          "type": "uint256"
        },
        {
          "indexed": false,
          "internalType": "uint256",
          "name": "newSellPrice",
          "type": "uint256"
        }
      ],
      "name": "sellPriceUpdated",
      "type": "event"
    },
    {
      "inputs": [],
      "name": "ahoyToken",
      "outputs": [
        {
          "internalType": "address",
          "name": "",
          "type": "address"
        }
      ],
      "stateMutability": "view",
      "type": "function"
    },
    {
      "inputs": [
        {
          "internalType": "uint256",
          "name": "boatId",
          "type": "uint256"
        },
        {
          "internalType": "uint256",
          "name": "price",
          "type": "uint256"
        }
      ],
      "name": "createListedToken",
      "outputs": [],
      "stateMutability": "nonpayable",
      "type": "function"
    },
    {
      "inputs": [
        {
          "internalType": "uint256",
          "name": "boatId",
          "type": "uint256"
        }
      ],
      "name": "executeSale",
      "outputs": [],
      "stateMutability": "nonpayable",
      "type": "function"
    },
    {
      "inputs": [
        {
          "internalType": "uint256",
          "name": "boatId",
          "type": "uint256"
        }
      ],
      "name": "getAskingPrice",
      "outputs": [
        {
          "internalType": "uint256",
          "name": "price",
          "type": "uint256"
        }
      ],
      "stateMutability": "view",
      "type": "function"
    },
    {
      "inputs": [],
      "name": "owner",
      "outputs": [
        {
          "internalType": "address",
          "name": "",
          "type": "address"
        }
      ],
      "stateMutability": "view",
      "type": "function"
    },
    {
      "inputs": [],
      "name": "renounceOwnership",
      "outputs": [],
      "stateMutability": "nonpayable",
      "type": "function"
    },
    {
      "inputs": [
        {
          "internalType": "address",
          "name": "newOwner",
          "type": "address"
        }
      ],
      "name": "transferOwnership",
      "outputs": [],
      "stateMutability": "nonpayable",
      "type": "function"
    },
    {
      "inputs": [
        {
          "internalType": "uint256",
          "name": "boatId",
          "type": "uint256"
        },
        {
          "internalType": "uint256",
          "name": "newSellPrice",
          "type": "uint256"
        }
      ],
      "name": "updateSellPrice",
      "outputs": [],
      "stateMutability": "nonpayable",
      "type": "function"
    },
    {
      "inputs": [],
      "name": "usdc",
      "outputs": [
        {
          "internalType": "address",
          "name": "",
          "type": "address"
        }
      ],
      "stateMutability": "view",
      "type": "function"
    }
  ],
  "bytecode": "0x60c0604052600b60809081526a08585d5d1a1bdc9a5e995960aa1b60a0526005906200002c9082620001ef565b50604080518082019091526011815270216861734f776e657228626f617449642960781b6020820152600690620000649082620001ef565b503480156200007257600080fd5b5060405162000abb38038062000abb8339810160408190526200009591620002d8565b3380620000bc57604051631e4fbdf760e01b81526000600482015260240160405180910390fd5b620000c781620000fa565b50600180546001600160a01b039384166001600160a01b0319918216179091556002805492909316911617905562000310565b600080546001600160a01b038381166001600160a01b0319831681178455604051919092169283917f8be0079c531659141344cd1fd0a4f28419497f9722a3daafe3b4186f6b6457e09190a35050565b634e487b7160e01b600052604160045260246000fd5b600181811c908216806200017557607f821691505b6020821081036200019657634e487b7160e01b600052602260045260246000fd5b50919050565b601f821115620001ea57600081815260208120601f850160051c81016020861015620001c55750805b601f850160051c820191505b81811015620001e657828155600101620001d1565b5050505b505050565b81516001600160401b038111156200020b576200020b6200014a565b62000223816200021c845462000160565b846200019c565b602080601f8311600181146200025b5760008415620002425750858301515b600019600386901b1c1916600185901b178555620001e6565b600085815260208120601f198616915b828110156200028c578886015182559484019460019091019084016200026b565b5085821015620002ab5787850151600019600388901b60f8161c191681555b5050505050600190811b01905550565b80516001600160a01b0381168114620002d357600080fd5b919050565b60008060408385031215620002ec57600080fd5b620002f783620002bb565b91506200030760208401620002bb565b90509250929050565b61079b80620003206000396000f3fe608060405234801561001057600080fd5b50600436106100935760003560e01c806355524f561161006657806355524f561461011e578063715018a6146101315780638da5cb5b146101395780639b1225c41461014a578063f2fde38b1461015d57600080fd5b80631e5ad7b0146100985780632481a47c146100ad5780633e413bee146100dd578063451ba24c146100f0575b600080fd5b6100ab6100a6366004610608565b610170565b005b6001546100c0906001600160a01b031681565b6040516001600160a01b0390911681526020015b60405180910390f35b6002546100c0906001600160a01b031681565b6101106100fe36600461062a565b60009081526003602052604090205490565b6040519081526020016100d4565b6100ab61012c366004610608565b610258565b6100ab61037a565b6000546001600160a01b03166100c0565b6100ab61015836600461062a565b61038e565b6100ab61016b366004610643565b61054d565b60008281526004602052604090205482906001600160a01b03166006816101b35760405162461bcd60e51b81526004016101aa9190610673565b60405180910390fd5b506001600160a01b0381163314806101e45750336101d96000546001600160a01b031690565b6001600160a01b0316145b6005906102045760405162461bcd60e51b81526004016101aa9190610673565b50600084815260036020526040908190208490555184907f80214732cb7b51409e143594f22dd89c147c85da33438f45c0d1bcd95bc2d4009061024a9086815260200190565b60405180910390a250505050565b600081116102a85760405162461bcd60e51b815260206004820152601f60248201527f5072696365206d7573742062652067726561746572207468616e207a65726f0060448201526064016101aa565b60008281526003602090815260408083208490556004918290529182902080546001600160a01b0319163390811790915560015492516323b872dd60e01b81526001600160a01b0393909316926323b872dd9261030a9291309188910161071f565b600060405180830381600087803b15801561032457600080fd5b505af1158015610338573d6000803e3d6000fd5b50505050817ff5cef80f73243fc09b5c709abbb99903cc699f2b25ead8fedcb24f12d10a2b4c8260405161036e91815260200190565b60405180910390a25050565b61038261058b565b61038c60006105b8565b565b6000818152600460205260409020546001600160a01b031633816103de5760405162461bcd60e51b81526020600482015260076024820152662165786973747360c81b60448201526064016101aa565b600083815260036020526040812054908190036104285760405162461bcd60e51b815260206004820152600860248201526721666f7253616c6560c01b60448201526064016101aa565b6002546040516323b872dd60e01b81526001600160a01b03909116906323b872dd9061045c9085908790869060040161071f565b6020604051808303816000875af115801561047b573d6000803e3d6000fd5b505050506040513d601f19601f8201168201806040525081019061049f9190610743565b506001546040516323b872dd60e01b81526001600160a01b03909116906323b872dd906104d49030908690899060040161071f565b600060405180830381600087803b1580156104ee57600080fd5b505af1158015610502573d6000803e3d6000fd5b50505060008581526003602052604080822091909155518591507fb1670daeb3116c57cbe2be5e3eb4ccec0ecb1e2e12495e648b4d8f25186e01d69061024a9085908790869061071f565b61055561058b565b6001600160a01b03811661057f57604051631e4fbdf760e01b8152600060048201526024016101aa565b610588816105b8565b50565b6000546001600160a01b0316331461038c5760405163118cdaa760e01b81523360048201526024016101aa565b600080546001600160a01b038381166001600160a01b0319831681178455604051919092169283917f8be0079c531659141344cd1fd0a4f28419497f9722a3daafe3b4186f6b6457e09190a35050565b6000806040838503121561061b57600080fd5b50508035926020909101359150565b60006020828403121561063c57600080fd5b5035919050565b60006020828403121561065557600080fd5b81356001600160a01b038116811461066c57600080fd5b9392505050565b600060208083526000845481600182811c91508083168061069557607f831692505b85831081036106b257634e487b7160e01b85526022600452602485fd5b8786018381526020018180156106cf57600181146106e557610710565b60ff198616825284151560051b82019650610710565b60008b81526020902060005b8681101561070a578154848201529085019089016106f1565b83019750505b50949998505050505050505050565b6001600160a01b039384168152919092166020820152604081019190915260600190565b60006020828403121561075557600080fd5b8151801515811461066c57600080fdfea264697066735822122025974fe0f412b515ec76c5506d5f6a5f38c93681c1a7ea52152fecf3f2f804f664736f6c63430008140033",
  "linkReferences": {},
  "deployedLinkReferences": {}
}