{
  "_format": "hh-sol-artifact-1",
  "contractName": "AhoyTokenizedBoats",
  "sourceName": "src/backend/contracts/tokens/AhoyTokenizedBoats.sol",
  "abi": [
    {
      "inputs": [],
      "stateMutability": "nonpayable",
      "type": "constructor"
    },
    {
      "inputs": [
        {
          "internalType": "address",
          "name": "sender",
          "type": "address"
        },
        {
          "internalType": "uint256",
          "name": "tokenId",
          "type": "uint256"
        },
        {
          "internalType": "address",
          "name": "owner",
          "type": "address"
        }
      ],
      "name": "ERC721IncorrectOwner",
      "type": "error"
    },
    {
      "inputs": [
        {
          "internalType": "address",
          "name": "operator",
          "type": "address"
        },
        {
          "internalType": "uint256",
          "name": "tokenId",
          "type": "uint256"
        }
      ],
      "name": "ERC721InsufficientApproval",
      "type": "error"
    },
    {
      "inputs": [
        {
          "internalType": "address",
          "name": "approver",
          "type": "address"
        }
      ],
      "name": "ERC721InvalidApprover",
      "type": "error"
    },
    {
      "inputs": [
        {
          "internalType": "address",
          "name": "operator",
          "type": "address"
        }
      ],
      "name": "ERC721InvalidOperator",
      "type": "error"
    },
    {
      "inputs": [
        {
          "internalType": "address",
          "name": "owner",
          "type": "address"
        }
      ],
      "name": "ERC721InvalidOwner",
      "type": "error"
    },
    {
      "inputs": [
        {
          "internalType": "address",
          "name": "receiver",
          "type": "address"
        }
      ],
      "name": "ERC721InvalidReceiver",
      "type": "error"
    },
    {
      "inputs": [
        {
          "internalType": "address",
          "name": "sender",
          "type": "address"
        }
      ],
      "name": "ERC721InvalidSender",
      "type": "error"
    },
    {
      "inputs": [
        {
          "internalType": "uint256",
          "name": "tokenId",
          "type": "uint256"
        }
      ],
      "name": "ERC721NonexistentToken",
      "type": "error"
    },
    {
      "inputs": [
        {
          "internalType": "address",
          "name": "owner",
          "type": "address"
        }
      ],
      "name": "OwnableInvalidOwner",
      "type": "error"
    },
    {
      "inputs": [
        {
          "internalType": "address",
          "name": "account",
          "type": "address"
        }
      ],
      "name": "OwnableUnauthorizedAccount",
      "type": "error"
    },
    {
      "anonymous": false,
      "inputs": [
        {
          "indexed": true,
          "internalType": "address",
          "name": "owner",
          "type": "address"
        },
        {
          "indexed": true,
          "internalType": "address",
          "name": "approved",
          "type": "address"
        },
        {
          "indexed": true,
          "internalType": "uint256",
          "name": "tokenId",
          "type": "uint256"
        }
      ],
      "name": "Approval",
      "type": "event"
    },
    {
      "anonymous": false,
      "inputs": [
        {
          "indexed": true,
          "internalType": "address",
          "name": "owner",
          "type": "address"
        },
        {
          "indexed": true,
          "internalType": "address",
          "name": "operator",
          "type": "address"
        },
        {
          "indexed": false,
          "internalType": "bool",
          "name": "approved",
          "type": "bool"
        }
      ],
      "name": "ApprovalForAll",
      "type": "event"
    },
    {
      "anonymous": false,
      "inputs": [
        {
          "indexed": false,
          "internalType": "uint256",
          "name": "_tokenId",
          "type": "uint256"
        }
      ],
      "name": "MetadataUpdate",
      "type": "event"
    },
    {
      "anonymous": false,
      "inputs": [
        {
          "indexed": true,
          "internalType": "address",
          "name": "previousOwner",
          "type": "address"
        },
        {
          "indexed": true,
          "internalType": "address",
          "name": "newOwner",
          "type": "address"
        }
      ],
      "name": "OwnershipTransferred",
      "type": "event"
    },
    {
      "anonymous": false,
      "inputs": [
        {
          "indexed": true,
          "internalType": "address",
          "name": "from",
          "type": "address"
        },
        {
          "indexed": true,
          "internalType": "address",
          "name": "to",
          "type": "address"
        },
        {
          "indexed": true,
          "internalType": "uint256",
          "name": "tokenId",
          "type": "uint256"
        }
      ],
      "name": "Transfer",
      "type": "event"
    },
    {
      "inputs": [
        {
          "internalType": "address",
          "name": "to",
          "type": "address"
        },
        {
          "internalType": "uint256",
          "name": "tokenId",
          "type": "uint256"
        }
      ],
      "name": "approve",
      "outputs": [],
      "stateMutability": "nonpayable",
      "type": "function"
    },
    {
      "inputs": [
        {
          "internalType": "address",
          "name": "owner",
          "type": "address"
        }
      ],
      "name": "balanceOf",
      "outputs": [
        {
          "internalType": "uint256",
          "name": "",
          "type": "uint256"
        }
      ],
      "stateMutability": "view",
      "type": "function"
    },
    {
      "inputs": [
        {
          "internalType": "string",
          "name": "_uuid",
          "type": "string"
        }
      ],
      "name": "fromUuid",
      "outputs": [
        {
          "internalType": "uint256",
          "name": "tokenId",
          "type": "uint256"
        }
      ],
      "stateMutability": "view",
      "type": "function"
    },
    {
      "inputs": [
        {
          "internalType": "uint256",
          "name": "tokenId",
          "type": "uint256"
        }
      ],
      "name": "getApproved",
      "outputs": [
        {
          "internalType": "address",
          "name": "",
          "type": "address"
        }
      ],
      "stateMutability": "view",
      "type": "function"
    },
    {
      "inputs": [
        {
          "internalType": "address",
          "name": "operator",
          "type": "address"
        }
      ],
      "name": "inventoryOf",
      "outputs": [
        {
          "internalType": "uint256[]",
          "name": "",
          "type": "uint256[]"
        }
      ],
      "stateMutability": "view",
      "type": "function"
    },
    {
      "inputs": [
        {
          "internalType": "address",
          "name": "owner",
          "type": "address"
        },
        {
          "internalType": "address",
          "name": "operator",
          "type": "address"
        }
      ],
      "name": "isApprovedForAll",
      "outputs": [
        {
          "internalType": "bool",
          "name": "",
          "type": "bool"
        }
      ],
      "stateMutability": "view",
      "type": "function"
    },
    {
      "inputs": [
        {
          "internalType": "address",
          "name": "to",
          "type": "address"
        },
        {
          "internalType": "string",
          "name": "_uuid",
          "type": "string"
        }
      ],
      "name": "mintTo",
      "outputs": [
        {
          "internalType": "uint256",
          "name": "",
          "type": "uint256"
        }
      ],
      "stateMutability": "nonpayable",
      "type": "function"
    },
    {
      "inputs": [],
      "name": "name",
      "outputs": [
        {
          "internalType": "string",
          "name": "",
          "type": "string"
        }
      ],
      "stateMutability": "view",
      "type": "function"
    },
    {
      "inputs": [],
      "name": "numTokens",
      "outputs": [
        {
          "internalType": "uint256",
          "name": "",
          "type": "uint256"
        }
      ],
      "stateMutability": "view",
      "type": "function"
    },
    {
      "inputs": [],
      "name": "owner",
      "outputs": [
        {
          "internalType": "address",
          "name": "",
          "type": "address"
        }
      ],
      "stateMutability": "view",
      "type": "function"
    },
    {
      "inputs": [
        {
          "internalType": "uint256",
          "name": "tokenId",
          "type": "uint256"
        }
      ],
      "name": "ownerOf",
      "outputs": [
        {
          "internalType": "address",
          "name": "",
          "type": "address"
        }
      ],
      "stateMutability": "view",
      "type": "function"
    },
    {
      "inputs": [],
      "name": "renounceOwnership",
      "outputs": [],
      "stateMutability": "nonpayable",
      "type": "function"
    },
    {
      "inputs": [
        {
          "internalType": "address",
          "name": "from",
          "type": "address"
        },
        {
          "internalType": "address",
          "name": "to",
          "type": "address"
        },
        {
          "internalType": "uint256",
          "name": "tokenId",
          "type": "uint256"
        }
      ],
      "name": "safeTransferFrom",
      "outputs": [],
      "stateMutability": "nonpayable",
      "type": "function"
    },
    {
      "inputs": [
        {
          "internalType": "address",
          "name": "from",
          "type": "address"
        },
        {
          "internalType": "address",
          "name": "to",
          "type": "address"
        },
        {
          "internalType": "uint256",
          "name": "tokenId",
          "type": "uint256"
        },
        {
          "internalType": "bytes",
          "name": "data",
          "type": "bytes"
        }
      ],
      "name": "safeTransferFrom",
      "outputs": [],
      "stateMutability": "nonpayable",
      "type": "function"
    },
    {
      "inputs": [
        {
          "internalType": "address",
          "name": "operator",
          "type": "address"
        },
        {
          "internalType": "bool",
          "name": "approved",
          "type": "bool"
        }
      ],
      "name": "setApprovalForAll",
      "outputs": [],
      "stateMutability": "nonpayable",
      "type": "function"
    },
    {
      "inputs": [
        {
          "internalType": "uint256",
          "name": "tokenId",
          "type": "uint256"
        },
        {
          "internalType": "string",
          "name": "newTokenURI",
          "type": "string"
        }
      ],
      "name": "setTokenURI",
      "outputs": [],
      "stateMutability": "nonpayable",
      "type": "function"
    },
    {
      "inputs": [
        {
          "internalType": "uint256",
          "name": "tokenId",
          "type": "uint256"
        },
        {
          "internalType": "string",
          "name": "_uuid",
          "type": "string"
        }
      ],
      "name": "setTokenUuid",
      "outputs": [],
      "stateMutability": "nonpayable",
      "type": "function"
    },
    {
      "inputs": [
        {
          "internalType": "bytes4",
          "name": "interfaceId",
          "type": "bytes4"
        }
      ],
      "name": "supportsInterface",
      "outputs": [
        {
          "internalType": "bool",
          "name": "",
          "type": "bool"
        }
      ],
      "stateMutability": "view",
      "type": "function"
    },
    {
      "inputs": [],
      "name": "symbol",
      "outputs": [
        {
          "internalType": "string",
          "name": "",
          "type": "string"
        }
      ],
      "stateMutability": "view",
      "type": "function"
    },
    {
      "inputs": [
        {
          "internalType": "uint256",
          "name": "tokenId",
          "type": "uint256"
        }
      ],
      "name": "tokenURI",
      "outputs": [
        {
          "internalType": "string",
          "name": "",
          "type": "string"
        }
      ],
      "stateMutability": "view",
      "type": "function"
    },
    {
      "inputs": [
        {
          "internalType": "address",
          "name": "from",
          "type": "address"
        },
        {
          "internalType": "address",
          "name": "to",
          "type": "address"
        },
        {
          "internalType": "uint256",
          "name": "tokenId",
          "type": "uint256"
        }
      ],
      "name": "transferFrom",
      "outputs": [],
      "stateMutability": "nonpayable",
      "type": "function"
    },
    {
      "inputs": [
        {
          "internalType": "address",
          "name": "newOwner",
          "type": "address"
        }
      ],
      "name": "transferOwnership",
      "outputs": [],
      "stateMutability": "nonpayable",
      "type": "function"
    },
    {
      "inputs": [
        {
          "internalType": "uint256",
          "name": "tokenId",
          "type": "uint256"
        }
      ],
      "name": "uuid",
      "outputs": [
        {
          "internalType": "string",
          "name": "",
          "type": "string"
        }
      ],
      "stateMutability": "view",
      "type": "function"
    }
  ],
  "bytecode": "0x60806040523480156200001157600080fd5b506040518060400160405280601481526020017f41686f7920546f6b656e697a656420426f617473000000000000000000000000815250604051806040016040528060048152602001631093d05560e21b815250818133828281600090816200007b9190620001c9565b5060016200008a8282620001c9565b5050506001600160a01b038116620000bc57604051631e4fbdf760e01b81526000600482015260240160405180910390fd5b620000c781620000d2565b505050505062000295565b600680546001600160a01b038381166001600160a01b0319831681179093556040519116919082907f8be0079c531659141344cd1fd0a4f28419497f9722a3daafe3b4186f6b6457e090600090a35050565b634e487b7160e01b600052604160045260246000fd5b600181811c908216806200014f57607f821691505b6020821081036200017057634e487b7160e01b600052602260045260246000fd5b50919050565b601f821115620001c457600081815260208120601f850160051c810160208610156200019f5750805b601f850160051c820191505b81811015620001c057828155600101620001ab565b5050505b505050565b81516001600160401b03811115620001e557620001e562000124565b620001fd81620001f684546200013a565b8462000176565b602080601f8311600181146200023557600084156200021c5750858301515b600019600386901b1c1916600185901b178555620001c0565b600085815260208120601f198616915b82811015620002665788860151825594840194600190910190840162000245565b5085821015620002855787850151600019600388901b60f8161c191681555b5050505050600190811b01905550565b61169480620002a56000396000f3fe608060405234801561001057600080fd5b506004361061014c5760003560e01c806370a08231116100c357806395d89b411161007c57806395d89b41146102c9578063a22cb465146102d1578063b88d4fde146102e4578063c87b56dd146102f7578063e985e9c51461030a578063f2fde38b1461031d57600080fd5b806370a0823114610261578063715018a6146102745780637eaebb151461027c5780638204691f1461029c5780638da5cb5b146102af5780638e499bcf146102c057600080fd5b8063095ea7b311610115578063095ea7b3146101ef578063162094c41461020257806323b872dd1461021557806342842e0e146102285780635740705b1461023b5780636352211e1461024e57600080fd5b806275a3171461015157806301ffc9a71461017757806306fdde031461019a578063081812fc146101af5780630930ff3a146101da575b600080fd5b61016461015f3660046110e0565b610330565b6040519081526020015b60405180910390f35b61018a610185366004611144565b6103b0565b604051901515815260200161016e565b6101a26103db565b60405161016e91906111b1565b6101c26101bd3660046111c4565b61046d565b6040516001600160a01b03909116815260200161016e565b6101ed6101e83660046111dd565b610496565b005b6101ed6101fd36600461120e565b6104bb565b6101ed6102103660046111dd565b6104ca565b6101ed610223366004611238565b6104dc565b6101ed610236366004611238565b610567565b6101a26102493660046111c4565b610582565b6101c261025c3660046111c4565b61061c565b61016461026f366004611274565b610627565b6101ed61066f565b61028f61028a366004611274565b610683565b60405161016e919061128f565b6101646102aa3660046112d3565b6107a6565b6006546001600160a01b03166101c2565b61016460085481565b6101a261082f565b6101ed6102df366004611308565b61083e565b6101ed6102f2366004611344565b610849565b6101a26103053660046111c4565b610860565b61018a6103183660046113c0565b61094a565b6101ed61032b366004611274565b610978565b600061033a6109b6565b6001600160a01b03831661036957604051633250574960e11b8152600060048201526024015b60405180910390fd5b60088054906000610379836113f3565b919050555061038a836008546109e3565b60085460009081526009602052604090206103a5838261149c565b505060085492915050565b60006001600160e01b03198216632483248360e11b14806103d557506103d582610a48565b92915050565b6060600080546103ea9061141a565b80601f01602080910402602001604051908101604052809291908181526020018280546104169061141a565b80156104635780601f1061043857610100808354040283529160200191610463565b820191906000526020600020905b81548152906001019060200180831161044657829003601f168201915b5050505050905090565b600061047882610a98565b506000828152600460205260409020546001600160a01b03166103d5565b61049e6109b6565b60008281526009602052604090206104b6828261149c565b505050565b6104c6828233610ad1565b5050565b6104d26109b6565b6104c68282610ade565b6001600160a01b03821661050657604051633250574960e11b815260006004820152602401610360565b6000610513838333610b2e565b9050836001600160a01b0316816001600160a01b031614610561576040516364283d7b60e01b81526001600160a01b0380861660048301526024820184905282166044820152606401610360565b50505050565b6104b683838360405180602001604052806000815250610849565b6009602052600090815260409020805461059b9061141a565b80601f01602080910402602001604051908101604052809291908181526020018280546105c79061141a565b80156106145780601f106105e957610100808354040283529160200191610614565b820191906000526020600020905b8154815290600101906020018083116105f757829003601f168201915b505050505081565b60006103d582610a98565b60006001600160a01b038216610653576040516322718ad960e21b815260006004820152602401610360565b506001600160a01b031660009081526003602052604090205490565b6106776109b6565b6106816000610c27565b565b60606001600160a01b0382166106b757604051630b61174360e31b81526001600160a01b0383166004820152602401610360565b60006106c283610627565b9050806000036106e2575050604080516000815260208101909152919050565b60008167ffffffffffffffff8111156106fd576106fd61102d565b604051908082528060200260200182016040528015610726578160200160208202803683370190505b509050600060015b600854811161079657856001600160a01b031661074a8261061c565b6001600160a01b031603610784578083838151811061076b5761076b61155c565b602090810291909101015281610780816113f3565b9250505b8061078e816113f3565b91505061072e565b5090949350505050565b50919050565b60015b600854811161082757816040516020016107c39190611572565b60408051601f1981840301815282825280516020918201206000858152600983529290922091926107f592910161158e565b604051602081830303815290604052805190602001200361081557919050565b8061081f816113f3565b9150506107a9565b506000919050565b6060600180546103ea9061141a565b6104c6338383610c79565b6108548484846104dc565b61056184848484610d18565b6060600061086d8361061c565b6001600160a01b0316036108ac5760405162461bcd60e51b8152602060048201526006602482015265085bdddb995960d21b6044820152606401610360565b600082815260076020526040902080546108c59061141a565b80601f01602080910402602001604051908101604052809291908181526020018280546108f19061141a565b801561093e5780601f106109135761010080835404028352916020019161093e565b820191906000526020600020905b81548152906001019060200180831161092157829003601f168201915b50505050509050919050565b6001600160a01b03918216600090815260056020908152604080832093909416825291909152205460ff1690565b6109806109b6565b6001600160a01b0381166109aa57604051631e4fbdf760e01b815260006004820152602401610360565b6109b381610c27565b50565b6006546001600160a01b031633146106815760405163118cdaa760e01b8152336004820152602401610360565b6001600160a01b038216610a0d57604051633250574960e11b815260006004820152602401610360565b6000610a1b83836000610b2e565b90506001600160a01b038116156104b6576040516339e3563760e11b815260006004820152602401610360565b60006001600160e01b031982166380ac58cd60e01b1480610a7957506001600160e01b03198216635b5e139f60e01b145b806103d557506301ffc9a760e01b6001600160e01b03198316146103d5565b6000818152600260205260408120546001600160a01b0316806103d557604051637e27328960e01b815260048101849052602401610360565b6104b68383836001610e41565b6000828152600760205260409020610af6828261149c565b506040518281527ff8e1a15aba9398e019f0b49df1a4fde98ee17ae345cb5f6b5e2c27f5033e8ce79060200160405180910390a15050565b6000828152600260205260408120546001600160a01b0390811690831615610b5b57610b5b818486610f47565b6001600160a01b03811615610b9957610b78600085600080610e41565b6001600160a01b038116600090815260036020526040902080546000190190555b6001600160a01b03851615610bc8576001600160a01b0385166000908152600360205260409020805460010190555b60008481526002602052604080822080546001600160a01b0319166001600160a01b0389811691821790925591518793918516917fddf252ad1be2c89b69c2b068fc378daa952ba7f163c4a11628f55a4df523b3ef91a4949350505050565b600680546001600160a01b038381166001600160a01b0319831681179093556040519116919082907f8be0079c531659141344cd1fd0a4f28419497f9722a3daafe3b4186f6b6457e090600090a35050565b6001600160a01b038216610cab57604051630b61174360e31b81526001600160a01b0383166004820152602401610360565b6001600160a01b03838116600081815260056020908152604080832094871680845294825291829020805460ff191686151590811790915591519182527f17307eab39ab6107e8899845ad3d59bd9653f200f220920489ca2b5937696c31910160405180910390a3505050565b6001600160a01b0383163b1561056157604051630a85bd0160e11b81526001600160a01b0384169063150b7a0290610d5a903390889087908790600401611604565b6020604051808303816000875af1925050508015610d95575060408051601f3d908101601f19168201909252610d9291810190611641565b60015b610dfe573d808015610dc3576040519150601f19603f3d011682016040523d82523d6000602084013e610dc8565b606091505b508051600003610df657604051633250574960e11b81526001600160a01b0385166004820152602401610360565b805181602001fd5b6001600160e01b03198116630a85bd0160e11b14610e3a57604051633250574960e11b81526001600160a01b0385166004820152602401610360565b5050505050565b8080610e5557506001600160a01b03821615155b15610f17576000610e6584610a98565b90506001600160a01b03831615801590610e915750826001600160a01b0316816001600160a01b031614155b8015610ea45750610ea2818461094a565b155b15610ecd5760405163a9fbf51f60e01b81526001600160a01b0384166004820152602401610360565b8115610f155783856001600160a01b0316826001600160a01b03167f8c5be1e5ebec7d5bd14f71427d1e84f3dd0314c0f7b2291e5b200ac8c7c3b92560405160405180910390a45b505b5050600090815260046020526040902080546001600160a01b0319166001600160a01b0392909216919091179055565b610f52838383610fab565b6104b6576001600160a01b038316610f8057604051637e27328960e01b815260048101829052602401610360565b60405163177e802f60e01b81526001600160a01b038316600482015260248101829052604401610360565b60006001600160a01b038316158015906110095750826001600160a01b0316846001600160a01b03161480610fe55750610fe5848461094a565b8061100957506000828152600460205260409020546001600160a01b038481169116145b949350505050565b80356001600160a01b038116811461102857600080fd5b919050565b634e487b7160e01b600052604160045260246000fd5b600067ffffffffffffffff8084111561105e5761105e61102d565b604051601f8501601f19908116603f011681019082821181831017156110865761108661102d565b8160405280935085815286868601111561109f57600080fd5b858560208301376000602087830101525050509392505050565b600082601f8301126110ca57600080fd5b6110d983833560208501611043565b9392505050565b600080604083850312156110f357600080fd5b6110fc83611011565b9150602083013567ffffffffffffffff81111561111857600080fd5b611124858286016110b9565b9150509250929050565b6001600160e01b0319811681146109b357600080fd5b60006020828403121561115657600080fd5b81356110d98161112e565b60005b8381101561117c578181015183820152602001611164565b50506000910152565b6000815180845261119d816020860160208601611161565b601f01601f19169290920160200192915050565b6020815260006110d96020830184611185565b6000602082840312156111d657600080fd5b5035919050565b600080604083850312156111f057600080fd5b82359150602083013567ffffffffffffffff81111561111857600080fd5b6000806040838503121561122157600080fd5b61122a83611011565b946020939093013593505050565b60008060006060848603121561124d57600080fd5b61125684611011565b925061126460208501611011565b9150604084013590509250925092565b60006020828403121561128657600080fd5b6110d982611011565b6020808252825182820181905260009190848201906040850190845b818110156112c7578351835292840192918401916001016112ab565b50909695505050505050565b6000602082840312156112e557600080fd5b813567ffffffffffffffff8111156112fc57600080fd5b611009848285016110b9565b6000806040838503121561131b57600080fd5b61132483611011565b91506020830135801515811461133957600080fd5b809150509250929050565b6000806000806080858703121561135a57600080fd5b61136385611011565b935061137160208601611011565b925060408501359150606085013567ffffffffffffffff81111561139457600080fd5b8501601f810187136113a557600080fd5b6113b487823560208401611043565b91505092959194509250565b600080604083850312156113d357600080fd5b6113dc83611011565b91506113ea60208401611011565b90509250929050565b60006001820161141357634e487b7160e01b600052601160045260246000fd5b5060010190565b600181811c9082168061142e57607f821691505b6020821081036107a057634e487b7160e01b600052602260045260246000fd5b601f8211156104b657600081815260208120601f850160051c810160208610156114755750805b601f850160051c820191505b8181101561149457828155600101611481565b505050505050565b815167ffffffffffffffff8111156114b6576114b661102d565b6114ca816114c4845461141a565b8461144e565b602080601f8311600181146114ff57600084156114e75750858301515b600019600386901b1c1916600185901b178555611494565b600085815260208120601f198616915b8281101561152e5788860151825594840194600190910190840161150f565b508582101561154c5787850151600019600388901b60f8161c191681555b5050505050600190811b01905550565b634e487b7160e01b600052603260045260246000fd5b60008251611584818460208701611161565b9190910192915050565b600080835461159c8161141a565b600182811680156115b457600181146115c9576115f8565b60ff19841687528215158302870194506115f8565b8760005260208060002060005b858110156115ef5781548a8201529084019082016115d6565b50505082870194505b50929695505050505050565b6001600160a01b038581168252841660208201526040810183905260806060820181905260009061163790830184611185565b9695505050505050565b60006020828403121561165357600080fd5b81516110d98161112e56fea26469706673582212203e0505913b32ca35faa61599062a307a43f52d0a4555333a6df73ea396a68f5864736f6c63430008140033",
  "linkReferences": {},
  "deployedLinkReferences": {}
}