{
  "_format": "hh-sol-artifact-1",
  "contractName": "USDCoin",
  "sourceName": "src/backend/contracts/mocks/Mock20.sol",
  "abi": [
    {
      "inputs": [],
      "stateMutability": "nonpayable",
      "type": "constructor"
    },
    {
      "inputs": [
        {
          "internalType": "address",
          "name": "spender",
          "type": "address"
        },
        {
          "internalType": "uint256",
          "name": "allowance",
          "type": "uint256"
        },
        {
          "internalType": "uint256",
          "name": "needed",
          "type": "uint256"
        }
      ],
      "name": "ERC20InsufficientAllowance",
      "type": "error"
    },
    {
      "inputs": [
        {
          "internalType": "address",
          "name": "sender",
          "type": "address"
        },
        {
          "internalType": "uint256",
          "name": "balance",
          "type": "uint256"
        },
        {
          "internalType": "uint256",
          "name": "needed",
          "type": "uint256"
        }
      ],
      "name": "ERC20InsufficientBalance",
      "type": "error"
    },
    {
      "inputs": [
        {
          "internalType": "address",
          "name": "approver",
          "type": "address"
        }
      ],
      "name": "ERC20InvalidApprover",
      "type": "error"
    },
    {
      "inputs": [
        {
          "internalType": "address",
          "name": "receiver",
          "type": "address"
        }
      ],
      "name": "ERC20InvalidReceiver",
      "type": "error"
    },
    {
      "inputs": [
        {
          "internalType": "address",
          "name": "sender",
          "type": "address"
        }
      ],
      "name": "ERC20InvalidSender",
      "type": "error"
    },
    {
      "inputs": [
        {
          "internalType": "address",
          "name": "spender",
          "type": "address"
        }
      ],
      "name": "ERC20InvalidSpender",
      "type": "error"
    },
    {
      "anonymous": false,
      "inputs": [
        {
          "indexed": true,
          "internalType": "address",
          "name": "owner",
          "type": "address"
        },
        {
          "indexed": true,
          "internalType": "address",
          "name": "spender",
          "type": "address"
        },
        {
          "indexed": false,
          "internalType": "uint256",
          "name": "value",
          "type": "uint256"
        }
      ],
      "name": "Approval",
      "type": "event"
    },
    {
      "anonymous": false,
      "inputs": [
        {
          "indexed": true,
          "internalType": "address",
          "name": "from",
          "type": "address"
        },
        {
          "indexed": true,
          "internalType": "address",
          "name": "to",
          "type": "address"
        },
        {
          "indexed": false,
          "internalType": "uint256",
          "name": "value",
          "type": "uint256"
        }
      ],
      "name": "Transfer",
      "type": "event"
    },
    {
      "inputs": [
        {
          "internalType": "address",
          "name": "owner",
          "type": "address"
        },
        {
          "internalType": "address",
          "name": "spender",
          "type": "address"
        }
      ],
      "name": "allowance",
      "outputs": [
        {
          "internalType": "uint256",
          "name": "",
          "type": "uint256"
        }
      ],
      "stateMutability": "view",
      "type": "function"
    },
    {
      "inputs": [
        {
          "internalType": "address",
          "name": "spender",
          "type": "address"
        },
        {
          "internalType": "uint256",
          "name": "value",
          "type": "uint256"
        }
      ],
      "name": "approve",
      "outputs": [
        {
          "internalType": "bool",
          "name": "",
          "type": "bool"
        }
      ],
      "stateMutability": "nonpayable",
      "type": "function"
    },
    {
      "inputs": [
        {
          "internalType": "address",
          "name": "account",
          "type": "address"
        }
      ],
      "name": "balanceOf",
      "outputs": [
        {
          "internalType": "uint256",
          "name": "",
          "type": "uint256"
        }
      ],
      "stateMutability": "view",
      "type": "function"
    },
    {
      "inputs": [],
      "name": "decimals",
      "outputs": [
        {
          "internalType": "uint8",
          "name": "",
          "type": "uint8"
        }
      ],
      "stateMutability": "view",
      "type": "function"
    },
    {
      "inputs": [],
      "name": "name",
      "outputs": [
        {
          "internalType": "string",
          "name": "",
          "type": "string"
        }
      ],
      "stateMutability": "view",
      "type": "function"
    },
    {
      "inputs": [],
      "name": "quickMint",
      "outputs": [
        {
          "internalType": "bool",
          "name": "",
          "type": "bool"
        }
      ],
      "stateMutability": "nonpayable",
      "type": "function"
    },
    {
      "inputs": [],
      "name": "symbol",
      "outputs": [
        {
          "internalType": "string",
          "name": "",
          "type": "string"
        }
      ],
      "stateMutability": "view",
      "type": "function"
    },
    {
      "inputs": [],
      "name": "totalSupply",
      "outputs": [
        {
          "internalType": "uint256",
          "name": "",
          "type": "uint256"
        }
      ],
      "stateMutability": "view",
      "type": "function"
    },
    {
      "inputs": [
        {
          "internalType": "address",
          "name": "to",
          "type": "address"
        },
        {
          "internalType": "uint256",
          "name": "value",
          "type": "uint256"
        }
      ],
      "name": "transfer",
      "outputs": [
        {
          "internalType": "bool",
          "name": "",
          "type": "bool"
        }
      ],
      "stateMutability": "nonpayable",
      "type": "function"
    },
    {
      "inputs": [
        {
          "internalType": "address",
          "name": "from",
          "type": "address"
        },
        {
          "internalType": "address",
          "name": "to",
          "type": "address"
        },
        {
          "internalType": "uint256",
          "name": "value",
          "type": "uint256"
        }
      ],
      "name": "transferFrom",
      "outputs": [
        {
          "internalType": "bool",
          "name": "",
          "type": "bool"
        }
      ],
      "stateMutability": "nonpayable",
      "type": "function"
    }
  ],
  "bytecode": "0x6080604052620000126012600a620001b1565b6200002090612710620001c9565b6005553480156200003057600080fd5b50604051806040016040528060088152602001672aa9a21021b7b4b760c11b815250604051806040016040528060048152602001635553444360e01b8152508181816003908162000082919062000288565b50600462000091828262000288565b505050505062000354565b634e487b7160e01b600052601160045260246000fd5b600181815b80851115620000f3578160001904821115620000d757620000d76200009c565b80851615620000e557918102915b93841c9390800290620000b7565b509250929050565b6000826200010c57506001620001ab565b816200011b57506000620001ab565b81600181146200013457600281146200013f576200015f565b6001915050620001ab565b60ff8411156200015357620001536200009c565b50506001821b620001ab565b5060208310610133831016604e8410600b841016171562000184575081810a620001ab565b620001908383620000b2565b8060001904821115620001a757620001a76200009c565b0290505b92915050565b6000620001c260ff841683620000fb565b9392505050565b8082028115828204841417620001ab57620001ab6200009c565b634e487b7160e01b600052604160045260246000fd5b600181811c908216806200020e57607f821691505b6020821081036200022f57634e487b7160e01b600052602260045260246000fd5b50919050565b601f8211156200028357600081815260208120601f850160051c810160208610156200025e5750805b601f850160051c820191505b818110156200027f578281556001016200026a565b5050505b505050565b81516001600160401b03811115620002a457620002a4620001e3565b620002bc81620002b58454620001f9565b8462000235565b602080601f831160018114620002f45760008415620002db5750858301515b600019600386901b1c1916600185901b1785556200027f565b600085815260208120601f198616915b82811015620003255788860151825594840194600190910190840162000304565b5085821015620003445787850151600019600388901b60f8161c191681555b5050505050600190811b01905550565b61079d80620003646000396000f3fe608060405234801561001057600080fd5b506004361061009e5760003560e01c806370a082311161006657806370a082311461011857806395d89b4114610141578063a9059cbb14610149578063dd62ed3e1461015c578063eb62c51f1461019557600080fd5b806306fdde03146100a3578063095ea7b3146100c157806318160ddd146100e457806323b872dd146100f6578063313ce56714610109575b600080fd5b6100ab61019d565b6040516100b891906105e7565b60405180910390f35b6100d46100cf366004610651565b61022f565b60405190151581526020016100b8565b6002545b6040519081526020016100b8565b6100d461010436600461067b565b610249565b604051601281526020016100b8565b6100e86101263660046106b7565b6001600160a01b031660009081526020819052604090205490565b6100ab61026d565b6100d4610157366004610651565b61027c565b6100e861016a3660046106d9565b6001600160a01b03918216600090815260016020908152604080832093909416825291909152205490565b6100d461028a565b6060600380546101ac9061070c565b80601f01602080910402602001604051908101604052809291908181526020018280546101d89061070c565b80156102255780601f106101fa57610100808354040283529160200191610225565b820191906000526020600020905b81548152906001019060200180831161020857829003601f168201915b5050505050905090565b60003361023d8185856102ba565b60019150505b92915050565b6000336102578582856102cc565b61026285858561034f565b506001949350505050565b6060600480546101ac9061070c565b60003361023d81858561034f565b60008060055461029960025490565b6102a39190610746565b90506102b1336005546103ae565b60025414919050565b6102c783838360016103e8565b505050565b6001600160a01b038381166000908152600160209081526040808320938616835292905220546000198114610349578181101561033a57604051637dc7a0d960e11b81526001600160a01b038416600482015260248101829052604481018390526064015b60405180910390fd5b610349848484840360006103e8565b50505050565b6001600160a01b03831661037957604051634b637e8f60e11b815260006004820152602401610331565b6001600160a01b0382166103a35760405163ec442f0560e01b815260006004820152602401610331565b6102c78383836104bd565b6001600160a01b0382166103d85760405163ec442f0560e01b815260006004820152602401610331565b6103e4600083836104bd565b5050565b6001600160a01b0384166104125760405163e602df0560e01b815260006004820152602401610331565b6001600160a01b03831661043c57604051634a1406b160e11b815260006004820152602401610331565b6001600160a01b038085166000908152600160209081526040808320938716835292905220829055801561034957826001600160a01b0316846001600160a01b03167f8c5be1e5ebec7d5bd14f71427d1e84f3dd0314c0f7b2291e5b200ac8c7c3b925846040516104af91815260200190565b60405180910390a350505050565b6001600160a01b0383166104e85780600260008282546104dd9190610746565b9091555061055a9050565b6001600160a01b0383166000908152602081905260409020548181101561053b5760405163391434e360e21b81526001600160a01b03851660048201526024810182905260448101839052606401610331565b6001600160a01b03841660009081526020819052604090209082900390555b6001600160a01b03821661057657600280548290039055610595565b6001600160a01b03821660009081526020819052604090208054820190555b816001600160a01b0316836001600160a01b03167fddf252ad1be2c89b69c2b068fc378daa952ba7f163c4a11628f55a4df523b3ef836040516105da91815260200190565b60405180910390a3505050565b600060208083528351808285015260005b81811015610614578581018301518582016040015282016105f8565b506000604082860101526040601f19601f8301168501019250505092915050565b80356001600160a01b038116811461064c57600080fd5b919050565b6000806040838503121561066457600080fd5b61066d83610635565b946020939093013593505050565b60008060006060848603121561069057600080fd5b61069984610635565b92506106a760208501610635565b9150604084013590509250925092565b6000602082840312156106c957600080fd5b6106d282610635565b9392505050565b600080604083850312156106ec57600080fd5b6106f583610635565b915061070360208401610635565b90509250929050565b600181811c9082168061072057607f821691505b60208210810361074057634e487b7160e01b600052602260045260246000fd5b50919050565b8082018082111561024357634e487b7160e01b600052601160045260246000fdfea2646970667358221220961146d684cf109ceb3a779f2e2fe95038e409ae3157825bd3fd385f98d817b964736f6c63430008140033",
  "linkReferences": {},
  "deployedLinkReferences": {}
}